:020000040800F2
:1000000000D30024E103000829D30008319E000832
:1000100059D1000831110008A109010800000000B1
:10002000000000000000000000000000A1E3000844
:10003000E91C000800000000E1DB000831F70008BF
:10004000FF030008FF030008FF030008FF03000888
:10005000FF030008FF030008FF030008FF03000878
:10006000FF030008FF030008FF030008FF03000868
:10007000FF030008011800081118000821180008E3
:1000800031180008FF030008FF030008A92000083A
:10009000C9200008B9200008D9200008FF03000883
:1000A000FF030008FF030008FF030008FF03000828
:1000B000F1F80008FF030008FF030008FF03000831
:1000C000FF030008FF030008FF030008FF03000808
:1000D000FF0300083105010841060108FF0300087D
:1000E000FF030008FF03000800000000FF030008F2
:1000F000FF030008FF030008FF030008FF030008D8
:10010000FF030008FF030008FF030008FF030008C7
:10011000FF03000871FB0008FF030008FF0300084D
:100120004118000851180008FF030008FF030008E9
:10013000FF030008FF030008FF030008FF03000897
:1001400000000000000000000000000000000000AF
:10015000FF030008FF03000861180008FF03000800
:10016000FF030008FF030008FF030008FF03000867
:10017000FF030008FF030008FF0300080000000061
:10018000FF030008FF030008FF030008FF03000847
:10019000FF030008FF030008FF030008FF03000837
:1001A000FF030008FF030008FF0300080000000031
:1001B000FF030008FF030008FF030008FF03000817
:1001C000FF030008FF03000800000000000000001B
:1001D0000000000000000000FF0300080000000015
:1001E000000000000000000000000000000000000F
:1001F0000000000000000000FF030008FF030008EB
:10020000FF030008FF03000800000000FF030008D0
:10021000FF030008FF030008FF030008FF030008B6
:10022000FF03000800000000FF03000800000000BA
:10023000FF030008FF03000800000000FF030008A0
:10024000FF030008FF030008FF030008FF03000886
:10025000FF030008FF030008FF030008FF03000876
:10026000FF030008FF030008FF030008FF03000866
:10027000FF030008FF030008FF0300080000000060
:10028000FF030008FF030008FF030008FF03000846
:1002900000000000FF030008FF030008000000004A
:1002A00000000000FF030008FF030008FF03000830
:1002B000FF030008FF030008FF030008E92000080F
:1002C000F9200008FF030008FF03000800F002F80F
:1002D00000F076F814A696E8000CB244B344DA4570
:1002E00001D100F06DF8BAE80F000FA696E83000D3
:1002F000A5EB040504EB0607AAEB0704A7F1010729
:100300004FEA15154FEA3414A4F10104AC4201D3AD
:1003100000F056F813F0010F18BFFB1A43F0010369
:1003200000F001F8DBE7184784450100A44501000F
:100330000A4410F8013B13F0030408BF10F8014B06
:100340001D1108BF10F8015B641E05D010F8016B89
:10035000641E01F8016BF9D1002D15D010F8014B86
:1003600003F00C030C2BA1EB04040ABF10F8013BB3
:10037000A4EB8314A4EB032405F1010314F8016B2F
:100380005B1E01F8016BF9D5914238BF10F8013BB3
:10039000D1D37047704700000023002400250026B9
:1003A000103A28BF78C1FBD8520728BF30C148BFD8
:1003B0000B6070471FB513F040FB1FBD10B510BD9B
:1003C00000F043F91146FFF7F5FF11F0F5FC00F0DE
:1003D00061F903B4FFF7F2FF03BC00F027F9000056
:1003E0000A4880470A4880470A480047FEE7FEE778
:1003F000FEE7FEE7FEE7FEE7FEE7FEE7FEE7FEE7D5
:1004000005480649064A074B704700008920000846
:1004100019F80008CD02000800C9002400D3002408
:1004200000CB002400CB002453EA020C00F06980CA
:100430002DE9F04B4FF00006002B1FBFB3FA83F5F8
:1004400003FA05F424FA05F65E4012BF1643B2FA29
:1004500082F502FA05F4C5F120051EBF22FA05FC5B
:1004600044EA0C04203556EA044C4FEA144418BF01
:10047000641C4FF000084FF00009904271EB030C30
:1004800039D3002919BFB1FA81F701FA07F6B0FA9A
:1004900080F700FA07F6C7F120071EBF20FA07FC15
:1004A00046EA0C062037B6FBF4FCA7EB0507103F25
:1004B00007F01F0BCBF120062CFA06F60CFA0BFB0B
:1004C00044BFB3460026202FA4BF5E464FF0000B6A
:1004D0005BEA060C08BF4FF0010B19EB0B0948EB68
:1004E0000608ABFB027C06FB02CC0BFB03CCC01B5B
:1004F00071EB0C01C1E70B46024641464846BDE898
:10050000F08B13B5084318BF4FF0FF300146AFF32F
:100510000080BDE81C40704710B5203AC0F00B8049
:10052000B1E81850A0E81850B1E81850A0E81850E9
:10053000203ABFF4F5AF5FEA027C24BFB1E818505F
:10054000A0E8185044BF18C918C0BDE810405FEAC1
:10055000827C24BF51F8043B40F8043B08BF70473D
:10056000D20728BF31F8023B48BF11F8012B28BF42
:1005700020F8023B48BF00F8012B70474FF0000203
:100580000429C0F0128010F0030C00F01B80CCF1A5
:10059000040CBCF1020F18BF00F8012BA8BF20F813
:1005A000022BA1EB0C0100F00DB85FEAC17C24BF67
:1005B00000F8012B00F8012B48BF00F8012B704711
:1005C0004FF0000200B5134694469646203922BFEC
:1005D000A0E80C50A0E80C50B1F12001BFF4F7AF37
:1005E000090728BFA0E80C5048BF0CC05DF804EB19
:1005F000890028BF40F8042B08BF704748BF20F887
:10060000022B11F0804F18BF00F8012B7047704784
:100610007047704710B500F013F8006810BD10B5B2
:10062000044600F00DF8046010BD000001491820D8
:10063000ABBEFEE726000200004870470806002413
:10064000004870470806002470477546FFF7F4FF1E
:10065000AE4605006946534620F00700854618B0AF
:1006600020B5FFF7CDFEBDE820404FF000064FF06B
:1006700000074FF000084FF0000BAC46ACE8C00993
:10068000ACE8C009ACE8C009ACE8C00921F007013A
:100690008D46704710B50446AFF300802046BDE894
:1006A0001040FFF796BE000010B50446006842F205
:1006B000001140F48070C4F20201884204D142F279
:1006C0000830C4F2020003E046F20830C5F602002A
:1006D000006810F4403F0FD006F08AFD6168B1F564
:1006E000803F05D0B1F5403F21D0B1F5003F1FD18B
:1006F000090CB0FBF1F01BE04FF40020002105F0E5
:10070000C7FD6168A1F580224FEAB2420A2A0FD8DC
:10071000DFE802F00606060606063C3A40383E00D0
:100720006FF0010202EA5141B0FBF1F000E08008F5
:100730004BF62141C0F2BE01884205D8206881688D
:1007400021F44071816010BD47F64101C0F27D1176
:10075000884206D820680122816862F309218160FD
:1007600010BD21684FF28102C0F2FA2290428868DF
:1007700004D8022262F30920886010BD40F4407062
:10078000886010BDC009D3E74009D1E70009CFE771
:10079000000ACDE78009CBE770B50446006882689F
:1007A000836802F0040203F00803D21861D0C26823
:1007B000920115D5627E012A12D1227E012A0FD123
:1007C0000168490609D44DF60141C0F20C0100BF91
:1007D000013944D002685206FAD540210160012156
:1007E000022911D0826852070AD58268920707D47D
:1007F0004FF6C0738268C7F6FF731A4010328260EA
:10080000012901D1042614E0826812070AD5826802
:10081000920707D44FF6C0738268C7F6FF731A4079
:10082000203282600426022908BF0826032908BF57
:100830000C2605F031FA21688968314219D0054645
:1008400004E000BF20688068304212D005F024FA2E
:10085000401B0628F6D3206880683042F2D0206E14
:1008600040F010002066606E40F0010060660120DC
:1008700070BD002070BD0000B0B5016804468A68F4
:100880008868C0074FF0000032D012F0020218BF93
:10089000B0BD886800F00D00012820D14FF6C0726D
:1008A0008868C7F6FF721040023088600320086035
:1008B00005F0F2F921688968C90701D10020B0BDAF
:1008C000054603E020688068C007F7D005F0E4F92A
:1008D000401B0328F6D320688068C007F2D0206E42
:1008E00040F010002066606E40F00100606601205C
:1008F000B0BD000000000000F0B581B00446006803
:100900008168C9074BD14FF6C0778168C7F6FF777A
:1009100007F17F0211420AD0206E40F010002066DD
:10092000606E40F001006066012001B0F0BD81689A
:10093000394041F00101816005F0AEF942F2000258
:1009400046F20836C4F20202216802F5807302F50D
:100950004275C5F60206994208BF2E46914208BF6D
:100960002E4699420546306815D110F01F0016D169
:1009700011E000BF8168C90704D18168394041F0A6
:100980000101816005F088F9401B032803D320682A
:100990000068C007C0D020680168C907EAD00020FD
:1009A00001B0F0BD0000000080B547F6E0304CF229
:1009B0002631C2F20040C2F200414FF4807208F0CA
:1009C000FBFB47F2107040F20F41C2F20040C4F24C
:1009D0000201006888426FF0080110DC6F22C4F247
:1009E0000202904220DC3F22C4F20202904236DC36
:1009F0001022C4F20202904256D028224EE040F269
:100A00006F42C4F2020290421ADC40F23F42C4F24A
:100A1000020290422ADC40F21042C4F202029042EA
:100A200042D040F2284239E09F22C4F202029042B2
:100A300025DC7022C4F20202904235D088222DE0DB
:100A400040F29F42C4F2020290421FDC40F2704228
:100A5000C4F20202904227D040F288421EE04022B7
:100A6000C4F2020290421FD0582217E040F24042E6
:100A7000C4F20202904217D040F258420EE0A02287
:100A8000C4F2020290420FD0B82207E040F2A04226
:100A9000C4F20202904207D040F2B842C4F202020D
:100AA000904218BF6FF0040102681140016080BDE0
:100AB0004CF22630C2F200400178AA2940F054815D
:100AC00090F83F10FE2918BF7047F0B581B0457F00
:100AD00047F2AA27B0F90110C2F20047B0F903307B
:100AE000EC09C5F3001200EE101AC5F3411102EE35
:100AF000103AC5F3810640F2A06CC5F340053D7085
:100B000046F67875B8EEC01AC2F20045B8EEC22AB1
:100B10009FED960AB0F91B302C7047F2AE24C2F25A
:100B20000044C2F2004CB0F919E081EE001A2170C5
:100B30004CF29451C2F2004182EE002A8CED001A70
:100B400001EE103A8CED012A02EE10EA0A704CF226
:100B50009651C2F2004147F2AC37B8EEC11AC2F268
:100B60000047B8EEC22A0E70C18B47F2E4133980F9
:100B700047F2AC2781EE001AC2F20043C2F20047EE
:100B800082EE002A46F68472018C83ED072A9FEDDF
:100B9000782AC2F20042398090F8221021EE021A1F
:100BA00082ED061A90F8237001EE101A4CF24841BB
:100BB000C2F2004190F8255090F8264093ED022AA9
:100BC000B8EE411A90F8246081ED001A07F00F0189
:100BD00048F254072D02C2F2004793ED011A21EEAC
:100BE000001A92ED013A398047F6EC77C2F20047DD
:100BF00045EA0441314490F82960396048F2CD0754
:100C0000C2F2004790F8271022EE002A48F2DC04D6
:100C1000397040F24451C2F20041F709BDEEC11AE9
:100C2000C2F200440F704CF29557C6F38401C2F231
:100C3000004723EE000A92ED024A39704CF29751B8
:100C4000C6F34007C2F200419FED4A3ABDEEC22A08
:100C50000F7048F2CC07C2F2004706F0010124EE03
:100C6000033A40F29C62397090F82A108CF8081010
:100C700090F82B108CF809104BF62451C2F2004169
:100C800090F82C00BDEEC00AC2F200420870AB2002
:100C90002070FD2084F83F0011EE100ABDEEC33A2B
:100CA0001278A4F8190012EE100A0025A4F81B000F
:100CB00010EE100AA4F81D0013EE100AA4F81F008D
:100CC00040F2E060C2F20040017B437841F007014E
:100CD000017347F2C820C2F2004080F8805043EA16
:100CE000C21040F0380084F8210009F0D9FF84F8E0
:100CF000230009F0D5FF000A84F8240009F0C0FFA2
:100D000084F8270009F0BCFF000A84F8280009F0E5
:100D1000BFFF84F8290009F0BBFF000A84F82A000D
:100D200009F0A6FF84F82B0009F0A2FF84F82C50EC
:100D30000AF04AF884F82D0040F28050C2F20040D8
:100D40000122017847F69870C2F2004084F82E1014
:100D50002146027047F6E030C2F20040402201B066
:100D6000BDE8F04009F008B8704700BF00007A44C1
:100D7000EC51383E0000C84240F600000121C5F6A3
:100D80000200012204F080BF40F600000121C5F6F8
:100D90000200002204F078BF70470000000000004D
:100DA00040F600000821C5F60200012204F06CBFE5
:100DB00040F600000821C5F60200002204F064BFDE
:100DC0007047000000000000002808BF704710B501
:100DD0004EF2180145F2003CCEF20001C0F2070CC1
:100DE00051F804EC0B6800220C689C42FCD01A44B9
:100DF0009C42A2EB0402234628BF72446245F3D30F
:100E000001380204ECD1BDE810407047000000003A
:100E100080B54EF21801C0EB0010CEF200014FEA8F
:100E2000401E002351F804CC0A6800BF08689042B5
:100E3000FCD013449042A3EB0003024628BF634456
:100E40007345F3D380BD000010B5FFF7A5FFFFF792
:100E5000B7FF10F029FD044610F0B2FD204310BD8D
:100E60002DE9F04383B00023019390460E4681465E
:100E70000093FFF789FF922000F0AAF8922000F07B
:100E8000A7F868460624451E2F4600BF552000F0EF
:100E90009FF8013C07F8010F2006F7D1FFF76CFF20
:100EA000BDF90000BDF90420BDF9021000EE100AE2
:100EB00040F20000C2F20040B8EEC00A90ED001A05
:100EC00021EE000A01EE101A86ED000A00EE102A4B
:100ED00090ED002AB8EEC11AB8EEC00A22EE011A4F
:100EE00022EE000A86ED011A86ED020AFFF760FF86
:100EF000802000F06DF808242E4600BF552000F039
:100F000067F8013C06F8010F2006F7D1FFF748FF0C
:100F10009DF800000F2825D1BDF90200BDF904108D
:100F2000BDF9062000EE100A40F20400C2F20040B3
:100F3000B8EEC00A90ED001A21EE000A01EE101A78
:100F400089ED000A00EE102A90ED002AB8EEC11AD1
:100F5000B8EEC00A22EE011A22EE000A89ED011A4B
:100F600089ED020AFFF710FFA22000F031F8A2205D
:100F700000F02EF8022400BF552000F029F8013CB3
:100F800005F8010F2006F7D1FFF7F6FE9DF90000E6
:100F9000B4EE001A9DF80110B3EE072AC2B2002881
:100FA0004FEAC20242EA51114FF60002CFF6FF7239
:100FB00048BF114300EE101AB8EEC00AA0EE012A95
:100FC00088ED002A03B0BDE8F083000000000000B7
:100FD00080B582B08DF8070047F6E010C2F20040FD
:100FE0000DF107010DF1060201234FF47A7CCDF8D3
:100FF00000C006F07DFE9DF8060002B080BD000036
:1010000070B52DED0A8B40F2145644F6C800B7EEC9
:10101000008AC2F20046C2F2004047F2DC1196EDAF
:10102000000AC2F2004190ED011A47F20C00C2F230
:10103000004038EE402A91ED004A40F2185490EDFD
:101040001F3AC2F2004433EE411A22EE049A90EDA8
:10105000152A23EE02AA94ED00BAA0EE019A90EDB3
:101060001E0A81ED009A10F023F92AEE000A94ED91
:1010700000AA47F2A02538EE4A1AC2F2004546F609
:101080009C50C2F2004047F2A40195ED002A9FED6A
:1010900027CA21EE021A96ED002A90ED014A47F286
:1010A000E01038EE423AC2F20040C2F20041A9EE2E
:1010B0000C0A90ED005A23EE059A91ED1F3A34EE9A
:1010C000034AABEE001A91ED150AA2EE049A23EE44
:1010D00000BA91ED1E0A85ED001A80ED009A10F01D
:1010E000E7F82BEE000A94ED001A47F2A42038EE40
:1010F000411AC2F20040A9EE0C0A90ED002A21EE3E
:10110000021AB6EE002AAAEE001A95ED000A80ED4A
:10111000001A47F29C20C2F2004030EE010A20EE95
:10112000020A80ED000ABDEC0A8B70BD23DB793D1D
:10113000FEE700000000000010B547F6682400211B
:10114000C2F20044206881634FF46571816204211A
:10115000204607F081FD46F64C709FED0B1AC2F257
:101160000040408AC03800EE100A2068B8EEC00A7D
:1011700080EE010A9FED051A20EE010ABCEEC00ABE
:1011800010EE101A816310BD0000C8440000FA423E
:1011900010B547F668240021C2F20044206881633C
:1011A0004FF4F27181620421204607F055FD46F6A6
:1011B0004C709FED0B1AC2F20040408AC03800EE1E
:1011C000100A2068B8EEC00A80EE010A9FED051AE9
:1011D00020EE010ABCEEC00A10EE101A816310BDA9
:1011E0000000C8440000FA4210B547F66824002108
:1011F000C2F200442068816340F22A7181620421B6
:10120000204607F029FD46F64C709FED0B1AC2F2FE
:101210000040408AC03800EE100A2068B8EEC00ACC
:1012200080EE010A9FED051A20EE010ABCEEC00A0D
:1012300010EE101A816310BD0000C8440000FA428D
:1012400010B547F668240021C2F20044206881638B
:1012500040F25E5181620421204607F0FDFC46F613
:101260004C709FED0B1AC2F20040408AC03800EE6D
:10127000100A2068B8EEC00A80EE010A9FED051A38
:1012800020EE010ABCEEC00A10EE101A816310BDF8
:101290000000C8440000FA4210B547F66824042153
:1012A000C2F20044204607F0D7FC20680021816389
:1012B00010BD00000000000010B547F668240021B2
:1012C000C2F200442068816340F2414181620421FE
:1012D000204607F0C1FC46F64C709FED0B1AC2F297
:1012E0000040408AC03800EE100A2068B8EEC00AFC
:1012F00080EE010A9FED051A20EE010ABCEEC00A3D
:1013000010EE101A816310BD0000C8440000FA42BC
:1013100070B58AB047F6000502ACC2F2004500265F
:101320000220049001202146CDE9050628460796B3
:10133000CDE9026603F054FD022102220023284673
:10134000009603F091FD01210022284603F0A0FC45
:1013500001210122284603F013FD284604F07CFBFE
:1013600047F6A0052146C2F20045284603F038FDA5
:101370000221022200232846009603F075FD012178
:101380000122284603F0FCFC01210022284603F03C
:101390007FFC284604F060FB47F640152146C2F268
:1013A0000045284603F01CFD0221022200232846A6
:1013B000009603F059FD01210122284603F0E0FCCC
:1013C00001210022284603F063FC284604F044FB78
:1013D0000AB070BD0000000080B58AB001910821FC
:1013E00004910021CDE90211CDE90511CDE90711E4
:1013F000099101A903F088FC30B147F2A820C2F29C
:1014000000400188013101800AB080BD0000000069
:101410008EB040F6C41010F007FEB7EE009A44F606
:10142000540B46F62856C2F2004B9FED878AC2F253
:10143000004600BF012010F0F7FDDBF838000D90EA
:10144000DBF83C000C90DBE91980CDE9088002A8AC
:101450000BF1580ADBE91274DBE914CE80E8105076
:1014600005A8B0EE480A9AE8200680E8200647F66C
:10147000A000DBF86C10DBE910320A91C2F20040E8
:10148000CDE90027DDE90C2100F002FCB06B0D90E6
:10149000F06B0C90D6E91A71CDE9097102A9B0EE92
:1014A000480AD6E91242D6E91890CDE9079047F6E6
:1014B0000000D6E9103AD6E914CE81E80450C2F211
:1014C0000040DDE90C21D6E91685CDE900A4CDE97F
:1014D000058500F0DDFBDBF800000D90DBF8040073
:1014E0000C90DBE90C41CDE9094102A9B0EE480AB4
:1014F000DBE90472DBE90A90CDE9079047F6A0002A
:10150000DBE9023ADBE906CE81E80450C2F2004092
:10151000DDE90C21DBE90885CDE900A7CDE90585EA
:1015200000F0B6FB30680D9070680C90D6E90C5155
:10153000CDE9095102A9B0EE480AD6E90474D6E90A
:101540000A90CDE9079047F60000D6E9023AD6E9BD
:1015500006CED6E9088281E81050CDE90582C2F2B4
:101560000040DDE90C21CDE900A700F091FB47F236
:10157000E411B0EE480AC2F2004101F1180E086809
:101580000D9048680C90D1E90B09CDE9080947F6A0
:101590004010D1E9023AD1E90475D1E90982496BD9
:1015A0000A91CDE90682C2F20040DDE90C219EE8F5
:1015B0001050CDE900A7CDE90254CDE904CE00F0EA
:1015C00067FB46F68471B0EE480AC2F2004101F1B1
:1015D000180E08680D9048680C90D1E90B0ACDE907
:1015E000080A47F64010D1E90232D1E90475D1E981
:1015F0000989496B0A91CDE90027C2F20040DDE973
:101600000C219EE81050CDE90254CDE904CECDE97D
:10161000068900F03DFB012010F006FDB0EE490AFE
:1016200047F6A0004FF40071C2F2004000F03CF811
:10163000B0EE480A47F6000040F2FF11C2F2004047
:1016400000F032F8F6E600BF0000000000000000E5
:1016500002889FED121A12BA120C0A804288D2BA7E
:1016600000EE102AB8EEC00A80EE010A9FED0C1AB7
:1016700030EE000A20EE010A9FED0A1A80EE010A00
:1016800081ED010A428812BA120C0A81828812BACC
:10169000120C4A8180790873704700BF00007042C5
:1016A000DA0F49407B146E4180B582B09FED221A5B
:1016B000002280EE010A9FED211A47F6A003019255
:1016C0000092C2F2004380EE010AB3EE041A98427F
:1016D00080EE010A9FED1A1A20EE010ABDEEC00A43
:1016E00010EE102A04D144F6C803C2F200431A8255
:1016F00047F60003C2F20043984204D146F69C53D9
:10170000C2F200431A8293B28DF801208DF80320B3
:101710001B0A09B28DF805208DF807206A468DF85E
:1017200000308DF802308DF804308DF80630FFF768
:1017300053FE02B080BD00BF7B146E410AD7A33CAC
:101740000000804600000000027891ED090A30EEAA
:10175000001A02F00F020A70027812094A70B0F8FB
:10176000012052BA02EE102AB8EE422A21EE021AE5
:101770009FED212A81EE021A31EE400A81ED010A25
:1017800091ED0A0AC278037930EE001A120142EA9A
:10179000131202EE102AB8EE422A21EE021A9FED31
:1017A000172A81EE021A31EE400A81ED020A91ED0C
:1017B000080A027930EE001A437902F00F0243EA78
:1017C000022203EE102AB8EE433A21EE031A81EE0C
:1017D000021A31EE400A81ED030A827900EE102AE6
:1017E000B8EE400A81ED040AC07900EE100AB8EEA6
:1017F000400A81ED050A704700FF7F4700F07F45F2
:1018000047F23050C2F2004002F00AB80000000077
:1018100047F2B840C2F2004002F002B800000000F7
:1018200047F21070C2F2004001F0FABF0000000061
:1018300047F28870C2F2004001F0F2BF00000000E1
:1018400047F22060C2F2004001F0EABF0000000051
:1018500047F29860C2F2004001F0E2BF00000000D1
:1018600047F2A850C2F2004001F0DABF00000000C9
:1018700040F20F42D0F800C0C4F20202944510DCDE
:101880006F22C4F20202944520DC3F22C4F202021D
:10189000944536DC1022C4F20202944554D028222A
:1018A0004EE040F26F42C4F2020294451ADC40F26C
:1018B0003F42C4F2020294452ADC40F21042C4F2D4
:1018C0000202944540D040F2284239E09F22C4F2FF
:1018D0000202944525DC7022C4F20202944533D002
:1018E00088222DE040F29F42C4F2020294451FDCA0
:1018F00040F27042C4F20202944525D040F2884280
:101900001EE04022C4F2020294451DD0582217E086
:1019100040F24042C4F20202944515D040F25842CF
:101920000EE0A022C4F2020294450DD0B82207E0D6
:1019300040F2B842C4F20202944505D040F2A042FF
:10194000C4F20202944517D10CF0F8024AF6AB2318
:10195000103ACAF6AA23A2FB033109A35F2AC1F3F6
:1019600002115B5C40F2FF312CEA0101C36588BFC4
:1019700004318165084670472CF0FF01F9E700BF8C
:10198000000610160006101670B540F26F44D0F82D
:1019900000C0C4F20204D0F858E0A44519DC9F2529
:1019A000C4F20205AC4531DC5725C4F20205AC4552
:1019B00056DC1025C4F20205AC4500F092802825C3
:1019C000C4F20205AC4500F08C804025C4F202054B
:1019D00084E045F22F45C5F60205AC452BDC40F20C
:1019E000B745C4F20205AC4548DC40F27045C4F28C
:1019F0000205AC4575D040F28845C4F20205AC45FD
:101A00006FD040F2A045C4F2020567E040F22745DE
:101A1000C4F20205AC4540DCA025C4F20205AC4589
:101A20005FD0B825C4F20205AC455AD040F210454B
:101A3000C4F2020552E045F26B45C5F60205AC451D
:101A40003CDC45F23045C5F60205AC4549D045F2CF
:101A50004445C5F60205AC4543D045F258453BE048
:101A60005825C4F20205AC453BD07025C4F20205EE
:101A7000AC4536D08825C4F202052FE040F2B845C7
:101A8000C4F20205AC452CD045F20845C5F6020566
:101A9000AC4526D045F21C451EE040F22845C4F274
:101AA0000205AC451DD040F24045C4F20205AC45EC
:101AB00017D040F25845C4F202050FE045F26C45DC
:101AC000C5F60205AC450CD045F29445C5F60205B5
:101AD000AC4506D045F28045C5F60205AC4540F060
:101AE000CC80456EC66E002E866E6E601CBFD0E93F
:101AF0001C566E60A44515DC9F24C4F20204A44564
:101B00002BDC5724C4F20204A4454EDC1024C4F29A
:101B10000204A44576D02824C4F20204A44571D05E
:101B200040246BE045F22F44C5F60204A44527DCAF
:101B300040F2B744C4F20204A44542DC40F27044CF
:101B4000C4F20204A4455DD040F28844C4F2020409
:101B5000A44557D040F2A04450E040F22744C4F2DC
:101B60000204A4453CDCA024C4F20204A44549D0EC
:101B7000B824C4F20204A44544D040F210443DE02D
:101B800045F26B44C5F60204A44553DC45F23044EB
:101B9000C5F60204A4455FD045F24444C5F60204EC
:101BA000A44559D045F2584452E05824C4F20204E6
:101BB000A44527D07024C4F20204A44522D088246E
:101BC0001CE040F2B844C4F20204A4451AD045F225
:101BD0000844C5F60204A4453ED045F21C4437E053
:101BE00040F22844C4F20204A4450BD040F2404421
:101BF000C4F20204A44505D040F25844C4F20204E1
:101C0000A4453AD18468C06D00F01F003F2505FA55
:101C100000F0CEF80800DCF80000402C20F4802012
:101C2000CCF80000CCF8043023D1CCF80820CCF854
:101C30000C1070BD45F26C44C5F60204A4450BD0EF
:101C400045F28044C5F60204A44505D045F294440B
:101C5000C5F60204A44510D1C46D012504F01F048B
:101C6000806805FA04F4CEF804404028CCF804302B
:101C7000DBD0CCF80810CCF80C2070BD00000000C0
:101C800000F12002818682EC030A70470000000008
:101C900080B582B09DED091A002280FE410AADF8A0
:101CA0000420B1EE412ABDF93810009280FE020AEC
:101CB0009FED0B2A30EE010A31EE011A20EE020AE6
:101CC00080EE010ABDEEC00A10EE103A1ABA120CEC
:101CD000ADF806206A46FFF77FFB02B080BD00BF6B
:101CE00000F07F4500000000704700000000000089
:101CF00010B5044603F0D0FF04EB840147F2C8227C
:101D0000C2F2004202EB8101486010BD00000000F9
:101D100080B582B009B24FF0FF32CDF803200092B7
:101D2000FD228DF807206A46FFF756FB02B080BD02
:101D300047F6205047F29421C2F20040C2F200411F
:101D40009FED123A90ED000A48F25000C2F20040B6
:101D500091ED002AA0EE032A90ED001A40F2A05067
:101D600030EE011AC2F2004081ED002A90ED000A27
:101D7000A1EE030A80ED000A47F29820C2F200406B
:101D800030EE420A80ED000A704700BF6F12033B3D
:101D900080B582B009B24FF0FF32CDF80320009237
:101DA000FC228DF807206A46FFF716FB02B080BDC3
:101DB000EFF3108072B600BFFEE7000000000000E5
:101DC0000CF0BAF8002011F057F847F6A0040121F2
:101DD000C2F200442046FFF79BFF47F600050121B1
:101DE000C2F200452846FFF793FF47F6401611213F
:101DF000C2F200463046FFF78BFF012002F034FFAD
:101E000002212046FFF784FF02212846FFF780FFCA
:101E100010213046FFF77CFF012002F025FF9FEDE7
:101E2000998A4FF40071B0EE480A2046FFF73CFC57
:101E3000B0EE480A40F2FF112846FFF735FCFFF7E5
:101E4000A7F9642002F010FF0DF06AFC322002F0C6
:101E50000BFFFFF79DF9642002F006FF0DF060FC18
:101E6000322002F001FF46F6787747F6E0384CF270
:101E7000263A47F2107B40F20F49C2F20047C2F205
:101E80000048C2F2004AC2F2004BC4F2020908E064
:101E9000C4F20202904218BF6FF0040102681140C0
:101EA000016000206421002200230FF0A9F86420C3
:101EB00002F0DAFE01212046FFF72AFF0121284621
:101EC000FFF726FF11213046FFF722FF012002F025
:101ED000CBFE02212046FFF71BFF02212846FFF719
:101EE00017FF10213046FFF713FF012002F0BCFE60
:101EF000B0EE480A4FF400712046FFF7D5FBB0EE74
:101F0000480A40F2FF112846FFF7CEFB3878012837
:101F100004D0012080F3138803F0CAFF00200021C1
:101F2000002200230FF06CF8642002F09DFE0121D6
:101F30002046FFF7EDFE01212846FFF7E9FE1121BB
:101F40003046FFF7E5FE012002F08EFE022120461A
:101F5000FFF7DEFE02212846FFF7DAFE10213046A9
:101F6000FFF7D6FE012002F07FFEB0EE480A4FF4E4
:101F700000712046FFF798FBB0EE480A40F2FF11CF
:101F80002846FFF791FB3878012804D0012080F320
:101F9000138803F08DFF4FF480724046514607F0DE
:101FA0000BF9DBF800006FF00801484512DC6F22E6
:101FB000C4F20202904223DC3F22C4F202029042A9
:101FC0003CDC1022C4F2020290423FF467AF2822A8
:101FD0005EE700BF40F26F42C4F2020290421DDC95
:101FE00040F23F42C4F2020290422FDC40F2104223
:101FF000C4F2020290423FF451AF40F2284247E758
:102000009F22C4F2020290422ADC7022C4F2020231
:1020100090423FF443AF88223AE700BF40F29F422C
:10202000C4F20202904223DC40F27042C4F2020287
:1020300090423FF433AF40F2884229E74022C4F295
:10204000020290423FF42AAF582221E740F2404278
:10205000C4F2020290423FF421AF40F2584217E727
:10206000A022C4F2020290423FF418AFB8220FE758
:1020700040F2A042C4F2020290423FF40FAF40F29D
:10208000B84205E70000000044F60C00C5F6020067
:10209000016841F00201016050F8081C8904FBD579
:1020A000704700000000000047F60000C2F2004048
:1020B00002F0C6BF0000000047F60000C2F2004078
:1020C00002F0BEBF0000000047F6A000C2F20040D0
:1020D00002F0B6BF0000000047F6A000C2F20040C8
:1020E00002F0AEBF0000000047F64010C2F2004010
:1020F00002F0A6BF0000000047F64010C2F2004008
:1021000002F09EBF00000000F0B5D1E900C4D1F894
:1021100008E00D692CB14EEA0C04254345F0804CD3
:1021200003E045EA8C4444EA0E0C856ED0F88470D6
:10213000D1E907466B438D6944EA0660D1F814E0A3
:10214000CC68054307EB830045EA0E0647F823C039
:1021500046EA04434360CB68002B08BFF0BD43F65A
:102160000C6C083001320023C0F6010CD71857F868
:10217000017CC750CF6804331CF80770BB42F5D30D
:10218000F0BD00000000000046F63030C2F2004012
:1021900090ED690A7047000046F63030C2F2004008
:1021A00090ED680A7047000046F63030C2F20040F9
:1021B00090ED6A0A7047000082B09FED358AB3EE59
:1021C000040AB7EE001AF2EE041AB6EE002A47F23D
:1021D0000448B0EE483AC2F20048DFED2B0A404610
:1021E000DFED2A2A0BF0D0FB11F0D2F840F284592F
:1021F00047F2E4174CF6F00440F2805647F2903A6A
:1022000047F2D435C2F20049C2F20047C2F200449C
:10221000C2F20046C2F2004A9FED1E9AC2F2004589
:102220000DF1040B019006E0F869CAF800000221E4
:1022300058460FF001FF99ED000AD7ED010A0FF0A3
:102240006FFC307884ED000A0128EDD1F0EE480AE9
:1022500040460BF019FC40460BF01EFC94ED001AB2
:102260008AED000AB0EEC11AB4EE491AF1EE10FA86
:1022700002DC28880130288028883228D7D3002023
:1022800030702880D3E700BF0AD7233C9A99993E43
:1022900000000000CDCCCC3D2DE9F04F81B00EF018
:1022A00083FB47F20C0046F67826C2F20040C2F2E9
:1022B0000046D0ED150A90ED1A0A30460BF0C4FC2A
:1022C00047F2A40946F6CC24C2F20049C2F2004407
:1022D0002046D9ED150A99ED1A0A0BF0B5FC96EDDA
:1022E000070A47F2B82B20EE000AC2F2004B94ED29
:1022F000071A96ED0A2A21EE011A9BF80000A2EEB9
:10230000020A47F6F85194ED0A3AC2F2004105EE8E
:10231000100AA3EE031A91ED003A47F69078C2F244
:10232000004847F6F05033EE000AC2F20040B8EE23
:10233000455A98ED003A81ED000A33EE011A96ED08
:10234000002A96ED034A80EE050A88ED001A80ED1A
:10235000000A47F68870C2F2004081EE050A96ED49
:10236000111A47F6405A80ED000A96ED0E0A30EE3B
:10237000420A94ED003A94ED0E6A86ED070A31EEBA
:10238000440AC2F2004A86ED0A0A36EE431A94ED78
:10239000030A0AF12C05D4ED110A84ED071A30EE78
:1023A000C01A284684ED0A1A0BF06EFB28460BF083
:1023B00073FB94ED040ADAED130A50460BF064FB4C
:1023C00050460BF069FB0AF1840596ED000AD6ED44
:1023D0000E0A28460BF058FB28460BF05DFB0AF16D
:1023E000580596ED010ADAED290A28460BF04CFB58
:1023F00028460BF051FB47F6D86594ED030AC2F26C
:102400000045D4ED110A05F12C0738460BF03CFBD2
:1024100038460BF041FB94ED040AD5ED130A28462B
:102420000BF032FB28460BF037FB05F1840496EDE8
:10243000000AD6ED0E0A20460BF026FB20460BF0D4
:102440002BFB05F1580496ED010AD5ED290A20462B
:102450000BF01AFB20460BF01FFB47F20C009AED25
:10246000080ADAED1E0AC2F200400EF0C9FC95ED32
:10247000080A4846D5ED1E0A0EF0C2FC9BF8000083
:10248000FF283BD147F6F05047F68873C2F2004070
:1024900047F6F8529FED1D0AC2F2004390ED001A74
:1024A000C2F20042B4EE401AF1EE10FA0DDC47F22F
:1024B0009C30DAF82010C2F20040016047F2A030F0
:1024C000C2F20040DAF87810016093ED001AB4EE21
:1024D000401AF1EE10FA0BDC47F2A430296AC2F27E
:1024E0000040016047F2A830C2F20040A96F0160CD
:1024F00000208BF800001060C8F800009BF8000076
:1025000001308BF8000001B0BDE8F08F0AD7233C02
:1025100090F85C20012A01D10220704770B582B08A
:1025200042F20835012280F85C2000230193C4F2B6
:1025300002050093A5F542740368A34228D14FF623
:10254000006CCFF6FF7C55F80C409A682243520786
:102550001ED4D1F800E02A68BEF1000F22F44044F6
:1025600023D043F4807242F20013C4F202034E6897
:102570009A4244EA06022A602BD14FF60052CFF667
:10258000FF72AA5855F80C301343DA073FD127E001
:10259000016E41F0200101660121002280F85C20DB
:1025A00002B0BDE870400846704742F2001243F4A2
:1025B0008071C4F202022C6091421AD14FF6005190
:1025C000CFF6FF71695855F80C201143C9071ED189
:1025D00016E046F20802C5F602021368DA0716D1C1
:1025E0002A6840F61F739A438968114341EA0E0135
:1025F0000AE046F20801C5F602010968C90706D1DA
:10260000296840F61F72914329600021C5E7002127
:10261000C3E70000000000002DE9F04181B0002276
:10262000009290F85C20012A01D10221C5E20268E3
:10263000012380F85C3093685B0700F1B68246F2B4
:10264000083C4FF6FF78C5F6020CC0F20F08ACF557
:10265000427E0B68724512D0002B10D493FAA3F47B
:1026600013EA080FB4FA84F44FF0010508BF9C0E7A
:1026700004F01F0405FA04F4D5692C43D4614C68B6
:102680001F26C3F38463C4F3012504F01F04A6408E
:1026900002EB8505A3402F6B27EA060633432B6325
:1026A0009368946803F0040304F008041B1940F0D5
:1026B00006810B6807268D687245C3F34064C3F337
:1026C000045302EB840406FA03F6676905FA03F380
:1026D00027EA060643EA060363610FD041F20003CE
:1026E000C5F600431B6803F07043B3F1805F10D15F
:1026F0004B69D4680E2505EA540416E04FF60454DD
:102700004B69CFF6FF7406255CF8044005EA940493
:102710000BE0D4684B69D568E4064FEA550502D44E
:1027200005F00E0401E005F008040E6903FA04F553
:10273000042E24D1724530D0136E0C6803F0F84596
:10274000A3069D4203D1146E24F000441466546E17
:1027500004F0F8449C4203D1546E24F000445466C3
:10276000946E04F0F8449C4203D1946E24F000442B
:102770009466D46E04F0F8449C425FD09FE002F16E
:1027800060030F68724507F0F84753F826405AD0A7
:1027900004F000443C44254359E04FF65853CFF62B
:1027A000FF735CF80330136E0C68C3F3846314EAA0
:1027B000080F94FAA4F5B5FA85F508BFC4F384654B
:1027C000AB4203D1136E23F000431366536E536E76
:1027D0000C6814EA080F94FAA4F5B5FA85F508BF59
:1027E000C4F38465C3F38463AB4203D1536E23F017
:1027F00000435366936E936E0C6814EA080F94FAC4
:10280000A4F5B5FA85F508BFC4F38465C3F3846302
:10281000AB4203D1936E23F000439366D36ED36E25
:102820000C6814EA080F94FAA4F5B5FA85F508BF08
:10283000C4F38465C3F38463AB4240D1D36E23F009
:102840000043D3663BE045EA070444F0004543F803
:10285000265072450D691BD091F821400E7E53F829
:10286000257027F00047012C08BF07F10047741EB0
:10287000B4FA84F443F8257063090C69DB02156926
:1028800004F01F0425F4F045A3402B43136116E028
:10289000ACF52A72CB6952F8254024F080742343AA
:1028A00042F825300B6991F8204052F82350012C52
:1028B00025F0007508BF05F1007542F82350026845
:1028C0009368DB0740F02C810B68CD68724503EA02
:1028D000080105F018060BD0D2F8C04028FA06F619
:1028E00024EA010106EA03042143C2F8C0100DE006
:1028F0004FF6A85428FA06F6CFF6FF741E405CF88F
:10290000047027EA010131434CF804100021C4F29D
:10291000527101F52D04A54240F0FF8046F20004FB
:10292000C5F60204A2423FD042F20014C4F20204EF
:10293000A24224D042F20004C4F20204A2424CD1CA
:102940001F24C1F2F044A3421EDD40F2FF74C2F620
:102950003064A34249DD40F60004C2F63064A3426D
:1029600000F0AC8041F20004C3F26024A3427CD0AA
:102970000024C4F22134A34200F0BA80A3E01F2156
:10298000C1F2F0418B422ADC0721C0F690418B4214
:102990004DDC0221C0F230418B4253D00421C0F6FD
:1029A00060018B4215D08EE01F21C1F2F0418B42B5
:1029B00027DC0721C0F690418B425BDC0221C0F28C
:1029C00030418B423ED00421C0F660018B4240F082
:1029D00084804021C1F620118AE0002188E040F285
:1029E000FF71C2F630618B4233DC2021C1F2F0412D
:1029F0008B4229D040F20041C2F600218B4211D017
:102A000061E040F2FF71C2F630618B4245DC20216B
:102A1000C1F2F0418B4217D040F20041C2F60021D2
:102A20008B425AD140F60001C2F6306160E00821C5
:102A3000C0F690418B422CD01021C1F2C0018B42D4
:102A400022D040E0012153E040F20021C2F2B05117
:102A50004EE040F60001C2F630618B422ED041F2CA
:102A60000001C3F260218B422DD142F20001C3F27A
:102A700090613DE00821C0F690418B4209D01021C1
:102A8000C1F2C0018B4228D140F20011C2F2801184
:102A90002EE08021C1F650512AE040F60001C2F636
:102AA00030618B420AD042F20001C3F290618B4246
:102AB00013D144F20001C3F6C02119E041F2000134
:102AC000C3F2602114E000240021C4F68434A34240
:102AD00004BF0021C4F6B8710AE044F200040021EA
:102AE000C3F6C024A34204BF48F20001C3F6F0615C
:102AF000724512D091FAA1F44FF6C135B4FA84F4BC
:102B0000C0F20A05294208BF8C0E04F01F010124FF
:102B100004FA01F1D4692143D161B3F1FF3F01DD32
:102B2000002147E042F2000142F20016C4F2020125
:102B3000C4F2020601F5807401F54275A2426446B2
:102B400008BF2C468A4208BF2C4642F48075B54225
:102B5000246822D18D68D1F808112943C90724D1EE
:102B6000002104F0E075CCF252718B4208BF14F4DE
:102B7000000126D00021CCF221318B4249D1002125
:102B8000B1EB156F45D1724514D1DCF8001021F07E
:102B9000E071294341F080714EE04FF60051CFF6CD
:102BA000FF715CF80110C907DAD0016E41F0200115
:102BB00001660121002280F85C20084601B0BDE8D2
:102BC000F0817245ACD1DCF8001042F6635221F07E
:102BD000E071C0F23E52294341F40001CCF80010EC
:102BE00040F20051C2F2004109688909A1FB0212BA
:102BF0009109022202EB41010091009900298FD036
:102C0000009901390091009900294FF00001F7D196
:102C1000D0E772454FF00001CCD10022CCF68432CF
:102C2000934208BF14F48002C4D1DCF8001021F0F4
:102C3000E071294341F48001CCF8001070E70000F6
:102C40000068006C70470000B0B582B000284FF0FB
:102C50000001019141D0016E39B9044600F034F908
:102C600020460021616684F85C1001688A68920041
:102C70004FF6C072C5F6FF7202D58B6813408B60A9
:102C80008B68DB001CD48B6802F180521A4042F63C
:102C9000635342F080528A6040F20052C0F23E53C9
:102CA000C2F2004212689209A2FB0323012202EB46
:102CB000931200BF0192019A12B1019A013AF9E709
:102CC0008A68D2000BD4026E012442F01002026620
:102CD000426E42F00102426602E00124EFE000246D
:102CE0008A68036E03F0100302F00402D218026E29
:102CF00036D122F4817246F2000C023202668A68F2
:102D0000C5F6020CD20722D142F2001341F48072C0
:102D1000C4F202039A4242F20002C4F202022DD12E
:102D20009368D2F808512B43DB0710D102F580736A
:102D30009942634608BF1346914208BF0B4642685A
:102D4000D3F8085325F47C152A43C3F80823427EA0
:102D5000C36B614543EA423306D082681A431BE0E5
:102D600042F010010124A9E0D0E90225082A0CD084
:102D70000C2A08D01C2A0AD110220BE0DCF80830FB
:102D8000DB07D3D0E3E7082204E0002202E0182AA0
:102D900018BF00222A431A4390F82030012B42EA40
:102DA000034306D1426A0025CFF6FE7505EB424289
:102DB0001343826A22B102F47872C56A2A4313432C
:102DC000614508D04CF20305CA68CFF6F0752A4079
:102DD0001A43CA600EE044F20705DCF80C20CFF677
:102DE000F0752A401A43CA600A69436B22F04062B8
:102DF0001A430A618A688B6802F0040203F0080330
:102E0000D2184CD1027E61454FEA823202D0036B68
:102E10001A4303E090F8383042EA4302CB6844F2A8
:102E20000305AB431A43CA6090F84420012A17D126
:102E30004FF61E026145CFF6004215D00B6903EA3A
:102E4000020E0122D0E91235CFF6FF7202EB0342E7
:102E500045EA0E03056D1A43436D2A431A4310E0F9
:102E60000A6922F001020CE0DCF810301A40D0E9C7
:102E700012351A43036D2A43456D1A432A4342F023
:102E800001020A6161450A69036C22F0704242EA5C
:102E900003020A6103D00546FDF706FC28460168D7
:102EA00002690B6B012A23F00F0202D1C369013BB7
:102EB0001A430A630122016E62F301010166204692
:102EC00002B0B0BD00000000B0B5B6B0044602A824
:102ED000B8210025CDE93455CDE932553195FDF7BE
:102EE0006FFB42F200012068C4F20201884201D067
:102EF00036B0B0BD4FF400200290022004901024A0
:102F00000395CDE90540CDE90700C0200B95CDE93B
:102F1000090502A82A9503F063FB08B1FEF748FFF4
:102F200044F2D840C5F60200016841F0200101607A
:102F3000016801F0200101910199816841F00401CB
:102F40008160806831A900F004000190019803209D
:102F500032900020339040F60000C5F60200319414
:102F600002F0BEFD36B0B0BD70B542F2000446F2CC
:102F70000836C4F20204016804F5807204F5427355
:102F8000C5F60206914208BF1E46A14208BF1E4672
:102F900035688968490703D490F85C10012901D18C
:102FA000022070BD012180F85C100646FDF7A4FCEC
:102FB00018B1002186F85C1070BD31463268336E5E
:102FC00004F58076B24240F6017618BF144623EA33
:102FD000060605F01F0306F580760E66A61AB6FAF9
:102FE00086F618BF002B03D10D6E25F480150D66F3
:102FF00075090E6EF6044FF0000644BF4E6E26F0C3
:1030000006064FF0000C4E664FF01C06166081F865
:103010005CC045B9092B17D8012606FA03F340F224
:103020002126334210D0D3689B0104D50B6E0126B4
:1030300066F30D330B664FF6C0739168C7F6FF73E6
:1030400019400431916070BD0A6E42F480120A6624
:10305000E268920158BF70BD0A6E012363F30D321E
:103060000A6670BD0000000010B5044690F85C00D0
:10307000012801D1022010BD012084F85C00032149
:103080002046FDF789FB48B92046FDF7F5FB28B936
:10309000216E41F20112914301312166002184F831
:1030A0005C1010BD000000002DE9F041044602F064
:1030B000F3FD14B3054694F83500022820D140F200
:1030C0000F472668C4F2020740F26F48BE426FF015
:1030D0000E00C4F2020817DC6F21C4F202018E4216
:1030E00023DC3F21C4F202018E4239DC1021C4F2FC
:1030F00002018E4258D0282151E00120BDE8F08124
:1031000080206065012037E246451ADC40F23F41ED
:10311000C4F202018E422ADC40F21041C4F20201E4
:103120008E4241D040F2284139E09F21C4F2020191
:103130008E4225DC7021C4F202018E4234D08821F7
:103140002DE040F29F41C4F202018E421FDC40F2AA
:103150007041C4F202018E4226D040F288411EE046
:103160004021C4F202018E421ED0582117E040F2E5
:103170004041C4F202018E4216D040F258410EE0A6
:10318000A021C4F202018E420ED0B82107E040F225
:10319000B841C4F202018E4206D040F2A041C4F20E
:1031A00002018E42314607D13146306820F01E00C0
:1031B00041F8140B6FF080000A68464500EA0200EF
:1031C000086019DC9F20C4F20200864231DC5720DF
:1031D000C4F20200864256DC1020C4F2020086428D
:1031E00000F091802820C4F20200864200F08B801B
:1031F0004020C4F2020084E045F22F40C5F60200F0
:1032000086422BDC40F2B740C4F20200864248DC22
:1032100040F27040C4F20200864274D040F288400E
:10322000C4F2020086426ED040F2A040C4F2020016
:1032300067E040F22740C4F20200864240DCA02052
:10324000C4F2020086425ED0B820C4F20200864278
:1032500059D040F21040C4F2020052E045F26B40F7
:10326000C5F6020086423CDC45F23040C5F602005D
:10327000864248D045F24440C5F60200864242D01C
:1032800045F258403BE05820C4F2020086423AD052
:103290007020C4F20200864235D08820C4F20200B9
:1032A0002FE040F2B840C4F2020086422BD045F233
:1032B0000840C5F60200864225D045F21C401EE0BB
:1032C00040F22840C4F2020086421CD040F2404046
:1032D000C4F20200864216D040F25840C4F2020006
:1032E0000FE045F26C40C5F6020086420BD045F275
:1032F0009440C5F60200864205D045F28040C5F6EE
:103300000200864204D1206E016821F480710160C0
:10331000306820F0010030603068C0070BD002F048
:10332000BBFC401B0628F7D320206065032084F8EF
:103330003500012020E120680821B8424FF03F020B
:1033400010DC6F23C4F2020398421CDC3F23C4F25A
:103350000203984232DC1023C4F20203984251D097
:1033600028234AE040451ADC40F23F43C4F20203FE
:1033700098422ADC40F21043C4F20203984241D042
:1033800040F2284339E09F23C4F20203984225DC2F
:103390007023C4F20203984234D088232DE040F217
:1033A0009F43C4F2020398421FDC40F27043C4F210
:1033B0000203984226D040F288431EE04023C4F224
:1033C000020398421ED0582317E040F24043C4F253
:1033D0000203984216D040F258430EE0A023C4F2F4
:1033E000020398420ED0B82307E040F2A043C4F293
:1033F0000203984206D040F2B843C4F20203984256
:1034000040F0BF80D4E9163707F01F07404502FAA5
:1034100007F25A5019DC9F21C4F20201884231DCC4
:103420005721C4F20201884256DC1021C4F2020185
:10343000884200F091802821C4F20201884200F005
:103440008B804021C4F2020184E045F22F41C5F691
:10345000020188422BDC40F2B741C4F202018842EB
:1034600048DC40F27041C4F20201884274D040F25C
:103470008841C4F2020188426ED040F2A041C4F2F9
:10348000020167E040F22741C4F20201884240DCB9
:10349000A021C4F2020188425ED0B821C4F2020128
:1034A000884259D040F21041C4F2020152E045F284
:1034B0006B41C5F6020188423CDC45F23041C5F65D
:1034C0000201884248D045F24441C5F602018842D3
:1034D00042D045F258413BE05821C4F202018842F3
:1034E0003AD07021C4F20201884235D08821C4F25A
:1034F00002012FE040F2B841C4F2020188422BD011
:1035000045F20841C5F60201884225D045F21C412A
:103510001EE040F22841C4F2020188421CD040F271
:103520004041C4F20201884216D040F25841C4F230
:1035300002010FE045F26C41C5F6020188420BD052
:1035400045F29441C5F60201884205D045F280411A
:10355000C5F6020188420BD1616EA26EE06E4A6030
:1035600030B1016821F480710160D4E91C0141602F
:10357000012084F835000020002184F83410BDE8D3
:10358000F081042101223DE7F0B190F835100229C5
:1035900018D180B540F20F420168C4F20202914294
:1035A00014DC6F23C4F20203994224DC3F23C4F2EB
:1035B000020399423ADC1023C4F20203994258D024
:1035C000282352E0802141650120704740F26F437B
:1035D000C4F2020399421ADC40F23F43C4F20203F0
:1035E00099422ADC40F21043C4F20203994240D0CF
:1035F00040F2284339E09F23C4F20203994225DCBC
:103600007023C4F20203994233D088232DE040F2A4
:103610009F43C4F2020399421FDC40F27043C4F29C
:103620000203994225D040F288431EE04023C4F2B1
:10363000020399421DD0582317E040F24043C4F2E0
:103640000203994215D040F258430EE0A023C4F281
:10365000020399420DD0B82307E040F2B843C4F208
:103660000203994205D040F2A043C4F202039942FA
:103670006ED191424FF0040280F8352010DC6F20AB
:10368000C4F20200814220DC3F20C4F202008142E9
:1036900036DC1020C4F20200814253D028204EE0D4
:1036A00040F26F40C4F2020081421ADC40F23F4017
:1036B000C4F2020081422ADC40F21040C4F202004F
:1036C00081423FD040F2284039E09F20C4F20200FE
:1036D000814225DC7020C4F20200814232D0882071
:1036E0002DE040F29F40C4F2020081421FDC40F214
:1036F0007040C4F20200814224D040F288401EE0B3
:103700004020C4F2020081421CD0582017E040F251
:103710004040C4F20200814214D040F258400EE012
:10372000A020C4F2020081420CD0B82007E040F291
:10373000B840C4F20200814204D040F2A040C4F27A
:1037400002008142086820F001000860002080BD6E
:103750000A6822F00E020A6045F25742C5F60202DC
:1037600091420A6822F001020A600EDC45F22F4203
:10377000C5F60202914217DC45F20842C5F6020284
:10378000914226D045F21C421FE045F27F42C5F629
:103790000202914211DC45F25842C5F60202914202
:1037A00017D045F26C4210E045F23042C5F60202F5
:1037B00091420ED045F2444207E045F29442C5F6EC
:1037C0000202914205D045F28042C5F602029142C2
:1037D0001AD1D0E9181CD0E916E30A6822F48072E5
:1037E0000A6003F01F01012202FA01F1CEF8041071
:1037F000816ECCF80410C16E31B10A6822F4807277
:103800000A60D0E91C124A60012180F83510016D70
:103810000022002980F8342098D08847002080BDFD
:103820002DE9F04381B00021009140F2005148F2AF
:10383000B513C2F20041C1F64E33856D40F26F49B7
:103840000A680168C4F202092E68A2FB03284945F0
:103850002B6815DC9F22C4F2020291422BDC572216
:10386000C4F2020291424FDC1022C4F202029142E1
:1038700078D02822C4F20202914273D040226CE038
:1038800045F22F42C5F60202914227DC40F2B742D0
:10389000C4F20202914243DC40F27042C4F20202DE
:1038A00091425FD040F28842C4F20202914259D064
:1038B00040F2A04251E040F22742C4F2020291429B
:1038C0003DDCA022C4F2020291424BD0B822C4F2E5
:1038D0000202914246D040F210423EE045F26B4275
:1038E000C5F60202914275DC45F23042C5F602028D
:1038F000914200F0828045F24442C5F602029142B4
:103900007BD045F2584273E05822C4F20202914241
:1039100028D07022C4F20202914223D088221CE0F7
:1039200040F2B842C4F2020291421BD045F2084272
:10393000C5F60202914260D045F21C4258E040F2C6
:103940002842C4F2020291420CD040F24042C4F23A
:103950000202914206D040F25842C4F20202914261
:1039600040F02D84C26D082302F01F0293403342C1
:1039700000F0168140F20F44C4F20204A1424FF05D
:10398000040413DC6F27C4F20207B94200F39180EC
:103990003F27C4F20207B94200F3D2801027C4F2D5
:1039A0000207B94200F0F0802827E8E0494500F31B
:1039B0008C8040F23F47C4F20207B94200F3C7804F
:1039C00040F21047C4F20207B94200F0DD8040F235
:1039D0002847D4E045F26C42C5F6020291420CD071
:1039E00045F28042C5F60202914206D045F2944269
:1039F000C5F60202914240F0E2830E68C26D02F009
:103A00001F02042707FA02F41C4218BF16F004072D
:103A10002CD1022707FA02F41C4218BF16F0020745
:103A200062D1D3401B0740F1CA8316F0080300F0AF
:103A3000C68340F20F43C4F2020399426FF01C03A5
:103A400000F318836F27C4F20207B94200F35483CE
:103A50003F27C4F20207B94200F3B4831027C4F22F
:103A60000207B94200F0D3832827CAE332046C600E
:103A70005ED4B20600F1A18340F20F42C4F202020A
:103A800091426FF0080200F3E3826F23C4F2020355
:103A9000994200F302833F23C4F20203994200F3E8
:103AA00047831023C4F20203994200F08383282342
:103AB0007AE39F27C4F20207B94251DC7027C4F2AF
:103AC0000207B94260D0882759E040F29F47C4F20C
:103AD0000207B9424BDC40F27047C4F20207B94218
:103AE00052D040F288474AE032046C6000F19C8278
:103AF000B20600F1CF8340F20F42C4F202029142BB
:103B00006FF0140200F3D6826F23C4F202039942CD
:103B100000F315833F23C4F20203994200F38C8320
:103B20001023C4F20203994200F0AB832823A2E3DE
:103B3000F10300F14283816C002940F079833EE378
:103B40004027C4F20207B9421ED0582717E040F2BE
:103B50004047C4F20207B94216D040F258470EE07F
:103B6000A027C4F20207B9420ED0B82707E040F2FE
:103B7000A047C4F20207B94206D040F2B847C4F2E7
:103B80000207B94218BF08240F68274208D00F68FF
:103B900027F004070F60AB60436D43F001034365FA
:103BA0000123934033426FD040F20F47C4F2020723
:103BB000B94210DC6F27C4F20207B9421CDC3F2770
:103BC000C4F20207B94232DC1027C4F20207B9423C
:103BD00051D028274AE049451ADC40F23F47C4F259
:103BE0000207B9422ADC40F21047C4F20207B94288
:103BF00041D040F2284739E09F27C4F20207B9427A
:103C000025DC7027C4F20207B94234D088272DE0A2
:103C100040F29F47C4F20207B9421FDC40F27047EE
:103C2000C4F20207B94226D040F288471EE040277E
:103C3000C4F20207B9421ED0582717E040F24047AD
:103C4000C4F20207B94216D040F258470EE0A0274E
:103C5000C4F20207B9420ED0B82707E040F2B847D5
:103C6000C4F20207B94206D040F2A047C4F20207EC
:103C7000B94240F0E1814F6907F0800424B1AB60A4
:103C8000436D43F0020343650423934033426FD0F6
:103C900040F20F47C4F20207B94210DC6F27C4F2AA
:103CA0000207B9421CDC3F27C4F20207B94232DCEA
:103CB0001027C4F20207B94251D028274AE04945EB
:103CC0001ADC40F23F47C4F20207B9422ADC40F254
:103CD0001047C4F20207B94241D040F2284739E008
:103CE0009F27C4F20207B94225DC7027C4F20207FD
:103CF000B94234D088272DE040F29F47C4F2020732
:103D0000B9421FDC40F27047C4F20207B94226D024
:103D100040F288471EE04027C4F20207B9421ED095
:103D2000582717E040F24047C4F20207B94216D0C4
:103D300040F258470EE0A027C4F20207B9420ED065
:103D4000B82707E040F2B847C4F20207B94206D0EC
:103D500040F2A047C4F20207B94240F073810F68F5
:103D600007F0020424B1AB60436D43F004034365E4
:103D7000102303FA02F232427ED040F20F43C4F223
:103D8000020399424FF0080310DC6F27C4F20207C8
:103D9000B9421CDC3F27C4F20207B94232DC1027CB
:103DA000C4F20207B94251D028274AE049451ADC3B
:103DB00040F23F47C4F20207B9422ADC40F2104702
:103DC000C4F20207B94241D040F2284739E09F27A8
:103DD000C4F20207B94225DC7027C4F20207B942D7
:103DE00034D088272DE040F29F47C4F20207B94241
:103DF0001FDC40F27047C4F20207B94226D040F2FD
:103E000088471EE04027C4F20207B9421ED0582757
:103E100017E040F24047C4F20207B94216D040F220
:103E200058470EE0A027C4F20207B9420ED0B827C7
:103E300007E040F2A047C4F20207B94206D040F2C0
:103E4000B847C4F20207B94218BF04230F681F42E3
:103E500012D0AA600A6852030A6806D4D20506D4B2
:103E60000A6822F008020A6001E0110352D4016CD2
:103E700011B1044688472046C16D01F01F02202180
:103E800001FA02F3334200F0A68040F20F470168C6
:103E9000C4F202071026B94210DC6F27C4F20207F1
:103EA000B9421CDC3F27C4F20207B94236DC1027B6
:103EB000C4F20207B94255D028274EE049451ADC22
:103EC00040F23F47C4F20207B9422EDC40F21047ED
:103ED000C4F20207B94245D040F228473DE09F278F
:103EE000C4F20207B94229DC7027C4F20207B942C2
:103EF00038D0882731E040F29F47C4F20207B94228
:103F000023DC40F27047C4F20207B9422AD040F2E3
:103F1000884722E0816C0029ABD1ADE74027C4F28D
:103F20000207B9421ED0582717E040F24047C4F2BA
:103F30000207B94216D040F258470EE0A027C4F25B
:103F40000207B9420ED0B82707E040F2A047C4F2FA
:103F50000207B94206D040F2B847C4F20207B9429C
:103F600018BF02260F68374235D0AB6090F8353065
:103F7000042B0B6816D123F016030B604B6923F05A
:103F800080034B61036C0BB9836C1BB10B6823F08E
:103F900008030B603F219140A960012180F8351092
:103FA000016D3FE15A030A680CD4D2050ED40A68A9
:103FB00022F010020A60012180F83510002180F8FB
:103FC000341003E0110301D4416C00E0C16B11B166
:103FD000044688472046416D002900F0F080416D7D
:103FE000C9071CD0042180F8351001684FEA9822D7
:103FF0000B6823F001030B60009B01330093934295
:1040000002D80B68DB07F7D10968C9074FF0030135
:1040100008BF012180F83510002180F83410C16CF0
:10402000002940F00581CAE0F10300F13381416CC1
:10403000002940F0FD80C2E000240F68002C7FF4CE
:104040001EAE21E600240F68002C7FF48CAE8FE6B4
:10405000494542DC40F23F43C4F2020399427CDC12
:1040600040F21043C4F20203994200F0A38040F2F0
:10407000284399E049454CDC40F23F47C4F202072F
:10408000B94200F3A68040F21047C4F20207B942D9
:1040900000F0BD8040F22847B3E09F23C4F2020342
:1040A000994263DC7023C4F20203994200F08280DB
:1040B000882379E0494560DC40F23F43C4F20203C3
:1040C000994200F3C08040F21043C4F202039942C7
:1040D00000F0D78040F22843CDE040F29F43C4F285
:1040E0000203994258DC40F27043C4F20203994241
:1040F00060D040F2884357E09F27C4F20207B942DC
:1041000070DC7027C4F20207B94200F08080882773
:1041100077E040F29F47C4F20207B94269DC40F2FF
:104120007047C4F20207B94271D040F2884768E094
:104130004023C4F2020399423CD0582334E09F2329
:10414000C4F20203994200F387807023C4F2020391
:10415000994200F0968088238DE040F24043C4F2FB
:104160000203994226D040F258431DE0A023C4F236
:10417000020399421ED0B82316E040F29F43C4F2D6
:10418000020399426FDC40F27043C4F20203994289
:1041900077D040F288436EE040F2A043C4F20203BD
:1041A000994207D040F2B843C4F20203994218BFC3
:1041B0006FF004020B681A400A60016CC1BB01B0C9
:1041C000BDE8F0834027C4F20207B9421FD0582748
:1041D00017E040F24047C4F20207B94217D040F25C
:1041E00058470EE0A027C4F20207B9420FD0B82703
:1041F00007E040F2A047C4F20207B94207D040F2FC
:10420000B847C4F20207B94218BF6FF00E030F6837
:104210003B400B60012101FA02F26A60416580F8BF
:104220003510C16C00294FF0000280F83420C6D050
:1042300001B0BDE8F04308474023C4F202039942AD
:104240001FD0582317E040F24043C4F202039942C2
:1042500017D040F258430EE0A023C4F20203994263
:104260000FD0B82307E040F2A043C4F20203994202
:1042700007D040F2B843C4F20203994218BF6FF06E
:104280000A020B681A400A60012180F835100021EB
:1042900080F83410C16B0029CAD190E700000000FB
:1042A0002DE9F041044601F0F7FCECB140F26F4813
:1042B00005462068C4F20208404518DC9F21C4F27C
:1042C000020188422EDC5721C4F20201884254DCEC
:1042D0001021C4F2020188427ED02821C4F20201DA
:1042E000884279D0402172E00120BDE8F08145F29A
:1042F0002F41C5F60201884227DC40F2B741C4F2E3
:104300000201884245DC40F27041C4F20201884259
:1043100062D040F28841C4F2020188425CD040F28F
:10432000A04154E040F22741C4F20201884240DC3F
:10433000A021C4F2020188424ED0B821C4F2020189
:10434000884249D040F2104141E045F26B41C5F648
:104350000201884200F3B88045F23041C5F60201FF
:10436000884200F0C38045F24441C5F6020188420C
:1043700000F0BC8045F25841B4E05821C4F202017B
:10438000884229D07021C4F20201884224D08821B9
:104390001DE040F2B841C4F2020188421CD045F24F
:1043A0000841C5F60201884200F0A08045F21C4198
:1043B00098E040F22841C4F2020188420CD040F259
:1043C0004041C4F20201884206D040F25841C4F292
:1043D0000201884240F0CE80022184F8351000218D
:1043E00084F83410016821F001010160206801683F
:1043F000C9070CD001F050FC401B0628F6D3202042
:104400006065032084F835000120BDE8F08148F2A2
:104410003F0204F108070168CFF610621140666997
:104420008CCF1143D4F818C01943E3693943276A84
:104430000E43616A3343042943EA070343EA0C034A
:1044400003D1D4E90B7637433B436568A5F12906D0
:10445000292E00F2A1800127DFE806F015151515B9
:1044600015159E9E9E9E9E9E9E9E9E9E9E9E9E9E7E
:104470009E9E151515159E9E9E9E15159E9E9E9E92
:104480009E9E15151515002F18BF43F4801304299F
:104490000360426922F0070241EA020140F0908085
:1044A000D4E90A53002B41EA050100F08980BCF5EC
:1044B000005F61D0BCF1000F6AD1022D74D0012DD4
:1044C00060D0002D70D072E045F26C41C5F602015B
:1044D00088420BD045F28041C5F60201884205D0E2
:1044E00045F29441C5F60201884243D104F1080E19
:1044F000022184F83510002184F834100168A36982
:104500009EE80450A2F18005E769B5FA85F5666971
:104510006D09402A4FEA853543EA07026FF310110F
:1045200042EA060208BF102541EADC0142EA0E0217
:104530002943236A41EAD2014AF6F832CAF2FD72EF
:104540004CF6CD470244CCF6CC4741EA1311A2FB0E
:10455000072301606FF0030000EA9300E065204646
:10456000FDF786F9E16D012201F01F0102FA01F168
:10457000416030E0402043E7032D18D8DFE805F024
:104580000A140A02A3F1C072B2FA82F252090FE0D1
:10459000032D08D201220BE025F00302743AB2FA8F
:1045A00082F257096FE702D1C3F3006200E00022F4
:1045B00032B140206065012084F83500BDE8F0810B
:1045C00041612046FDF754F9E16D3F2201F01F01E2
:1045D00002FA01F181602068404519DC9F21C4F294
:1045E0000201884231DC5721C4F20201884256DCC4
:1045F0001021C4F20201884200F092802821C4F206
:104600000201884200F08C804021C4F2020184E063
:1046100045F22F41C5F6020188422BDC40F2B7413A
:10462000C4F20201884248DC40F27041C4F2020147
:10463000884275D040F28841C4F2020188426FD0AE
:1046400040F2A041C4F2020167E040F22741C4F207
:104650000201884240DCA021C4F2020188425FD0FE
:10466000B821C4F2020188425AD040F21041C4F28B
:10467000020152E045F26B41C5F6020188423CDC82
:1046800045F23041C5F60201884249D045F2444125
:10469000C5F60201884243D045F258413BE058211B
:1046A000C4F2020188423BD07021C4F20201884268
:1046B00036D08821C4F202012FE040F2B841C4F2A2
:1046C000020188422CD045F20841C5F60201884219
:1046D00026D045F21C411EE040F22841C4F20201FE
:1046E00088421DD040F24041C4F20201884217D0F6
:1046F00040F25841C4F202010FE045F26C41C5F6A8
:10470000020188420CD045F29441C5F6020188426C
:1047100006D045F28041C5F60201884240F0D080C3
:1047200045F2574C45F6FC0EC5F6020CC5F6020ED6
:1047300060450EDC45F22F43C5F60203984217DCB4
:1047400045F20843C5F60203984226D045F21C43C1
:104750001FE045F27F43C5F60203984211DC45F2A3
:104760005843C5F60203984217D045F26C4310E057
:1047700045F23043C5F6020398420ED045F2444359
:1047800007E045F29443C5F60203984205D045F28E
:104790008043C5F60203984250D100F0FC034CF66A
:1047A000CD47083BCCF6CC47A3FB0737AEF1FC0561
:1047B000AEF17C063B0905EB83022266A26803F09A
:1047C0001F030127802A666607FA03F2A26601D159
:1047D000002262606368A56ED4E91826DFB2591E14
:1047E00007291760756015D87E1E072E62D86045B0
:1047F0000EF1440213DC45F22F41C5F60201884256
:104800003CDC45F20841C5F6020188424BD045F236
:104810001C4144E000206067C4E91B0050E045F201
:104820007F41C5F60201884231DC45F25841C5F6A8
:104830000201884237D045F26C4130E000F0F803C5
:104840004AF6AB27103BCAF6AA27A3FB073740F26C
:104850000F43C4F2020308253E09984203F1AA025D
:10486000334688BF05EB171340F600059042C4F2AB
:10487000020528BF334605F180069CE745F230412A
:10488000C5F6020188420ED045F2444107E045F2E8
:104890008041C5F60201884205D045F29441C5F633
:1048A0000201884213D10EEB8300E06601202267EB
:1048B000B040606704F16C02002307CA03604A60DD
:1048C00000206065012184F83510BDE8F08140F6D4
:1048D0000000C4F2020000F1FC0E00F5A072E2E755
:1048E00030B110B590F83440012C03D1022010BD36
:1048F00001207047012480F8344090F83540012CA5
:104900002BD1022480F8354000244465D0F800C043
:10491000DCF8004024F00104CCF800400446FDF728
:1049200033F840F20F4C2068C4F2020C40F26F41A1
:104930006045C4F2020118DC6F23C4F202039842FE
:1049400024DC3F23C4F2020398423ADC1023C4F271
:104950000203984259D0282352E04FF40061416588
:10496000002180F83410012010BD88421ADC40F28A
:104970003F43C4F2020398422ADC40F21043C4F2DF
:104980000203984241D040F2284339E09F23C4F209
:104990000203984225DC7023C4F20203984234D00B
:1049A00088232DE040F29F43C4F2020398421FDCAB
:1049B00040F27043C4F20203984226D040F288438A
:1049C0001EE04023C4F2020398421ED0582317E091
:1049D00040F24043C4F20203984216D040F25843DA
:1049E0000EE0A023C4F2020398420ED0B82307E0E1
:1049F00040F2B843C4F20203984206D040F2A0430A
:104A0000C4F20203984240F0238103680B2262F350
:104A100044030360226C1AB1082302681A4302603F
:104A2000884219DC9F22C4F20202904231DC5722F4
:104A3000C4F20202904256DC1022C4F202029042FA
:104A400000F091802822C4F20202904200F08B8094
:104A50004022C4F2020284E045F22F42C5F602026F
:104A600090422BDC40F2B742C4F20202904248DC92
:104A700040F27042C4F20202904274D040F2884286
:104A8000C4F2020290426ED040F2A042C4F202028E
:104A900067E040F22742C4F20202904240DCA022CA
:104AA000C4F2020290425ED0B822C4F202029042E6
:104AB00059D040F21042C4F2020252E045F26B4279
:104AC000C5F6020290423CDC45F23042C5F60202D5
:104AD000904248D045F24442C5F60202904242D08C
:104AE00045F258423BE05822C4F2020290423AD0CA
:104AF0007022C4F20202904235D08822C4F202022F
:104B00002FE040F2B842C4F2020290422BD045F2AC
:104B10000842C5F60202904225D045F21C421EE032
:104B200040F22842C4F2020290421CD040F24042BD
:104B3000C4F20202904216D040F25842C4F202027D
:104B40000FE045F26C42C5F6020290420BD045F2EE
:104B50009442C5F60202904205D045F28042C5F665
:104B6000020290426ED1236E1A68D20303D51A68EE
:104B700042F480721A60E36E1BB11A6842F48072CC
:104B80001A60604510DC6F21C4F2020188421CDC0F
:104B90003F21C4F20201884232DC1021C4F202013A
:104BA00088424FD028214AE088421ADC40F23F4137
:104BB000C4F2020188422ADC40F21041C4F2020130
:104BC00088423FD040F2284139E09F21C4F20201DF
:104BD000884225DC7021C4F20201884232D088214B
:104BE0002DE040F29F41C4F2020188421FDC40F2F6
:104BF0007041C4F20201884224D040F288411EE094
:104C00004021C4F2020188421CD0582117E040F232
:104C10004041C4F20201884214D040F258410EE0F3
:104C2000A021C4F2020188420CD0B82107E040F272
:104C3000B841C4F20201884204D040F2A041C4F25B
:104C400002018842016841F001010160002010BDAD
:104C50000268052363F343020260226C002A3FF4DA
:104C6000DFAE0423D9E60000B0B5044601F014F825
:104C700040F2A8510546C2F20041621C097818BFF3
:104C80000C4400BF01F008F8401BA042FAD3B0BDAD
:104C900090F89830013B012B0BD80068836D0B42D4
:104CA0000CD0836D0B408B420CD1C36D43F00203DB
:104CB00009E000F19C010120022221E0C36D43F0D4
:104CC000010300E00323C3658B0504D5D0F8E03071
:104CD0001343C0F8E0304B0504D5D0F8E4301A4354
:104CE000C0F8E4204FF6FF72436DC3F6CF720A405E
:104CF0001A4342658A0F4AF614010020C4F20001EB
:104D00000B681A430A60704790F89830022B1BD149
:104D1000B0B50368D3F8C05015F07C5F1CD0D3F851
:104D2000C450AD021DD4D3F8C4300546C3F30444C7
:104D30002346FDF7E9F928680121A140C0F8D01009
:104D40000020C5F89410B0BDD0F89C1041F00801C7
:104D5000C0F89C1001207047D0F89C1041F0200151
:104D600003E0D0F89C1041F40071C0F89C100120C1
:104D7000B0BD00000000000070470000000000000F
:104D800090F89830012B0ED1012900684FEA026299
:104D900011D0C9B9D0F8F01021F07C511143C0F8FE
:104DA000F01000207047D0F89C1041F00401C0F8CA
:104DB0009C1001207047D0F8A01021F0FE41114353
:104DC000C0F8A01000207047D0F8B01021F0FE41CC
:104DD0001143C0F8B0100020704700000000000030
:104DE00090F89820013A012A0BD880B50A68002A69
:104DF000CA680ED00B69072A43EA427E16D18B6936
:104E000019E0D0F89C1041F00201C0F89C1001207C
:104E10007047072A18D10A69D1E906C3120442EA89
:104E2000032242EA0C0242F0605217E0D1F808C0B7
:104E30004B6943EA8C73006F496800EBC10240F88C
:104E400031E05360002080BD8B68D1E904CE9B0720
:104E500043EAC26242EA0C4242EA0E024968C06E6C
:104E600040F82120002080BD90F898C0BCF1010FCF
:104E70000DD19200006842EA0111DDF800C041EA5C
:104E8000430141EA0C01C0F8801000207047D0F8BF
:104E90009C1041F00401C0F89C10012070470000F4
:104EA0007047000000000000704700000000000094
:104EB00070B590F89850022D11D1402914D1046892
:104EC000D4F8A05015F4FE0F2BD0D4F8A4506D06E2
:104ED0002CD0D4F8A450ED0130D4002531E0D0F826
:104EE0009C1041F0080125E041290FD10468D4F855
:104EF000B05015F4FE0F14D0D4F8B4506D0615D090
:104F0000D4F8B450ED0126D4002527E0056DA94260
:104F100007D200F17C04D0F854E04FF0000C0D46AD
:104F200026E0D0F89C1041F0200103E0D0F89C105E
:104F300041F48071C0F89C10012070BDD4F8A050DD
:104F4000ED0FD4F8A440C4F3052404EB050E00F1E2
:104F50007404456C0BE0D4F8B050ED0FD4F8B440B5
:104F6000C4F3052404EB050E00F17804C56CF44687
:104F700005FB0EFE256855F82E4014F08044546061
:104F800055F82E4024F0604608BFC4F38A461660E8
:104F900055F82E4004F00054946005EB8E0455F84B
:104FA0002E6006F000461661A688D661E68816F0E7
:104FB0000F06D660666806F480165661666806F4C9
:104FC00000169661E67906F07F06166266684FEA7B
:104FD000D67656620ED043F60C6E04F10805002416
:104FE000C0F6010E2E5D1E550134D6681EF806600F
:104FF000B442F7D3402904D10068C0F8A8C000200B
:1050000070BD412904D10068C0F8B8C0002070BD4F
:105010001F2907D80068012202FA01F1C0F8981090
:10502000002070BD006801F01F01012202FA01F1A9
:10503000C0F89C10002070BD704700000000000008
:105040002DE9F04F87B004464AF61000C4F2000084
:1050500001684AF61400C4F20000026820680A40A1
:10506000D0F850B0D0F85490056D466D036D0293A2
:10507000436D0193036D0693436D0593036D049394
:10508000436D0393D0F854A0D0F850805FEACA5320
:1050900010D518F480710DD04FF4807101654AF677
:1050A00010010020C4F20001174608602046FFF7F7
:1050B000C3FF3A460BEA090B4AF610095FEA4A5069
:1050C000C4F200094FEA82771AD518F4806017D02D
:1050D00020689146D0F8DC10D0F8E42011404FF45D
:1050E000806202654AF61002C4F2000200201060DD
:1050F000204600F0E5FC4A464AF61009C4F20009D1
:1051000005EA06050BF4704657B1206800210165D9
:1051100002F00300C9F8000020463946FFF72CFED4
:10512000DDE9011000EA010705F00F0546B120682E
:10513000314606650020C9F80000204600F0C8FC92
:1051400007F0F00645B12068294605650020C9F83A
:105150000000204600F0D0FB46B1206831460665CD
:105160000020C9F80000204600F072FC5FEA0A50F7
:105170000CD518F4006009D020684FF40061016577
:105180000020C9F80000204600F0A6FC5FEA8A5023
:1051900011D518F400700ED02068D0F8D810D0F8CF
:1051A000E02011404FF4007202650020C9F80000B1
:1051B000204600F089FC5FEA0A300CD518F4002084
:1051C00009D020684FF4002101650020C9F80000D3
:1051D000204600F08DFB5FEACA300CD518F4803011
:1051E00009D020684FF4803101650020C9F8000023
:1051F000204600F061FC5FEA4A30DDE9031000EA76
:1052000001050CD518F4802009D020684FF48021C6
:1052100001650020C9F80000204600F049FC5FEA63
:105220008A30DDE9051000EA010005F060710FD554
:1052300018F400320CD022684FF4003313650022BA
:10524000C9F80020D4F89C2042F08002C4F89C20C9
:1052500000F0715539B1206801650020C9F80000DF
:105260002046FFF721FE4DB1206805650020C9F8F2
:105270000000D4F89C002843C4F89C002068A9F5DD
:105280000161884209D0D4F89C00002868D02046EB
:1052900007B0BDE8F04FFFF703BE6068816889077B
:1052A000F1D0016A426A036A476A114003EA0702C1
:1052B00002F03005D0F82080D0F82490D0F820B04B
:1052C000466A026A069211F00F01426A0592D0F80E
:1052D00024A0026A049203D00162204600F0DCFBA5
:1052E00008EA09072DB1606829460562204600F0EA
:1052F000DBFB5FEA4A6006EA0B0607F4C0750ED5D1
:10530000049810F040000AD060684023C16BC26B63
:10531000090C02F03F020362204600F0C1FBDDE908
:10532000051000EA010706F4FC462DB16068294625
:105330000562204600F0ACFB07F4F02036B161684E
:105340000E62D4F89C103143C4F89C1000289AD007
:1053500061680862D4F89C100843C4F89C0092E786
:1053600007B0BDE8F08F000040B32DE9F04F83B0E7
:105370004AF200080446C4F200080068404502D121
:1053800008F58070606094F8980028B9002084F8CF
:105390009900204600F0CCF92068816921F01001C5
:1053A000816100F079FC054620688169090707D50D
:1053B00000F072FC401B0B28F6D312E0012070476E
:1053C000816941F00101816100F066FC054600BF82
:1053D00020688169C90711D100F05EFC401B0B28D1
:1053E000F6D30120D4F89C100843C4F89C00032095
:1053F00084F89800012003B0BDE8F08F816941F086
:1054000002018161217C826922F04002012918BFDA
:1054100040328261617C826922F48042012908BFA6
:1054200002F580428261A17C826922F480520129C6
:1054300018BF02F580528261816921F44073D4E97A
:1054400002120B438361836923F0A4038361036920
:1054500023F0100303619AB1012A0DD0022A09D06A
:105460008369032A43F080038361036943F01002D8
:10547000026105D1202200E0042283691A4382617F
:10548000D4E90572E369561E6FF0FF02256A02EB4C
:105490000323B1F5407F43EA4663A5F1010646EADE
:1054A000030640F20003CFF6FF7303EB074746EA1B
:1054B0000701C16110D1D4E90B65D4E90917013F97
:1054C00002EB06226FF00F063A4306EB05173A434C
:1054D00003EB01411143C160236E2BB1616ED0F823
:1054E000C0201143C0F8C010E16DCDE90113D942CD
:1054F00043F64831C0F6010109D0D0F8C820A36EA8
:1055000022F0070251F823301A43C0F8C820D4F81B
:1055100040C0BCF1000F09D0D0F8BC20636C22F071
:10552000070251F823301A43C0F8BC20D4F848B021
:10553000BBF1000F0AD0D0F8BC20E36C22F070025F
:1055400051F8233042EA0312C0F8BC20D4F850A02E
:10555000BAF1000F0AD0D0F8BC20636D22F4E062EB
:1055600051F8231042EA0121C0F8BC10404504D193
:1055700061688A6822F003028A600021C4F89410EE
:10558000C4F89C10012184F8981004F13409D0F873
:1055900084104FF6FC729143656C99E80C020095FB
:1055A00041EA8201C0F88410D0F8841021F47F0110
:1055B00041EA0341C0F884109918D0F888306FF39D
:1055C0008F0343EA8103C0F88830D0F8883023F491
:1055D000FE0343EA0943C0F8883001EB4903D0F8E1
:1055E000A0606FF38F0646EA8306C0F8A060D0F88B
:1055F000A06026F4FE0646EA0C46C0F8A06005FB53
:105600000C36D0F8B0306FF38F0343EA8603C0F84E
:10561000B030D0F8B03023F4FE0343EA0B43C0F8B7
:10562000B030E36CD0F8AC506FF38F0503FB0B6622
:1056300045EA8605C0F8AC50D4F8548008FB0A65EA
:10564000D0F8F0606FF38F0646EA8506C0F8F06088
:10565000D0F8F0E0A66D2EF47C1747EA0647C0F8B4
:10566000F070F70007EB8507D0F8C0506FF38F0597
:105670002F43C0F8C070D0F8C070009DDDF804E082
:1056800027F47C1705FB0CFC4AF2000547EA0E479D
:10569000C0F8C070C4F2000503FB0BC305F54067FA
:1056A000D0F8C05007EB820207EB810125F07C5750
:1056B000029D47EA0567C0F8C07001EBC90008FB0E
:1056C0000A372167A16E00EB8C0C606700EB830347
:1056D000E266C4E91EC30EFB01F300EB87006943D9
:1056E000C4F8800000EBC600C4F8840000EB83001F
:1056F000C4F8880000EB81004DF2FC31C4F20001D7
:10570000C4F89000884201D920206BE6824208D27A
:10571000002000BF42F8040BD4F890108A42F9D35D
:1057200069E6002003B0BDE8F08F00000000000033
:10573000B0B5B6B0044602A8B8210025CDE934556D
:10574000CDE932553195FAF73BFF4DF20041206823
:10575000C4F20001884278D04AF20041C4F200014C
:10576000884239D04AF20001C4F20001884240F078
:10577000BC80002003904FF4004002904FF0805016
:105780001D9002A800F02CFF08B1FCF711FB40F2BD
:10579000047144F2E040C2F20041C5F602000A681A
:1057A000002A02F101020A6008D1C16841F4807147
:1057B000C160C16801F480710191019901681524EB
:1057C00041F0080101600068132500F00800019015
:1057D0000198092103226AE0002003904FF4004061
:1057E00002904FF080501D9002A800F0F9FE08B121
:1057F000FCF7DEFA40F2047144F2E040C2F20041EC
:10580000C5F602000A68002A02F101020A6008D106
:10581000C16841F48071C160C16801F48071019177
:1058200001990168162441F0020101600068142505
:1058300000F00200019040F600400199C5F6020018
:105840000921A0F50060602235E04FF4004002908D
:105850004FF080501D9002A8039500F0C1FE08B1E2
:10586000FCF7A6FA40F2047144F2E040C2F20041B3
:10587000C5F602000A68002A02F101020A6008D196
:10588000C16841F48071C160C16801F48071019107
:1058900001990168A02441F00801016000689F257A
:1058A00000F00800019005214FF44052019840F6A5
:1058B0000040C5F60200359131A9319202223292A0
:1058C0000022CDE9332200F00BF905210022284601
:1058D00000F0AEFA284600F097FA05210022204693
:1058E00000F0A6FA204600F08FFA36B0B0BD0000F6
:1058F0007047000000000000B0B547F60001044604
:10590000C2F2004188420CD047F6A000C2F200402B
:1059100084422AD047F64010C2F20040844244D06C
:10592000B0BD47F6A47547F60000C2F2004547F641
:105930009973C2F20040C2F2004340212A46FFF7A9
:10594000B7FA286840F2052188426AD012284ED062
:105950001128D9D147F6997046F62851C2F2004075
:10596000C2F20041FBF7F0FECEE747F6A47547F61A
:105970009973C2F20045C2F2004340212A46FFF764
:1059800097FA286840F20321884255D012283BD06C
:105990001128BFD147F6997044F65401C2F2004075
:1059A000C2F20041FBF7D0FEB4E747F6A47447F615
:1059B0009973C2F20044C2F2004340212246FFF72D
:1059C00077FA206838B1012818BFB0BD46F6847157
:1059D000C2F2004103E047F2E411C2F2004147F68F
:1059E0009970C2F20040BDE8B040FBF7ADBE46F68C
:1059F0002850C2F2004000F1380147F69970C2F217
:105A00000040FBF7A1FE7FE744F65400C2F20040DD
:105A100000F1380147F69970C2F20040FBF794FE9E
:105A200078E747F6997046F69C51C2F20040C2F200
:105A30000041FBF70DFE67E747F6997044F6C80191
:105A4000C2F20040C2F20041FBF702FE62E7000032
:105A5000704700000000000090F8981001290CD158
:105A6000022180F8981001688A6922F001028A6197
:105A70000021C0F89C1000207047D0F89C1041F025
:105A80000401C0F89C1001207047000000000000D5
:105A90007047000000000000704700000000000098
:105AA0007047000000000000704700000000000088
:105AB0007047000000000000704700000000000078
:105AC0007047000000000000704700000000000068
:105AD0007047000000000000704700000000000058
