:020000040800F2
:10000000B0D20024E1030008E1500108A10D01086D
:10001000015001087117000801A601080000000046
:10002000000000000000000000000000416701081F
:10003000792C000800000000515C0108597F01087C
:10004000FF030008FF030008FF030008FF03000888
:10005000FF030008FF030008FF030008FF03000878
:10006000FF030008FF030008FF030008FF03000868
:10007000FF030008991E0008A91E0008B91E000809
:10008000C91E0008FF030008FF030008A93200088A
:10009000C9320008B9320008D9320008FF0300084D
:1000A000FF030008FF030008FF030008FF03000828
:1000B000D1810108FF030008FF030008FF030008C7
:1000C000FF030008FF030008FF030008FF03000808
:1000D000FF03000821A1010831A10108FF03000866
:1000E000FF030008FF03000800000000FF030008F2
:1000F000FF030008FF030008FF030008FF030008D8
:10010000FF030008FF030008FF030008FF030008C7
:10011000FF030008B98D0108FF030008FF03000872
:10012000D91E0008E91E0008FF030008FF030008AD
:10013000FF030008FF030008FF030008FF03000897
:1001400000000000000000000000000000000000AF
:10015000FF030008FF030008F91E0008FF03000862
:10016000FF030008FF030008FF030008FF03000867
:10017000FF030008FF030008FF0300080000000061
:10018000FF030008FF030008FF030008FF03000847
:10019000FF030008FF030008FF030008FF03000837
:1001A000FF030008FF030008FF0300080000000031
:1001B000FF030008FF030008FF030008FF03000817
:1001C000FF030008FF03000800000000000000001B
:1001D0000000000000000000FF0300080000000015
:1001E000000000000000000000000000000000000F
:1001F0000000000000000000FF030008FF030008EB
:10020000FF030008FF03000800000000FF030008D0
:10021000FF030008FF030008FF030008FF030008B6
:10022000FF03000800000000FF03000800000000BA
:10023000FF030008FF03000800000000FF030008A0
:10024000FF030008FF030008FF030008FF03000886
:10025000FF030008FF030008FF030008FF03000876
:10026000FF030008FF030008FF030008FF03000866
:10027000FF030008FF030008FF0300080000000060
:10028000FF030008FF030008FF030008FF03000846
:1002900000000000FF030008FF030008000000004A
:1002A00000000000FF030008FF030008FF03000830
:1002B000FF030008FF030008FF030008E9320008FD
:1002C000F9320008FF030008FF03000800F002F8FD
:1002D00000F076F814A696E8000CB244B344DA4570
:1002E00001D100F06DF8BAE80F000FA696E83000D3
:1002F000A5EB040504EB0607AAEB0704A7F1010729
:100300004FEA15154FEA3414A4F10104AC4201D3AD
:1003100000F056F813F0010F18BFFB1A43F0010369
:1003200000F001F8DBE71847CCF50100ECF501001F
:100330000A4410F8013B13F0030408BF10F8014B06
:100340001D1108BF10F8015B641E05D010F8016B89
:10035000641E01F8016BF9D1002D15D010F8014B86
:1003600003F00C030C2BA1EB04040ABF10F8013BB3
:10037000A4EB8314A4EB032405F1010314F8016B2F
:100380005B1E01F8016BF9D5914238BF10F8013BB3
:10039000D1D37047704700000023002400250026B9
:1003A000103A28BF78C1FBD8520728BF30C148BFD8
:1003B0000B6070471FB51EF02AFD1FBD10B510BDA4
:1003C00000F043F91146FFF7F5FF1CF041F800F08B
:1003D00061F903B4FFF7F2FF03BC00F027F9000056
:1003E0000A4880470A4880470A480047FEE7FEE778
:1003F000FEE7FEE7FEE7FEE7FEE7FEE7FEE7FEE7D5
:1004000005480649064A074B70470000813200083C
:1004100069800108CD020008B0C80024B0D20024D1
:10042000B0CA0024B0CA002453EA020C00F069806C
:100430002DE9F04B4FF00006002B1FBFB3FA83F5F8
:1004400003FA05F424FA05F65E4012BF1643B2FA29
:1004500082F502FA05F4C5F120051EBF22FA05FC5B
:1004600044EA0C04203556EA044C4FEA144418BF01
:10047000641C4FF000084FF00009904271EB030C30
:1004800039D3002919BFB1FA81F701FA07F6B0FA9A
:1004900080F700FA07F6C7F120071EBF20FA07FC15
:1004A00046EA0C062037B6FBF4FCA7EB0507103F25
:1004B00007F01F0BCBF120062CFA06F60CFA0BFB0B
:1004C00044BFB3460026202FA4BF5E464FF0000B6A
:1004D0005BEA060C08BF4FF0010B19EB0B0948EB68
:1004E0000608ABFB027C06FB02CC0BFB03CCC01B5B
:1004F00071EB0C01C1E70B46024641464846BDE898
:10050000F08B13B5084318BF4FF0FF300146AFF32F
:100510000080BDE81C40704710B5203AC0F00B8049
:10052000B1E81850A0E81850B1E81850A0E81850E9
:10053000203ABFF4F5AF5FEA027C24BFB1E818505F
:10054000A0E8185044BF18C918C0BDE810405FEAC1
:10055000827C24BF51F8043B40F8043B08BF70473D
:10056000D20728BF31F8023B48BF11F8012B28BF42
:1005700020F8023B48BF00F8012B70474FF0000203
:100580000429C0F0128010F0030C00F01B80CCF1A5
:10059000040CBCF1020F18BF00F8012BA8BF20F813
:1005A000022BA1EB0C0100F00DB85FEAC17C24BF67
:1005B00000F8012B00F8012B48BF00F8012B704711
:1005C0004FF0000200B5134694469646203922BFEC
:1005D000A0E80C50A0E80C50B1F12001BFF4F7AF37
:1005E000090728BFA0E80C5048BF0CC05DF804EB19
:1005F000890028BF40F8042B08BF704748BF20F887
:10060000022B11F0804F18BF00F8012B7047704784
:100610007047704710B500F013F8006810BD10B5B2
:10062000044600F00DF8046010BD000001491820D8
:10063000ABBEFEE7260002000048704728060024F3
:10064000004870472806002470477546FFF7F4FFFE
:10065000AE4605006946534620F00700854618B0AF
:1006600020B5FFF7CDFEBDE820404FF000064FF06B
:1006700000074FF000084FF0000BAC46ACE8C00993
:10068000ACE8C009ACE8C009ACE8C00921F007013A
:100690008D46704710B50446AFF300802046BDE894
:1006A0001040FFF796BE000080B584B00390039819
:1006B000006842F20001C4F20201884209D0FFE75B
:1006C0000398006842F20011C4F20201884209D185
:1006D000FFE742F20830C4F20200006810F4403F25
:1006E00009D129E046F20830C5F60200006810F48E
:1006F000403F21D0FFE70CF083F902900398406857
:100700000190B0F5803F0AD0FFE70198B0F5003FB7
:1007100005D0FFE70198B0F5403F07D00AE0039805
:10072000C1880298B0FBF1F0029004E002988008C2
:10073000029000E0FFE75FE04FF4002000210AF0A4
:100740006BF90290039840680090B0F5802F32D08A
:10075000FFE70098B0F5002F2DD0FFE70098B0F527
:10076000402F28D0FFE70098B0F5801F23D0FFE787
:100770000098B0F5A01F1ED0FFE70098B0F5C01F8D
:1007800019D0FFE70098B0F5E01F1FD0FFE70098F1
:10079000B0F5001F1ED0FFE70098B0F5101F1DD068
:1007A000FFE70098B0F5201F1CD0FFE70098B0F5D8
:1007B000301F1BD01EE0039841686FF0010000EA73
:1007C00051410298B0FBF1F0029014E00298000948
:1007D000029010E00298400902900CE00298800913
:1007E000029008E00298C009029004E00298000A12
:1007F000029000E0FFE7FFE70298400802900298AD
:1008000045F61061C0F25F01884209D8FFE70398FE
:100810000068806820F440700399096888602EE0C1
:1008200002984BF62041C0F2BE0188420AD8FFE789
:10083000039800688068012161F309200399096821
:1008400088601BE0029847F64001C0F27D118842A3
:100850000AD8FFE7039800688068022161F3092045
:1008600003990968886008E003980068806840F48C
:100870004070039909688860FFE7FFE7FFE704B06D
:1008800080BD00000000000080B58AB0089007918C
:1008900000200590079804900898006813F05CF910
:1008A00002900898006813F017F90190029828B98F
:1008B000FFE70198002800F0A880FFE7089800688B
:1008C000C0688001002836D5FFE70898407E0128DF
:1008D00031D1FFE70898007E01282CD1FFE70120E5
:1008E0000490FFE708980068006800F040010020CD
:1008F000B0EB911F1AD1FFE705984DF60041C0F209
:100900000C0188420ED3FFE70899086E40F01000F2
:1009100008660899486E40F00100486601208DF88D
:10092000270076E0059801300590DBE7089801681C
:1009300040200860FFE70498022813D0FFE70898DA
:10094000006813F009F960B1FFE70898006813F038
:10095000E3F828B9FFE70898006813F03DF9FFE7CE
:10096000FFE7FFE70498012813D0FFE70898006825
:1009700013F0B2F860B1FFE70898006813F0CCF804
:1009800028B9FFE70898006813F0AEF8FFE7FFE723
:10099000FFE704980090022807D0FFE7009803289B
:1009A00006D1FFE70C20039005E00820039002E049
:1009B00004200390FFE709F0D3FA0690FFE70898B8
:1009C00000688068039908421ED0FFE709F0C8FA62
:1009D0000699401A062816D3FFE708980068806831
:1009E000039908420ED0FFE70899086E40F0100006
:1009F00008660899486E40F00100486601208DF8AD
:100A0000270006E0FFE7DAE7FFE700208DF8270080
:100A1000FFE79DF827000AB080BD0000000000003D
:100A200080B584B002900298006813F075F80090C9
:100A30000298006813F078F800284BD0FFE7009880
:100A4000002847D1FFE702980068806800F00D0099
:100A5000012809D1FFE70298006812F0E1FF02982F
:100A60000168032008600DE00299086E40F0100054
:100A700008660299486E40F00100486601208DF832
:100A80000F002BE009F06CFA0190FFE70298006874
:100A90008068C007E8B1FFE709F062FA0199401ADF
:100AA000032815D3FFE7029800688068C00770B17B
:100AB000FFE70299086E40F0100008660299486E40
:100AC00040F00100486601208DF80F0006E0FFE7C6
:100AD000DCE7FFE700208DF80F00FFE79DF80F002F
:100AE00004B080BD0000000080B586B0049004987A
:100AF000006813F019F8002840F09280FFE704988E
:100B0000006880683F21C8F2000108420ED0FFE76C
:100B10000499086E40F0100008660499486E40F091
:100B20000100486601208DF817007DE004980068F8
:100B300012F092FF09F014FA039004980168012062
:100B400042F20002C4F20202914201900CD0FFE78F
:100B5000049800684DF60071CBF6FD710844B0FAB8
:100B600080F040090190FFE70198C10746F200308C
:100B7000C5F6020000291CBF42F20030C4F2020098
:100B800012F092FF02900498006842F20011C4F241
:100B90000201884206D1FFE742F20000C4F20200DF
:100BA000009003E0049800680090FFE70098049923
:100BB0000968884203D0FFE7029880BBFFE7FFE7A0
:100BC000049800680068C00740BBFFE7049800680D
:100BD00012F0AAFF28B9FFE70498006812F03CFF62
:100BE000FFE709F0BDF90399401A032815D3FFE781
:100BF000049800680068C00770B9FFE70499086EA0
:100C000040F0100008660499486E40F00100486604
:100C100001208DF8170007E0FFE7D1E7FFE7FFE7C6
:100C200000208DF81700FFE79DF8170006B080BD83
:100C300080B547F69430C2F200404CF2D621C2F2A1
:100C400000414FF480720EF06BFD47F2C460C2F2B7
:100C5000004000681021C4F20201884200F0B28016
:100C6000FFE747F2C460C2F2004000682821C4F2E6
:100C70000201884200F0A680FFE747F2C460C2F29A
:100C8000004000684021C4F20201884200F09A80CE
:100C9000FFE747F2C460C2F2004000685821C4F286
:100CA0000201884200F08E80FFE747F2C460C2F282
:100CB000004000687021C4F20201884200F0828086
:100CC000FFE747F2C460C2F2004000688821C4F226
:100CD0000201884276D0FFE747F2C460C2F20040CA
:100CE0000068A021C4F2020188426BD0FFE747F2FE
:100CF000C460C2F200400068B821C4F20201884218
:100D000060D0FFE747F2C460C2F20040006840F2E2
:100D10001041C4F20201884254D0FFE747F2C46098
:100D2000C2F20040006840F22841C4F20201884249
:100D300048D0FFE747F2C460C2F20040006840F2CA
:100D40004041C4F2020188423CD0FFE747F2C46050
:100D5000C2F20040006840F25841C4F202018842E9
:100D600030D0FFE747F2C460C2F20040006840F2B2
:100D70007041C4F20201884224D0FFE747F2C46008
:100D8000C2F20040006840F28841C4F20201884289
:100D900018D0FFE747F2C460C2F20040006840F29A
:100DA000A041C4F2020188420CD0FFE747F2C460C0
:100DB000C2F20040006840F2B841C4F20201884229
:100DC0000AD1FFE747F2C460C2F200400168086838
:100DD00020F00800086009E047F2C460C2F2004059
:100DE0000168086820F004000860FFE780BD00008B
:100DF00010B586B04CF2D620C2F200400078AA2886
:100E000040F0EA81FFE74CF2D620C2F2004090F8B1
:100E10003F00FE2840F0E081FFE74CF2D621C2F20D
:100E20000041009148788A7840EA022000B200EE42
:100E3000100AB8EEC00A9FEDE91A8DED011A80EE96
:100E4000010A40F29C6CC2F2004C8CED000AC8789A
:100E50000A7940EA022000B200EE100AB8EEC00A99
:100E600080EE010A8CED010A487FC0098DF8170059
:100E7000487FC0F341108DF81600487FC0F3001082
:100E80008DF81500487FC0F381008DF81400487F6D
:100E9000C0F3400047F25E22C2F200421070487F69
:100EA00000F0010346F67462C2F20042507A00F08C
:100EB000DF0040EA431050729DF8170046F63C727E
:100EC000C2F2004210709DF8160047F26222C2F290
:100ED000004210709DF815004CF24452C2F20042DC
:100EE00010709DF814004CF24652C2F2004210708D
:100EF000487E8A7E40EA022000B200EE100AB8EE78
:100F0000C00A80EE010A47F2A012C2F2004282ED4E
:100F1000070AC87E0B7F40EA032000B200EE100AE9
:100F2000B8EEC00A80EE010A9FEDAD2A20EE020A5B
:100F300046F64070C2F2004080ED060A8B7F91F8C1
:100F40001FE043EA0E2347F2603EC2F2004EAEF8C5
:100F5000003091F8203091F821E043EA0E2347F267
:100F6000602EC2F2004EAEF8003091F8223000EE52
:100F7000103AB8EE400A4CF2F833C2F2004383ED67
:100F8000000A91F8233003F00F0348F2040EC2F276
:100F9000004EAEF8003091F824E091F8254091F829
:100FA00026301B0443EA0423734447F69C7EC2F2B6
:100FB000004ECEF8003091F8273048F27D0EC2F294
:100FC000004E8EF8003091F82930DB0940F2445E83
:100FD000C2F2004E8EF8003091F82930C3F384033A
:100FE0004CF2455EC2F2004E8EF8003091F8293086
:100FF000C3F340034CF2475EC2F2004E8EF800305D
:1010000091F8293003F0010348F27C0EC2F2004E41
:101010008EF8003091F82A308CF8083091F82B3097
:101020008CF8093091F82C104BF6D443C2F20043EF
:10103000197048F28C01C2F200410491AB230B708D
:10104000FD2381F83F3092ED010A20EE010ABDEE4A
:10105000C00A10EE103A4B7692ED010A20EE010A1A
:10106000BDEEC00A10EE103A1B0A8B7692ED020A12
:1010700020EE010ABDEEC00A10EE103ACB7692EDDA
:10108000020A20EE010ABDEEC00A10EE102A120A72
:101090000A7790ED010A20EE010ABDEEC00A10EEBB
:1010A000102A4A7790ED010A20EE010ABDEEC00A2F
:1010B00010EE102A120A8A7790ED020A9FED491A63
:1010C00020EE010ABDEEC00A10EE102ACA7790ED9C
:1010D000020A20EE010ABDEEC00A10EE100A000A54
:1010E00081F8200040F2B863C2F200430293187BFB
:1010F00040F001001873187B40F002001873187B51
:1011000040F00400187347F27C22C2F20042002033
:10111000039082F8800040F29960C2F200400078AB
:10112000C00192F8802040EA82105A781B7B03F0BD
:10113000010C40EA4C10C3F3400C40EA0C10C3F31E
:10114000800340EAC300104381F8210011F074F8D5
:10115000049981F8230011F06FF80499000A81F8CE
:10116000240011F059F8049981F8270011F054F87F
:101170000499000A81F8280011F056F8049981F8C2
:10118000290011F051F80499000A81F82A0011F0A1
:101190003BF8049981F82B0011F036F80499039874
:1011A00081F82C0011F058F8049981F82D0040F2D4
:1011B0008050C2F20040007881F82E0047F64C7251
:1011C000C2F200420120107047F69430C2F2004093
:1011D00040220FF0C9FBFFE706B010BD00007A44C3
:1011E000EC51383E0000C84280B540F60000C5F61C
:1011F00002000122114608F09BFE80BD00000000A5
:1012000080B540F60000C5F602000121002208F07A
:101210008FFE80BD0000000070470000000000004D
:1012200080B540F60000C5F602000821012208F052
:101230007FFE80BD0000000080B540F60000C5F6CE
:1012400002000821002208F073FE80BD00000000AB
:10125000704700000000000080B582B0ADF80600C5
:10126000FFE7BDF80600411EADF8061028B1FFE704
:101270004FF47A7000F004F8F3E702B080BD00008C
:1012800086B0ADF816000020049003900290019003
:1012900000904EF21400CEF2000000680090BDF8FD
:1012A0001600C0EB0010400104904EF21800CEF280
:1012B000000000680390FFE74EF21800CEF2000035
:1012C000006802900298039988421ED0FFE70298B6
:1012D0000399884207D2FFE703980299411A0198BF
:1012E0000844019008E000980299401A03990144CB
:1012F000019808440190FFE702980390019804992F
:10130000884201D3FFE701E0FFE7D5E706B0704769
:1013100080B582B000208DF80700FFF77DFFFFF752
:1013200097FF1AF005FC01469DF8070008438DF869
:1013300007001AF0C5FC01469DF8070008438DF828
:1013400007009DF8070002B080BD0000000000000B
:1013500080B588B007900691059200200090049017
:101360000390FFF74DFF922000F00AF9122003A925
:101370000191062200F0CCF8FFF736FF9DF80C0033
:101380009DF80D1040EA0120ADF80A00BDF90A00F1
:1013900000EE100AB8EEC00A40F20000C2F20040AF
:1013A00090ED001A20EE010A069981ED000A9DF8E1
:1013B0000E109DF80F2041EA0221ADF80A10BDF988
:1013C0000A1000EE101AB8EEC00A90ED001A20EED6
:1013D000010A069981ED010A9DF810109DF811206F
:1013E00041EA0221ADF80A10BDF90A1000EE101A08
:1013F000B8EEC00A90ED001A20EE010A069880EDC2
:10140000020AFFF719FF00980199082200F080F8FE
:10141000FFF706FF9DF80C000F2844D1FFE79DF869
:101420000E009DF80F1040EA0120ADF80A00BDF94A
:101430000A0000EE100AB8EEC00A40F20400C2F240
:10144000004090ED001A20EE010A079981ED000A94
:101450009DF810109DF8112041EA0221ADF80A1004
:10146000BDF90A1000EE101AB8EEC00A90ED001A8D
:1014700020EE010A079981ED010A9DF812109DF8EE
:10148000132041EA0221ADF80A10BDF90A1000EE5E
:10149000101AB8EEC00A90ED001A20EE010A079863
:1014A00080ED020AFFE7FFF7ABFEA22000F068F82C
:1014B000222003A9022200F02BF8FFF795FE9DF8E9
:1014C0000C009DF80D10C00040EA5110ADF80A0064
:1014D000BDF90A00B0F5806F07DBFFE7BDF80A0031
:1014E000A0F50060ADF80A00FFE7BDF90A0000EEC4
:1014F000100AB8EEC01AB4EE002AB3EE070AA1EE45
:10150000020A059880ED000A08B080BD00000000C6
:1015100080B584B08DF80F0002918DF807209DF8FA
:101520000F0040F0800000F02BF8FFE79DF8070067
:1015300070B1FFE7552000F023F802990870029877
:10154000013002909DF8070001388DF80700EDE7A3
:1015500004B080BD0000000080B582B08DF80700A7
:1015600000919DF8070040F0800000F009F8552038
:1015700000F006F80099087002B080BD000000007D
:1015800080B582B08DF8070069464FF47A70086024
:1015900047F69410C2F200400DF107010DF106026A
:1015A00001230CF041FB9DF8060002B080BD000055
:1015B00080B582B08DF807008DF806109DF8070001
:1015C000FFF7DEFF9DF80600FFF7DAFF02B080BDEF
:1015D00080B58CB040F21450C2F20040049090EDFF
:1015E000001A44F69000C2F2004090ED012A46F63F
:1015F000C870C2F2004090ED1F0A30EE422AB7EEEA
:10160000000A8DED0B0A30EE410A47F29811C2F242
:10161000004191ED003A20EE030AA1EE020A81EDAD
:10162000000A40F21852C2F20042089292ED000AFB
:101630008DED030A91ED000A8DED020A90ED152A59
:1016400090ED1E0A90ED1F1A21EE021A8DED011A7F
:1016500019F072FF9DED013A9DED021A9DED032AEE
:101660000498089AB0EE404A9DED0B0A23EE043A26
:101670009FED3E4A8DED064AA1EE043A92ED001A26
:1016800030EE411A47F25421C2F200410A9191ED25
:10169000004A21EE041AA2EE031A81ED001A90ED21
:1016A000001A46F66450C2F2004090ED012A47F25B
:1016B0006000C2F2004090ED1F3A32EE032A30EE95
:1016C000410A47F29C11C2F2004191ED003A20EE2E
:1016D000030AA1EE020A81ED000A92ED000A8DEDE7
:1016E000090A91ED000A8DED070A90ED152A90ED9B
:1016F0001E0A90ED1F1A21EE021A8DED051A19F03F
:101700001BFF9DED052A9DED064A9DED073A0898C1
:101710009DED091A0A99B0EE405A9DED0B0A22EE92
:10172000052AA3EE042A90ED003A30EE430A47F270
:101730005820C2F2004090ED003A20EE030AA1EEDC
:10174000020A80ED000A91ED000A90ED001A30EED9
:10175000010AB6EE001A20EE010A47F25020C2F24A
:10176000004080ED000A0CB080BD00BF23DB793D56
:10177000FFE7FEE70000000080B516F0E5FB40F251
:10178000164015F009FE14F08BFE80BD000000002D
:1017900080B516F0D9FB4FF4F76015F0FDFD14F09D
:1017A0007FFE80BD0000000080B516F0CDFB40F24A
:1017B0000B2015F0F1FD14F073FE80BD0000000059
:1017C00080B516F0C1FB40F2BA2015F0E5FD14F02B
:1017D00067FE80BD0000000080B582B047F61C2087
:1017E000C2F20040019004210DF07EFB01980168D7
:1017F0000020886302B080BD80B516F0A5FB4FF4D1
:101800005C7015F0C9FD14F04BFE80BD00000000B7
:1018100080B590B0002006900890099002210491B4
:101820000A91012105910B910C900D9047F2B47033
:10183000C2F20040019008A9039106F0E5FF049A66
:10184000069B019869460B60114607F069F80599F7
:10185000069A019806F094FE059A0198114606F042
:101860007FFF019808F024F9039947F65400C2F26B
:101870000040029006F0C8FF049A069B0298694651
:101880000B60114607F04CF8059A0298114606F0D5
:1018900067FF0599069A029806F072FE029808F012
:1018A00007F9039947F6F400C2F20040079006F0EA
:1018B000ABFF049A069B079869460B60114607F038
:1018C0002FF8059A0798114606F04AFF0599069ADF
:1018D000079806F055FE079808F0EAF810B080BDAA
:1018E00080B58CB00B90ADF82A100992BDF92A0092
:1018F000009000200190029008210391049005902F
:101900000690079008900B98099A694606F0B8FE71
:1019100040B1FFE747F25C21C2F200410888013084
:101920000880FFE70CB080BD2DE9F04FA3B02290F6
:1019300040F6C4101AF064FFFFE744F69000C2F2CC
:10194000004090ED050AB1EE400A47F65400C2F29D
:10195000004013904FF4007100F0D2F946F6645045
:10196000C2F2004090ED050A47F2B470C2F20040A6
:10197000189040F2FF1100F0C3F901201A901AF0FC
:101980003FFF46F6C870C2F20040109090ED090A81
:1019900044F61C00C2F200401190816BC26B036CD4
:1019A000D0F844C0846CC56C066D476DD0F8588083
:1019B000D0F85C90D0F860A0D0F864B0D0F868E0BF
:1019C000CDF830E0D0F86CE068460D90C0F828E023
:1019D0000C98DDF834E0CEF824001398CEF820B04F
:1019E000CEF81CA0CEF81890CEF81480CEF8107067
:1019F000CEF80C60CEF80850CEF80440CEF800C007
:101A000001F09AF847F26000C2F20040159090EDA4
:101A10000A0A46F6F040C2F200401690816BC26B93
:101A2000036CD0F844C0846CC56C066D476DD0F86B
:101A30005880D0F85C90D0F860A0D0F864B0D0F8AE
:101A400068E0CDF838E0D0F86CE068460F90C0F858
:101A500028E00E98DDF83CE0CEF824001898CEF887
:101A600020B0CEF81CA0CEF81890CEF81480CEF896
:101A70001070CEF80C60CEF80850CEF80440CEF8C6
:101A800000C001F059F81099119891ED0A0A016807
:101A9000129142688368D0F80CC004694569866970
:101AA000C769D0F82080D0F82490D0F828A0D0F8CA
:101AB0002CB0D0F830E0406B6946149188621299DE
:101AC0001498C0F824E01398DDF850E0CEF820B068
:101AD000CEF81CA0CEF81890CEF81480CEF8107076
:101AE000CEF80C60CEF80850CEF80440CEF800C016
:101AF00001F022F81599169891ED090A01681791DD
:101B000042688368D0F80CC0046945698669C76972
:101B1000D0F82080D0F82490D0F828A0D0F82CB0AD
:101B2000D0F830E0406B694619918862179919988E
:101B3000C0F824E01898DDF864E0CEF820B0CEF8C4
:101B40001CA0CEF81890CEF81480CEF81070CEF805
:101B50000C60CEF80850CEF80440CEF800C000F07B
:101B6000EBFF1A981AF04CFE47F24430C2F20040E4
:101B7000D0ED000A47F2A010C2F200401B900168AD
:101B800042688368D0F80CC0CDF870C0D0F810E07F
:101B900044698569C669076AD0F82480D0F828901E
:101BA000D0F82CA0D0F830B0D0F834C068461D90E2
:101BB000C0F828C01C98DDF874C0CCF824B0CCF86C
:101BC00020A0CCF81C90CCF81880CCF81470CCF87D
:101BD0001060CCF80C50CCF80840CCF804E0CCF8FD
:101BE000000047F6F400C2F200402090DFED221A18
:101BF000B0EE082AB0EE610AB0EE611A00F0E4FE21
:101C000046F64070C2F200401E9090ED060A8368CE
:101C100001681F914268D0F80CC004694569866963
:101C2000C769D0F82080D0F82490D0F828A0D0F848
:101C30002CB0D0F830E0406B6946219188621F9942
:101C40002198C0F824E02098DDF884E0CEF820B098
:101C5000CEF81CA0CEF81890CEF81480CEF81070F4
:101C6000CEF80C60CEF80850CEF80440CEF800C094
:101C700000F062FF61E600BF00000000000000000D
:101C800082B00190009101980178407840EA0120EB
:101C90000099088001988178C07840EA012000B25C
:101CA00000EE100AB8EEC00A9FED121A80EE010A8B
:101CB00030EE000A9FED101A20EE010A9FED0F1A78
:101CC00080EE010A009880ED010A01988178C078C1
:101CD00040EA01200099088101980179407940EAA1
:101CE000012000994881019880790099087302B019
:101CF000704700BF00007042DA0F49407B146E410C
:101D000080B588B005AA0192024601980792ADF805
:101D10001A1080ED000A00210491039190ED000A51
:101D20009FED2E1A80EE010A9FED2D1A80EE010A1A
:101D3000B3EE041A80EE010A9FED2A1A20EE010A82
:101D4000BDEEC00A10EE100AADF80A00079847F67B
:101D50005401C2F20041884208D1FFE7BDF80A00F1
:101D600044F69001C2F200410882FFE7079847F26B
:101D7000B471C2F20041884208D1FFE7BDF80A0001
:101D800046F66451C2F200410882FFE79DF80B005D
:101D90008DF80C009DF80A008DF80D009DF80B00E1
:101DA0008DF80E009DF80A008DF80F009DF80B00CD
:101DB0008DF810009DF80A008DF811009DF80B00B9
:101DC0008DF812009DF80A008DF813000798BDF9F0
:101DD0001A1003AAFFF784FD08B080BD7B146E4182
:101DE0000AD7A33C0000804680B584B003900291DE
:101DF0000398007800F00F000299087003980078AB
:101E00000009029948700398B0F8010040BA02999D
:101E1000D1ED090AB1EE600A10211BF099FD02987C
:101E200080ED010A0399C8780979000140EA111090
:101E30000299D1ED0A0AB1EE600A0C2101911BF062
:101E400087FD0199029880ED020A03980279407992
:101E500002F00F0240EA0220029AD2ED080AB1EE27
:101E6000600A1BF075FD029880ED030A03988079E3
:101E700000EE100AB8EE400A029880ED040A0398BA
:101E8000C07900EE100AB8EE400A029880ED050A0B
:101E900004B080BD0000000080B547F2E440C2F20B
:101EA000004004F035FA80BD80B547F26C40C2F2C4
:101EB000004004F02DFA80BD80B547F2C460C2F244
:101EC000004004F025FA80BD80B547F23C70C2F2B4
:101ED000004004F01DFA80BD80B547F2D450C2F234
:101EE000004004F015FA80BD80B547F24C60C2F2A4
:101EF000004004F00DFA80BD80B547F25C50C2F29C
:101F0000004004F005FA80BD83B002900298016899
:101F100001201022C4F202029142009000F0A3803E
:101F2000FFE70298016801202822C4F202029142D0
:101F3000009000F09880FFE702980168012040229D
:101F4000C4F202029142009000F08D80FFE70298F7
:101F5000016801205822C4F202029142009000F070
:101F60008280FFE70298016801207022C4F2020219
:101F70009142009077D0FFE7029801680120882203
:101F8000C4F20202914200906DD0FFE7029801680E
:101F90000120A022C4F202029142009063D0FFE728
:101FA000029801680120B822C4F202029142009016
:101FB00059D0FFE702980168012040F21042C4F2B4
:101FC0000202914200904ED0FFE702980168012082
:101FD00040F22842C4F202029142009043D0FFE74F
:101FE00002980168012040F24042C4F2020291428C
:101FF000009038D0FFE702980168012040F2584273
:10200000C4F20202914200902DD0FFE702980168CD
:10201000012040F27042C4F202029142009022D0AC
:10202000FFE702980168012040F28842C4F20202F0
:102030009142009017D0FFE702980168012040F21A
:10204000A042C4F20202914200900CD0FFE7029835
:1020500000684FF64831CBF6FD710844B0FA80F0C5
:1020600040090090FFE70098C00740B3FFE70298DF
:10207000007810384AF6AB21CAF6AA21A0FB01105D
:1020800000090190019800F007014EF6AC70C0F60F
:102090000100405C0299C8650198042807D3FFE756
:1020A00002990868042262F30900886506E0029933
:1020B000086840F2FF3290438865FFE705E0029927
:1020C000086820F0FF008865FFE70298806D03B084
:1020D000704700000000000084B00390039800687F
:1020E000019003980168012045F20842C5F60202FA
:1020F000914200904ED0FFE703980168012045F21D
:102100001C42C5F602029142009043D0FFE70398BB
:102110000168012045F23042C5F60202914200906A
:1021200038D0FFE703980168012045F24442C5F624
:102130000202914200902DD0FFE703980168012030
:1021400045F25842C5F602029142009022D0FFE7C4
:1021500003980168012045F26C42C5F602029142E3
:10216000009017D0FFE703980168012045F28042F4
:10217000C5F60202914200900CD0FFE70398006878
:102180004AF66C31CAF2FD710844B0FA80F0400999
:102190000090FFE70098C00710B3FFE703980078AE
:1021A00008384CF6CD41CCF6CC41A0FB011000091B
:1021B0000290029945F60000C5F6020000EB81008E
:1021C00003990866039945F68000C5F60200486643
:1021D000029800F01F01012088400399886635E0CD
:1021E0000398007810384AF6AB21CAF6AA21A0FB62
:1021F000011000090290019840F2B841C4F20201B6
:1022000088420CD8FFE7019840F21041C4F2020165
:10221000884204D3FFE7029808300290FFE7029952
:1022200040F60000C4F2020000EB8100039908664A
:10223000039940F68000C4F202004866029800F05C
:102240001F010120884003998866FFE704B07047AA
:1022500083B002900298007901900198002800F064
:102260008A80FFE70198082800F28580FFE702983E
:102270000168012045F20842C5F602029142009031
:102280004ED0FFE702980168012045F21C42C5F6D6
:1022900002029142009043D0FFE7029801680120BA
:1022A00045F23042C5F602029142009038D0FFE775
:1022B00002980168012045F24442C5F602029142AB
:1022C00000902DD0FFE702980168012045F25842A6
:1022D000C5F602029142009022D0FFE70298016801
:1022E000012045F26C42C5F602029142009017D0DF
:1022F000FFE702980168012045F28042C5F602021C
:10230000914200900CD0FFE7029800684AF66C31C9
:10231000CAF2FD710844B0FA80F040090090FFE76E
:102320000098C00780B1FFE7019945F6FC00C5F6AB
:10233000020000EB81000299C866029945F6401040
:10234000C5F6020008670FE0019940F6FC00C4F2F0
:10235000020000EB81000299C866029940F6401025
:10236000C4F202000867FFE70198411E012088407F
:1023700002994867FFE703B07047000000000000C3
:1023800085B0049000208DF80F000498806918BB78
:10239000FFE70498806A029003281BD80299DFE8BF
:1023A00001F0020D0218049890F82F00C00720B128
:1023B000FFE701208DF80F00FFE70CE00498C06AEA
:1023C000B0F1C07F04D1FFE701208DF80F00FFE7D7
:1023D00001E000E0FFE747E004988069B0F5005FA6
:1023E00026D1FFE70498806A019003281ED801993E
:1023F000DFE801F00206021101208DF80F0016E05F
:10240000049890F82F00C00720B1FFE701208DF855
:102410000F00FFE70BE00498C06AB0F1C07F04D161
:10242000FFE701208DF80F00FFE700E0FFE71AE06B
:102430000498806A0090032804D3FFE700980328DB
:1024400004D00EE001208DF80F000BE0049890F806
:102450002F00C00720B1FFE701208DF80F00FFE734
:1024600000E0FFE7FFE7FFE79DF80F0005B07047CA
:1024700089B008900791069205930898806D0490A2
:102480000898806D03900898016801201022C4F21A
:1024900002029142029000F00381FFE70898016870
:1024A00001202822C4F202029142029000F0F8803A
:1024B000FFE70898016801204022C4F2020291421D
:1024C000029000F0ED80FFE7089801680120582293
:1024D000C4F202029142029000F0E280FFE7089805
:1024E000016801207022C4F202029142029000F0C1
:1024F000D780FFE70898016801208822C4F2020211
:102500009142029000F0CC80FFE70898016801201A
:10251000A022C4F202029142029000F0C180FFE7C3
:10252000089801680120B822C4F202029142029088
:1025300000F0B680FFE708980168012040F21042E1
:10254000C4F202029142029000F0AA80FFE70898CC
:102550000168012040F22842C4F202029142029036
:1025600000F09E80FFE708980168012040F2404299
:10257000C4F202029142029000F09280FFE70898B4
:102580000168012040F25842C4F2020291420290D6
:1025900000F08680FFE708980168012040F2704251
:1025A000C4F20202914202907AD0FFE708980168D3
:1025B000012040F28842C4F20202914202906FD0A0
:1025C000FFE708980168012040F2A042C4F202022D
:1025D0009142029064D0FFE708980168012040F220
:1025E000B842C4F202029142029059D0FFE7089823
:1025F0000168012045F20842C5F6020291420290AC
:102600004ED0FFE708980168012045F21C42C5F64C
:1026100002029142029043D0FFE70898016801202E
:1026200045F23042C5F602029142029038D0FFE7EF
:1026300008980168012045F24442C5F60202914221
:1026400002902DD0FFE708980168012045F258421A
:10265000C5F602029142029022D0FFE70898016875
:10266000012045F26C42C5F602029142029017D059
:10267000FFE708980168012045F28042C5F6020292
:10268000914202900CD0FFE7089800684AF66C313E
:10269000CAF2FD710844B0FA80F040090290FFE7E9
:1026A0000298C00770B1FFE70898416E806E4860DD
:1026B0000898C06E28B1FFE70898016F406F486026
:1026C000FFE7FFE70898016801201022C4F2020228
:1026D0009142019000F0A380FFE708980168012073
:1026E0002822C4F202029142019000F09880FFE794
:1026F0000898016801204022C4F202029142019030
:1027000000F08D80FFE70898016801205822C4F28C
:1027100002029142019000F08280FFE70898016870
:1027200001207022C4F202029142019077D0FFE7AB
:102730000898016801208822C4F2020291420190A7
:102740006DD0FFE7089801680120A022C4F20202C0
:102750009142019063D0FFE7089801680120B822F8
:10276000C4F202029142019059D0FFE70898016833
:10277000012040F21042C4F20202914201904ED078
:10278000FFE708980168012040F22842C4F20202E3
:102790009142019043D0FFE708980168012040F280
:1027A0004042C4F202029142019038D0FFE70898FB
:1027B0000168012040F25842C4F2020291420190A5
:1027C0002DD0FFE708980168012040F27042C4F262
:1027D00002029142019022D0FFE70898016801208F
:1027E00040F28842C4F202029142019017D0FFE702
:1027F00008980168012040F2A042C4F2020291420E
:1028000001900CD0FFE7089800684FF64831CBF6EE
:10281000FD710844B0FA80F040090190FFE701988B
:10282000C00750B3FFE70898C06D00F01F013F20BC
:1028300088400499886008980168086820F480201E
:1028400008600598089909684860089880684028D9
:1028500009D1FFE7069808990968886007980899E0
:102860000968C86008E007980899096888600698B0
:1028700008990968C860FFE782E0089801680120AC
:1028800045F20842C5F60202914200904ED0FFE7A1
:1028900008980168012045F21C42C5F602029142E7
:1028A000009043D0FFE708980168012045F23042CC
:1028B000C5F602029142009038D0FFE708980168FF
:1028C000012045F24442C5F60202914200902DD00B
:1028D000FFE708980168012045F25842C5F6020258
:1028E0009142009022D0FFE708980168012045F24C
:1028F0006C42C5F602029142009017D0FFE708989B
:102900000168012045F28042C5F602029142009022
:102910000CD0FFE7089800684AF66C31CAF2FD71E6
:102920000844B0FA80F040090090FFE70098C00723
:1029300020B3FFE70898C06D00F01F010120884018
:102940000399486005980899096848600898806864
:10295000402809D1FFE70698089909688860079818
:1029600008990968C86008E00798089909688860AC
:10297000069808990968C860FFE700E0FFE7FFE7ED
:1029800009B070470000000086B002AA009202461B
:102990000098059280ED020AC0ED010A80ED001A50
:1029A000ADF80610049805990862039805994862E5
:1029B000029805998862BDF806000599888606B0D8
:1029C00070470000000000002DE9F04F9FB00DF1AE
:1029D0002C0CCDF80CC09C4613460A460190329848
:1029E00031990291DDF8C0B0DDF8BCA0DDF8B890F7
:1029F000DDF8B4802C9F2B9E2A9D299CDDF8A0E059
:102A000001991E9002981D900398CDF870B0CDF8F2
:102A10006CA0CDF86890CDF864801897179616953D
:102A20001594CDF850E0CDF84CC01293119210914E
:102A300080ED040AC0ED030A80ED021AC0ED011A10
:102A400080ED002A90ED040A90ED0F1AF1EE410A94
:102A5000102019F09DFA01460398ADF8221090ED70
:102A6000030A90ED101AF1EE410A0C20059019F0BE
:102A70008FFA039902460598ADF8202091ED020ADD
:102A800091ED0E1AF1EE410A19F082FA039902460D
:102A90000598ADF81A2091ED010ADFED250ACDED7C
:102AA000040A9FED241A19F073FA0399DDED040A64
:102AB00002460598ADF81E2091ED000AB1EE041A09
:102AC00019F066FAADF81C009DF823008DF824007B
:102AD0009DF822008DF82500BDF8200000098DF832
:102AE0002600BDF820109DF81F0040EA01108DF867
:102AF00027009DF81E008DF82800BDF81C00000975
:102B00008DF82900BDF81C109DF81B0040EA01104B
:102B10008DF82A009DF81A008DF82B001098BDF949
:102B2000781009AAFEF7DCFE1FB0BDE8F08F00BFE9
:102B3000000000000000FA432DE9F04F99B00DF1BC
:102B4000240CCDF80CC09C4613460A4601902C98E4
:102B50002B990291DDF8A8B0DDF8A4A0DDF8A090D3
:102B6000DDF89C80269F259E249D239CDDF888E02F
:102B700001991890029817900398CDF858B0CDF8A5
:102B800054A0CDF85090CDF84C8012971196109526
:102B90000F94CDF838E0CDF834C00C930B920A9125
:102BA00080ED000A90ED000A90ED0A1AB4EE410A99
:102BB000F1EE10FA03DBFFE713980990FFE70398A3
:102BC00090ED000A90ED0A1AB1EE411AB4EE410AF6
:102BD000F1EE10FA08DCFFE7039890ED0A0AB1EE77
:102BE000400A80ED000AFFE703980021ADF81A10B3
:102BF000ADF81810ADF81610ADF8141090ED000AED
:102C000090ED0A1AF1EE410A0C2019F0C1F9ADF865
:102C100012009DF81B008DF81C009DF81A008DF81D
:102C20001D00BDF8180000098DF81E00BDF8181031
:102C30009DF8170040EA01108DF81F009DF816005E
:102C40008DF82000BDF8140000098DF82100BDF8B2
:102C500014109DF8130040EA01108DF822009DF831
:102C600012008DF823000A98BDF9601007AAFEF73C
:102C700037FE19B0BDE8F08F70470000000000007B
:102C800080B582B08DF8070007F06AF99DF807104B
:102C900001EB810247F27C21C2F2004101EB82018B
:102CA000486002B080BD000080B584B00390ADF8EC
:102CB0000A10FF208DF802008DF803008DF8040043
:102CC0008DF805008DF806008DF807008DF80800D6
:102CD000FD208DF809000398BDF90A100DF10202DC
:102CE000FEF7FEFD04B080BD47F6D441C2F20041BC
:102CF00091ED001A47F24820C2F2004090ED000A20
:102D00009FED132AA1EE020A80ED000A91ED000A60
:102D100048F20001C2F2004191ED001A30EE011AB2
:102D200040F2A051C2F2004191ED000AA1EE020A68
:102D300081ED000A91ED000A90ED001A30EE410A93
:102D400047F24C20C2F2004080ED000A704700BFFD
:102D50006F12033B0000000083B0029001910092CB
:102D6000009890ED002A90ED014A90ED026A90EDF6
:102D7000035AB6EE001AB0EE417AA6EE467AA5EEF8
:102D8000457A029822EE050AA4EE060AD0ED000A62
:102D9000D0ED011A90ED023A20EE210AA7EE200AAA
:102DA00022EE062A94EE052AA2EE030A30EE000A6D
:102DB000019880ED000A009890ED002A90ED016ADC
:102DC00090ED024A90ED035A22EE057A96EE047ACF
:102DD0000298B0EE410AA6EE460AA5EE450AD0EDED
:102DE000000AD0ED011A90ED023A20EE210AA7EE7A
:102DF000200A22EE062AA4EE052AA2EE030A30EEED
:102E0000000A019880ED010A009890ED000A90ED0B
:102E1000014A90ED023A90ED032A20EE035AA4EE07
:102E2000025A029820EE040A93EE020A90ED006A1C
:102E300090ED017A90ED022A20EE070AA5EE060A2F
:102E4000A4EE441AA3EE431AA1EE020A30EE000AE1
:102E5000019880ED020A03B07047000000000000F6
:102E600080B584B00390ADF80A10FF208DF8020001
:102E70008DF803008DF804008DF805008DF806002C
:102E80008DF807008DF80800FC208DF809000398E4
:102E9000BDF90A100DF10202FEF722FD04B080BD5B
:102EA00081B0EFF3108072B60090FFE7FEE70000FC
:102EB00080B598B0159013F063F900201BF04CF921
:102EC00047F65400C2F20040109001210F91FFF725
:102ED000EBFE0F9947F2B470C2F200401190FFF779
:102EE000E3FE47F6F400C2F200400E901121FFF716
:102EF000DBFE0F9805F020FB109802210D91FFF7E3
:102F0000D3FE0D991198FFF7CFFE0E981021FFF711
:102F1000CBFE0F9805F010FB10984FF400719FED59
:102F2000D60A8DED120AFEF7EBFE11989DED120AFE
:102F300040F2FF11FEF7E4FEFEF72AFC6420139036
:102F400005F0FAFA15F000F83220149005F0F4FAC2
:102F5000FEF71EFC139805F0EFFA14F0F5FF149835
:102F600005F0EAFAFFE764210691002318461A46A5
:102F700018F04AF8069805F0DFFA47F65400C2F256
:102F800000400A9001210991FFF78EFE099947F24E
:102F9000B470C2F200400B90FFF786FE47F6F400D3
:102FA000C2F2004008901121FFF77EFE099805F05B
:102FB000C3FA0A9802210791FFF776FE07990B984A
:102FC000FFF772FE08981021FFF76EFE099805F0D2
:102FD000B3FA0A984FF400719FEDA70A8DED0C0A21
:102FE000FEF78EFE0B989DED0C0A40F2FF11FEF7E6
:102FF00087FE46F63C70C2F200400078012808D0F7
:10300000FFE701201790179880F3138807F0B4F8B2
:10301000FFE70023184619461A4617F0F5FF64200B
:1030200005F08AFA47F65400C2F2004003900121ED
:103030000291FFF739FE029947F2B470C2F20040E4
:103040000490FFF731FE47F6F400C2F20040019011
:103050001121FFF729FE029805F06EFA039802216C
:103060000091FFF721FE00990498FFF71DFE0198DB
:103070001021FFF719FE029805F05EFA03984FF44D
:1030800000719FED7D0A8DED050AFEF739FE04986B
:103090009DED050A40F2FF11FEF732FE46F63C7048
:1030A000C2F200400078012808D0FFE70120169006
:1030B000169880F3138807F05FF8FFE747F694301F
:1030C000C2F200404CF2D621C2F200414FF48072AD
:1030D0000CF026FB47F2C460C2F2004000681021E9
:1030E000C4F20201884200F0B280FFE747F2C460F8
:1030F000C2F2004000682821C4F20201884200F0B8
:10310000A680FFE747F2C460C2F200400068402199
:10311000C4F20201884200F09A80FFE747F2C460DF
:10312000C2F2004000685821C4F20201884200F057
:103130008E80FFE747F2C460C2F200400068702151
:10314000C4F20201884200F08280FFE747F2C460C7
:10315000C2F2004000688821C4F20201884276D0A1
:10316000FFE747F2C460C2F200400068A021C4F249
:10317000020188426BD0FFE747F2C460C2F2004010
:103180000068B821C4F20201884260D0FFE747F22C
:10319000C460C2F20040006840F21041C4F2020173
:1031A000884254D0FFE747F2C460C2F20040006892
:1031B00040F22841C4F20201884248D0FFE747F2BA
:1031C000C460C2F20040006840F24041C4F2020113
:1031D00088423CD0FFE747F2C460C2F2004000687A
:1031E00040F25841C4F20201884230D0FFE747F272
:1031F000C460C2F20040006840F27041C4F20201B3
:10320000884224D0FFE747F2C460C2F20040006861
:1032100040F28841C4F20201884218D0FFE747F229
:10322000C460C2F20040006840F2A041C4F2020152
:1032300088420CD0FFE747F2C460C2F20040006849
:1032400040F2B841C4F2020188420AD1FFE747F2D6
:10325000C460C2F200400168086820F008000860FD
:1032600009E047F2C460C2F200400168086820F03B
:1032700004000860FFE776E60000000000000000A0
:1032800044F60C01C5F60201086840F0020008602F
:10329000FFE744F60400C5F6020000688004002839
:1032A00001D4FFE7F5E7704780B547F2B470C2F28A
:1032B000004005F0F1FC80BD80B547F2B470C2F269
:1032C000004005F0E9FC80BD80B547F65400C2F22D
:1032D000004005F0E1FC80BD80B547F65400C2F225
:1032E000004005F0D9FC80BD80B547F6F400C2F27D
:1032F000004005F0D1FC80BD80B547F6F400C2F275
:10330000004005F0C9FC80BD84B002900298406B7B
:10331000009002980068D0F884004FF6FC71884352
:10332000009940EA810002990968C1F88400029876
:103330000068D0F8840020F47F00029A1168926B34
:1033400040EA0240C1F884000298816B009808446A
:10335000009002980068D0F888006FF38F00009901
:1033600040EA810002990968C1F888000298006863
:10337000D0F8880020F4FE00029A1168D26B40EA6F
:103380000240C1F888000298C16B009800EB410030
:10339000009002980068D0F8A0006FF38F000099A9
:1033A00040EA810002990968C1F8A000029800680B
:1033B000D0F8A00020F4FE00029A1168126C40EAD6
:1033C0000240C1F8A0000299086C496C009A00FB09
:1033D0000120009002980068D0F8B0006FF38F00D1
:1033E000009940EA810002990968C1F8B00002988A
:1033F0000068D0F8B00020F4FE00029A1168926CC8
:1034000040EA0240C1F8B0000299886CC96C009A89
:1034100000FB0120009002980068D0F8AC006FF328
:103420008F00009940EA810002990968C1F8AC0058
:103430000299086D496D009A00FB012000900298E6
:103440000068D0F8F0006FF38F00009940EA810027
:1034500002990968C1F8F00002980068D0F8F000FD
:1034600020F47C10029A1168926D40EA0240C1F883
:10347000F0000298816D009800EB410000900298E6
:103480000068D0F8C0006FF38F00009940EA810017
:1034900002990968C1F8C00002980068D0F8C0001D
:1034A00020F47C10029A1168D26D40EA0240C1F803
:1034B000C00002980068D0F8C00020F07C50029A4A
:1034C0001168126E40EA0260C1F8C00002994A6BAE
:1034D0004AF60040C4F2000000EB8200C866029980
:1034E0008A6BC86E00EB820008670299CA6B086F8E
:1034F00000EBC200486702990A6C4B6C486F5A4354
:1035000000EB8200886702998A6CCB6C886F5A4303
:1035100000EB8200C86702990A6D4B6DC86F5A4371
:1035200000EB8200C1F8800002998A6DD1F880001A
:1035300000EBC200C1F884000299CA6D8B6ED1F80D
:1035400084005A4300EB8200C1F8880002990A6E99
:103550008B6ED1F888005A4300EB8200C1F89000CE
:103560000298D0F890004DF2FD31C4F2000188427B
:103570000FD3FFE70299D1F89C0040F02000C1F87A
:103580009C000299032081F8980001208DF80F001B
:1035900017E00298C06E0190FFE701980299D1F8F8
:1035A0009010884208D2FFE7019900200860FFE7E9
:1035B000019804300190F0E7FFE700208DF80F003C
:1035C000FFE79DF80F0004B0704700000000000006
:1035D00088B007900691059204930698406848B910
:1035E000FFE70698016882680069104340EA81405D
:1035F000039009E006980168826800691043084357
:1036000040F080400390FFE70698D0F820C0C168E2
:1036100042698369C06940EA0C601843104340EA7C
:10362000014002900798826ED0F8840004995143BB
:1036300000EB810001900398019908600198043023
:1036400001900298019908600198043001900020CF
:103650000090FFE700980699CA684EF69C71C0F684
:103660000101895C88420DD2FFE705980099405816
:1036700001990860019804300190FFE70098043038
:103680000090E7E708B0704746F6F820C2F2004025
:1036900090ED690A7047000046F6F820C2F200403B
:1036A00090ED680A7047000046F6F820C2F200402C
:1036B00090ED6A0A7047000080B584B0039047F22D
:1036C000B830C2F20040B3EE040ADFED400AB7EEB4
:1036D000001AF2EE041AB6EE002ADFED3D2A9FED45
:1036E0003D3A12F02DF91AF0B3FF0290FFE740F2D5
:1036F0008450C2F2004090ED000A47F2A010C2F2DE
:103700000040D0ED010A18F0C3FB4CF6A000C2F255
:10371000004080ED000A40F28050C2F20040007884
:10372000012843D1FFE74CF6A000C2F2004001900F
:1037300090ED000A47F2B830C2F200400090DFED91
:10374000250A12F035F9009812F046F9019847F26F
:103750004431C2F2004181ED000A90ED000AB0EE62
:10376000C00A9FED1D1AB4EE410AF1EE10FA08DC12
:10377000FFE747F28831C2F2004108880130088033
:10378000FFE747F28830C2F20040008832280CDBA5
:10379000FFE740F28051C2F200410020087047F27A
:1037A0008831C2F200410880FFE70AE047F2A0102A
:1037B000C2F20040C06947F24431C2F200410860E1
:1037C000FFE702A8022119F02FF890E70AD7233C5F
:1037D0009A99993E00000000CDCCCC3D000000003D
:1037E00080B58EB016F010FF46F6C870C2F20040E9
:1037F0000A90D0ED150A90ED1A0A46F64020C2F262
:103800000040079012F058FA47F26000C2F2004000
:103810000C90D0ED150A90ED1A0A46F69420C2F2EB
:103820000040059012F048FA0598079991ED071AA3
:1038300091ED0A0A21EE011AA0EE001A47F6AC52E9
:10384000C2F2004292ED000A30EE010A82ED000A57
:1038500090ED071A90ED0A0A21EE011AA0EE001A67
:1038600047F64473C2F2004393ED000A30EE010ABA
:1038700083ED000A92ED000A47F26C22C2F2004288
:103880000D9292F800C001EE10CAB8EEC11A80EE97
:10389000010A47F6A45CC2F2004C8CED000A93EDDD
:1038A000000A127801EE102AB8EEC11A80EE010A61
:1038B00047F63C72C2F2004282ED000A91ED001A16
:1038C00091ED0E0A30EE410A81ED070A91ED031ADF
:1038D00091ED110A30EE410A81ED0A0A90ED001ACD
:1038E00090ED0E0A30EE410A80ED070A90ED031AC2
:1038F00090ED110A30EE410A80ED0A0A90ED030ABC
:10390000D0ED110A47F6F440C2F2004009902C3085
:10391000019012F04DF8019812F05EF8059909989F
:1039200091ED040AD0ED130A12F042F8099812F052
:1039300053F80799099891ED000AD1ED0E0A8430E9
:10394000029012F035F8029812F046F8079909989B
:1039500091ED010AD0ED290A5830039012F028F8B1
:10396000039812F039F8059890ED030AD0ED110A8A
:1039700047F68C60C2F200400B902C30049012F09D
:1039800017F8049812F028F805990B9891ED040A9D
:10399000D0ED130A12F00CF80B9812F01DF80799ED
:1039A0000B9891ED000AD1ED0E0A8430069011F0CB
:1039B000FFFF069812F010F807990B9891ED010A95
:1039C000D0ED290A5830089011F0F2FF089812F053
:1039D00003F809990A9891ED080AD1ED1E0A17F02B
:1039E000D3F90B990C9891ED080AD1ED1E0A17F046
:1039F000CBF90D980078FF284FD1FFE747F6A45088
:103A0000C2F2004090ED000A9FED281AB4EE410A80
:103A1000F1EE10FA11DCFFE747F6F440C2F2004085
:103A2000016A47F25032C2F200421160806F47F2E1
:103A30005431C2F200410860FFE747F63C70C2F221
:103A4000004090ED000A9FED191AB4EE410AF1EE24
:103A500010FA11DCFFE747F68C60C2F20040016A01
:103A600047F25832C2F200421160806F47F25C3177
:103A7000C2F200410860FFE747F26C21C2F2004148
:103A80000020087047F6AC51C2F20041086047F6CA
:103A90004471C2F200410860FFE747F26C21C2F2B4
:103AA00000410878013008700EB080BD0AD7233C71
:103AB00080B5AAB02890279100208DF89B00279808
:103AC000006808B1FFE7FFE7FFE7289890F85C007F
:103AD000012804D1FFE702208DF8A7002DE12899E5
:103AE000012081F85C00FFE7FFE700202190229091
:103AF0002898006842F20001C4F20201884206D10F
:103B0000FFE742F20010C4F20200099002E0002038
:103B10000990FFE7099878B9FFE72899086E40F007
:103B200020000866FFE72899002081F85C00FFE785
:103B300001208DF8A70000E1099810F015F8089011
:103B40002898006810F010F8002840F0E280FFE7A5
:103B50000898002840F0DD80FFE7289801680120E0
:103B600042F20002C4F20202914207900CD0FFE739
:103B7000289800684DF60071CBF6FD710844B0FA44
:103B800080F040090790FFE70798C10746F2003030
:103B9000C5F6020000291CBF42F20030C4F2020048
:103BA00025902798006800285ED0FFE72598806858
:103BB00020F440402799496808432599886028984F
:103BC0000168012042F20002C4F202029142069012
:103BD0000CD0FFE7289800684DF60071CBF6FD7118
:103BE0000844B0FA80F040090690FFE70698C10744
:103BF00046F20030C5F6020000291CBF42F2003038
:103C0000C4F2020042F20031C4F20201884212D131
:103C1000FFE742F20000C4F202000FF08DFF0490B3
:103C200042F20010C4F202000FF086FF0146049831
:103C30000843059007E046F20000C5F602000FF0C9
:103C40007BFF0590FFE7059868B9FFE72598806836
:103C500040F61F718843279A116892681143084300
:103C600025998860FFE753E02599886820F4404053
:103C7000886028980168012042F20002C4F2020222
:103C8000914203900CD0FFE7289800684DF6007130
:103C9000CBF6FD710844B0FA80F040090390FFE7CD
:103CA0000398C10746F20030C5F6020000291CBF88
:103CB00042F20030C4F2020042F20031C4F20201CA
:103CC000884212D1FFE742F20000C4F202000FF076
:103CD00033FF019042F20010C4F202000FF02CFFFB
:103CE000014601980843029007E046F20000C5F63D
:103CF00002000FF021FF0290FFE7029838B9FFE7BA
:103D00002599886840F61F7290438860FFE7FFE7B7
:103D100008E02899086E40F02000086601208DF820
:103D20009B00FFE7FFE72899002081F85C00FFE790
:103D30009DF89B008DF8A700FFE79DF8A7002AB02B
:103D400080BD00000000000080B5CEB03A903991EF
:103D500000208DF8E30035903A9890F8440001284F
:103D600001D1FFE70BE03A98006846F20001C5F682
:103D70000201884201D1FFE700E0FFE7FFE7399841
:103D8000C0680021C4F2FF71884201D0FFE71EE045
:103D90003A98006842F20001C4F20201884201D15F
:103DA000FFE7FFE73A98006842F20011C4F202010F
:103DB000884201D1FFE7FFE73A98006846F2000128
:103DC000C5F60201884201D1FFE7FFE7FFE7FFE701
:103DD0003A9890F85C00012805D1FFE702208DF8A1
:103DE000EF0000F043BE3A99012081F85C00FFE744
:103DF000FFE73A9800680FF0AFFE002840F02286F7
:103E0000FFE73998C0780006002837D4FFE73A98D2
:103E1000006846F20001C5F6020188422DD0FFE796
:103E200039980068000330B9FFE739980068C0F39B
:103E30008460329015E03998006890FAA0F04C90B8
:103E40004C9820B9FFE720208DF8370105E04C9809
:103E5000B0FA80F08DF83701FFE79DF83701329016
:103E6000FFE7329800F01F01012000FA01F23A98B2
:103E70000168C8691043C861FFE7FFE73A98006826
:103E800039990A6849680FF077FE3A9800680FF090
:103E900063FE34903A9800680FF01EFE3390349819
:103EA000002840F05A82FFE73398002840F05582FE
:103EB000FFE73A980068399A116892680FF0D4FECB
:103EC0003A98006846F20001C5F6020188420BD11B
:103ED000FFE7399840693A990968C96801F0180103
:103EE00089088840379038E041F20000C5F600406C
:103EF000006800F07040B0F1805F0BD1FFE73998A7
:103F000040693A990968C96801F01C01490888406C
:103F100031901FE03A980068C068C00600280BD4B2
:103F2000FFE7399840693A990968C96801F01C01AE
:103F30004908884030900AE0399840693A99096800
:103F4000C96801F01001490888403090FFE73098B7
:103F50003190FFE731983790FFE7399800690428DE
:103F600041D0FFE73A98006839990A680969379B98
:103F70000FF002FF3A98006846F20001C5F6020110
:103F8000884215D1FFE73A980068399A1169D269D9
:103F90000FF042FF3A980068399A116992F8202090
:103FA000013AB2FA82F2520952060FF015FF19E0F7
:103FB0003A980068399A116992F82120013AB2FAC8
:103FC00082F25209D2070FF047FF3A980068399AF7
:103FD0001169127E013AB2FA82F25209D2020FF04E
:103FE000B7FEFFE7B8E13A98006846F20001C5F66F
:103FF0000201884240F06681FFE73A98006800219C
:104000000FF05AFD000348B9FFE73A980068002115
:104010000FF052FDC0F384602F9018E03A980068CA
:1040200000210FF049FD90FAA0F04A904A9820B97B
:10403000FFE720208DF82F0105E04A98B0FA80F0C4
:104040008DF82F01FFE79DF82F012F90FFE72F98A4
:104050002E9039980068000330B9FFE7399800685E
:10406000C0F384602D9015E03998006890FAA0F0B4
:104070004890489820B9FFE720208DF8270105E0F7
:104080004898B0FA80F08DF82701FFE79DF82701E6
:104090002D90FFE72E982D99884207D1FFE73A9897
:1040A0000068002211460FF0F7FEFFE73A9800681B
:1040B00001210FF001FD000348B9FFE73A980068BD
:1040C00001210FF0F9FCC0F384602C9018E03A98BD
:1040D000006801210FF0F0FC90FAA0F0469046989D
:1040E00020B9FFE720208DF81F0105E04698B0FABF
:1040F00080F08DF81F01FFE79DF81F012C90FFE76E
:104100002C982B9039980068000330B9FFE7399854
:104110000068C0F384602A9015E03998006890FA2E
:10412000A0F04490449820B9FFE720208DF81701B3
:1041300005E04498B0FA80F08DF81701FFE79DF88C
:1041400017012A90FFE72B982A99884207D1FFE7A9
:104150003A980068012100220FF09EFEFFE73A988E
:10416000006802210FF0A8FC000348B9FFE73A9865
:10417000006802210FF0A0FCC0F38460299018E0D1
:104180003A98006802210FF097FC90FAA0F0429054
:10419000429820B9FFE720208DF80F0105E04298F2
:1041A000B0FA80F08DF80F01FFE79DF80F0129901C
:1041B000FFE72998289039980068000330B9FFE795
:1041C00039980068C0F38460279015E0399800683A
:1041D00090FAA0F04090409820B9FFE720208DF899
:1041E000070105E04098B0FA80F08DF80701FFE77D
:1041F0009DF807012790FFE728982799884207D163
:10420000FFE73A980068022100220FF045FEFFE721
:104210003A98006803210FF04FFC000348B9FFE70C
:104220003A98006803210FF047FCC0F384602690A1
:1042300018E03A98006803210FF03EFC90FAA0F0D5
:104240003E903E9820B9FFE720208DF8FF0005E062
:104250003E98B0FA80F08DF8FF00FFE79DF8FF0070
:104260002690FFE72698259039980068000330B91A
:10427000FFE739980068C0F38460249015E039980E
:10428000006890FAA0F03C903C9820B9FFE720200D
:104290008DF8F70005E03C98B0FA80F08DF8F70053
:1042A000FFE79DF8F7002490FFE7259824998842BE
:1042B00007D1FFE73A980068032100220FF0ECFDD8
:1042C000FFE748E03A980068006E00F0F84039993E
:1042D0000968B0EB816F07D1FFE73A980168086E73
:1042E00020F000400866FFE73A980068406E00F052
:1042F000F84039990968B0EB816F07D1FFE73A9828
:104300000168486E20F000404866FFE73A98006870
:10431000806E00F0F84039990968B0EB816F07D1E1
:10432000FFE73A980168886E20F000408866FFE752
:104330003A980068C06E00F0F84039990968B0EB0F
:10434000816F07D1FFE73A980168C86E20F00040FE
:10435000C866FFE7FFE7FFE7FFE73A9800680FF05E
:10436000E3FB002840F06D83FFE73A980068399A34
:104370001168D2680FF094FC3998C0680021C4F22B
:10438000FF71884240F0F981FFE73A980068239076
:1043900042F20001C4F20201884240F0A480FFE72B
:1043A000399800680221C0F23041884203D1FFE70A
:1043B0000120229094E0399800680421C0F6600141
:1043C000884205D1FFE74020C1F62010219084E00B
:1043D000399800680821C0F69041884205D1FFE76E
:1043E0008020C1F65050209074E039980068102168
:1043F000C1F2C001884206D1FFE740F20010C2F2CC
:1044000080101F9063E0399800682021C1F2F041CC
:10441000884206D1FFE740F20020C2F2B0501E9061
:1044200052E03998006840F20041C2F6002188420B
:1044300006D1FFE740F60000C2F630601D9040E074
:104440003998006840F60001C2F63061884206D112
:10445000FFE741F20000C3F260201C902EE0399883
:10446000006841F20001C3F26021884206D1FFE7F3
:1044700042F20000C3F290601B901CE03998006883
:104480000021C4F22131884205D1FFE70020C4F2A7
:1044900052701A900CE0399801680022C4F68432F8
:1044A0000020914204BF0020C4F6B8701A90FFE7C4
:1044B0001A981B90FFE71B981C90FFE71C981D9013
:1044C000FFE71D981E90FFE71E981F90FFE71F98BB
:1044D0002090FFE720982190FFE721982290FFE7A6
:1044E0002298199044E13A98006842F20011C4F20F
:1044F0000201884240F09480FFE739980068022169
:10450000C0F23041884203D1FFE70120189084E0D7
:10451000399800680421C0F66001884205D1FFE7A0
:104520004020C1F62010179074E0399800680821E7
:10453000C0F69041884205D1FFE78020C1F6505077
:10454000169064E0399800681021C1F2C0018842D9
:1045500006D1FFE740F20010C2F28010159053E040
:10456000399800682021C1F2F041884206D1FFE766
:1045700040F20020C2F2B050149042E03998006836
:1045800040F20041C2F60021884206D1FFE740F622
:104590000000C2F63060139030E03998006840F6B1
:1045A0000001C2F63061884206D1FFE741F2000007
:1045B000C3F2602012901EE03998006841F20001B9
:1045C000C3F26021884206D1FFE742F20000C3F245
:1045D000906011900CE0399801680022C4F6843292
:1045E0000020914204BF0020C4F6B8701190FFE78C
:1045F00011981290FFE712981390FFE71398149008
:10460000FFE714981590FFE715981690FFE71698A6
:104610001790FFE717981890FFE718981090A4E0FC
:104620003A98006846F20001C5F60201884240F05F
:104630009680FFE7399800680221C0F23041884235
:1046400003D1FFE701200F9086E03998006804212C
:10465000C0F66001884205D1FFE74020C1F6201076
:104660000E9076E0399800680821C0F690418842A3
:1046700005D1FFE78020C1F650500D9066E03998D3
:1046800000681021C1F2C001884206D1FFE740F264
:104690000010C2F280100C9055E03998006820217B
:1046A000C1F2F041884206D1FFE740F20020C2F299
:1046B000B0500B9044E03998006840F20041C2F6D7
:1046C0000021884206D1FFE740F60000C2F63060C4
:1046D0000A9032E03998006840F60001C2F6306175
:1046E000884206D1FFE741F20000C3F26020099042
:1046F00020E03998006842F20001C3F290618842DC
:1047000006D1FFE744F20000C3F6C02008900EE097
:104710003998016844F20002C3F6C0220020914299
:1047200004BF48F20000C3F6F0600890FFE7089865
:104730000990FFE709980A90FFE70A980B90FFE7B6
:104740000B980C90FFE70C980D90FFE70D980E90DA
:10475000FFE70E980F90FFE70F98079002E0002008
:104760000790FFE707981090FFE710981990FFE770
:10477000239819990FF040FAFFE73998C07800069E
:10478000002840F15D81FFE73A980168012042F27C
:104790000002C4F20202914206900CD0FFE73A9860
:1047A00000684DF60071CBF6FD710844B0FA80F058
:1047B00040090690FFE70698C10746F20030C5F6AB
:1047C000020000291CBF42F20030C4F202000FF0C8
:1047D00063F936903A9801684FF0010042F2000206
:1047E000C4F20202914205900CD0FFE73A980068AB
:1047F0004DF60071CBF6FD710844B0FA80F0400927
:104800000590FFE70598C10746F20030C5F60200A3
:1048100000291CBF42F20030C4F2020042F2003113
:10482000C4F20201884212D1FFE742F20000C4F252
:1048300002000FF079F9039042F20010C4F2020076
:104840000FF072F9014603980843049007E046F21E
:104850000000C5F602000FF067F90490FFE7049826
:10486000002840F0E380FFE7399800680021CCF28F
:104870005271884255D1FFE79DF8DA000006002802
:104880004FD4FFE73A98006846F20001C5F60201EE
:10489000884245D1FFE73A980168012042F20002C0
:1048A000C4F20202914202900CD0FFE73A980068ED
:1048B0004DF60071CBF6FD710844B0FA80F0400966
:1048C0000290FFE70298C10746F20030C5F60200E9
:1048D00000291CBF42F20030C4F20200369941F4B4
:1048E00000010FF025FA40F20050C2F200400068CB
:1048F0004FEA901042F66351C0F23E51A0FB011006
:104900004FEA90114FF0020000EB41003590FFE7B5
:10491000359820B1FFE7359801383590F8E7FFE783
:1049200083E0399800680021CCF22131884238D1E7
:10493000FFE79DF8DB00C00798BBFFE73A980068E7
:1049400046F20001C5F60201884229D1FFE73A98F4
:104950000168012042F20002C4F202029142019079
:104960000CD0FFE73A9800684DF60071CBF6FD7168
:104970000844B0FA80F040090190FFE70198C107B0
:1049800046F20030C5F6020000291CBF42F200309A
:10499000C4F20200369941F080710FF0C9F9FFE7C7
:1049A00042E0399800680021CCF68431884239D140
:1049B000FFE79DF8DA004006002833D4FFE73A9875
:1049C000006846F20001C5F60201884229D1FFE7DE
:1049D0003A980168012042F20002C4F202029142B8
:1049E00000900CD0FFE73A9800684DF60071CBF6C6
:1049F000FD710844B0FA80F040090090FFE700988C
:104A0000C10746F20030C5F6020000291CBF42F281
:104A10000030C4F20200369941F480010FF088F9A9
:104A2000FFE700E0FFE7FFE7FFE708E03A99086EDD
:104A300040F02000086601208DF8E300FFE7FFE763
:104A4000FFE708E03A99086E40F020000866012070
:104A50008DF8E300FFE7FFE73A99002081F85C005A
:104A6000FFE79DF8E3008DF8EF00FFE79DF8EF000A
:104A70004EB080BD0000000081B00090009800683A
:104A8000006C01B07047000010B590B00E9000208F
:104A90008DF837000A900E9820B9FFE701208DF8B5
:104AA0003F006EE20E98006940B1FFE70E9890F863
:104AB0002000012801D1FFE7FFE7FFE70E98006E15
:104AC00050B9FFE70E9800F063FA0E99002048668F
:104AD0000E9981F85C00FFE70E9800680FF014F85B
:104AE00028B1FFE70E9800680EF0AAFFFFE70E98C6
:104AF00000680FF029F8E8B9FFE70E9800680EF09B
:104B0000BBFF40F20050C2F200400068800942F64C
:104B10006351C0F23E51A0FB0101012000EB911056
:104B20000A90FFE70A9820B1FFE70A9801380A9037
:104B3000F8E7FFE70E9800680FF006F870B9FFE796
:104B40000E99086E40F0100008660E99486E40F00D
:104B50000100486601208DF83700FFE70E980068D5
:104B60000EF0FAFF0B900E98006EC006002800F1C0
:104B7000FA81FFE70B98002840F0F581FFE70E98D7
:104B8000006E40F0020020F480700E9908660E98C6
:104B900000680EF0C9FF002870D1FFE70E98016889
:104BA000012042F20002C4F20202914207900CD0AE
:104BB000FFE70E9800684DF60071CBF6FD710844D2
:104BC000B0FA80F040090790FFE70798C10746F266
:104BD0000030C5F6020000291CBF42F20030C4F2CA
:104BE000020042F20031C4F20201884212D1FFE712
:104BF00042F20000C4F202000EF096FF059042F26D
:104C00000010C4F202000EF08FFF01460598084321
:104C1000069007E046F20000C5F602000EF084FFA1
:104C20000690FFE7069840BBFFE70E980168012059
:104C300042F20002C4F20202914204900CD0FFE75B
:104C40000E9800684DF60071CBF6FD710844B0FA7D
:104C500080F040090490FFE70498C10746F2003055
:104C6000C5F6020000291CBF42F20030C4F2020067
:104C70000E9949680FF04CF8FFE7FFE70E980068BF
:104C800046F20001C5F6020188423AD1FFE70E9ACA
:104C9000517ED06B40EA41319068D2681143039154
:104CA000082803D1FFE7002002901DE00E988068DD
:104CB0000C2803D1FFE70420019012E00E988068D1
:104CC0001C2803D1FFE70820009007E00E988168B8
:104CD0000020182908BF1C200090FFE700980190D1
:104CE000FFE701980290FFE70398029901F00C0199
:104CF00040EA41000E9991F8201040EA01400C90E2
:104D00000CE00E994A7EC86B40EA42308A68104334
:104D100091F8201040EA01400C90FFE70E9890F8BF
:104D2000200001280BD1FFE70E98416A0020CFF642
:104D3000FE7000EB41410C9808430C90FFE70E9881
:104D4000806A50B1FFE70E99886AC96A00F47870EA
:104D500001430C9808430C90FFE70E98006846F258
:104D60000001C5F60201884218D1FFE70E980068DD
:104D7000C06844F20701CFF6F07108400C9908436F
:104D80000E990968C8600E980068006920F04060BC
:104D90000E9A1168526B104308610DE00E9800687E
:104DA000C0684CF20301CFF6F07108400C9908433B
:104DB0000E990968C860FFE70E9800680EF0CCFEF7
:104DC00009900E9800680EF087FE08900998002858
:104DD00040F0A880FFE70898002840F0A380FFE794
:104DE0000E98006846F20001C5F60201884209D11A
:104DF000FFE70E99087E91F83810800340EA4100E1
:104E00000C9006E00E98017E006B40EA81300C9019
:104E1000FFE70E980068C06844F2030188430C99CC
:104E200008430E990968C8600E9890F8440001285C
:104E300059D1FFE70E98006846F20001C5F602015D
:104E4000884201D1FFE700E0FFE70E98806A20B1B9
:104E5000FFE70E98C06A08B9FFE7FFE70E98006801
:104E600046F20001C5F6020188421BD1FFE70E9809
:104E7000006800694FF61E01CFF6004100EA01020A
:104E80000E9B1968986CD3F84CE0D3F850C040EAF8
:104E90000E0040EA0C005B6D1843104340F0010027
:104EA00008611FE00E98006800694FF61E01CFF6FA
:104EB000004100EA01020E9B19689C6CD3F84CE09B
:104EC000D3F850C00020CFF6FF7000EB044040EA5A
:104ED0000E0040EA0C005B6D1843104340F00100E7
:104EE0000861FFE706E00E980168086920F00100FC
:104EF0000861FFE70E980068006920F070400E9A84
:104F00001168126C104308610E98006846F20001A7
:104F1000C5F60201884204D0FFE70E98FBF7C4FBF8
:104F2000FFE7FFE70E98006901280CD1FFE70E9814
:104F30000068006B20F00F000E9A1168D269013AE8
:104F40001043086306E00E980168086B20F00F001C
:104F50000863FFE70E98006E40F0010020F00200A9
:104F60000E99086608E00E99086E40F01000086679
:104F700001208DF83700FFE79DF837008DF83F00DE
:104F8000FFE79DF83F0010B010BD000000000000DA
:104F900080B5B6B035900020349033903290319087
:104FA000309002A8B821FBF70BFB3598006842F25D
:104FB0000001C4F20201884245D1FFE700200390BE
:104FC0004FF40021029102210491102205920691D2
:104FD00007910891C02109910A900B902A9002A88C
:104FE00006F086FA18B1FFE7FDF75AFFFFE7FFE783
:104FF00044F2D840C5F60200016841F0200101608A
:10500000006800F0200001900198FFE7FFE744F2FC
:10501000E040C5F60200016841F00401016000684B
:1050200000F0040000900098FFE71020309003206B
:1050300031900020329040F60000C5F6020030A901
:1050400004F0A2FDFFE736B080BD000000000000C4
:1050500080B58AB0089008980168012042F20002E9
:10506000C4F20202914204900CD0FFE70898006855
:105070004DF60071CBF6FD710844B0FA80F040099E
:105080000490FFE70498C10746F20030C5F602001D
:1050900000291CBF42F20030C4F202000EF004FDF1
:1050A0000590089800680EF057FD002840F0CE806B
:1050B000FFE7FFE7089890F85C00012804D1FFE7BC
:1050C00002208DF82700CAE00899012081F85C00D1
:1050D000FFE7FFE70898FBF707FD8DF81F009DF835
:1050E0001F00002840F0AA80FFE70898006E40F4F7
:1050F000807040F601618843089908660898006846
:1051000042F20011C4F20201884206D1FFE742F2E6
:105110000000C4F20200039003E0089800680390C6
:10512000FFE7039808990968884203D0FFE70598CC
:1051300030B9FFE70899086E20F480100866FFE791
:105140000898006EC004002806D5FFE70899486E4D
:1051500020F00600486603E0089900204866FFE753
:10516000089801681C200860FFE70899002081F872
:105170005C00FFE70898006842F20011C4F20201E7
:10518000884206D1FFE742F20000C4F2020002901A
:1051900003E0089800680290FFE702980899096800
:1051A00088420BD0FFE7059840B1FFE70598052836
:1051B00004D0FFE70598092815D1FFE70898006893
:1051C000C0688001002809D5FFE70898006E40F408
:1051D000805020F4005008990866FFE7089800689E
:1051E0000EF0EAFC29E00899086E40F48010086689
:1051F0000898006842F20011C4F20201884206D108
:10520000FFE742F20000C4F20200019003E00898B8
:1052100000680190FFE7019806900698C068800139
:10522000002809D5FFE70898006E40F4805020F46C
:10523000005008990866FFE7FFE706E0FFE70899D6
:10524000002081F85C00FFE7FFE703E002208DF813
:105250001F00FFE79DF81F008DF82700FFE79DF86E
:1052600027000AB080BD000080B584B00290FFE73F
:10527000029890F85C00012804D1FFE702208DF825
:105280000F002DE00299012081F85C00FFE7FFE7A5
:1052900002980321FBF7F8FA8DF807009DF8070044
:1052A00098B9FFE70298FBF7BBFB8DF807009DF864
:1052B000070048B9FFE70298006E40F0010020F4B3
:1052C000885002990866FFE7FFE7FFE70299002090
:1052D00081F85C00FFE79DF807008DF80F00FFE7FD
:1052E0009DF80F0004B080BD80B58AB0089004F02E
:1052F00037FE0490089828B9FFE701208DF82700B1
:1053000000F0AABC089890F8350002280ED0FFE7FC
:10531000089980204865FFE70899002081F834004B
:10532000FFE701208DF8270000F096BC089801687F
:1053300001201022C4F202029142039000F0A380E7
:10534000FFE70898016801202822C4F20202914276
:10535000039000F09880FFE7089801680120402240
:10536000C4F202029142039000F08D80FFE708989A
:10537000016801205822C4F202029142039000F019
:105380008280FFE70898016801207022C4F20202BF
:105390009142039077D0FFE70898016801208822A6
:1053A000C4F20202914203906DD0FFE708980168B1
:1053B0000120A022C4F202029142039063D0FFE7D1
:1053C000089801680120B822C4F2020291420390B9
:1053D00059D0FFE708980168012040F21042C4F25A
:1053E0000202914203904ED0FFE708980168012025
:1053F00040F22842C4F202029142039043D0FFE7F8
:1054000008980168012040F24042C4F20202914231
:10541000039038D0FFE708980168012040F2584215
:10542000C4F20202914203902DD0FFE70898016870
:10543000012040F27042C4F202029142039022D055
:10544000FFE708980168012040F28842C4F2020296
:105450009142039017D0FFE708980168012040F2BD
:10546000A042C4F20202914203900CD0FFE70898D8
:1054700000684FF64831CBF6FD710844B0FA80F071
:1054800040090390FFE70398C00780B1FFE7089841
:105490000168086820F01E000860089801684869E3
:1054A00020F08000486108980068059009E008989D
:1054B0000168086820F00E000860089800680590F0
:1054C000FFE70898016801201022C4F2020291420D
:1054D000029000F00381FFE708980168012028226C
:1054E000C4F202029142029000F0F880FFE70898AF
:1054F000016801204022C4F202029142029000F0B1
:10550000ED80FFE70898016801205822C4F20202EA
:105510009142029000F0E280FFE7089801680120C4
:105520007022C4F202029142029000F0D780FFE79D
:105530000898016801208822C4F202029142029078
:1055400000F0CC80FFE7089801680120A022C4F297
:1055500002029142029000F0C180FFE708980168C2
:105560000120B822C4F202029142029000F0B680FB
:10557000FFE708980168012040F21042C4F20202DD
:105580009142029000F0AA80FFE70898016801208C
:1055900040F22842C4F202029142029000F09E8042
:1055A000FFE708980168012040F24042C4F202027D
:1055B0009142029000F09280FFE708980168012074
:1055C00040F25842C4F202029142029000F08680FA
:1055D000FFE708980168012040F27042C4F202021D
:1055E000914202907AD0FFE708980168012040F2CA
:1055F0008842C4F20202914202906FD0FFE70898FD
:105600000168012040F2A042C4F2020291420290DD
:1056100064D0FFE708980168012040F2B842C4F264
:1056200002029142029059D0FFE7089801680120D8
:1056300045F20842C5F60202914202904ED0FFE7C1
:1056400008980168012045F21C42C5F60202914209
:10565000029043D0FFE708980168012045F23042EC
:10566000C5F602029142029038D0FFE7089801681F
:10567000012045F24442C5F60202914202902DD02B
:10568000FFE708980168012045F25842C5F602027A
:105690009142029022D0FFE708980168012045F26C
:1056A0006C42C5F602029142029017D0FFE70898BB
:1056B0000168012045F28042C5F602029142029043
:1056C0000CD0FFE7089800684AF66C31CAF2FD7109
:1056D0000844B0FA80F040090290FFE70298C00742
:1056E00038B1FFE70898016E086820F48070086000
:1056F000FFE7089800681021C4F20201884200F018
:105700008180FFE7089800682821C4F202018842DE
:1057100078D0FFE7089800684021C4F2020188426F
:1057200070D0FFE7089800685821C4F2020188424F
:1057300068D0FFE7089800687021C4F2020188422F
:1057400060D0FFE7089800688821C4F2020188420F
:1057500058D0FFE708980068A021C4F202018842EF
:1057600050D0FFE708980068B821C4F202018842CF
:1057700048D0FFE70898006840F21041C4F20201E7
:1057800088423FD0FFE70898006840F22841C4F201
:105790000201884236D0FFE70898006840F2404195
:1057A000C4F2020188422DD0FFE70898006840F259
:1057B0005841C4F20201884224D0FFE708980068EB
:1057C00040F27041C4F2020188421BD0FFE7089802
:1057D000006840F28841C4F20201884212D0FFE71B
:1057E0000898006840F2A041C4F20201884209D042
:1057F000FFE70898006840F2B841C4F2020188420D
:1058000007D1FFE708980168086820F001000860E8
:1058100006E008980168086820F001000860FFE7CA
:10582000FFE705980068C007C8B1FFE704F098FBE0
:105830000499401A062811D3FFE7089920204865EB
:105840000899032081F83500FFE70899002081F8C6
:105850003400FFE701208DF82700FDE1E1E708981B
:10586000016801201022C4F202029142019000F06E
:10587000A380FFE70898016801202822C4F20202F1
:105880009142019000F09880FFE70898016801209C
:105890004022C4F202029142019000F08D80FFE7A5
:1058A0000898016801205822C4F202029142019036
:1058B00000F08280FFE70898016801207022C4F29E
:1058C00002029142019077D0FFE708980168012019
:1058D0008822C4F20202914201906DD0FFE708983D
:1058E00001680120A022C4F202029142019063D01B
:1058F000FFE7089801680120B822C4F20202914231
:10590000019059D0FFE708980168012040F2104249
:10591000C4F20202914201904ED0FFE7089801685C
:10592000012040F22842C4F202029142019043D089
:10593000FFE708980168012040F24042C4F20202E9
:105940009142019038D0FFE708980168012040F2A9
:105950005842C4F20202914201902DD0FFE708980C
:105960000168012040F27042C4F2020291420190AB
:1059700022D0FFE708980168012040F28842C4F273
:1059800002029142019017D0FFE7089801680120B8
:1059900040F2A042C4F20202914201900CD0FFE713
:1059A000089800684FF64831CBF6FD710844B0FA0C
:1059B00080F040090190FFE70198C00760B1FFE760
:1059C0000898806D07900898C06D00F01F013F2077
:1059D0008840079988600BE00898806D06900898C9
:1059E000C06D00F01F010120884006994860FFE764
:1059F0000898016801201022C4F20202914200902E
:105A000000F00381FFE70898016801202822C4F212
:105A100002029142009000F0F880FFE708980168C8
:105A200001204022C4F202029142009000F0ED8079
:105A3000FFE70898016801205822C4F2020291424F
:105A4000009000F0E280FFE70898016801207022D2
:105A5000C4F202029142009000F0D780FFE708985C
:105A6000016801208822C4F202029142009000F0F5
:105A7000CC80FFE7089801680120A022C4F202024E
:105A80009142009000F0C180FFE708980168012072
:105A9000B822C4F202029142009000F0B680FFE703
:105AA00008980168012040F21042C4F202029142BB
:105AB000009000F0AA80FFE708980168012040F2FA
:105AC0002842C4F202029142009000F09E80FFE75B
:105AD00008980168012040F24042C4F2020291425B
