:020000040800F2
:10000000D0D7002475040008CDEE00082DB40008F8
:1000100029EE0008151400086128010800000000FE
:10002000000000000000000000000000B503000810
:100030007B1F0008000000001104000831100108B7
:100040009304000893040008930400089304000834
:100050009304000893040008930400089304000824
:100060009304000893040008930400089304000814
:1000700093040008C9180008D9180008E9180008F6
:10008000F91800089304000893040008912400085C
:10009000B1240008A1240008C1240008930400082A
:1000A00093040008930400089304000893040008D4
:1000B000291201089304000893040008930400081F
:1000C00093040008930400089304000893040008B4
:1000D00093040008C5240108D524010893040008EE
:1000E0009304000893040008000000009304000833
:1000F0009304000893040008930400089304000884
:100100009304000893040008930400089304000873
:100110009304000859180108930400089304000888
:10012000091900081919000893040008930400082D
:100130009304000893040008930400089304000843
:1001400000000000000000000000000000000000AF
:100150009304000893040008291900089304000878
:100160009304000893040008930400089304000813
:1001700093040008930400089304000800000000A2
:1001800093040008930400089304000893040008F3
:1001900093040008930400089304000893040008E3
:1001A0009304000893040008930400080000000072
:1001B00093040008930400089304000893040008C3
:1001C00093040008930400080000000000000000F1
:1001D0000000000000000000930400080000000080
:1001E000000000000000000000000000000000000F
:1001F00000000000000000009304000893040008C1
:100200009304000893040008000000009304000811
:100210009304000893040008930400089304000862
:100220009304000800000000930400080000000090
:1002300093040008930400080000000093040008E1
:100240009304000893040008930400089304000832
:100250009304000893040008930400089304000822
:100260009304000893040008930400089304000812
:1002700093040008930400089304000800000000A1
:1002800093040008930400089304000893040008F2
:100290000000000093040008930400080000000020
:1002A0000000000093040008930400089304000871
:1002B000930400089304000893040008D124000864
:1002C000E1240008930400089304000800F002F8F9
:1002D00000F060F80AA090E8000C82448344AAF180
:1002E0000107DA4501D100F055F8AFF2090EBAE87E
:1002F0000F0013F0010F18BFFB1A43F0010318475A
:100300009C680100BC68010010F8013B0A4413F02E
:10031000030408BF10F8014B1D1108BF10F8015B62
:10032000641E05D010F8016B641E01F8016BF9D151
:10033000002D15D010F8014B03F00C030C2BA1EB92
:1003400004040ABF10F8013BA4EB8314A4EB0324BC
:1003500005F1010314F8016B5B1E01F8016BF9D57F
:10036000914238BF10F8013BD1D3704700230024DD
:1003700000250026103A28BF78C1FBD8520728BFB5
:1003800030C148BF0B6070471FB515F035FE1FBD6B
:1003900010B510BD00F0A1F91146FFF7F5FF13F0FD
:1003A00075FF00F0BFF903B4FFF7F2FF03BC00F0E4
:1003B00085F900002C4B19680868B0E8F04F80F30D
:1003C0000988BFF36F8F4FF0000080F311887047EA
:1003D0000000000008480068006880F308884FF0BB
:1003E000000080F3148862B661B6BFF34F8FBFF38D
:1003F0006F8F00DF00BF00BF08ED00E0DFF80C00EA
:10040000016841F470010160704700BF88ED00E0B1
:10041000EFF30980BFF36F8F134B1A681EF0100FB4
:1004200008BF20ED108A20E9F04F106009B44FF0AA
:10043000500080F31188BFF34F8FBFF36F8F15F01B
:1004400053FA4FF0000080F3118809BC196808685E
:10045000B0E8F04F1EF0100F08BFB0EC108A80F328
:100460000988BFF36F8F70473C000024EFF30580CD
:10047000704700000A4880470A4880470A480047FA
:10048000FEE7FEE7FEE7FEE7FEE7FEE7FEE7FEE744
:10049000FEE7FEE705480649064A074B704700009D
:1004A0006D2400081D110108CD020008D0CD0024E4
:1004B000D0D70024D0CF0024D0CF002453EA020CA0
:1004C00000F069802DE9F04B4FF00006002B1FBFB4
:1004D000B3FA83F503FA05F424FA05F65E4012BF79
:1004E0001643B2FA82F502FA05F4C5F120051EBFE3
:1004F00022FA05FC44EA0C04203556EA044C4FEA83
:10050000144418BF641C4FF000084FF000099042DB
:1005100071EB030C39D3002919BFB1FA81F701FA45
:1005200007F6B0FA80F700FA07F6C7F120071EBFFA
:1005300020FA07FC46EA0C062037B6FBF4FCA7EBD2
:100540000507103F07F01F0BCBF120060CFA0BFB41
:100550002CFA06F644BFB3460026202FA4BF5E4601
:100560004FF0000B5BEA060C08BF4FF0010B19EBD4
:100570000B09ABFB027C48EB0608C01B06FB02CC58
:100580000BFB03CC71EB0C01C1E70B460246414665
:100590004846BDE8F08B13B54FF000004FF0000166
:1005A000AFF30080BDE81C40704710B5203AC0F0A2
:1005B0000B80B1E81850203AA0E81850B1E8185064
:1005C000A0E81850BFF4F5AF5FEA027C24BFB1E8A1
:1005D0001850A0E8185044BF18C918C0BDE8104012
:1005E0005FEA827C24BF51F8043B40F8043B08BF1B
:1005F0007047D20728BF31F8023B48BF11F8012BE2
:1006000028BF20F8023B48BF00F8012B70474FF08D
:1006100000020429C0F0128010F0030C00F01B80CF
:10062000CCF1040CBCF1020F18BF00F8012BA8BFDD
:1006300020F8022BA1EB0C0100F00DB85FEAC17CA1
:1006400024BF00F8012B00F8012B48BF00F8012B54
:1006500070474FF0000200B5134694469646203985
:1006600022BFA0E80C50A0E80C50B1F12001BFF46B
:10067000F7AF090728BFA0E80C5048BF0CC05DF8D1
:1006800004EB890028BF40F8042B08BF704748BF1F
:1006900020F8022B11F0804F18BF00F8012B704793
:1006A00070477047704710B500F012F8006810BD31
:1006B00010B5044600F00CF8046010BD0149182084
:1006C000ABBEFEE726000200004870476CCD002458
:1006D000004870476CCD002470477546FFF7F4FF63
:1006E000AE4605006946534620F00700854618B01F
:1006F00020B5FFF7CFFEBDE820404FF000064FF0D9
:1007000000074FF000084FF0000B21F00701AC4646
:10071000ACE8C009ACE8C009ACE8C009ACE8C00965
:100720008D46704710B50446AFF300802046BDE803
:100730001040FFF738BE000070B5044643492068FA
:10074000884203D042492068884208D14148006865
:1007500000F4403008B1012009E0002007E03E48E5
:10076000006800F4403008B1012000E00020B8B17A
:1007700007F054FF05466068B0F5803F06D0B0F53D
:10078000003F04D0B0F5403F08D105E000BF6068ED
:10079000000CB5FBF0F502E0AD0800E000BF2BE077
:1007A0004FF40020002106F039FB05466068C0F3D5
:1007B0001101F9B980140C281CD2DFE800F01B06E7
:1007C0000708090A0B111315171900BF00BF00BF56
:1007D00000BF00BF6068800C4000B5FBF0F50AE088
:1007E0002D0908E06D0906E0AD0904E0ED0902E01D
:1007F0002D0A00E000BF00BF6D081848854206D8EA
:100800002068806820F44070216888601DE01448EA
:10081000854208D82068806820F4407040F48070D9
:100820002168886011E00F48854208D820688068F8
:1008300020F4407040F400702168886005E0206872
:10084000806840F440702168886070BD00200240DC
:10085000002102400823024008630258105E5F0036
:1008600020BCBE0040787D012DE9F05F044688463B
:100870004FF00009474620680DF061FB8246206872
:100880000DF044FB8346BAF1000F02D1BBF1000F1B
:1008900072D02068C06800F0007000B3607E01284C
:1008A0001DD1207E01281AD101270FE03348814550
:1008B0000AD3206E40F010002066606E40F0010008
:1008C00060660120BDE8F09F09F101092068006819
:1008D000C0F380100028E9D0402021680860022F72
:1008E00010D020680DF02BFB60B120680DF013FBD9
:1008F00040B920688168224A114041F010018160AE
:1009000000BF00BF012F10D020680DF0FFFA60B1CA
:1009100020680DF000FB40B920688168184A11403A
:1009200041F02001816000BF00BF022F03D0032FE0
:1009300003D10C2503E0082501E0042500BF00BF1A
:1009400005F0B0FD064612E005F0ACFD801B052861
:100950000DD920688068284048B1206E40F0100012
:100960002066606E40F0010060660120AAE7206802
:10097000806828400028E7D10020A3E700DC0C00B5
:10098000C0FFFF7F70B5044620680DF0C4FA06462C
:1009900020680DF0C5FA98B396BB2068806800F017
:1009A0000D0001280AD1206881681A4A1140891C6B
:1009B000816000BF03202168086009E0206E40F0DC
:1009C00010002066606E40F001006066012070BD7E
:1009D00005F068FD054614E005F064FD401B0228A3
:1009E0000FD92068806800F0010050B1206E40F0FF
:1009F00010002066606E40F0010060660120E6E7AE
:100A000005E02068806800F001000028E4D10020A3
:100A1000DDE70000C0FFFF7F70B5044620680DF0E1
:100A20007FFA002851D1206880682949084048B1E0
:100A3000206E40F010002066606E40F0010060669D
:100A4000012070BD20680DF04BFA05F02BFD054626
:100A5000204A2168914203D01F4A2168914201D166
:100A60001E4900E01E4908460DF042FA06461A49A2
:100A70002068884201D1174800E020682168884238
:100A800000D00EBB1AE020680DF04AFA10B92068B9
:100A90000DF026FA05F006FD401B02280ED920684D
:100AA000006800F0010048B9206E40F01000206698
:100AB000606E40F0010060660120C2E720680068B7
:100AC00000F001000028DED000BF0020B9E70000E0
:100AD0003F0000800020024000210240002302402D
:100AE0000063025810B54FF480723A493A4809F051
:100AF000D2FC3A4800683A49884258D037480068E2
:100B000037491831884252D034480068344930316E
:100B100088424CD03148006831494831884246D03B
:100B20002E4800682E496031884240D02B4800682A
:100B30002B49783188423AD02848006828499031BA
:100B4000884234D0254800682549A83188422ED0F3
:100B5000224800682349884229D02048006821495A
:100B60001831884223D01D4800681E493031884220
:100B70001DD01A4800681B494831884217D01748D1
:100B8000006818496031884211D01448006815493E
:100B9000783188420BD01148006812499031884260
:100BA00005D00E4800680F49A831884208D10B488B
:100BB0000068006820F0080008490968086007E03C
:100BC00006480068006820F00400044909680860CD
:100BD00010BD0000B6C2002468710024DC7300243C
:100BE00010000240100402402DE9F041DF48007877
:100BF000AA287DD1DD4890F83F00FE28F9D1DB48D6
:100C00004078DA49897840EA012000B200EE100A03
:100C1000B8EEC00ADFEDD60A80EE201AD54880ED86
:100C2000001AD248C078D149097940EA012000B2BF
:100C300000EE100AB8EEC00ADFEDCD0A80EE201AF1
:100C4000CC4880ED011AC948407FC409C748407F9D
:100C5000C0F34115C548407FC0F30016C348407F2C
:100C6000C0F38107C148407FC0F34000C24908700B
:100C7000BE48407FC149497A60F34511BF4841727F
:100C8000BF480470BF480570BF480670BF48077072
:100C9000B648407EB549897E40EA012000B200EEA8
:100CA000100AB8EEC00ADFEDB20A80EE201AB8488A
:100CB00080ED061AAD48C07EAC49097F40EA0120AC
:100CC00000B200EE100AF8EEC00A9FEDA91A80EEFD
:100CD000810ADFEDB00A20EE200AAF4880ED060A57
:100CE000A248807FA149C97F40EA012000B200E00C
:100CF0003AE1AA4908809D4890F820009B4991F864
:100D0000211040EA012000B2A5490880974890F8D8
:100D1000220000EE100AB8EE400AA24880ED000A58
:100D2000924890F8230000F00F009F4908808F48F8
:100D300090F8260000048D4991F8251040EA012022
:100D40008A4991F82410084398490860874890F828
:100D5000270097490870854890F82900C0099549EF
:100D60000870824890F82900C0F384009249087006
:100D70007E4890F82900C0F34000904908707B48F5
:100D800090F8290000F001008D490870774890F82C
:100D90002A0078490872754890F82B004872734809
:100DA00090F82C0087490870AB2087490870FD2017
:100DB00081F83F00764890ED010ADFED6D0A20EEE4
:100DC000200ABDEEC00A10EE100A4876704890ED79
:100DD000010ADFED670A20EE200ABDEEC00A10EE20
:100DE000100A000A88766A4890ED020ADFED600A70
:100DF00020EE200ABDEEC00A10EE100AC876644844
:100E000090ED020ADFED5A0A20EE200ABDEEC00A7C
:100E100010EE100A000A08775F4890ED010ADFED36
:100E2000540A20EE200ABDEEC00A10EE100A4877E0
:100E3000594890ED010ADFED4E0A20EE200ABDEE82
:100E4000C00A10EE100A000A8877534890ED020A93
:100E5000DFED5E0A20EE200ABDEEC00A10EE100A99
:100E6000C8774D4890ED020ADFED580A20EE200ABF
:100E7000BDEEC00A10EE100A000A81F820005448A6
:100E8000007B20F00100401C514908730846007B9C
:100E900020F00200801C08730846007B20F004004C
:100EA000001D087300214B4880F880104A480078E4
:100EB000C101484890F8800041EA80104449097B0C
:100EC00001F0010140EA41104149097BC1F34001B1
:100ED00040EA01103E49097BC1F3800140EAC100AC
:100EE0003B4949780843384981F821000BF018FC48
:100EF000354981F823000BF013FC000A324981F8D0
:100F000024000BF001FC304981F827000BF0FCFBBA
:100F100000122D4981F828000BF0FCFB2A4981F8CA
:100F200029000BF0F7FB0012274981F82A000BF08B
:100F3000E5FB254981F82B000BF0E0FB001222496C
:100F400081F82C000BF0F8FB1F4981F82D00234895
:100F5000007881F82E0001202149087040221A49AA
:100F600020480AF0E1F800BFBDE8F081B6C20024D5
:100F700000007A4420C500240802002424B600247E
:100F800011020024160200241B0200241A0200246D
:100F9000ECCC0024EC51383E18CD0024140200247F
:100FA0001802002424020024220200240C0200243F
:100FB000100200240902002420020024210200243F
:100FC0000A02002438020024B6C300240000C842EC
:100FD000FBB5002408B50024120200247607002483
:100FE000000200246871002410B501221146024855
:100FF00005F052FA10BD00000008025810B500229A
:101000000121024805F048FA10BD0000000802580E
:101010007047000010B501220821024805F03CFA93
:1010200010BD00000008025810B500220821024837
:1010300005F032FA10BD000000080258704710B5E4
:10104000044603E04FF47A7000F006F8201EA4F185
:1010500001018CB2F6D110BD70B5034600BF00BFD0
:101060000020002200BF4FF0E0267569C3EB031695
:1010700074014FF0E026B16910E04FF0E026B0694E
:1010800088420BD0884202D20E1A324402E02E1A55
:101090000E4432440146A24200D300E0EDE700BF17
:1010A00070BD10B50024FFF7B3FFFFF7C7FF12F0C4
:1010B00003FD044312F094FD0443204610BD0000DC
:1010C0002DE9FC4105460E46174600200090019090
:1010D000FFF794FF922000F0D1F806226946122013
:1010E00000F0ACF8FFF780FF9DF80100000200B2AD
:1010F0009DF8001040EA010400EE104AB8EEC00A64
:101100004C48D0ED000A20EE200A86ED000A9DF83A
:101110000300000200B29DF8021040EA010400EE54
:10112000104AB8EEC00A4348D0ED000A20EE200A6B
:1011300086ED010A9DF80500000200B29DF804103A
:1011400040EA010400EE104AB8EEC00A3948D0ED7A
:10115000000A20EE200A86ED020AFFF765FF08224A
:101160006946002000F06AF8FFF754FF9DF8000080
:101170000F2838D19DF80300000200B29DF802103C
:1011800040EA010400EE104AB8EEC00A2A48D0ED49
:10119000000A20EE200A85ED000A9DF805000002F5
:1011A00000B29DF8041040EA010400EE104AB8EEC7
:1011B000C00A2148D0ED000A20EE200A85ED010A80
:1011C0009DF80700000200B29DF8061040EA0104F5
:1011D00000EE104AB8EEC00A1748D0ED000A20EE23
:1011E000200A85ED020AFFF709FFA22000F046F869
:1011F00002226946222000F021F8FFF7F5FE9DF853
:101200000000C0009DF8011040EA6114B4F5806F41
:1012100002DBA4F5006004B200EE104AF8EEC00A4A
:10122000B4EE001AB3EE070A00EE810A87ED000A59
:10123000BDE8FC81A4000024A800002470B5064687
:101240000C46154646F0800000F018F806E05520E0
:1012500000F014F82070641C681EC5B2002DF6D191
:1012600070BD70B504460D4644F0800000F006F8ED
:10127000552000F003F8287070BD000001B582B061
:101280004FF47A70012301AA02A90090024808F0E5
:1012900061F89DF804000EBDA86E002470B50546E7
:1012A0000C462846FFF7EAFF2046FFF7E7FF70BD30
:1012B00010B54C4890ED010AB1EE400A4A48D0ED15
:1012C0001F0A30EE200A4948D0ED000A20EE200A1D
:1012D000D0ED000AB7EE001A71EE600A444890EDB6
:1012E000001A00EE810A80ED000A3F48D0ED1E0A88
:1012F000B0EE600A12F084F93B48D0ED1F0A90ED81
:10130000151A60EE810A20EE200A3948D0ED000A55
:101310009FED381A00EE810A3748D0ED000A20EE22
:10132000200AD0ED000AB7EE001A71EE600A3348C9
:1013300090ED001A00EE810A80ED000A304890ED31
:10134000010A3048D0ED1F0A30EE200A2748D0EDC0
:10135000000A20EE200AD0ED000AB7EE001A71EE66
:10136000600A294890ED001A00EE810A80ED000A1B
:101370002448D0ED1E0AB0EE600A12F041F921486F
:10138000D0ED1F0A90ED151A60EE810A20EE200ABA
:101390001D48D0ED000A9FED171A00EE810A16488D
:1013A000D0ED000A20EE200AD0ED000AB7EE001AB8
:1013B00071EE600A154890ED001A00EE810A80ED8A
:1013C000000A0E4890ED000A1048D0ED000A30EEF9
:1013D000200AF0EE000A80EE201A0D4880ED001A77
:1013E00010BD0000ECCB0024BCCA00248C020024F9
:1013F0008802002423DB793DAC0200249002002403
:1014000014CC002454CB0024840200249402002431
:101410009802002400BFFEE710B50FF001FE40F275
:1014200016400FF027F90EF0FBFB10BD10B50FF0C2
:10143000F7FD4FF4F7600FF01DF90EF0F1FB10BD52
:1014400010B50FF0EDFD40F20B200FF013F90EF088
:10145000E7FB10BD10B50FF0E3FD40F2BA200FF02E
:1014600009F90EF0DDFB10BD10B50421034808F0AA
:10147000BBFD002001490968886310BD7C6F002412
:1014800010B50FF0CDFD4FF45C700FF0F3F80EF0D7
:10149000C7FB10BD00B589B000200190029002206A
:1014A00003900120049000200590069001A9264891
:1014B00004F071F8002003460222114600902248F1
:1014C00004F0BDF8002201211F4803F091FF012222
:1014D00011461D4804F029F81B4804F0C0FE01A97C
:1014E0001A4804F058F800200346022211460090E2
:1014F000164804F0A4F801221146144804F015F827
:1015000000220121114803F073FF104804F0A7FEE8
:1015100001A90F4804F03FF80020034602221146BB
:1015200000900B4804F08BF801221146084803F0A4
:10153000FCFF00220121064803F05AFF044804F092
:101540008EFE09B000BD0000C86C0024686D002448
:10155000086E002470B58AB005460C461646019404
:10156000002002900390082004900020059006902F
:10157000079008900990324601A9284603F08CFF95
:1015800020B103480088401C014908800AB070BDA2
:101590004C09002488B040F6C41012F0A4FE00BF2D
:1015A0004948D0ED050AF1EE600AB0EE600A4FF44A
:1015B0000071464800F0D8F84548D0ED050AB0EE75
:1015C000600A40F2FF11434800F0CEF8012012F00B
:1015D0008AFE202240496846FEF7E7FF3F48D0EDEB
:1015E000090AB0EE600A3C4838382C300EC837483B
:1015F00000F060FC20223A496846FEF7D6FF3948E1
:10160000D0ED0A0AB0EE600A354838382C300EC8E2
:10161000304800F04FFC20222F492C396846FEF755
:10162000C4FF2E48D0ED0A0AB0EE600A2A483838C6
:101630000EC8264800F03EFC202229492C39684675
:10164000FEF7B3FF2748D0ED090AB0EE600A244840
:1016500038380EC81F4800F02DFC012012F043FE60
:101660002148007801280DD1202220496846FEF744
:101670009CFF1F4890ED000A1C480C380EC81D48FE
:1016800000F018FC1848007870B920221749684605
:10169000FEF78BFF15480C38D0ED060AB0EE600A55
:1016A0000EC8144800F006FC202213496846FEF7D5
:1016B0007CFF11480C38D0ED060AB0EE600A0EC867
:1016C0000C4800F0F7FB6BE7ECCB0024686D0024BE
:1016D00014CC0024C86C002474CC0024BCCA0024A0
:1016E000CCCC002454CB002484070024F8CC002464
:1016F000A8070024086E002424CD00244278037833
:1017000042EA03220A80C278837842EA032212B2B4
:1017100000EE102AF8EEC00A9FED101A80EE810A42
:10172000F0EE000A20EE200ADFED0D0A20EE200A7E
:10173000DFED0C0A80EE201A81ED011AC278837861
:1017400042EA032212B20A814279037942EA032271
:1017500012B24A8182790A73704700000000704219
:10176000DB0F49407B146E4170B52DED028B82B0CA
:1017700005460E46B0EE408A0020009001909FED95
:10178000200AC8EE000A9FED1F1A80EE810AB3EE10
:10179000041AC0EE010A9FED1C0A20EE800ABDEE7D
:1017A000C00A10EE100A04B21848854201D1184848
:1017B00004821848854201D117480482200A8DF816
:1017C0000000E0B28DF80100200A8DF80200E0B2BE
:1017D0008DF80300200A8DF80400E0B28DF80500B2
:1017E000200A8DF80600E0B28DF807006A4631B293
:1017F0002846FFF7AFFE02B0BDEC028B70BD0000C3
:101800007B146E410AD7A33C00008046686D00241B
:10181000ECCB0024C86C002414CC002410B5044682
:101820000B46207800F00F001870207800115870D7
:10183000A178627841EA022093ED081AF0EE410A9D
:1018400093ED081AB1EE411AB0EE410A102113F0DF
:10185000A1FC83ED010AE1780901227941EA221015
:1018600093ED091AF0EE410A93ED091AB1EE411A0F
:10187000B0EE410A0C2113F08DFC83ED020A617970
:10188000227902F00F0241EA022093ED071AF0EEEE
:10189000410A93ED071AB1EE411AB0EE410A0C214C
:1018A00013F078FC83ED030AA07900EE100AB8EE7D
:1018B000400A83ED040AE07900EE100AB8EE400A0F
:1018C00083ED050A10BD000010B5024802F086FB4A
:1018D00010BD0000FC71002410B5024802F07EFB30
:1018E00010BD0000C86F002410B5024802F076FB5E
:1018F00010BD0000DC73002410B5024802F06EFB3E
:1019000010BD00005474002410B5024802F066FBBC
:1019100010BD0000EC72002410B5024802F05EFB1E
:1019200010BD00006473002410B5024802F056FB9D
:1019300010BD0000747200240146374A08689042C6
:1019400049D0354A18320868904244D0324A303281
:10195000086890423FD0304A4832086890423AD0F6
:101960002D4A60320868904235D02B4A7832086898
:10197000904230D0284A9032086890422BD0264AB4
:10198000A8320868904226D0244A0868904222D0A3
:10199000224A1832086890421DD0204A3032086826
:1019A000904218D01D4A48320868904213D01B4A12
:1019B0006032086890420ED0184A78320868904227
:1019C00009D0164A90320868904204D0134AA832CF
:1019D0000868904201D1012000E00020B0B10A78EF
:1019E000103A1823B2FBF3F000F007020C4B9A5C9C
:1019F000CA65032805D90A686FF30902121D8A65B2
:101A000003E00A686FF309028A6503E0086820F0C2
:101A1000FF008865886D7047100002401004024086
:101A20000061010810B502682B4C0368A34222D064
:101A3000294C14340368A3421DD0274C2834036872
:101A4000A34218D0244C3C340368A34213D0224C48
:101A500050340368A3420ED01F4C64340368A34281
:101A600009D01D4C78340368A34204D01A4C8C343E
:101A70000368A34201D1012300E000238BB1037866
:101A8000083B1424B3FBF4F1144B03EB810303660E
:101A9000124B8033436601F01F040123A340836689
:101AA00018E00378103B1824B3FBF4F10C4B9A4276
:101AB00004D80B4BA83B9A4200D30831094B03EBE7
:101AC00081030366074B8033436601F01F04012343
:101AD000A340836610BD0000085402580058025805
:101AE000B8040240000802400179A9B3082940D88F
:101AF000204B02689A4222D01E4B143302689A424D
:101B00001DD01C4B283302689A4218D0194B3C3325
:101B100002689A4213D0174B503302689A420ED093
:101B2000144B643302689A4209D0124B783302682E
:101B30009A4204D00F4B8C3302689A4201D10122A1
:101B400000E000224AB14A1E0B4B03EB8202C26640
:101B5000094A4032026708E00BE04A1E074B03EBDC
:101B60008202C266054A403202674A1E0123934040
:101B70004367704708540258005902580009024050
:101B8000014600208A69D2B98A6A32B1012A0DD091
:101B9000022A03D0032A10D10EE000BFCA6A02F065
:101BA0008072B2F1807F00D1012007E0CA6AB2F1F1
:101BB000C07F00D1012001E000E000BF36E08A696B
:101BC000B2F5005F1BD18A6A32B1012A07D0022A1E
:101BD00003D0032A11D10AE000BF01200EE0CA6A37
:101BE00002F08072B2F1807F00D1012006E0CA6A63
:101BF000B2F1C07F00D1012000E000BF16E08A6A88
:101C000032B1012A05D0022A04D0032A0CD103E004
:101C100000BF00BF012008E0CA6A02F08072B2F182
:101C2000807F00D1012000E000BF00BF70470000AE
:101C3000F0B5856D846D984F0668BE4270D0964FA2
:101C400018370668BE426BD0934F30370668BE42E5
:101C500066D0914F48370668BE4261D08E4F6037DC
:101C60000668BE425CD08C4F78370668BE4257D0BB
:101C7000894F90370668BE4252D0874FA837066812
:101C8000BE424DD0854F0668BE4249D0834F1837BB
:101C90000668BE4244D0814F30370668BE423FD00E
:101CA0007E4F48370668BE423AD07C4F60370668A0
:101CB000BE4235D0794F78370668BE4230D0774F74
:101CC00090370668BE422BD0744FA8370668BE42D4
:101CD00026D0734F0668BE4222D0714F1437066873
:101CE000BE421DD06E4F28370668BE4218D06C4FDA
:101CF0003C370668BE4213D0694F50370668BE4273
:101D00000ED0674F64370668BE4209D0644F7837FB
:101D10000668BE4204D0624F8C370668BE4201D1CD
:101D2000012600E000263EB1D0E919767E60C66E3D
:101D300016B1D0E91C767E60574F0668BE4249D086
:101D4000554F18370668BE4244D0534F30370668A7
:101D5000BE423FD0504F48370668BE423AD04E4F41
:101D600060370668BE4235D04B4F78370668BE42B2
:101D700030D0494F90370668BE422BD0464FA83727
:101D80000668BE4226D0454F0668BE4222D0434F69
:101D900018370668BE421DD0404F30370668BE4235
:101DA00018D03E4F48370668BE4213D03B4F6037CD
:101DB0000668BE420ED0394F78370668BE4209D059
:101DC000364F90370668BE4204D0344FA8370668B5
:101DD000BE4201D1012600E00026DEB190F85C6031
:101DE00006F01F073F26BE40AE600668366826F440
:101DF000802607683E60066873608668402E04D1BE
:101E00000668B2600668F16044E00668B160066882
:101E1000F2603FE0224F0668BE4222D0204F1437C6
:101E20000668BE421DD01E4F28370668BE4218D035
:101E30001B4F3C370668BE4213D0194F5037066817
:101E4000BE420ED0164F64370668BE4209D0144F0A
:101E500078370668BE4204D0114F8C370668BE4200
:101E600001D1012600E00026A6B190F85C6006F0E2
:101E70001F070126BE406660066873608668402EB4
:101E800004D10668B2600668F16003E00668B160DC
:101E90000668F260F0BD000010000240100402402D
:101EA0000854025880ED070AC0ED080A80ED091AAF
:101EB000018570470FB42DED020B2DE9F0432DED98
:101EC000028B83B08146B0EE408A9DED160AB4EED7
:101ED000C80AF1EE10FA03D89DED160AB0EE408A5A
:101EE0009DED160AB1EE400AB4EEC80AF1EE10FA02
:101EF00005DB9DED160AB1EE400AB0EE408A0024E3
:101F00000025002600279DED160AB0EE401A9DED33
:101F1000160AB1EE400AF0EE400A0C20B0EE480A74
:101F200011F028FF1FFA80F820128DF804008DF8B8
:101F3000054028098DF80600280140EA26208DF882
:101F400007008DF8086038098DF80900380140EA6B
:101F500028208DF80A0008F0FF008DF80B00BDF86E
:101F6000640001B201AA4846FFF7F4FA03B0BDECE1
:101F7000028BBDE8F0035DF81CFB704710B504460A
:101F800004F090FA04EB8401024A02EB81014860FC
:101F900010BD000008B500247CB505460C46FF20A6
:101FA0008DF800008DF801008DF802008DF8030017
:101FB0008DF804008DF805008DF80600FD208DF8E1
:101FC00007006A4621B22846FFF7C4FA7CBD00002C
:101FD000144890ED000A1448D0ED000A9FED131A42
:101FE00000EE810A0F4880ED000A0F4890ED000ACC
:101FF0000F48D0ED000A70EE200A0E4890ED000A5E
:102000009FED0A1A00EE810A80ED000A90ED000AA9
:102010000448D0ED000A30EE600A074880ED000A5F
:1020200070470000B0020024380900246F12033BFF
:10203000A4020024B4020024B8020024D2ED020A53
:1020400092ED021AB6EE000A00EEC10AD2ED030AC2
:1020500092ED031A00EEC10AD0ED000A20EE200A2C
:10206000D2ED010A92ED021A60EE810A92ED001A99
:10207000D2ED031A41EE210A90ED011A00EE810A19
:10208000D2ED010A92ED031A60EE810A92ED001A78
:10209000D2ED021A41EE610A90ED021A00EE810AB9
:1020A000F0EE000A20EE200A81ED000A92ED010A0E
:1020B000D2ED020A20EE200AD2ED000A92ED031AB8
:1020C00000EEC10AD0ED000A60EE200A92ED011A7E
:1020D000D2ED011AB6EE000A01EE610AD2ED031A42
:1020E00092ED032AB0EE401A01EEC21AD0ED011AA9
:1020F000B0EE600A01EE210AD2ED020A92ED031A57
:1021000060EE810A92ED001AD2ED011A41EE210A29
:1021100090ED021A00EE810AF0EE000A20EE200A8D
:1021200081ED010A92ED010AD2ED030A20EE200AA8
:10213000D2ED000A92ED021A00EE810AD0ED000AFB
:1021400020EE200AD2ED020A92ED031A60EE810A17
:1021500092ED001AD2ED011A41EE610A90ED011ADA
:1021600000EE810A92ED011AD2ED011AF6EE000A94
:1021700041EE610A92ED021AD2ED021A41EE610AB5
:1021800090ED021A00EE810AF0EE000A20EE200A1D
:1021900081ED020A70477CB505460C46FF208DF89C
:1021A00000008DF801008DF802008DF803008DF815
:1021B00004008DF805008DF80600FC208DF807005E
:1021C0006A4621B22846FFF7C5F97CBD72B600BF4A
:1021D000FEE700000DF004FC002013F003FB0121DA
:1021E0009848FFF7D9FE01219748FFF7D5FE112146
:1021F0009648FFF7D1FE012003F0E6F8022191484E
:10220000FFF7CAFE02219048FFF7C6FE10218F4853
:10221000FFF7C2FE012003F0D7F89FED8D0A4FF4BF
:1022200000718848FFF7A0FA9FED890A40F2FF117C
:102230008548FFF799FAFFF7F9F8642003F0C4F82E
:102240000EF0EEFE322003F0BFF8FFF7EFF8642047
:1022500003F0BAF80EF0E4FE322003F0B5F800BF48
:1022600000231A466421184610F018FF642003F07A
:10227000ABF801217348FFF78FFE01217248FFF789
:102280008BFE11217148FFF787FE012003F09CF8B7
:1022900002216C48FFF780FE02216B48FFF77CFEAD
:1022A00010216A48FFF778FE012003F08DF89FEDBA
:1022B000680A4FF400716348FFF756FA9FED640A0D
:1022C00040F2FF116048FFF74FFA6248007801289A
:1022D00004D0012011F07AF804F0F4F900231A4632
:1022E0001946184610F0DAFE642003F06DF801215B
:1022F0005448FFF751FE01215348FFF74DFE1121CD
:102300005248FFF749FE012003F05EF802214D48D4
:10231000FFF742FE02214C48FFF73EFE10214B48DA
:10232000FFF73AFE012003F04FF89FED490A4FF402
:1023300000714448FFF718FA9FED450A40F2FF117B
:102340004148FFF711FA43480078012804D00120E2
:1023500011F03CF804F0B6F94FF480723E493F4862
:1023600008F099F83E4800683E49884258D03C48F9
:1023700000683C491831884252D0394800683949D0
:10238000303188424CD0364800683649483188425E
:1023900046D03348006833496031884240D03048E5
:1023A00000683049783188423AD02D4800682D497C
:1023B0009031884234D02A4800682A49A83188429E
:1023C0002ED0274800682849884229D02448006830
:1023D00025491831884223D02148006822493031EC
:1023E00088421DD01E4800681F494831884217D0D6
:1023F0001B4800681C496031884211D018480068A9
:102400001949783188420BD0154800681649903137
:10241000884205D0124800681349A831884208D183
:102420000F480068006820F008000D49096808603E
:1024300016E70B480068006820F0040008490968A6
:1024400008600DE7686D0024C86C0024086E002445
:102450000000000011020024B6C2002468710024AC
:10246000DC7300241000024010040240074800689A
:1024700040F002000549086000BF044808380068C1
:1024800000F400500028F8D0704700000C480258B3
:1024900010B5024803F0ECF910BD0000C86C002430
:1024A00010B5024803F0E4F910BD0000C86C002428
:1024B00010B5024803F0DCF910BD0000686D00247F
:1024C00010B5024803F0D4F910BD0000686D002477
:1024D00010B5024803F0CCF910BD0000086E0024CE
:1024E00010B5024803F0C4F910BD0000086E0024C6
:1024F00010B501464A6B0868D0F884004FF6FC74AA
:10250000A04340EA82000C68C4F884000868D0F850
:10251000840020F47F04088F44EA00400C68C4F86B
:102520008400886B02440868D0F888004FF6FC7479
:10253000A04340EA82000C68C4F888000868D0F81C
:10254000880020F4FE04888F44EA00400C68C4F838
:102550008800C86B02EB40020868D0F8A0004FF674
:10256000FC74A04340EA82000C68C4F8A00008682C
:10257000D0F8A00020F4FE044020405A44EA004075
:102580000C68C4F8A000D1E9104004FB00220868E0
:10259000D0F8B0004FF6FC74A04340EA82000C680B
:1025A000C4F8B0000868D0F8B00020F4FE04B1F818
:1025B000480044EA00400C68C4F8B000D1E9124079
:1025C00004FB00220868D0F8AC004FF6FC74A0436E
:1025D00040EA82000C68C4F8AC00D1E9144004FB66
:1025E00000220868D0F8F0004FF6FC74A04340EADF
:1025F00082000C68C4F8F0000868D0F8F00020F4FD
:102600007C14B1F8580044EA00400C68C4F8F000AB
:10261000886D02EB40020868D0F8C0004FF6FC74E9
:10262000A04340EA82000C68C4F8C0000868D0F8F3
:10263000C00020F47C14B1F85C0044EA00400C684F
:10264000C4F8C0000868D0F8C00020F07C5491F8AD
:10265000600044EA00600C68C4F8C0002A4C486B73
:1026600004EB8000C866CC6E886B04EB80040C67BA
:102670000C6FC86B04EBC0044C67D1E910046043D5
:102680004C6F04EB80048C67D1E9120460438C6FBB
:1026900004EB8004CC67D1E914046043CC6F04EBF5
:1026A0008004802044504458886D04EBC00484208A
:1026B00044508C6EC86D60438424645804EB8004DD
:1026C000882044508C6E086E60438824645804EB64
:1026D00080049020445040580C4CA04209D99831B5
:1026E000486840F020004860032001F89809012064
:1026F00010BDCB6E02E0002018601B1D90204058DA
:102700009842F8D80020F3E700AC0040FCD300402A
:102710002DE9F041054614461E46D1F804C0BCF12F
:10272000000F0AD1D1F810C0D1F808804CEA080C8B
:10273000B1F800804CEA88430BE0D1F810C04CF0AF
:10274000804CD1F808804CEA080CD1F800804CEAA3
:10275000080391F82080D1F81CC04CEA086CD1F82D
:1027600018804CEA080CD1F814804CEA080CB1F837
:102770000C804CEA0847D5F868C00CFB06FCD5F87D
:10278000848008EB8C021360121D1760121D00205C
:1027900019E000F1030C14F80CC04FEA0C6800F1CA
:1027A000020C14F80CC048EA0C4800F1010C14F8B3
:1027B0000CC048EA0C2C14F800804CEA080CC2F853
:1027C00000C0121D001DDFF81480D1F80CC018F8ED
:1027D0000CC08445DDD8BDE8F08100000861010827
:1027E000014890ED690A704780B20024014890EDDD
:1027F000680A704780B20024014890ED6A0A704769
:1028000080B200242DE9F0439DB004460E464FF0FF
:102810000008306800B100BF00BF94F85C000128D8
:1028200003D102201DB0BDE8F083012084F85C00D4
:1028300000BF002019901A9046492068884202D1B2
:102840004548019001E000200190019850B9206EA8
:1028500040F02000206600BF002084F85C0000BF2C
:102860000120DFE701980BF06FFB074620680BF0B3
:102870006BFB002861D1002F5FD136492068884268
:1028800003D035492068884201D1344800E03448FB
:102890000546306858B3A86820F440407168084382
:1028A000A8602C492068884203D02B4920688842C0
:1028B00001D12A4800E02A482849884209D1254800
:1028C0000BF033FB814624480BF02FFB49EA000054
:1028D00002E024480BF029FB70BBB1683068084364
:1028E000A96840F61F7291430843A8602BE0A868CE
:1028F00020F44040A86017492068884203D0164958
:102900002068884201D1154800E0154813498842E3
:1029100009D110480BF009FB81460F480BF005FB6D
:1029200049EA000002E00F480BF0FFFA20B9A8685E
:1029300040F61F718843A86005E0206E40F020003B
:1029400020664FF0010800BF002084F85C0000BF43
:10295000404667E700200240002102400023024079
:1029600000630258006002582DE9F84F04460D46F6
:102970004FF0000A0020009094F84400012800D194
:1029800005E0F9492068884200D100E000BFF7491E
:10299000E868884200D00EE0F5492068884200D1FE
:1029A00000BFF4492068884200D100BFEE4920688A
:1029B000884200D100BF00BF94F85C00012802D11A
:1029C0000220BDE8F88F012084F85C0000BF206879
:1029D0000BF0B5FA002871D1286800F00040C8B9A2
:1029E000E1492068884215D02068C1692868C0F391
:1029F000130018B92868C0F3846004E0286890FACE
:102A0000A0F0B0FA80F000F01F02012090400143D6
:102A10002068C1612168D5E9002001F1300CC0F3C4
:102A2000012B0CEB8B03D3F800C000F01F0E4FF00E
:102A30001F0B0BFA0EFB2CEA0B0C00F01F0BC2F362
:102A4000846E0EFA0BFE4CEA0E0CC3F800C000BFF9
:102A500020680BF074FA814620680BF057FA07469D
:102A6000B9F1000F7ED1002FFCD12168AA68286837
:102A700001F1140CC0F3406B0CEB8B03D3F800C0D6
:102A8000C0F3045E4FF0070B0BFA0EFB2CEA0B0CA5
:102A9000C0F3045B02FA0BFB4CEA0B0CC3F800C05A
:102AA00000BFB1492068884209D168692168C968B6
:102AB000C1F3C101490000FA01F825E04BE3AE483B
:102AC000006800F07040B0F1805F07D1686921684C
:102AD000C968C1F382014900884014E02068C068D9
:102AE00000F0100038B968692168C968C1F3820133
:102AF0004900884007E068692168C96801F0100151
:102B00008908490088408046286904287CD02168CB
:102B10004346D5F810C02A6801F1600B0BEB8C001E
:102B2000DFF844B259450AD1D0F800B002F0F84EAF
:102B30004EF0004E4EEA030EC0F800E00BE0D0F875
:102B400000B00BF0004B02F0F84E4EEA030E4BEAD9
:102B50000E0BC0F800B000BF83492068884231D115
:102B6000206800E016E1EA6929697F4B98420CD1A0
:102B700000F1600C0CEB8103D3F800C02CF0807CDA
:102B80004CEA020CC3F800C000BF00BF206895F8F3
:102B900020202969012A01D1520600E000221346B3
:102BA000714A90420CD100F1600C0CEB8102D2F81A
:102BB00000C02CF0007C4CEA030CC2F800C000BF3F
:102BC00000BF20E1206895F821202969012A01D160
:102BD000D20700E000221346634A90420CD000F175
:102BE000600C0CEB8102D2F800C02CF0004C4CEAD7
:102BF000030CC2F800C000BF00BF20682B7E29690B
:102C0000012B02D1DB0201E00DE000231A4603692B
:102C100023F4F04301F01F0C02FA0CFC43EA0C030E
:102C2000036100BFEFE050492068884271D1002164
:102C300020680BF062F9C0F3130030B9002120685E
:102C40000BF05BF9C0F3846007E0002120680BF013
:102C500054F990FAA0F0B0FA80F02968C1F313019A
:102C600019B92968C1F3846104E0296891FAA1F1D6
:102C7000B1FA81F1884204D10022114620680BF09C
:102C800077F9012120680BF038F9C0F3130030B94F
:102C9000012120680BF031F9C0F3846007E00121C5
:102CA00020680BF02AF990FAA0F0B0FA80F02968B9
:102CB000C1F3130119B92968C1F3846104E02968DB
:102CC00091FAA1F1B1FA81F1884204D100220121E7
:102CD00020680BF04DF9022120680BF00EF9C0F3CB
:102CE000130030B9022120680BF007F9C0F38460AB
:102CF00007E0022120680BF000F990FAA0F0B0FA8A
:102D000080F02968C1F3130121B92968C1F38461F6
:102D100005E040E0296891FAA1F1B1FA81F1884219
:102D200004D10022022120680BF022F9032120683F
:102D30000BF0E3F8C0F3130030B9032120680BF067
:102D4000DCF8C0F3846007E0032120680BF0D5F8BD
:102D500090FAA0F0B0FA80F02968C1F3130169B9C4
:102D60002968C1F384610EE0006002580000FF474B
:102D700000200240002102400010005C296891FA06
:102D8000A1F1B1FA81F188423DD1002203212068EE
:102D90000BF0EEF837E02068006E00F0F84029787C
:102DA000B0EB816F05D12068006E20F000402168F3
:102DB00008662068406E00F0F8402978B0EB816F1B
:102DC00005D12068406E20F00040216848662068E8
:102DD000806E00F0F8402978B0EB816F05D1206853
:102DE000806E20F00040216888662068C06E00F088
:102DF000F8402978B0EB816F05D12068C06E20F0D3
:102E000000402168C86620680BF08AF800286FD15E
:102E10002068EA682968D64B984212D1D0F8B030C1
:102E2000C1F3130C23EA0C0302F0180BDFF844C3C0
:102E30002CFA0BFC0CEA010C43EA0C03C0F8B0308E
:102E400011E0D0F8C030C1F3130C23EA0C0302F0F8
:102E5000180BDFF820C32CFA0BFC0CEA010C43EA38
:102E60000C03C0F8C03000BFC349E868884270D185
:102E7000C24B206898423ED1C14B2A689A4201D188
:102E80000122B2E0BF4B2A689A4201D1BE4AACE0AF
:102E9000BE4B2A689A4201D1BD4AA6E0BD4B2A68C2
:102EA0009A4201D1BC4AA0E0BC4B2A689A4201D1A7
:102EB000BB4A9AE0BB4B2A689A4201D1BA4A94E0D5
:102EC000B94B2A689A4201D1B84A8EE0B74B2A68BA
:102ED0009A4201D1B64A88E0B64B2A689A4201D19B
:102EE000B54A82E0B54B2A689A4202D1B44A7CE0E6
:102EF000D6E0002279E0B34B22689A4238D1A04B49
:102F00002A689A4201D101226FE09E4B2A689A42B8
:102F100001D19D4A69E09D4B2A689A4201D19C4AA1
:102F200063E09C4B2A689A4201D19B4A5DE09B4B2F
:102F30002A689A4201D19A4A57E09A4B2A689A42E3
:102F400001D1994A51E0984B2A689A4202D1974A96
:102F50004BE062E0954B2A689A4201D1944A44E0E2
:102F6000964B2A689A4201D1954A3EE000223CE005
:102F70007F4B22689A4237D1814B2A689A4201D10D
:102F8000012232E07F4B2A689A4201D17E4A2CE02E
:102F90007E4B2A689A4201D17D4A26E07D4B2A6801
:102FA0009A4201D17C4A20E07C4B2A689A4201D1A6
:102FB0007B4A1AE07B4B2A689A4201D17A4A14E094
:102FC000794B2A689A4201D1784A0EE0784B2A68F8
:102FD0009A4201D17C4A08E07B4B2A689A4201D18F
:102FE0007A4A02E0002200E000221146604A904244
:102FF00011D0C369C1F3130212B9C1F3846203E0B3
:1030000091FAA1F2B2FA82F202F01F0C012202FA46
:103010000CF21343C36100BF00BF286800F00040FA
:10302000F0B3564A2168914203D0664A2168914222
:1030300001D1674900E067490846816801F0E07600
:1030400000BF4E492068884203D05E49206888420C
:1030500001D15F4800E05F485D49884209D1474897
:103060000AF05EFF834657480AF05AFF4BEA000019
:1030700002E03F480AF054FFF0BB574928688842F5
:1030800028D106F4000028BB39492068884268D15D
:103090003A4B22689A4205D04A4B22689A4200E095
:1030A00035E001D14A4A00E04A4A104646F40001A0
:1030B0000AF058FF494800684949B0FBF1F0401C4C
:1030C0004000009002E00098401E00900098002808
:1030D000F9D146E043492868884219D106F080704A
:1030E000B0B92349206888423BD1244B22689A42D8
:1030F00005D0344B226800E026E09A4201D1344AE0
:1031000000E0344A104646F080710AF02BFF28E0B8
:1031100035492868884224D106F4800008BB144948
:10312000206888421DD1154B22689A4203D0254B56
:1031300022689A4201D1264A00E0264A104646F407
:1031400080010AF00FFF0CE0206E40F020002066A6
:103150004FF0010A05E0206E40F0200020664FF09D
:10316000010A00BF002084F85C0000BF504628E43C
:1031700000600258FFFF0F000000FF4700200240E0
:103180000200300404006008400020190800900C80
:103190008000501D1000C010000180212000F0149C
:1031A0000002B0250004002A0008302E0010603212
:1031B0000020903600002143000052470000844B5D
:1031C0000000B84F002102400040C03A0080F03EAD
:1031D0000023024000630258000052C7340000245C
:1031E000400D0300000021C3000084CB01460868A5
:1031F000006C70472DE9F84F04464FF0000900209D
:10320000009014B90120BDE8F88F206920B120207A
:10321000005D012800D100BF206E30B9204600F0CB
:1032200089F90020606684F85C0020688168C1F339
:10323000407131B120688168B24A1140816000BF9D
:1032400000BF20680AF076FEA8B920688168AE4AFF
:10325000114041F08051816000BFAC480068AC492A
:10326000B0FBF1F0401C009002E00098401E00907E
:1032700000980028F9D120680AF05CFE48B9206E59
:1032800040F010002066606E40F0010060664FF074
:10329000010920680AF053FE0646206E00F0100077
:1032A00000287DD1002EFCD1206E20F4807040F0EB
:1032B0000200206620680AF033FE78BB954920683A
:1032C000884203D094492068884201D1934800E0A5
:1032D00093489249884209D18E480AF021FE8246DD
:1032E0008D480AF01DFE4AEA000002E08D480AF00F
:1032F00017FE98B9874B22689A4203D0864B226802
:103300009A4201D1854A00E0854A10466168826888
:1033100022F47C120A43826000BF00BF814920680A
:10332000884223D1607EE16B41EA4030E168084386
:10333000A168082901D100210FE0A1680C2901D161
:1033400004210AE0A1681C2901D1082105E0A16837
:10335000182901D11C2100E0002101F00C0140EAF4
:1033600041012020005D41EA004509E0607EE16BFB
:1033700041EA4030A16808432021095D40EA014547
:103380002020005D012803D1A08C401E45EA404565
:10339000A06A38B1208D00F47870E16A084300E03B
:1033A000A7E005435F49206888420FD12068C068C4
:1033B0005D49084028432168C8602068006920F002
:1033C0004060616B08432168086106E02068C068BE
:1033D0005649084028432168C86020680AF0AFFDBC
:1033E000804620680AF092FD0746B8F1000F66D1CA
:1033F000002F64D14B492068884206D1207E81038A
:1034000094F8380041EA400503E0207E216B41EA50
:1034100080352068C06844F203018843284321684E
:10342000C86094F84400012834D13E49206888429D
:1034300000D100E000BFA06A08B1E06A00B900BF97
:1034400038492068884210D1A06C40F00101E06C3E
:103450000843216D0843616D084321680969344AB6
:1034600011400843216808611AE0B4F84800401E82
:10347000012141EA0041E06C0843216D0843616D80
:103480000843216809692A4A521E114008432168ED
:10349000086105E02068006920F0010021680861EA
:1034A0002068006920F07040216C084321680861A1
:1034B0001C492068884202D02046FDF73DF920696A
:1034C000012809D12068006B20F00F00E169491E36
:1034D00008432168086305E02068006B20F00F00B6
:1034E00021680863206E20F0020040F00100206691
:1034F00005E0206E40F0100020664FF001094846BC
:1035000081E60000C0FFFF5FC0FFFF7F34000024A2
:10351000400D030000200240002102400023024031
:1035200000630258006002580740F0FF03C0F0FF3C
:103530001FF800FC10B5B6B00446142130A8FDF702
:1035400088F8B82102A8FDF784F824492068884249
:1035500041D14FF400210020CDE902100220049057
:10356000102105910221069107910891C02109912E
:1035700000210A910B9100202A9002A804F024F85F
:1035800008B1FEF723FE00BF1548006840F0200098
:10359000134908600846006800F02000019000BF51
:1035A00000BF00BF0E480830006840F004000C491E
:1035B000083108600846006800F00400019000BF70
:1035C00000BF10203090032031900020329030A9AD
:1035D000044802F069FE36B010BD00000020024031
:1035E000D8440258000802582DE9F0410446474AE1
:1035F0002168914203D0464A2168914201D1454950
:1036000000E0454908460AF073FC054620680AF0C8
:1036100096FC002877D100BF94F85C00012802D105
:103620000220BDE8F081012084F85C0000BF204644
:10363000FDF7F2F90646002E60D1206E40F60161DA
:10364000884340F48070206631492068884201D167
:103650002E4800E020682168884200D01DB9206E05
:1036600020F480102066206E00F48050B0F5805F5A
:1036700004D1606E20F00600606601E00020606604
:103680001C202168086000BF002084F85C0000BF97
:103690001F492068884201D11C4800E02068216849
:1036A000884204D01DB1052D01D0092D0ED120680E
:1036B000C06800F0007028B1206E20F4005040F483
:1036C0008050206620680AF045FC1DE0206E40F422
:1036D000801020660E492068884201D10B4800E026
:1036E00020680746F86800F0007068B1206E20F48A
:1036F000005040F48050206606E004E000BF002047
:1037000084F85C0000E0022630468AE70020024090
:1037100000210240002302400063025870B50446B5
:1037200000BF94F85C00012801D1022070BD012087
:1037300084F85C0000BF03212046FDF795F805469C
:1037400055B92046FDF71EF905462DB9206E20F427
:10375000885040F00100206600BF002084F85C0023
:1037600000BF2846E2E700002DE9F041044602F0E0
:1037700099FE804614B90120BDE8F08194F8350027
:10378000022808D08020606500BF002084F8340043
:1037900000BF0120F0E7FE492068884249D0FC497B
:1037A00018312068884244D0F94930312068884275
:1037B0003FD0F7494831206888423AD0F449603117
:1037C0002068884235D0F24978312068884230D06C
:1037D000EF499031206888422BD0ED49A83120680C
:1037E000884226D0EB492068884222D0E949183126
:1037F000206888421DD0E74930312068884218D0BF
:10380000E44948312068884213D0E2496031206899
:1038100088420ED0DF4978312068884209D0DD49DE
:1038200090312068884204D0DA49A8312068884263
:1038300001D1012000E0002068B12068006820F07C
:103840001E00216808602068406920F0800021681F
:103850004861256806E02068006820F00E002168B5
:1038600008602568CA492068884270D0C849183164
:10387000206888426BD0C64930312068884266D0C3
:10388000C34948312068884261D0C149603120680D
:1038900088425CD0BE4978312068884257D0BC4904
:1038A00090312068884252D0B949A83120688842B6
:1038B0004DD0B8492068884249D0B64918312068AF
:1038C000884244D0B3493031206888423FD0B14962
:1038D0004831206888423AD0AE4960312068884239
:1038E00035D0AC4978312068884230D0A949903130
:1038F000206888422BD0A749A8312068884226D06A
:10390000A5492068884222D0A34914312068884202
:103910001DD0A14928312068884218D09E493C31E9
:103920002068884213D09C495031206888420ED0CC
:10393000994964312068884209D0974978312068D4
:10394000884204D094498C312068884201D10120FA
:1039500000E0002028B1206E006820F48070216E05
:1039600008608B492068884249D08949183120680D
:10397000884244D086493031206888423FD084490B
:103980004831206888423AD08149603120688842B5
:1039900035D07F4978312068884230D07C499031D9
:1039A000206888422BD07A49A8312068884226D0E6
:1039B00078492068884222D07649183120688842A8
:1039C0001DD0744930312068884218D0714948317F
:1039D0002068884213D06F496031206888420ED039
:1039E0006C4978312068884209D06A499031206852
:1039F000884204D06749A8312068884206D12068EF
:103A0000006820F001002168086005E02068006877
:103A100020F001002168086011E002F043FDA0EBF6
:103A2000080005280BD920206065032084F83500A4
:103A300000BF002084F8340000BF01209CE6286805
:103A400000F001000028E8D151492068884249D09F
:103A50004F4918312068884244D04D4930312068A0
:103A600088423FD04A494831206888423AD0484984
:103A700060312068884235D04549783120688842D5
:103A800030D043499031206888422BD04049A8313A
:103A90002068884226D03F492068884222D03D498C
:103AA0001831206888421DD03A4930312068884258
:103AB00018D0384948312068884213D035496031E0
:103AC000206888420ED0334978312068884209D076
:103AD000304990312068884204D02E49A8312068AE
:103AE000884201D1012000E0002040B1A66D94F889
:103AF0005C0000F01F013F208840B06007E0A76D28
:103B000094F85C0000F01F01012088407860204993
:103B10002068884276D01E4918312068884271D0CA
:103B20001B493031206888426CD0194948312068DF
:103B3000884267D0164960312068884262D01449B3
:103B40007831206888425DD01149903120688842E0
:103B500058D00F49A8312068884253D00D492068B9
:103B600088424FD00B491831206888424AD0094911
:103B700030312068884245D0064948312068884263
:103B800040D004496031206888423BD0014905E0BB
:103B90001000024010040240085402587831206896
:103BA00088422FD02549206888422BD023491831DC
:103BB0002068884226D022492068884222D02049A5
:103BC0001431206888421DD01D4928312068884260
:103BD00018D01B493C312068884213D01849503115
:103BE000206888420ED0164964312068884209D086
:103BF000134978312068884204D011498C312068FB
:103C0000884201D1012000E0002068B1D4E91910F8
:103C10004860E06E40B1E06E006820F48070E16EB4
:103C20000860D4E91C104860012084F8350000BF0A
:103C3000002084F8340000BF00BF9DE5A0040240CE
:103C40000854025870B504460CB9012070BD94F8B0
:103C50003500022803D0802060650120F6E7DC49AA
:103C60002068884249D0DA4918312068884244D017
:103C7000D7493031206888423FD0D5494831206843
:103C800088423AD0D24960312068884235D0D04944
:103C900078312068884230D0CD4990312068884200
:103CA0002BD0CB49A8312068884226D0C94920684A
:103CB000884222D0C7491831206888421DD0C549A2
:103CC00030312068884218D0C24948312068884283
:103CD00013D0C0496031206888420ED0BD49783188
:103CE0002068884209D0BB4990312068884204D0BE
:103CF000B849A8312068884201D1012000E00020A5
:103D0000F0B3042084F83500B149206888424BD0D4
:103D1000AF4918312068884246D0AD49303120681B
:103D2000884241D0AA494831206888423CD0A849FD
:103D300060312068884237D0A549783120688842B0
:103D400032D0A3499031206888422DD0A049A831B3
:103D50002068884228D09F492068884224D09D4905
:103D60001831206888421FD09A4930312068884233
:103D70001AD0984948312068884215D0954900E00A
:103D800020E06031206888420ED092497831206866
:103D9000884209D08F4990312068884204D08D49EB
:103DA000A8312068884206D12068006820F0010010
:103DB0002168086009E12068006820F0010021689E
:103DC000086002E12068006820F00E0021680860A9
:103DD0007F492068884249D07D491831206888424F
:103DE00044D07B493031206888423FD078494831FF
:103DF000206888423AD0764960312068884235D0C0
:103E0000734978312068884230D0714990312068F8
:103E100088422BD06E49A8312068884226D06D494F
:103E20002068884222D06B491831206888421DD012
:103E3000684930312068884218D066494831206886
:103E4000884213D063496031206888420ED06149AE
:103E500078312068884209D05E49903120688842D4
:103E600004D05C49A8312068884206D120680068E7
:103E700020F001002168086005E02068006820F05B
:103E800001002168086052492068884270D050497A
:103E90001831206888426BD04D4930312068884203
:103EA00066D04B4948312068884261D0484960312A
:103EB000206888425CD0464978312068884257D0D3
:103EC000434990312068884252D04149A831206846
:103ED00088424DD03F492068884249D03D49183139
:103EE0002068884244D03B493031206888423FD026
:103EF00038494831206888423AD0364960312068D4
:103F0000884235D0334978312068884230D03149F1
:103F10009031206888422BD02E49A83120688842F1
:103F200026D02D492068884222D02B4914312068A0
:103F300088421DD0284928312068884218D0264957
:103F40003C312068884213D0234950312068884290
:103F50000ED0214964312068884209D01E49783149
:103F60002068884204D01C498C312068884201D1E5
:103F7000012000E00020D8B1206E006820F480709D
:103F8000216E0860A56D94F85C0000F01F0101200F
:103F900088406860D4E919104860E06E40B1E06E76
:103FA000006820F48070E16E0860D4E91C1048605D
:103FB000012084F8350000BF002084F8340000BFE1
:103FC000206D10B12046216D884700203EE600009C
:103FD0001000024010040240085402582DE9F84F26
:103FE000044600200090FE4800684FF41651B0FBD4
:103FF000F1FAA66DD4F858803768D8F80090F949DE
:104000002068884249D0F74918312068884244D056
:10401000F4493031206888423FD0F2494831206865
:1040200088423AD0EF4960312068884235D0ED4966
:1040300078312068884230D0EA499031206888423F
:104040002BD0E849A8312068884226D0E64920686C
:10405000884222D0E4491831206888421DD0E249C4
:1040600030312068884218D0DF49483120688842C2
:1040700013D0DD496031206888420ED0DA497831AA
:104080002068884209D0D84990312068884204D0FD
:10409000D549A8312068884201D1012000E00020E4
:1040A00000287DD094F85C0000F01F0108208840B3
:1040B0003840002868D0CB492068884249D0C94997
:1040C00018312068884244D0C6493031206888427F
:1040D0003FD0C4494831206888423AD0C149603154
:1040E0002068884235D0BF4978312068884230D076
:1040F000BC499031206888422BD0BA49A831206849
:10410000884226D0B8492068884222D0B649183162
:10411000206888421DD0B44930312068884218D0C8
:10412000B14948312068884213D0AF4960312068D6
:1041300088420ED0AC4978312068884209D0AA491B
:1041400090312068884204D0A749A831206888426D
:1041500004D12068006800F0040003E020680068D3
:1041600000F0080080B12068006820F00400216899
:10417000086094F85C0000F01F0108208840B060DF
:10418000606D40F00100606594F85C0000F01F0174
:10419000012088403840E8B392492068884200E016
:1041A000B7E24BD08F4918312068884246D08D49FC
:1041B00030312068884241D08A494831206888429D
:1041C0003CD0884960312068884237D085497831B1
:1041D0002068884232D083499031206888422DD0AF
:1041E0008049A8312068884228D07F4920688842C9
:1041F00024D07D491831206888421FD07A49303157
:10420000206888421AD0784948312068884215D001
:10421000754900E026E06031206888420ED072497E
:1042200078312068884209D06F49903120688842EF
:1042300004D06D49A8312068884204D120684069C3
:1042400000F0800002E020680068002050B194F87F
:104250005C0000F01F0101208840B060606D40F0FC
:104260000200606594F85C0000F01F0104208840A3
:104270003840E8B35B49206888424BD0594918312F
:104280002068884246D0574930312068884241D062
:1042900054494831206888423CD0524960312068F6
:1042A000884237D04F4978312068884232D04D4912
:1042B0009031206888422DD04A49A8312068884230
:1042C00028D049492068884224D0474918312068BD
:1042D00088421FD044493031206888421AD0424970
:1042E00048312068884215D03F496031206800E09D
:1042F00024E088420ED03C4978312068884209D0B9
:10430000394990312068884204D03749A831206863
:10431000884204D12068006800F0020002E02068B2
:104320000068002050B194F85C0000F01F010420E8
:104330008840B060606D40F00400606594F85C00F7
:1043400000F01F01102088403840E8B3254920685C
:10435000884251D023491831206888424CD02149E5
:1043600030312068884247D01E4948312068884251
:1043700042D01C496031206888423DD019497831CB
:104380002068884238D0174990312068884233D05D
:104390001449A831206888422ED0134920688842E9
:1043A0002AD0114918312068884225D00E49303171
:1043B0002068884220D00C494831206888421BD0B0
:1043C00009496031206800E04DE0884214D0064978
:1043D0007831206888420FD003499031206805E089
:1043E000340000241000024010040240884203D030
:1043F000FE492068884204D12068006800F0080067
:1044000003E02068006800F0040060B394F85C00EA
:1044100000F01F0110208840B0602068006800F4A0
:10442000802080B12068006800F4002028B9206C4A
:10443000C8B12046216C884715E0A06C98B1204691
:10444000A16C88470FE02068006800F4807028B9EC
:104450002068006820F0080021680860206C10B116
:104460002046216C884794F85C0000F01F01202052
:104470008840384000287DD0DD492068884249D0F6
:10448000DB4918312068884244D0D949303120684E
:1044900088423FD0D6494831206888423AD0D44932
:1044A00060312068884235D0D1497831206888420F
:1044B00030D0CF499031206888422BD0CC49A831E8
:1044C0002068884226D0C949A8392068884221D06E
:1044D000C6499039206888421CD0C4497839206880
:1044E000884217D0C14960392068884212D0BF493C
:1044F0004839206888420DD0BC493039206888424C
:1045000008D0BA4918392068884203D0B7492068D2
:10451000884204D12068006800F0100003E02068A1
:10452000006800F0020028B394F85C0000F01F015E
:1045300020208840B06094F8350004282DD12068F0
:10454000006820F01600216808602068406920F0AB
:10455000800021684861206C08B9A06C28B12068EF
:10456000006820F008002168086094F85C0000F002
:104570001F0100E03FE03F208840B060012084F848
:10458000350000BF002084F8340000BF206D10B15A
:104590002046216D8847BDE8F88F2068006800F448
:1045A000802080B12068006800F4002028B9606C89
:1045B00008B32046616C88471DE0E06BD8B1204607
:1045C000E16B884717E02068006800F4807068B9E4
:1045D0002068006820F0100021680860012084F83D
:1045E000350000BF002084F8340000BFE06B10B13C
:1045F0002046E16B8847606D00287AD0606D00F03E
:104600000100E8B3042084F8350079492068884225
:104610004BD0774918312068884246D074493031F0
:104620002068884241D072494831206888423CD095
:104630006F4960312068884237D06D4978312068F1
:10464000884232D06A499031206888422DD068492A
:10465000A8312068884228D06449A8392068884257
:1046600023D062499039206888421ED05F4978394A
:104670002068884219D05D4960392068884200E08E
:1046800040E012D059494839206888420DD0574936
:1046900030392068884208D0544918392068884247
:1046A00003D052492068884206D12068006820F073
:1046B00001002168086005E02068006820F0010022
:1046C0002168086000BF0098401C0090504500D948
:1046D00005E02068006800F001000028F3D100BF69
:1046E0002068006800F0010020B1032084F8350044
:1046F00003E00DE0012084F8350000BF002084F8BD
:10470000340000BFE06C002802D02046E16C8847EE
:10471000D9E138492068884222D0364914312068CE
:1047200088421DD0334928312068884218D0314949
:104730003C312068884213D02E495031206888428D
:104740000ED02C4964312068884209D0294978313B
:104750002068884204D027498C312068884201D1E2
:10476000012000E000200028D2D02068056894F8DD
:104770005C0000F01F010420884000EA0900D8B363
:1047800005F00400C0B394F85C0000F01F010420A1
:104790008840C8F8040005F4004080B105F480307A
:1047A00030B9A06C0028B3D02046A16C88478AE1BC
:1047B000206C0028ACD02046216C884783E105F0AE
:1047C0002000E8BB0A492068884253D008491831C4
:1047D000206888424ED0064930312068884249D04E
:1047E000034948312068884244D006E0B8040240BA
:1047F00010000240085402584FE0B449603120686C
:10480000884237D0B14978312068884232D0AF49E8
:104810009031206888422DD0AC49A8312068884268
:1048200028D0AB492068884224D0A9491831206893
:1048300088421FD0A6493031206888421AD000E053
:1048400025E0A34948312068884213D0A04960314F
:10485000206888420ED09E4978312068884209D06D
:104860009B4990312068884204D09949A83120683A
:10487000884206D12068006820F00800216808609E
:1048800005E02068006820F0040021680860206CC2
:1048900010B32046216C884715E194F85C0000F0C5
:1048A0001F010220884000EA0900E8B305F0020079
:1048B000D0B394F85C0000F01F0102208840C8F8D3
:1048C000040005F4004070B105F4803028B9606C34
:1048D00010B12046616C8847F5E0E06BF0B32046EC
:1048E000E16B8847EFE005F02000C0BB7749206806
:1048F00088424ED0754918312068884249D07349A2
:1049000030312068884244D070494831206888425C
:104910003FD06E496031206888423AD06B49783187
:104920002068884235D000E04EE068499031206828
:1049300088422ED06549A8312068884229D0644930
:104940002068884225D0624918312068884220D0EA
:104950005F493031206888421BD001E06EE02DE0D5
:104960005B4948312068884213D05949603120683A
:1049700088420ED0564978312068884209D054497F
:1049800090312068884204D05149A831206888427B
:1049900006D12068006820F014002168086005E056
:1049A0002068006820F00A0021680860012084F86F
:1049B000350000BF002084F8340000BFE06BE8B38E
:1049C0002046E16B88477EE094F85C0000F01F0110
:1049D0000820884000EA090080B305F0080068B3A9
:1049E0003A49206888424BD03849183120688842BB
:1049F00046D0364930312068884241D03349483169
:104A0000206888423CD0314960312068884237D0E4
:104A10002E4978312068884232D02C499031206864
:104A200088422DD02949A8312068884228D02849B9
:104A30002068884224D02649183100E043E02068ED
:104A400088421DD0224930312068884218D0204940
:104A500048312068884213D01D496031206888425F
:104A60000ED01B4978312068884209D0184990310E
:104A70002068884204D01649A8312068884206D1AF
:104A80002068006820F01C002168086005E02068AC
:104A9000006820F00E002168086094F85C0000F0C7
:104AA0001F0101208840C8F804000120606584F8D7
:104AB000350000BF002084F8340000BFE06C10B166
:104AC0002046E16C884700BF65E500001000024009
:104AD000100402402DE9F041044601F0E3FC804659
:104AE00014B90120BDE8F081FE492068884249D010
:104AF000FC4918312068884244D0FA493031206896
:104B000088423FD0F7494831206888423AD0F54979
:104B100060312068884235D0F24978312068884277
:104B200030D0F0499031206888422BD0ED49A8312F
:104B30002068884226D0EC492068884222D0EA4981
:104B40001831206888421DD0E749303120688842FA
:104B500018D0E54948312068884213D0E2496031D5
:104B6000206888420ED0E04978312068884209D018
:104B7000DD4990312068884204D0DB49A8312068A3
:104B8000884201D1012000E00020002873D0606A33
:104B900000B100BF022084F8350000BF002084F877
:104BA000340000BFCF492068884249D0CD49183130
:104BB0002068884244D0CB493031206888423FD0B9
:104BC000C8494831206888423AD0C64960312068D7
:104BD000884235D0C34978312068884230D0C149F5
:104BE0009031206888422BD0BE49A8312068884285
:104BF00026D0BD492068884222D0BB4918312068A0
:104C000088421DD0B84930312068884218D0B64952
:104C100048312068884213D0B34960312068884207
:104C20000ED0B14978312068884209D0AE49903120
:104C30002068884204D0AC49A8312068884206D157
:104C40002068006820F001002168086005E0206805
:104C5000006820F00100216808600DE001F022FCEE
:104C6000A0EB0800052807D920206065032084F800
:104C70003500012036E769E02068006800F0010097
:104C80000028EBD12068056898480540D4E9020166
:104C900008432169084361690843A1690843E16940
:104CA0000843216A08430543606A042803D1D4E914
:104CB0000B01084305436068292802D360682E2849
:104CC00017D960683F2802D36068422811D960680C
:104CD000472802D3606848280BD960684F2802D360
:104CE0006068522805D96068742804D36068772802
:104CF00001D8012000E0002008B145F480152068AB
:104D000005602068456925F00705606A0543606A0B
:104D100004280DD1A06A0543E06A48B12046FCF79B
:104D20002FFF28B140206065012084F83500D9E6C6
:104D3000206845612046FCF7FFFD064694F85C00BC
:104D400000F01F013F208840B0609EE06849206865
:104D5000884222D066491431206888421DD06449B7
:104D600028312068884218D061493C312068884247
:104D700013D05F495031206888420ED05C496431BD
:104D80002068884209D05A4978312068884204D086
:104D900057498C312068884201D1012000E0002071
:104DA000E0B353492068884222D051491431206829
:104DB00088421DD04E4928312068884218D04C497D
:104DC0003C312068884213D04949503120688842DC
:104DD0000ED0474964312068884209D0444978316F
:104DE0002068884204D042498C312068884201D131
:104DF000012000E0002000B100BF022084F835004F
:104E000000BF002084F8340000BF206805683948DE
:104E10000540A068402802D1102106E02EE0A068DD
:104E2000802801D1C10100E00021E06841EAD00101
:104E3000206941EAD001606941EAD001A06941EAF4
:104E4000D001E06941EAD001206A41EA101005432F
:104E50002068056026492068401A1421B0FBF1F053
:104E60008000E0652046FCF767FD074694F85C008B
:104E700000F01F0101208840786006E04020606556
:104E8000032084F8350001202CE61649206888426A
:104E90007AD0144918312068884275D011493031D0
:104EA0002068884270D00F494831206888426BD012
:104EB0000C4960312068884266D00A497831206800
:104EC000884261D007499031206888425CD005490A
:104ED000A8312068884257D003492068884253D0BF
:104EE000014909E010000240100402403F8010FE1A
:104EF000085402580F00FEFF18312068884243D042
:104F00003749206888423FD03549183120688842A7
:104F10003AD0334930312068884235D03049483161
:104F20002068884230D02E496031206888422BD0DA
:104F30002B4978312068884226D02A492068884247
:104F400022D028491431206888421DD025492831B3
:104F50002068884218D023493C312068884213D009
:104F600020495031206888420ED01E4964312068A3
:104F7000884209D01B4978312068884204D01949F9
:104F80008C312068884201D1012000E0002000B36C
:104F90002046FCF747FDA068802801D10020606012
:104FA0002079216E0860D4E919104860606860B10A
:104FB0006068082809D82046FCF796FD0020E16EBD
:104FC0000860D4E91C10486003E00020E066206718
:104FD000606700206065012084F83500002081E5CD
:104FE00040040240085402582DE9F04104460D46A1
:104FF00016461F464FF0000814B90120BDE8F081A5
:1050000000BF94F83400012801D10220F6E7012006
:1050100084F8340000BF94F8350001287ED10220C6
:1050200084F8350000206065E4492068884249D052
:10503000E24918312068884244D0E0493031206884
:1050400088423FD0DD494831206888423AD0DB4968
:1050500060312068884235D0D8497831206888424C
:1050600030D0D6499031206888422BD0D349A8311E
:105070002068884226D0D2492068884222D0D04970
:105080001831206888421DD0CD49303120688842CF
:1050900018D0CB4948312068884213D0C8496031C4
:1050A000206888420ED0C64978312068884209D0ED
:1050B000C34990312068884204D0C149A831206892
:1050C000884206D12068006820F00100216808604D
:1050D00005E02068006820F00100216808603B4678
:1050E000324629462046FCF7A3FDB4492068884291
:1050F0004BD0B24918312068884246D0AF49303190
:105100002068884241D0AD494831206888423CD06F
:10511000AA4960312068884237D000E042E1A749BF
:1051200078312068884230D0A44990312068884284
:105130002BD0A249A8312068884226D0A0492068F7
:10514000884222D09E491831206888421DD09C494F
:1051500030312068884218D0994948312068884207
:1051600013D097496031206888420ED09449783135
:105170002068884209D0924990312068884204D042
:105180008F49A8312068884201D1012000E0002029
:1051900080B12068006820F01E0040F016002168F1
:1051A0000860206CB0B12068006840F008002168F9
:1051B00008600FE02068006820F00E0040F00A0050
:1051C00021680860206C28B12068006840F0040065
:1051D0002168086079492068884270D07749183181
:1051E000206888426BD0754930312068884266D08B
:1051F000724948312068884261D070496031206826
:1052000088425CD06D4978312068884257D06B491C
:1052100090312068884252D06849A831206888427D
:105220004DD067492068884249D0654918312068C7
:10523000884244D062493031206888423FD060497A
:105240004831206888423AD05D4960312068884200
:1052500035D05B4978312068884230D05849903148
:10526000206888422BD05649A8312068884226D031
:1052700054492068884222D052491431206888421B
:105280001DD0504928312068884218D04D493C3102
:105290002068884213D04B495031206888420ED094
:1052A000484964312068884209D0464978312068ED
:1052B000884204D043498C312068884201D10120C2
:1052C00000E0002090B1206E006800F4803028B12A
:1052D000206E006840F48070216E0860E06E28B196
:1052E000E06E006840F48070E16E08603349206829
:1052F000884249D0314918312068884244D02F492A
:105300003031206888423FD02C494831206888429B
:105310003AD02A4960312068884235D0274978310F
:105320002068884230D025499031206888422BD0AF
:105330002249A8312068884226D021492068884225
:1053400022D01F491831206888421DD01C493031B5
:105350002068884218D01A4948312068884213D002
:1053600017496031206888420ED01549783120688D
:10537000884209D0124990312068884204D01049EF
:10538000A8312068884206D12068006840F00100FA
:105390002168086010E02068006840F00100216882
:1053A000086009E04FF40060606500BF002084F8E9
:1053B000340000BF4FF0010840461FE610000240D5
:1053C000100402400854025870B5044601F06AF80F
:1053D00006462546681C10B104480078054400BF05
:1053E00001F060F8801BA842FAD370BD30000024A1
:1053F00030B5034693F89840012C01D0022C3ED1E1
:105400001868806D084030B91868C06D40F0010020
:105410001D68E8650EE01868806D0840884206D176
:105420001868C06D40F002001D68E86502E00320C6
:105430001D68E86501F4007030B11868D0F8E0002C
:1054400010431D68C5F8E00001F4806030B11868B1
:10545000D0F8E40010431D68C5F8E40000BF1868E8
:10546000406D0B4D0D4028431D6868650948006874
:1054700040EA9170074D286000BF002030BDD3F88E
:105480009C0040F00200C3F89C000120F6E70000F9
:10549000FFFFCF3F14A800402DE9F04104460E461F
:1054A0001746706800B900E000BF94F89800022821
:1054B00032D12068D0F8C00000F07C5040B9D4F858
:1054C0009C0040F02000C4F89C000120BDE8F08161
:1054D0002068D0F8C40000F4001038B1D4F89C0063
:1054E00040F40070C4F89C000120EFE72068D0F879
:1054F000C400C0F304452B463A4631462046FDF72A
:1055000007F90120A8402168C1F8D0000120A84077
:10551000C4F894000020D9E7D4F89C0040F00800BB
:10552000C4F89C000120D1E7704710B5034601B9CB
:1055300000E000BF93F89800012824D151B9186801
:10554000D0F8F00020F07C5040EA02601C68C4F8FB
:10555000F00016E001290AD11868D0F8A00020F068
:10556000FE4040EA02601C68C4F8A00009E0186828
:10557000D0F8B00020F0FE4040EA02601C68C4F899
:10558000B000002010BDD3F89C0040F00400C3F828
:105590009C000120F6E7F0B5024692F89860012ED3
:1055A00001D0022E43D1C868072800D100BF086887
:1055B00018BBC868072800D000BFC86807280BD1EF
:1055C000088A4FF0605747EA0040CF6940EA072059
:1055D0008F6940EA07040AE0087A80070F7B40EAF7
:1055E000C7600F8A40EA07404F6940EA0704D76E58
:1055F000486807EB80031C6017E0C868072800D0E4
:1056000000BF0F7B086940EA4774C868072801D1CA
:105610008D6903E00F7A486940EA8775176F48681B
:1056200007EBC0031C601B1D1D600020F0BDD2F8FD
:105630009C0040F00200C2F89C000120F6E770B523
:105640000446049D94F8980001280AD1080140EA14
:10565000820040EA430028432668C6F88000002004
:1056600070BDD4F89C0040F00400C4F89C000120F8
:10567000F6E77047704700002DE9F04304460D46F9
:105680009C46002394F89880B8F1020F74D1402D05
:1056900038D12068D0F8A00000F4FE0040B9D4F85A
:1056A0009C0040F02000C4F89C000120BDE8F0837D
:1056B0002068D0F8A40000F07F0038B9D4F89C002E
:1056C00040F48070C4F89C000120EFE72068D0F817
:1056D000A400C0F3006040B12068D0F8A0004FF0F3
:1056E0000109B9EBD07F00D101232068D0F8A400D4
:1056F000C0F305200344606C5843D4F8749009EB60
:1057000080014BE0412D38D12068D0F8B00000F482
:10571000FE0038B9D4F89C0040F02000C4F89C008A
:105720000120C3E72068D0F8B40000F07F0038B94A
:10573000D4F89C0040F48070C4F89C000120B5E7C8
:105740002068D0F8B400C0F3006040B12068D0F801
:10575000B0004FF00109B9EBD07F00D101232068E0
:10576000D0F8B400C0F305200344E06C5843D4F8EB
:10577000789009EB800111E06DE0206DA84207D818
:10578000D4F89C0040F02000C4F89C0001208DE774
:10579000606D6843D4F87C9009EB8001086800F0E4
:1057A00080405060506820B90868C0F38A4010609B
:1057B00003E0086820F060401060086800F00050C6
:1057C0009060086800F000401061091D088880B2F0
:1057D000D0610868C0F30340D060086800F480100E
:1057E0005061086800F4001090610868C0F306601A
:1057F00010620868C00F5062091D0F46002603E0C2
:10580000B85D0CF80600761CDFF85C90D06819F8DB
:105810000000B042F4D8402D03D12068C0F8A83071
:1058200017E0412D03D12068C0F8B83011E0202DD9
:1058300006D20120A840D4F80090C9F8980008E0EA
:1058400005F01F09012000FA09F0D4F80090C9F80A
:105850009C0000202AE7D4F89C0040F00800C4F81F
:105860009C00012022E70000086101087047000049
:105870002DE9F04F8DB00446EF4800688707EE48E9
:10588000001D006807EA80772068006D00F470480A
:105890002068406D00EA08082068006D00F00F09DC
:1058A0002068406D00EA09092068006D00F0F00AE8
:1058B0002068406D00EA0A0A2068006D00F0715B04
:1058C0002068406D00EA0B0B2068006D00F06070EE
:1058D0000C902068406D0C9908400C902068456D34
:1058E0002068066DC5F3002070B1C6F3002058B1E2
:1058F00000BF4FF48070216808650020CE49086021
:1059000000BF2046FFF7B2FFC5F38020C8B1C6F341
:105910008020B0B12068D0F8DC000A902068D0F870
:10592000E4000A9908400A9000BF4FF480602168A3
:1059300008650020C049086000BF20460A9900F0B1
:10594000AEFC67B100BFBD48384021680865B80F9C
:10595000B949086000BF39462046FFF7E5FDB8F1B8
:10596000000F0ED000BFB54808EA000021680865A6
:105970004FEA9870B049086000BF4146204600F0E9
:1059800090FCB9F1000F0ED000BFAC4809EA00004E
:10599000216808654FEA9970A749086000BF494629
:1059A000204600F0DFFBBAF1000F0ED000BFA34885
:1059B0000AEA0000216808654FEA9A709E4908606B
:1059C00000BF5146204600F049FCC5F3C02070B12D
:1059D000C6F3C02058B100BF4FF4006021680865CD
:1059E00000209549086000BF204600F05BFCC5F32D
:1059F0004020C8B1C6F34020B0B12068D0F8D8002C
:105A00000B902068D0F8E0000B9908400B9000BF85
:105A10004FF400702168086500208749086000BFC6
:105A200020460B9900F03CFCC5F3C04070B1C6F3B2
:105A3000C04058B100BF4FF4002021680865002025
:105A40007D49086000BF204600F08AFBC5F3004096
:105A500070B1C6F3004058B100BF4FF480302168E8
:105A6000086500207449086000BF204600F016FC5D
:105A7000C5F3804070B1C6F3804058B100BF4FF409
:105A800080202168086500206B49086000BF20461F
:105A900000F003FCC5F3404088B1C6F3404070B14C
:105AA00000BF4FF40030216808650020624908609B
:105AB00000BFD4F89C0040F08000C4F89C000C9813
:105AC00070B100BF5D490C980840216808650C98CA
:105AD000800F5949086000BF20460C99FFF7CAFDA6
