:020000040800F2
:1000000018710124E9030008E910010819D6000855
:10001000611001082916000809720108000000009B
:100020000000000000000000000000006125010841
:10003000D131000800000000111A01080138010840
:100040000704000807040008070400080704000864
:100050000704000807040008070400080704000854
:10006000070400080704000807040008D12B000853
:10007000E12B0008F12B0008012C0008112C0008CE
:10008000212C0008312C000807040008013B00085F
:10009000213B0008113B0008313B00080704000821
:1000A0000704000807040008070400080704000804
:1000B000993A01080704000807040008070400082B
:1000C00007040008070400080704000807040008E4
:1000D00007040008A9500108B951010807040008E5
:1000E00007040008070400080000000007040008D7
:1000F000070400080704000807040008412C000852
:1001000007040008070400080704000807040008A3
:1001100007040008013F010807040008070400085D
:10012000512C0008612C000807040008070400088F
:100130000704000807040008070400080704000873
:1001400000000000000000000000000000000000AF
:100150000704000807040008712C000807040008C1
:100160000704000807040008070400080704000843
:100170000704000809160108070400080000000031
:100180000704000807040008113F010807040008DD
:100190000704000807040008070400080704000813
:1001A0000704000807040008070400080000000016
:1001B00007040008070400080704000807040008F3
:1001C0000704000807040008000000000000000009
:1001D000000000000000000007040008000000000C
:1001E000000000000000000000000000000000000F
:1001F00000000000000000000704000807040008D9
:1002000007040008070400080000000007040008B5
:100210000704000807040008070400080704000892
:1002200007040008000000000704000800000000A8
:100230000704000807040008000000000704000885
:100240000704000807040008070400080704000862
:100250000704000807040008070400080704000852
:100260000704000807040008070400080704000842
:100270000704000807040008070400080000000045
:100280000704000807040008070400080704000822
:100290000000000007040008070400080000000038
:1002A0000000000007040008070400080704000815
:1002B000995001080704000807040008413B0008A2
:1002C000513B0008070400080704000800F002F88A
:1002D00000F07BF814A696E8000CB244B344DA456B
:1002E00001D100F072F8BAE80F000FA696E83000CE
:1002F000A5EB040504EB0607AAEB0704A7F1010729
:100300004FEA15154FEA3414A4F10104AC4201D3AD
:1003100000F05BF813F0010F18BFFB1A43F0010364
:1003200000F001F8DBE71847A0E20100C0E201009D
:100330000A4410F8013B13F0030408BF10F8014B06
:100340001D1108BF10F8015B641E05D010F8016B89
:10035000641E01F8016BF9D1002D15D010F8014B86
:1003600003F00C030C2BA1EB04040ABF10F8013BB3
:10037000A4EB8314A4EB032405F1010314F8016B2F
:100380005B1E01F8016BF9D5914238BF10F8013BB3
:10039000D1D37047704700000023002400250026B9
:1003A000103A28BF78C1FBD8520728BF30C148BFD8
:1003B0000B607047782900F0DB80002070471FB584
:1003C0001CF088FF1FBD10B510BD00F027FA1146C4
:1003D000FFF7F5FF19F014FE00F045FA03B4FFF73C
:1003E000F2FF03BC00F004FA0A4880470A4880473D
:1003F0000A480047FEE7FEE7FEE7FEE7FEE7FEE706
:10040000FEE7FEE7FEE7FEE705480649064A074B1A
:1004100070470000E13A0008E9380108CD02000801
:1004200018110124187101241841012418410124D4
:1004300053EA020C00F069802DE9F04B4FF0000602
:10044000002B1FBFB3FA83F503FA05F424FA05F66F
:100450005E4012BF1643B2FA82F502FA05F4C5F106
:1004600020051EBF22FA05FC44EA0C04203556EA9A
:10047000044C4FEA144418BF641C4FF000084FF0BE
:100480000009904271EB030C39D3002919BFB1FA6E
:1004900081F701FA07F6B0FA80F700FA07F6C7F11C
:1004A00020071EBF20FA07FC46EA0C062037B6FBE1
:1004B000F4FCA7EB0507103F07F01F0BCBF120065C
:1004C0002CFA06F60CFA0BFB44BFB3460026202F8D
:1004D000A4BF5E464FF0000B5BEA060C08BF4FF06E
:1004E000010B19EB0B0948EB0608ABFB027C06FB82
:1004F00002CC0BFB03CCC01B71EB0C01C1E70B461C
:10050000024641464846BDE8F08B13B5084318BF84
:100510004FF0FF300146AFF30080BDE81C4070474C
:1005200070B5044685690068C10601D5302600E033
:100530002026C00707D070BDD4E90121304690477E
:10054000206A401C20626D1EF6D570BD70B5044651
:1005500085690078C00707D170BDD4E9012120204A
:100560009047206A401C20626D1EF6D570BD0000C9
:1005700070B504460D4621461068AFF3008021880F
:10058000090502D50F4A7A4402E00E4A7A440E3237
:10059000002104F1240305E000F00F060009965D38
:1005A0005E54491C0028F7D120780023000704D5A9
:1005B000702D02D009B1022311322046BDE87040EF
:1005C00000F0AAB8BACE010010B5431C02E010F842
:1005D000011B71B18107FAD14FF0013202C88C1AA8
:1005E0008C4314EAC211F9D0C01A0A0603D0C01E07
:1005F00010BDC01A10BD0A0401D0801E10BD090232
:10060000FCD0401E10BD10B5203AC0F00B80B1E800
:100610001850A0E81850B1E81850A0E81850203A37
:10062000BFF4F5AF5FEA027C24BFB1E81850A0E840
:10063000185044BF18C918C0BDE810405FEA827C5A
:1006400024BF51F8043B40F8043B08BF7047D20771
:1006500028BF31F8023B48BF11F8012B28BF20F812
:10066000023B48BF00F8012B70474FF000020429FD
:10067000C0F0128010F0030C00F01B80CCF1040CD1
:10068000BCF1020F18BF00F8012BA8BF20F8022B05
:10069000A1EB0C0100F00DB85FEAC17C24BF00F8AB
:1006A000012B00F8012B48BF00F8012B70474FF0D9
:1006B000000200B5134694469646203922BFA0E8B2
:1006C0000C50A0E80C50B1F12001BFF4F7AF0907BE
:1006D00028BFA0E80C5048BF0CC05DF804EB8900AF
:1006E00028BF40F8042B08BF704748BF20F8022BF2
:1006F00011F0804F18BF00F8012B7047704770470A
:10070000704710B500F07EF8006810BD10B50446C3
:1007100000F078F8046010BD2DE9F0470D469946C9
:100720009246044600F124080168880604D5E06971
:1007300021F01001216000E00120A84201DD471BEB
:1007400000E00027A1697A1902EB0900081AA061EC
:100750002078C00602D42046FFF7E2FE002608E01B
:10076000D4E901211AF806009047206A401C761C43
:1007700020624E45F4DB2078C0060AD52046FFF7FC
:10078000CFFE06E0D4E9012130209047206A401CCA
:100790002062381EA7F10107F4DC07E0D4E901214B
:1007A00018F805009047206A401C2062281EA5F119
:1007B0000105F3DC2046FFF7C9FE2078000602D5CC
:1007C0000220BDE8F0870120FBE710B5002000F013
:1007D0001DF8FFF7F8FDBDE81040012000F008B853
:1007E00008B569468DF800000320ABBE08BD0000C7
:1007F00001491820ABBEFEE7260002000048704702
:10080000180A002400487047180A002410B500F0A8
:1008100039F8BDE8104000F02FB870477546FFF773
:10082000EDFFAE4605006946534620F007008546B9
:1008300018B020B5FFF7E8FDBDE820404FF00006F6
:100840004FF000074FF000084FF0000BAC46ACE84B
:10085000C009ACE8C009ACE8C009ACE8C00921F0A7
:1008600007018D46704710B50446AFF3008020465F
:10087000BDE81040FFF7B2BD002801D0FFF7B8BFB8
:100880007047000010B5002102A000F013F801200D
:1008900010BD0000534947414252543A2041626E14
:1008A0006F726D616C207465726D696E6174696FD1
:1008B0006E00000070B505460C460A2000E06D1C75
:1008C000FFF78EFF35B128780028F8D102E0641CCC
:1008D000FFF786FF14B120780028F8D1BDE87040FA
:1008E0000A20FFF77DBF000010B50446006842F201
:1008F000001140F48070C4F20201884204D142F237
:100900000830C4F2020003E046F20830C5F60200E7
:10091000006810F4403F0FD009F012FE6168B1F595
:10092000803F05D0B1F5403F21D0B1F5003F1FD148
:10093000090CB0FBF1F01BE04FF40020002108F09F
:100940004FFE6168A1F580224FEAB2420A2A0FD811
:10095000DFE802F00606060606063C3A40383E008E
:100960006FF0010202EA5141B0FBF1F000E08008B3
:100970004BF62141C0F2BE01884205D8206881684B
:1009800021F44071816010BD47F64101C0F27D1134
:10099000884206D820680122816862F309218160BB
:1009A00010BD21684FF28102C0F2FA22904288689D
:1009B00004D8022262F30920886010BD40F4407020
:1009C000886010BDC009D3E74009D1E70009CFE72F
:1009D000000ACDE78009CBE72DE9F04381B049F665
:1009E000301749F6DC18C2F20047C2F2004840F264
:1009F000445240F2405398ED150A97ED151A31EE26
:100A0000000AC2F20042B6EE001AC2F2004392EDB2
:100A1000002A9FED614A93ED003AB2EE045A33EE9C
:100A2000423A44F6706610EE012A98ED1A0A97EDE4
:100A30001A1A30EE040A31EE041A9FED554AC2F23A
:100A400000460546DFED550A304630EE010A0C46F9
:100A500082EE032A9FED4D3AA2EE034A9FED4D3AF6
:100A6000A2EE035A86ED004A86ED015A10F008FF07
:100A7000304610F00DFF40F2287049F61851C2F2CE
:100A80000040C2F2004190ED001A91ED002A21EEE3
:100A9000021A44F6A060C2F2004022EE011A90ED64
:100AA000002A30EE022A44F6A460C2F2004032EE80
:100AB000412A85ED002A90ED002A4CF2483030EEB4
:100AC000420AC2F2004030EE410A84ED000A00788A
:100AD000012842D140F6181644F62869C2F20046B1
:100AE000C2F2004997ED1A0A4846D6ED000A10F006
:100AF0005FFE47F2B42798ED1A0AC2F20047D6ED1E
:100B0000000A384610F054FE40F67920C2F2004048
:100B1000017839B9D9F81C10C9F82010F96939627F
:100B20000121017044F62860C2F2004010F0B0FECE
:100B300095ED001A47F2B42030EE010AC2F20040EF
:100B400085ED000A10F0A4FE94ED001A30EE010AC3
:100B500084ED000A01B0BDE8F08344F62864C2F2D7
:100B60000044204610F008FE47F2B425C2F20045CA
:100B7000284610F001FE40F679210020C2F2004123
:100B800060626862087001B0BDE8F0830000C8438D
:100B90000000964300003E43DA0FC9BF000000008A
:100BA00070B54BF60C7040F68021C2F20040C2F2E4
:100BB00001414FF480720BF0A7FC4BF2C44040F2AD
:100BC0000F46C2F20040C4F2020640F26F446F25A5
:100BD00000686FF00801B042C4F20204C4F20205DA
:100BE0000DDCA8421CDC3F22C4F20202904232DC3F
:100BF0001022C4F20202904252D028224AE0A042BF
:100C00001ADC40F23F42C4F2020290422ADC40F277
:100C10001042C4F20202904242D040F2284239E02F
:100C20009F22C4F20202904225DC7022C4F202022A
:100C3000904235D088222DE040F29F42C4F2020259
:100C400090421FDC40F27042C4F20202904227D070
:100C500040F288421EE04022C4F2020290421FD0BD
:100C6000582217E040F24042C4F20202904217D0EC
:100C700040F258420EE0A022C4F2020290420FD08D
:100C8000B82207E040F2A042C4F20202904207D02C
:100C900040F2B842C4F20202904218BF6FF0040161
:100CA0000268114001604CF2340040F68031C2F21B
:100CB0000040C2F2014180220BF026FC4BF2F410FE
:100CC0006FF00801C2F200400068B0420DDCA8429B
:100CD0001CDC3F22C4F20202904232DC1022C4F239
:100CE0000202904252D028224AE0A0421ADC40F28E
:100CF0003F42C4F2020290422ADC40F21042C4F2A7
:100D00000202904242D040F2284239E09F22C4F2CF
:100D10000202904225DC7022C4F20202904235D0D9
:100D200088222DE040F29F42C4F2020290421FDC72
:100D300040F27042C4F20202904227D040F2884250
:100D40001EE04022C4F2020290421FD0582217E057
:100D500040F24042C4F20202904217D040F25842A0
:100D60000EE0A022C4F2020290420FD0B82207E0A7
:100D700040F2A042C4F20202904207D040F2B842D0
:100D8000C4F20202904218BF6FF0040102681140E1
:100D900001604BF6786040F2FE31C2F20040C2F2D0
:100DA000014180220BF0B0FB4BF2E4206FF0080110
:100DB000C2F200400068B0420DDCA8421CDC3F22B9
:100DC000C4F20202904232DC1022C4F202029042CB
:100DD00052D028224AE0A0421ADC40F23F42C4F23C
:100DE000020290422ADC40F21042C4F20202904217
:100DF00042D040F2284239E09F22C4F202029042DF
:100E000025DC7022C4F20202904235D088222DE007
:100E100040F29F42C4F2020290421FDC40F2704254
:100E2000C4F20202904227D040F288421EE04022E3
:100E3000C4F2020290421FD0582217E040F2404212
:100E4000C4F20202904217D040F258420EE0A022B3
:100E5000C4F2020290420FD0B82207E040F2A04252
:100E6000C4F20202904207D040F2B842C4F2020239
:100E7000904218BF6FF0040102681140016070BD1C
:100E800040F68020C2F201400178AA2940F0B781E3
:100E900090F83F10FE2918BF70472DE9F04381B04C
:100EA000B0F901104CF2A423C2F20043B0F90320C0
:100EB00000EE101AB0F805101980D0F80710C3F82A
:100EC0000210B0F80B10D9804CF2B423C2F20043E8
:100ED000B8EEC01A00EE102AB0F81360457F49F64C
:100EE0000E52DE80B0F81560C2F200421E81B0F8EA
:100EF0001760B8EEC02AD0F80D101960C5F3411183
:100F00005E81EE0940F6B829C5F300179FEDBC0AD3
:100F1000C5F38104C2F20049C5F34005157047F2DC
:100F2000C83281EE001AC2F20042B0F9195082EEC6
:100F3000002A89ED001A167049F61256B0F91B20E6
:100F4000C2F2004689ED012A02EE105A317001EE1C
:100F5000102A40F6785149F6F852C2F20141B8EE33
:100F6000C22AB8EEC11A49F634360F7040F67A51EB
:100F7000C2F20141C2F2004249F6105781EE001A56
:100F80000C70C2F20046C18BC2F2004782EE002A0A
:100F900047F2D83C1180028C86ED062A9FED992AF3
:100FA000C2F2004C3A80998190F82310DA8190F8CF
:100FB000222021EE021AB0F811808CED061A01EE03
:100FC000102A42EA012440F62C42C2F20142A3F860
:100FD00004804CF2AC23B8EE411AC2F2004382ED19
:100FE000001A4CF2403290F82550C2F200421C80A8
:100FF00090F8264001F00F0111804CF2C82290F8C1
:1010000024702D02C2F2004245EA044139444CF2F8
:101010000547116090F8281090F82720C2F2004789
:1010200090F82A504CF238143A7042EA012140F20A
:101030002C7290F82970C2F200425980F90911709F
:1010400040F67951C7F38402C2F20141C2F2004472
:101050000A7040F67C52C7F34001C2F2014211709F
:101060004CF20442C2F2004207F0010111700DB9C6
:101070000021217021784FF0000E002918BF75461D
:1010800090F82B1090F82C2089F8105040F2FC3585
:1010900089F811104CF2CE21C2F20145C2F2004192
:1010A00090F82D4096ED011A2A704CF2CF22097863
:1010B000C2F2004290F82E7021EE001A2143117006
:1010C00040F67B51B0F82F20C2F2014196ED022A82
:1010D00022EE002A9CED013A0F7049F6FA51C2F255
:1010E00000414CF21444BDEEC11AC2F200440A8021
:1010F00049F6FC52C2F20042B0F8311023EE000A69
:101100009CED024A11804CF2E802A8F2A621C2F23C
:101110000042B1FA81F19FED3C3A49091170818E8C
:10112000BDEEC22AC08E24EE033AD880AB202070D8
:10113000FD2084F83F0011EE100ABDEEC00A998030
:10114000A4F8190012EE100ABDEEC33A40F60031C1
:10115000A4F81B0010EE100AC2F2004140F6B423BE
:10116000A4F81D0013EE100AC2F200430A7BA4F893
:101170001F0018784B7842F007020A7349F6245191
:10118000C2F2004143EAC01040F0380084F8210068
:1011900081F880E00DF0C0F984F823000DF0BCF96F
:1011A000000A84F824000DF0A7F984F827000DF058
:1011B000A3F9000A84F828000DF04AFA84F82D00FB
:1011C00040F61040C2F2014040F6BC01C2F20041BC
:1011D0000268013202604CF230200978C2F200400D
:1011E000012284F82E10214602704BF60C70C2F2D8
:1011F0000040402201B0BDE8F0430CF0B1B97047A7
:1012000000007A44EC51383E0000C8420000000063
:1012100040F600000121C5F60200012207F04CB89B
:1012200040F600000121C5F60200002207F044B894
:10123000704700000000000040F600000821C5F6DD
:101240000200012207F038B840F600000821C5F678
:101250000200002207F030B87047000000000000D4
:10126000002808BF704710B54EF2180145F2003C47
:10127000CEF20001C0F2070C51F804EC0B6800221A
:101280000C689C42FCD01A449C42A2EB0402234608
:1012900028BF72446245F3D301380204ECD1BDE8A3
:1012A000104070470000000080B54EF21801C0EBFE
:1012B0000010CEF200014FEA401E002351F804CC8A
:1012C0000A6800BF08689042FCD013449042A3EB28
:1012D0000003024628BF63447345F3D380BD00007A
:1012E00010B5FFF7A5FFFFF7B7FF18F0DDFB0446C9
:1012F00018F066FC204310BD2DE9F04383B00023B5
:10130000019390460E4681460093FFF789FF922095
:1013100000F0AAF8922000F0A7F868460624451EBF
:101320002F4600BF552000F09FF8013C07F8010F41
:101330002006F7D1FFF76CFFBDF90000BDF90420CE
:10134000BDF9021000EE100A40F20000C2F20040A7
:10135000B8EEC00A90ED001A21EE000A01EE101A54
:1013600086ED000A00EE102A90ED002AB8EEC11AB0
:10137000B8EEC00A22EE011A22EE000A86ED011A2A
:1013800086ED020AFFF760FF802000F06DF8082468
:101390002E4600BF552000F067F8013C06F8010F0B
:1013A0002006F7D1FFF748FF9DF800000F2825D150
:1013B000BDF90200BDF90410BDF9062000EE100AC7
:1013C00040F20400C2F20040B8EEC00A90ED001AEC
:1013D00021EE000A01EE101A89ED000A00EE102A33
:1013E00090ED002AB8EEC11AB8EEC00A22EE011A3A
:1013F00022EE000A89ED011A89ED020AFFF710FFBB
:10140000A22000F031F8A22000F02EF8022400BF44
:10141000552000F029F8013C05F8010F2006F7D10E
:10142000FFF7F6FE9DF90000B4EE001A9DF80110DA
:10143000B3EE072AC2B200284FEAC20242EA5111B3
:101440004FF60002CFF6FF7248BF114300EE101AAC
:10145000B8EEC00AA0EE012A88ED002A03B0BDE86C
:10146000F08300000000000080B582B08DF8070016
:101470004BF67840C2F200400DF107010DF1060273
:1014800001234FF47A7CCDF800C009F0D9FD9DF816
:10149000060002B080BD000040F6B820C2F2004055
:1014A00090ED010A40F23070B0EEC01A9FED100AC4
:1014B000C2F20040B4EE401AF1EE10FA01DD002154
:1014C00012E04CF2EC01C2F2004191ED001AB0EED4
:1014D000C11AB4EE401AF1EE10FA01DA022103E06B
:1014E0000168022901D0012101600068704700BF36
:1014F000CDCCCC3D0000000070B52DED0A8B40F244
:10150000F46644F68C40B7EE008AC2F20046C2F29E
:10151000004049F62C3196ED000AC2F2004190EDF0
:10152000011A49F63010C2F2004038EE402A91ED1F
:10153000004A40F2F86490ED1F3AC2F2004433EEE4
:10154000411A22EE049A90ED152A23EE02AA94ED98
:1015500000BAA0EE019A90ED1E0A81ED009A17F0F4
:10156000A7FF2AEE000A94ED00AA49F6045538EECA
:101570004A1AC2F2004547F21810C2F2004049F67A
:10158000DC1195ED002A9FED27CA21EE021A96ED97
:10159000002A90ED014A49F6303038EE423AC2F264
:1015A0000040C2F20041A9EE0C0A90ED005A23EE71
:1015B000059A91ED1F3A34EE034AABEE001A91ED15
:1015C000150AA2EE049A23EE00BA91ED1E0A85EDEB
:1015D000001A80ED009A17F06BFF2BEE000A94EDD5
:1015E000001A49F6085038EE411AC2F20040A9EE3E
:1015F0000C0A90ED002A21EE021AB6EE002AAAEE9D
:10160000001A95ED000A80ED001A49F60050C2F26A
:10161000004030EE010A20EE020A80ED000ABDEC27
:101620000A8B70BD23DB793DFEE70000000000005F
:1016300010B54BF600540021C2F2004420688163CB
:101640004FF465718162042120460AF0ADFC47F237
:101650009C309FED0B1AC2F20040408AC03800EE69
:10166000100A2068B8EEC00A80EE010A9FED051A44
:1016700020EE010ABCEEC00A10EE101A816310BD04
:101680000000C8440000FA4210B54BF60054002197
:10169000C2F20044206881634FF4F2718162042138
:1016A00020460AF081FC47F29C309FED0B1AC2F2F3
:1016B0000040408AC03800EE100A2068B8EEC00A28
:1016C00080EE010A9FED051A20EE010ABCEEC00A69
:1016D00010EE101A816310BD0000C8440000FA42E9
:1016E00010B54BF600544AF20061C2F20044C0F259
:1016F0000E0191FBF0F02168013880B2886204216C
:1017000020460AF051FC20687D21816310BD000055
:1017100010B54BF600540021C2F2004420688163EA
:1017200040F22A718162042120460AF03DFC47F212
:101730009C309FED0B1AC2F20040408AC03800EE88
:10174000100A2068B8EEC00A80EE010A9FED051A63
:1017500020EE010ABCEEC00A10EE101A816310BD23
:101760000000C8440000FA4210B54BF600540021B6
:10177000C2F200442068816340F25E51816204211C
:1017800020460AF011FC47F29C309FED0B1AC2F282
:101790000040408AC03800EE100A2068B8EEC00A47
:1017A00080EE010A9FED051A20EE010ABCEEC00A88
:1017B00010EE101A816310BD0000C8440000FA4208
:1017C00010B54BF600540421C2F2004420460AF042
:1017D000EBFB20680021816310BD000000000000C9
:1017E00010B54BF600540021C2F20044206881631A
:1017F00040F241418162042120460AF0D5FB47F2C4
:101800009C309FED0B1AC2F20040408AC03800EEB7
:10181000100A2068B8EEC00A80EE010A9FED051A92
:1018200020EE010ABCEEC00A10EE101A816310BD52
:101830000000C8440000FA4280B500BF012018F043
:1018400023FDFBE70000000070B58AB04BF2B455F1
:1018500002ACC2F20045002602200490012021467D
:10186000CDE9050628460796CDE9026605F008FD94
:101870000221022200232846009605F045FD0121A1
:101880000022284605F054FC01210122284605F0DB
:10189000C7FC284606F0F8FB4BF254652146C2F21D
:1018A0000045284605F0ECFC0221022200232846D0
:1018B000009605F029FD01210122284605F0B0FC23
:1018C00001210022284605F033FC284606F0DCFB07
:1018D0004BF2F4652146C2F20045284605F0D0FCE3
:1018E0000221022200232846009605F00DFD012169
:1018F0000122284605F094FC01210022284605F02B
:1019000017FC284606F0C0FB0AB070BD00000000BE
:1019100080B58AB00191082104910021CDE902111E
:10192000CDE90511CDE90711099101A905F03CFCAC
:1019300030B149F60C50C2F20040018801310180FB
:101940000AB080BD0000000090B040F6C41018F04E
:101950009BFCB0EE009A9FED018A03E100000000BD
:1019600044F6B444B0EE480AC2F2004404F1580E02
:10197000E06B0F90206C0E90606C0D90D4E91CA170
:10198000CDE90AA104A9D4F864809EE8045081E856
:10199000045007A94846D4E91237D4E91A9BCDE987
:1019A000003781E8000B0F99DDE90D32D4E91465A9
:1019B000CDE9026501F0E0FB47F24015B0EE480AC0
:1019C000C2F2004505F1580EE86B0F90286C0E909E
:1019D000686C0D90696F0B9104A99EE80054D5E9DD
:1019E0001980CDE907804BF2B450D5E91B23CDE92E
:1019F000092381E80054C2F200400F99DDE90D325D
:101A0000D5E91297D5E9146BCDE90097CDE9026BC2
:101A100001F0B2FB20680F9060680E90A0680D90F6
:101A200004F11C0EA16B0B9104A9B0EE480A9EE8CC
:101A30000054D4E90A80CDE907804BF25460D4E920
:101A40000C23CDE9092381E80054C2F200400F992C
:101A5000DDE90D32D4E90397D4E9056BCDE90097B0
:101A6000CDE9026B01F088FB28680F9068680E9042
:101A7000A96B0B9104A9B0EE480AD5E906BAD5E9DD
:101A80000A80CDE907804BF2B450D5E90239D5E997
:101A900008CED5E90C42CDE9094281E80054C2F2F2
:101AA0000040DDE90E21D5E90476CDE90097CDE9C6
:101AB000026B01F061FB012018F0E6FB49F63431BE
:101AC000B0EE480AC2F2004101F1040908680F9023
:101AD000D1E90476D1E906BAD1E908CED1E90A8084
:101AE000D1E90C45896B0B9104A9CDE907804BF234
:101AF000F46099E80C0281E80054C2F200400F99AA
:101B0000CDE90945CDE90097CDE9026B01F034FB41
:101B100047F2D831C2F2004101F1040908680F9080
:101B200099E80C02D1E90476D1E906BAD1E908CEE8
:101B3000D1E90A800C6BD1E90D510B9104A9B0EEEB
:101B4000480ACDE907804BF2F46081E80054C2F204
:101B500000400F99CDE90945CDE90097CDE9026B29
:101B600001F00AFB4BF254694BF2B456C2F2004941
:101B7000C2F2004649F61C50C2F20040007800282C
:101B800040F098861AF068FC4CF20811C2F200414D
:101B90000968411A0A29C0F0D1804CF208114CF2B0
:101BA0001814C2F20041C2F20044012708604CF24E
:101BB0004020C2F200404CF23421C2F20041D0F881
:101BC00000C04CF24420C2F20040D0F800904CF229
:101BD0004C20C2F20040D0F800A04CF25020C2F2DB
:101BE000004002684CF23C20C2F2004006684CF211
:101BF0004820C2F2004003684CF23820C2F2004094
:101C00000068D1F800B02568CDE90E26AC451FBFAD
:101C10004CF21C14C2F200442568A9451DD04CF2B8
:101C20002414C2F200442568AA451FBF4CF22814B0
:101C3000C2F200442568AA420FD04CF21414C2F23A
:101C400000442568AE4208D04CF22011C2F2004197
:101C50000D685D1BB5FA85F56F094CF210114CF259
:101C60001C12C2F20041C2F200424CF20C1E0D687E
:101C70004CF23A11C2F800904CF22412C2F2004128
:101C8000441BC2F2004EC2F20042B4FA84F491F84E
:101C900000806409DEF800600C704CF23911C2F863
:101CA00000A04CF22812ABEB0604C2F20041B4FAD9
:101CB00084F4C2F2004264090C700E9911604CF277
:101CC00014120F99C2F200424CF21814C2F20044EE
:101CD000CEF800B011604CF22011C2F20041C4F8FD
:101CE00000C00B604CF23B13C2F200434CF21011E7
:101CF000C2F200411A781F70086062B15FB94CF2FD
:101D0000B3310022C2F200410A7040F22D72C2F2D9
:101D10000042012111704BF254694BF2B456C2F2E9
:101D20000049C2F20046B8F1000F18BFA84205D022
:101D300040F6BC000121C2F2004001704CF23A10A2
:101D400049F60F51C2F20040C2F2004100780C780F
:101D500028B3B0EE480A4FF40071484600F08CFEFC
:101D6000B0EE480A40F2FF11304600F085FE012037
:101D700018F08AFAD4B30121484601F03DFA012156
:101D8000304601F039FA012018F07EFA0221484667
:101D900001F032FA0221304601F02EFAD0E1ACB364
:101DA000B0EE480A4FF40071484600F065FEB0EE10
:101DB000480A40F2FF11304600F05EFE012018F0A4
:101DC00063FA0121484601F017FA0121304601F07B
:101DD00013FA012018F058FA0221484601F00CFAD3
:101DE0000221304601F008FA00F0B7BC44F6B444D2
:101DF000C2F2004494F8730080B3B4F870104846FF
:101E000000F0FEFD002084F87300ACE04CF23B10C3
:101E1000C2F20040007870B3B0EE480A4FF400718F
:101E2000484600F029FEB0EE480A40F2FF11304665
:101E300000F022FE012018F027FA44F6B444C2F262
:101E4000004494F8730000284AD0B4F87010484653
:101E500000F0D6FD002084F8730068E294F8740066
:101E600000284BD0B4F87010484601F0D5F9002096
:101E700084F8740077E040F6102044F6B444C2F2CF
:101E80000040C2F200440078002800F0098244F6C5
:101E90008C404FF40071C2F2004090ED050A4846B4
:101EA000B1EE400A00F0E8FD47F2181040F2FF11D1
:101EB000C2F2004090ED050A304600F0DDFD012041
:101EC00018F0E2F994F87300002800F00883B4F8E1
:101ED0007010484600F094FD002084F8730043E33E
:101EE00094F87400002800F0ED81B4F870104846B2
:101EF00001F092F9002084F8740018E2E06B0F9072
:101F000004F1400944F6B441C2F20041B0EE480A7F
:101F100099E80C02CDF800904BF25469C2F20049E6
:101F2000D4E91376D4E915BAD4E917CED4E91980E7
:101F3000D1E91B45496FCDF81C80CDE9080444F672
:101F4000B4444846CDE90A51CDE901764BF2B45686
:101F50000F99C2F20044C2F20046CDE903BACDE9BE
:101F600005CE01F009F947F24011C2F2004191F8A3
:101F7000730080B147F24010C2F20040B0F8701018
:101F8000304600F03DFD47F240110020C2F2004112
:101F900081F8730044E091F8740080B147F240107A
:101FA000C2F20040B0F87010304601F035F947F247
:101FB00040110020C2F2004181F8740030E0C86B8B
:101FC0000F9001F14009B0EE480AD1E91376CDE94E
:101FD00001764BF2B456C2F2004699E80C02D1E900
:101FE00015BAD1E917CED1E91980D1E91B45496F5E
:101FF000CDF80090CDE9080444F6B4444BF254699E
:10200000CDE90A5130460F99C2F20044C2F20049AC
:10201000CDE903BACDE905CECDF81C8001F0ACF8CE
:1020200094F8370038B1A18E484600F0E9FC002052
:1020300084F837003BE094F8380038B1A18E484668
:1020400001F0EAF8002084F8380030E020680F90B2
:1020500004F1040944F6B441C2F20041B0EE480A6A
:1020600099E80C02CDF800904BF25469C2F2004995
:10207000D4E90476D4E906BAD4E908CED4E90A80D2
:10208000D1E90C45896B08900B914846CDE9017662
:102090004BF2B4560F990994C2F200460A95CDE965
:1020A00003BACDE905CECDF81C8001F065F847F202
:1020B0004011C2F2004191F8370040B10C46898EC0
:1020C000304600F09DFC002084F8370038E091F89D
:1020D000380040B10C46898E304601F09DF8002052
:1020E00084F838002CE008680F9001F10409B0EE84
:1020F000480AD1E90476CDE901764BF2B456C2F232
:10210000004699E80C02D1E906BAD1E908CED1E936
:102110000A80D1E90C45896B08900B913046CDF8C7
:1021200000904BF254690F9909940A95C2F2004944
:10213000CDE903BACDE905CECDF81C8001F01CF83D
:10214000012018F0A1F849F6343147F2D834C2F230
:102150000041C2F2004491F8370090B149F63430A2
:10216000C2F20040818E4BF2F460C2F2004000F0F7
:1021700047FC49F634310020C2F2004181F83700B3
:1021800052E091F8380090B149F63430C2F2004084
:10219000818E4BF2F460C2F2004001F03DF849F646
:1021A00034310020C2F2004181F838003CE0086878
:1021B0000F9001F10409B0EE480AF0EE480AB0EEC3
:1021C000481AF0EE481AB0EE482AD1E90A80D1E95F
:1021D0000C45CDE908044BF2F46047F2D83499E895
:1021E0000C02D1E90476D1E906BAD1E908CE896BAF
:1021F000CDF80090CDE90A514BF25469C2F200408B
:10220000CDE901764BF2B4560F99C2F20044C2F206
:102210000049CDE903BAC2F20046CDF81C80CDE9F1
:1022200005CE00F03DFF00BF94F83700002840F0D5
:10223000258394F83800002840F02F8320680F9001
:1022400004F104092146B0EE480AD4E90A80089056
:102250004BF2F46099E80C02D4E90476D1E90D510F
:102260000B91C2F20040CDF800904BF25469CDE9D9
:1022700001764BF2B4560F99D4E906BAD4E908CEE8
:10228000246B09940A95C2F20049CDE903BAC2F25F
:102290000046CDF81C80CDE905CE00F06DFF69E465
:1022A000B0EE480A4FF40071484600F0E5FBB0EE8E
:1022B000480A40F2FF11304600F0DEFB012017F023
:1022C000E3FFBEE5E06B0F9004F1400944F6B44132
:1022D000C2F20041B0EE480A99E80C02CDF8009035
:1022E0004BF25469C2F20049D4E91376D4E915BA25
:1022F000D4E917CED4E91980D1E91B45496FCDF84F
:102300001C80CDE9080444F6B4444846CDE90A519E
:10231000CDE901764BF2B4560F99C2F20044C2F2F5
:102320000046CDE903BACDE905CE00F025FF47F21E
:102330004011C2F2004191F8730080B147F24010A1
:10234000C2F20040B0F87010304600F059FB47F27E
:1023500040110020C2F2004181F8730044E091F87E
:10236000740080B147F24010C2F20040B0F8701023
:10237000304600F051FF47F240110020C2F2004108
:1023800081F8740030E0C86B0F9001F14009B0EEA5
:10239000480AD1E91376CDE901764BF2B456C2F280
:1023A000004699E80C02D1E915BAD1E917CED1E976
:1023B0001980D1E91B45496FCDF80090CDE908049B
:1023C00044F6B4444BF25469CDE90A5130460F99B2
:1023D000C2F20044C2F20049CDE903BACDE905CE0C
:1023E000CDF81C8000F0C8FE94F8370038B1A18EFB
:1023F000484600F005FB002084F837003BE094F8E5
:10240000380038B1A18E484600F006FF002084F85D
:10241000380030E020680F9004F1040944F6B4411C
:10242000C2F20041B0EE480A99E80C02CDF80090E3
:102430004BF25469C2F20049D4E90476D4E906BAF1
:10244000D4E908CED4E90A80D1E90C45896B08901B
:102450000B914846CDE901764BF2B4560F99099499
:10246000C2F200460A95CDE903BACDE905CECDF812
:102470001C8000F081FE47F24011C2F2004191F849
:102480003700002840F0238191F83800002840F000
:102490002A8108680F9001F10409B0EE480AD1E9D9
:1024A0000476CDE901764BF2B45699E80C02CDF8EA
:1024B00000904BF25469C2F20046C2F20049D1E9E1
:1024C00006BAD1E908CED1E90A80D1E90C45896B79
:1024D0000890099430460A950B910F9935E194F8CC
:1024E000740040B1B4F87010484600F095FE00202A
:1024F00084F8740038E049F6301004F14009C2F263
:10250000004044F6B44199E80C0290ED090AE06BF2
:102510000F90C2F20041CDF800904BF25469C2F224
:102520000049D4E91376D4E915BAD4E917CED4E931
:102530001980D1E91B45496FCDF81C80CDE908040D
:1025400044F6B4444846CDE90A51CDE901764BF250
:10255000B4560F99C2F20044C2F20046CDE903BA64
:10256000CDE905CE00F008FE47F24011C2F200416D
:1025700091F8730080B147F24010C2F20040B0F809
:102580007010304600F03CFA47F240110020C2F2D1
:10259000004181F8730048E091F8740080B147F27F
:1025A0004010C2F20040B0F87010304600F034FE27
:1025B00047F240110020C2F2004181F8740034E07B
:1025C00049F6DC1001F14009C2F20040D1E913766E
:1025D00090ED0A0AC86B0F90CDE901764BF2B45624
:1025E000C2F2004699E80C02D1E915BAD1E917CE3A
:1025F000D1E91980D1E91B45496FCDF80090CDE9AB
:10260000080444F6B4444BF25469CDE90A5130460B
:102610000F99C2F20044C2F20049CDE903BACDE9F4
:1026200005CECDF81C8000F0A7FD94F8370038B136
:10263000A18E484600F0E4F9002084F837003FE01E
:1026400094F8380038B1A18E484600F0E5FD00202E
:1026500084F8380034E049F6301004F10409C2F27D
:10266000004044F6B44199E80C0290ED0A0A206853
:102670000F90C2F20041CDF800904BF25469C2F2C3
:102680000049D4E90476D4E906BAD4E908CED4E9FD
:102690000A80D1E90C45896B08900B914846CDE939
:1026A00001764BF2B4560F990994C2F200460A958E
:1026B000CDE903BACDE905CECDF81C8000F05CFD74
:1026C00047F24011C2F2004191F8370040B10C4688
:1026D000898E304600F094F9002084F837003CE001
:1026E00091F8380040B10C46898E304600F094FDD8
:1026F000002084F8380030E049F6DC1001F10409CC
:10270000C2F20040D1E9047690ED090A08680F9002
:10271000CDE901764BF2B45699E80C02CDF8009061
:102720004BF25469C2F20046C2F20049D1E906BA3E
:10273000D1E908CED1E90A80D1E90C45896B08902E
:102740000B9130460F9909940A95CDE903BACDE96A
:1027500005CECDF81C8000F00FFD47F2D8340120E3
:10276000C2F2004417F090FD49F63435C2F200453C
:1027700095F8370090B149F63430C2F20040818EAE
:102780004BF2F460C2F2004000F03AF949F63431FD
:102790000020C2F2004181F837006CE095F8380063
:1027A00090B149F63430C2F20040818E4BF2F460B1
:1027B000C2F2004000F030FD49F634310020C2F290
:1027C000004181F8380056E040F6BC0005F10C0CE1
:1027D000C2F200409CE80E10047828680D906868EA
:1027E0000E90A8680F90012CD5E9077ED5E909ABBA
:1027F000D5E90B800C90D5E90D4022D149F6EC5576
:10280000B0EE480AC2F20045B0EE481A8DE80E104C
:102810000DABF0EE481AB0EE492A0B904BF2F46083
:10282000D5ED000A0C99C2F20040CDE909140ECB97
:10283000CDE9047ECDE906ABCDF8208000F030FC78
:1028400015E08DE80E100DAB0B904BF2F46095ED9A
:10285000060A0C99C2F20040CDE909140ECBCDE96D
:10286000047ECDE906ABCDF8208000F085FC47F270
:10287000D834C2F2004494F8370058B1A18E4BF21C
:10288000F460C2F2004000F0BBF8002084F837008A
:10289000FFF770B994F83800D0B3A18E4BF2F46012
:1028A000C2F2004000F0B8FC002084F83800FFF7C6
:1028B00061B900BF49F60F50B0EE480AC2F20040BD
:1028C0004FF400710478484600F0D6F8B0EE480A9C
:1028D00040F2FF11304600F0CFF8012017F0D4FC91
:1028E000002C3FF43DA80121484600F085FC012161
:1028F000304600F081FC012017F0C6FC022148465A
:1029000000F07AFC0221304600F076FCFFF7D3B8E5
:102910004CF23910C2F20040007888B104F1040989
:1029200020680F90214699E80C02D4E90476D4E996
:1029300006BAD4E908CED4E90A80246BFFF7FBB8C5
:1029400020680F90214604F10409D4E906BAD1E9C0
:102950000D510B9104A9D4E90A80CDE907804BF20F
:10296000F46094ED060A99E80C02D4E908CE81E8F7
:102970000054C2F200400F99D4E90476246BCDE9EB
:102980000945CDE90097CDE9026B00F0F5FBFFF7B3
:10299000E9B80000000000000020704700000000BF
:1029A000002070470000000010B54AF6405449F27C
:1029B0001811C2F20044C2F200410022204612F077
:1029C00053FE48F618112046C2F2004112F03CFEB8
:1029D000002010BD0000000010B54AF6405401462A
:1029E000C2F20044204612F02FFE204612F008FEEC
:1029F000002010BD00000000002070470000000013
:102A000080B582B009B24FF0FF32CDF803200092BA
:102A1000FB228DF807206A46FEF77AFF02B080BDE0
:102A200002889FED121A12BA120C0A804288D2BA9A
:102A300000EE102AB8EEC00A80EE010A9FED0C1AD3
:102A400030EE000A20EE010A9FED0A1A80EE010A1C
:102A500081ED010A428812BA120C0A81828812BAE8
:102A6000120C4A8180790873704700BF00007042E1
:102A7000DA0F49407B146E4180B582B09FED221A77
:102A8000002280EE010A9FED211A4BF2546301925D
:102A90000092C2F2004380EE010AB3EE041A98429B
:102AA00080EE010A9FED1A1A20EE010ABDEEC00A5F
:102AB00010EE102A04D144F68C43C2F200431A826D
:102AC0004BF2B453C2F20043984204D147F21813B8
:102AD000C2F200431A8293B28DF801208DF80320D0
:102AE0001B0A09B28DF805208DF807206A468DF87B
:102AF00000308DF802308DF804308DF80630FEF786
:102B000007FF02B080BD00BF7B146E410AD7A33C13
:102B10000000804600000000027891ED090A30EEC6
:102B2000001A02F00F020A70027812094A70B0F817
:102B3000012052BA02EE102AB8EE422A21EE021A01
:102B40009FED212A81EE021A31EE400A81ED010A41
:102B500091ED0A0AC278037930EE001A120142EAB6
:102B6000131202EE102AB8EE422A21EE021A9FED4D
:102B7000172A81EE021A31EE400A81ED020A91ED28
:102B8000080A027930EE001A437902F00F0243EA94
:102B9000022203EE102AB8EE433A21EE031A81EE28
:102BA000021A31EE400A81ED030A827900EE102A02
:102BB000B8EE400A81ED040AC07900EE100AB8EEC2
:102BC000400A81ED050A704700FF7F4700F07F450E
:102BD0004BF2F410C2F2004003F072B800000000A3
:102BE0004BF26C20C2F2004003F06AB80000000013
:102BF0004BF20410C2F2004003F062B80000000083
:102C00004BF28C00C2F2004003F05AB80000000002
:102C10004BF2C440C2F2004003F052B80000000082
:102C20004BF23C50C2F2004003F04AB800000000F2
:102C30004BF2E420C2F2004003F042B80000000072
:102C40004BF25C30C2F2004003F03AB800000000E2
:102C50004BF2D430C2F2004003F032B80000000062
:102C60004BF24C40C2F2004003F02AB800000000D2
:102C70004BF27C10C2F2004003F022B800000000CA
:102C800040F20F42D0F800C0C4F20202944510DCBA
:102C90006F22C4F20202944520DC3F22C4F20202F9
:102CA000944536DC1022C4F20202944554D0282206
:102CB0004EE040F26F42C4F2020294451ADC40F248
:102CC0003F42C4F2020294452ADC40F21042C4F2B0
:102CD0000202944540D040F2284239E09F22C4F2DB
:102CE0000202944525DC7022C4F20202944533D0DE
:102CF00088222DE040F29F42C4F2020294451FDC7C
:102D000040F27042C4F20202944525D040F288425B
:102D10001EE04022C4F2020294451DD0582217E062
:102D200040F24042C4F20202944515D040F25842AB
:102D30000EE0A022C4F2020294450DD0B82207E0B2
:102D400040F2B842C4F20202944505D040F2A042DB
:102D5000C4F20202944517D10CF0F8024AF6AB23F4
:102D6000103ACAF6AA23A2FB033109A35F2AC1F3D2
:102D700002115B5C40F2FF312CEA0101C36588BFA0
:102D800004318165084670472CF0FF01F9E700BF68
:102D9000000610160006101670B540F26F44D0F809
:102DA00000C0C4F20204D0F858E0A44519DC9F2505
:102DB000C4F20205AC4531DC5725C4F20205AC452E
:102DC00056DC1025C4F20205AC4500F0928028259F
:102DD000C4F20205AC4500F08C804025C4F2020527
:102DE00084E045F22F45C5F60205AC452BDC40F2E8
:102DF000B745C4F20205AC4548DC40F27045C4F268
:102E00000205AC4575D040F28845C4F20205AC45D8
:102E10006FD040F2A045C4F2020567E040F22745BA
:102E2000C4F20205AC4540DCA025C4F20205AC4565
:102E30005FD0B825C4F20205AC455AD040F2104527
:102E4000C4F2020552E045F26B45C5F60205AC45F9
:102E50003CDC45F23045C5F60205AC4549D045F2AB
:102E60004445C5F60205AC4543D045F258453BE024
:102E70005825C4F20205AC453BD07025C4F20205CA
:102E8000AC4536D08825C4F202052FE040F2B845A3
:102E9000C4F20205AC452CD045F20845C5F6020542
:102EA000AC4526D045F21C451EE040F22845C4F250
:102EB0000205AC451DD040F24045C4F20205AC45C8
:102EC00017D040F25845C4F202050FE045F26C45B8
:102ED000C5F60205AC450CD045F29445C5F6020591
:102EE000AC4506D045F28045C5F60205AC4540F03C
:102EF000CC80456EC66E002E866E6E601CBFD0E91B
:102F00001C566E60A44515DC9F24C4F20204A4453F
:102F10002BDC5724C4F20204A4454EDC1024C4F276
:102F20000204A44576D02824C4F20204A44571D03A
:102F300040246BE045F22F44C5F60204A44527DC8B
:102F400040F2B744C4F20204A44542DC40F27044AB
:102F5000C4F20204A4455DD040F28844C4F20204E5
:102F6000A44557D040F2A04450E040F22744C4F2B8
:102F70000204A4453CDCA024C4F20204A44549D0C8
:102F8000B824C4F20204A44544D040F210443DE009
:102F900045F26B44C5F60204A44553DC45F23044C7
:102FA000C5F60204A4455FD045F24444C5F60204C8
:102FB000A44559D045F2584452E05824C4F20204C2
:102FC000A44527D07024C4F20204A44522D088244A
:102FD0001CE040F2B844C4F20204A4451AD045F201
:102FE0000844C5F60204A4453ED045F21C4437E02F
:102FF00040F22844C4F20204A4450BD040F24044FD
:10300000C4F20204A44505D040F25844C4F20204BC
:10301000A4453AD18468C06D00F01F003F2505FA31
:1030200000F0CEF80800DCF80000402C20F48020EE
:10303000CCF80000CCF8043023D1CCF80820CCF830
:103040000C1070BD45F26C44C5F60204A4450BD0CB
:1030500045F28044C5F60204A44505D045F29444E7
:10306000C5F60204A44510D1C46D012504F01F0467
:10307000806805FA04F4CEF804404028CCF8043007
:10308000DBD0CCF80810CCF80C2070BD000000009C
:1030900000F12002818682EC030A704700000000E4
:1030A00010B582B09DED0A3A9DED0B4A30EE030A51
:1030B0009FED2E5A30EE846ABDF9381033EE033A94
:1030C00020EE050A9FED2A5A34EE044A26EE056AE0
:1030D00080EE030A22EE052A86EE043A9DED094AA7
:1030E00031EE041A34EE044A21EE856A21EE051A07
:1030F000B1EE045ABDEEC00ABDEEC33A81EE041A29
:103100009FED1C4A86EE044A10EE102A82EE052A34
:1031100013EE103ABDEEC11A8DF80120BDEEC44A7F
:10312000140ABDEEC22A8DF8004011EE10CA1A0929
:1031300014EE10EA8DF8022012EE104A8DF807C046
:103140008DF804E04FEA1E2242EA03128DF80320B4
:1031500022098DF80520220142EA1C228DF8062062
:103160006A46FEF7D5FB02B010BD00BF00FF7F47E7
:1031700000F07F450000FA4380B582B09DED091A4A
:10318000002280FE410AADF80420B1EE412ABDF9CB
:103190003810009280FE020A9FED0B2A30EE010AE1
:1031A00031EE011A20EE020A80EE010ABDEEC00ADD
:1031B00010EE103A1ABA120CADF806206A46FEF765
:1031C000A7FB02B080BD00BF00F07F4500000000FB
:1031D000704700000000000010B5044605F074F8C8
:1031E00004EB840149F62452C2F2004202EB810151
:1031F000486010BD0000000080B582B009B24FF0F9
:10320000FF32CDF803200092FD228DF807206A4698
:10321000FEF77EFB02B080BD80B582B009B24FF0F0
:10322000FF32CDF803200092FC228DF807206A4679
:10323000FEF76EFB02B080BD49F60460C2F20040AA
:103240000078002818BF704744F6B44047F2401297
:10325000C2F20040C2F2004290F8361090F87200BC
:1032600092F83630084392F8721049F63432184317
:10327000C2F2004247F2D833C2F20043084392F848
:10328000362093F836101043084302D0C820FEF7CA
:1032900027BA7047000000002DE9F04381B02DED02
:1032A0000A8B40F6BC0040F6B827C2F200404CF250
:1032B0004838C2F20047C2F200480078012801D124
:1032C000002130E0787C012840F60810C2F200406E
:1032D00007D10178012904D1012088F800000221DA
:1032E00021E098F80010012903D100210170032189
:1032F00019E04CF24C310022C2F20041CA6049F69A
:103300001851C2F2004191ED000A4CF2AC31C2F208
:10331000004181ED000A4CF24431C2F2004181EDDE
:10332000000A012101704CF2EC0941F20C15C2F2C5
:103330000049C2F20145DFE801F0022C0B12B7EEA2
:1033400000BA00242C600120002800F08380F0E007
:1033500017F096FAB7EE00BA85ED000A14E017F000
:103360004BFA49F61850B1EE002AC2F20040B7EE0F
:1033700000BA85ED000A90ED001AB0EEC11AB4EE65
:10338000421AF1EE10FA50DD01240020002861D02D
:10339000CFE049F6343040F6C001C2F20040C2F23C
:1033A00000419FEDDF2AB0EE043A90ED010A91ED65
:1033B000001A30EE410A9FEDDB1A0024012030EEA6
:1033C000011AB4EE420A9FEDD82AF1EE10FA31FE4E
:1033D000000A9FEDD61AB4EE401A30EE021A99EDAB
:1033E000002AF1EE10FAB0EEC22A31FE000A33EEE6
:1033F000421A9FEDEB2AB0EEC03A81FE021A9FED11
:10340000E92A83EE022AB7EE003A80FE410AB1EEC5
:10341000411A32EE032A80FE010A9FEDEC1A82FE69
:1034200001BA85ED000AA8B183E041F20810B6EEBA
:10343000001AC2F20140012490ED000A0020B0EE13
:10344000C00AB4EE410AF1EE10FAD8BF88F80000C5
:1034500000286ED197ED020AD7ED030A19F070FA31
:1034600040F604109FEDDA2AC2F200409FEDD7BA71
:1034700090ED001AB4EE421AF1EE10FA59DD40F662
:103480000010C2F2004090ED002A41F2081030EE28
:10349000020AC2F2014090ED002A32EE400A9FED8E
:1034A000C72AB4EE420AF1EE10FA08DD9FEDC23AE7
:1034B00030EE030AB4EE420AF1EE10FAF8DC9FEDAA
:1034C000C13AB4EE430AF1EE10FA08DA9FEDBC4AB5
:1034D00030EE040AB4EE430AF1EE10FAF8DBB1EE76
:1034E000414AB4EE440AF1EE10FA09DBB4EE410AA7
:1034F000F1EE10FA04DCB0EEC00A30EE410A16E03C
:1035000032EE414AB4EE440AF1EE10FA09DA31EE35
:10351000033AB4EE430AF1EE10FA0ADC30EE020A86
:1035200001E030EE030AB0EEC00A31EE400A80EE50
:1035300001BA387C012802D1B0EE000A23E049F636
:10354000F0409FEDA51AC2F2004090ED000AB4EEE3
:10355000410AF1EE10FA11DD9FEDA01AB4EE410A16
:10356000F1EE10FA0DDA9FED9E1A30EE011A9FED82
:103570009D2A9FED980AA1EE020A04E09FED950AAC
:1035800001E0B0EE040A40F6FC06002CC2F2004650
:103590004CF2C834C2F2004486ED000A19D097ED0F
:1035A000030A97ED021A20EE000A4FF081403060C6
:1035B000A1EE010AB1EEC01AB4EE411AF1EE10FA12
:1035C00080F1E880F1EE000A81FE600A0EF0DCFB7B
:1035D00059E097ED030AD6ED000A0EF0D5FB40F650
:1035E0001010B7EE008AC2F200409FED81AA9FED55
:1035F0007F9A4CF2D83790ED001A40F24450C2F254
:103600000040C2F2004790ED002A40F24050C2F262
:10361000004031EE421A90ED003A387833EE422AFB
:103620009FED713A81EE021A9FED682A81FE021A1F
:10363000BEEE002A81FE481AA1EE02AA9FED6D2A75
:10364000A1EE039AA1EE028A78B994ED001AB0EEC9
:1036500040CAB0EE410A4CF2CC30C2F200400EF04B
:103660001FFDB0EE4C0A01203870F0EE490AB0EEB2
:103670004A1AF0EE481A4CF2CC30C2F200409FEDEC
:103680005E2A0EF015FD2BEE002A99ED000A9FED43
:103690005B1A4CF23C30C2F2004084ED002A32EE5C
:1036A000403A96ED000A20EE011A80ED003AB4EEA1
:1036B000413AF1EE10FAA8BF80ED001A9FED421AD0
:1036C00020EE010A90ED001AB4EE401AF1EE10FA65
:1036D000D8BF80ED000AFDF7DFFE012828D098F85A
:1036E0000000012824D049F6F8404CF2C431C2F25F
:1036F0000040C2F2004199ED000A9FED3F2A90ED93
:10370000001A94ED003A91ED004AA0EE021AA3EEE1
:10371000024A80ED001A81ED004A34EE410A14E0BD
:10372000DA0F4940DA0FC9C0DA0FC940DA0F49C0D1
:1037300049F6F8400021C2F200409FED240A0160E2
:103740004CF2C430C2F20040016040F6A82095ED72
:10375000003AC2F2004049F6FC419FED132B90ED78
:10376000001AC2F20041B7EEC11A81ED000A21EE43
:10377000021BB7EEC32A9FED0E3BA2EE031BB7EE72
:10378000C10B85ED000A80ED000ABDEC0A8B01B08B
:10379000BDE8F08319F054FCB0EE401A12E700BF08
:1037A000CDCC4C3D333333BF666666666666EE3F0E
:1037B0009A9999999999A93FDA0FC9C0DA0F4940A6
:1037C000DA0FC940DA0F49C0333333BF00000000BD
:1037D000BD37863566660640000070420000C8426C
:1037E000000070C20AD7233C676666BF9A99993F6A
:1037F000CDCC4C3FCDCC4CBF6F12033B3333333F6A
:10380000EFF3108072B600BFFEE70000000000007A
:103810000EF0C2FC002018F093FB4BF2546401211F
:10382000C2F200442046FFF7E7FC4BF2B4550121F9
:10383000C2F200452846FFF7DFFC4BF2F466112187
:10384000C2F200463046FFF7D7FC012003F05CFCD3
:1038500002212046FFF7D0FC02212846FFF7CCFCCE
:1038600010213046FFF7C8FC012003F04DFC9FED0E
:103870009A8A4FF40071B0EE480A2046FFF7FCF830
:10388000B0EE480A40F2FF112846FFF7F5F8FDF7C1
:10389000FBFE642003F038FC0FF0AAFF322003F097
:1038A00033FCFDF7F1FE642003F02EFC0FF0A0FFC7
:1038B000322003F029FC47F2C8374BF60C7840F66B
:1038C000802A4BF2C44B40F20F49C2F20047C2F2C9
:1038D0000048C2F2014AC2F2004BC4F202090BE0F6
:1038E000C4F20202904218BF6FF004010268114056
:1038F0000160012016F0C8FC002064210022002392
:1039000014F00EF9642003F0FFFB01212046FFF7BD
:1039100073FC01212846FFF76FFC11213046FFF7A9
:103920006BFC012003F0F0FB02212046FFF764FC52
:1039300002212846FFF760FC10213046FFF75CFCAF
:10394000012003F0E1FBB0EE480A4FF4007120467D
:10395000FFF792F8B0EE480A40F2FF112846FFF751
:103960008BF83878012804D0012080F3138804F004
:10397000B7FD002000210022002314F0D1F86420BC
:1039800003F0C2FB01212046FFF736FC0121284647
:10399000FFF732FC11213046FFF72EFC012003F027
:1039A000B3FB02212046FFF727FC02212846FFF740
:1039B00023FC10213046FFF71FFC012003F0A4FB7D
:1039C000B0EE480A4FF400712046FFF755F8B0EE0C
:1039D000480A40F2FF112846FFF74EF838780128D0
:1039E00004D0012080F3138804F07AFD4FF4807234
:1039F0004046514608F088FDDBF800006FF00801F2
:103A0000484511DC6F22C4F20202904222DC3F22C0
:103A1000C4F2020290423BDC1022C4F20202904245
:103A20003FF464AF28225BE740F26F42C4F2020227
:103A300090421DDC40F23F42C4F2020290422FDC71
:103A400040F21042C4F2020290423FF44FAF40F203
:103A5000284245E79F22C4F2020290422ADC7022EB
:103A6000C4F2020290423FF441AF882238E700BF1F
:103A700040F29F42C4F20202904223DC40F27042C4
:103A8000C4F2020290423FF431AF40F2884227E78D
:103A90004022C4F2020290423FF428AF58221FE7AE
:103AA00040F24042C4F2020290423FF41FAF40F2A3
:103AB000584215E7A022C4F2020290423FF416AF2A
:103AC000B8220DE740F2A042C4F2020290423FF455
:103AD0000DAF40F2B84203E7000000000000000014
:103AE00044F60C00C5F60200016841F002010160D5
:103AF00050F8081C8904FBD5704700000000000046
:103B00004BF2B450C2F2004003F0EABC00000000E7
:103B10004BF2B450C2F2004003F0E2BC00000000DF
:103B20004BF25460C2F2004003F0DABC0000000027
:103B30004BF25460C2F2004003F0D2BC000000001F
:103B40004BF2F460C2F2004003F0CABC0000000077
:103B50004BF2F460C2F2004003F0C2BC000000006F
:103B6000F0B5D1E900C4D1F808E00D692CB14EEAF6
:103B70000C04254345F0804C03E045EA8C4444EABC
:103B80000E0C856ED0F88470D1E907466B438D69C1
:103B900044EA0660D1F814E0CC68054307EB8300E3
:103BA00045EA0E0647F823C046EA04434360CB6863
:103BB000002B08BFF0BD4DF6880C08300132002301
:103BC000C0F6010CD71857F8017CC750CF680433F2
:103BD0001CF80770BB42F5D3F0BD000000000000E8
:103BE00049F63860C2F200400078D0B19FED0F1A5C
:103BF00020EE010A9FED0E1A9FED0E2A20EE011A0B
:103C000020EE022A20EE011A22EE002AA1EE002A5E
:103C10009FED091AA0EE012A9FED080A32EE000A74
:103C200070479FED010A70470000000000007A44D1
:103C3000E1BE2336348037BB0681853FD7A30AC255
:103C400046F61870C2F2004090ED690A7047000015
:103C500046F61870C2F2004090ED680A7047000006
:103C600046F61870C2F2004090ED6A0A70470000F4
:103C700082B09FED488AB3EE040AB7EE001AF2EE66
:103C8000041AB6EE002AF0EE482AF0EE483A49F659
:103C90006C60C2F20040DFED3D0A9FED3D3A0DF051
:103CA0006FFD18F0D9FB40F6C00649F6343B41F2EF
:103CB000081840F6BC0949F6EC5540F60C47C2F22C
:103CC0000046C2F2004BC2F20148C2F20049C2F201
:103CD00000459FED319AC2F201470DF1040A0190AF
:103CE0000EE000BF40F60E41DBF81C00C2F20141BD
:103CF00028600020088038800221504616F0CCFA57
:103D000096ED000ADBED010A16F00AF899F80000BA
:103D100088ED000A0128E5D1544649F66C6AF0EEB8
:103D2000480AC2F2004A50460DF0AAFD50460DF076
:103D3000AFFD98ED001A85ED000AB0EEC11AB4EEA1
:103D4000491AF1EE10FA0DDC49F63A6340F60E42DC
:103D5000C2F20043C2F20142188811880130188073
:103D6000481C108049F63A60A246C2F20040008822
:103D70006428C1D349F63A623888C2F20042002171
:103D800089F8001001301180B5E700BF0AD7233C45
:103D90009A99993E000000008FC2F53C0000000097
:103DA0002DE9F04F81B02DED108B13F075FA40F630
:103DB00020354AF62558C2F200454AF624464AF60E
:103DC000105A4AF60C5B28784AF60D59C2F20048A0
:103DD000C2F200460128C2F2004AC2F2004BC2F20F
:103DE000004904D198F80000002800F05381BAEE91
:103DF000010A4AF29C00C2F20040002104389FED03
:103E0000D91A9FEDD92A00BF8AB2B0EE424A03EE1A
:103E1000102A0131021D1229B8EE433A33EE003A5E
:103E2000A3EE014A80ED014A1046EDD14AF2E400CA
:103E30004FF43471C2F20040FCF739FC4AF284605E
:103E40004FF43471C2F20040FCF731FC4AF2B43056
:103E50004FF43471C2F20040FCF729FC4AF65410CA
:103E60004FF43471C2F20040FCF721FC4AF62C40BA
:103E7000B421C2F20040FCF71AFC49F6A460002706
:103E8000C2F20040B2EE04BAB7EE008AB0EE08AA61
:103E9000076049F69C60C2F20040B0EE00CA9FED98
:103EA000B3DAB0EE4B0A076049F6A860C2F20040F0
:103EB0009FEDAF9AF0EE490AB0EE481A076049F656
:103EC000A060C2F20040F0EE4A1AB0EE4C2AF0EECA
:103ED000492AB0EE4D3AF0EE493A076049F61C70B7
:103EE000C2F200400DF04CFCB0EE4B0AF0EE490A75
:103EF000B0EE481AF0EE4A1AB0EE4C2AF0EE492A1B
:103F0000B0EE4D3AF0EE493A49F6DC70C2F20040AC
:103F10000DF036FCB1EE04CA9FED96DA9FED96EAFD
:103F2000F0EE480A9FED95FAB0EE4D1A9FED94BA67
:103F3000B0EE4C0AF0EE4E1AB0EE4F2AF0EE492ADF
:103F4000B0EE4B3AF0EE493A49F64C70C2F20040FE
:103F50000DF016FCB0EE4D1AF0EE4E1AB0EE4F2AF0
:103F6000B0EE4C0AF0EE480AF0EE492AB0EE4B3AB9
:103F7000F0EE493A4AF20C00C2F200400DF000FCAB
:103F8000B1EE00DA9FED7FEAB0EE4C0AF0EE490A9E
:103F9000B0EE4E1AF0EE4C1AB0EE4D2AF0EE492A71
:103FA000B0EE493AF0EE493A49F67C70C2F2004070
:103FB0000DF0E6FBB0EE4C0AF0EE490AB0EE4E1AF8
:103FC000F0EE4C1AB0EE4D2AF0EE492AB0EE493A26
:103FD000F0EE493A4AF23C00C2F200400DF0D0FB4C
:103FE0009FED69CAB0EE4A0AF0EE4E0AB0EE481AEA
:103FF000F0EE4C1AB0EE4C2AF0EE492AB0EE4B3AF5
:10400000F0EE493A49F6AC70C2F200400DF0B8FB50
:10401000B0EE4A0AF0EE4E0AB0EE481AF0EE4C1A34
:10402000B0EE4C2AF0EE492AB0EE4B3AF0EE493AA7
:104030004AF26C00C2F200400DF0A2FB4AF62640A4
:104040004AF60851C2F20040C2F2004137800780B0
:104050004AF62450C2F200408BF8007089F80070D4
:1040600007704AF6E040C2F20040AAF8007088F8F3
:10407000007007700020CCF2F01008604AF60E5075
:10408000C2F2004007804AF60450C2F200400780A6
:104090000120287049F6AC67C2F20047384616F096
:1040A0007BFB49F6BC68C2F20048404616F074FB40
:1040B0004AF6E440C2F2004016F06EFB4AF6F440C5
:1040C000C2F2004016F068FB4AF6E04649F61814C2
:1040D000C2F20046C2F20044307801285ED84AF6A7
:1040E0000453C2F2004319884A1C4AF60851C2F22E
:1040F00000411A8092B291ED000A0021642A84EDF9
:10410000000A616084ED020AC4E903116161C0F034
:10411000FA8049F6301349F6DC17C2F20043C2F2C6
:1041200000479FED1A1A002593ED160A4AF60E5322
:10413000B0EEC00AC2F20043B4EE410A97ED160A8F
:10414000B0EEC00A1F88F1EE10FAB8BF7D1CB4EEC5
:10415000410AF1EE10FA1D8080F2DA80BAF8001000
:104160000131D5E0C2B8B23EDA0FC9BF0000484302
:1041700000000000000020420000C8420000A042F1
:104180000000FA44CDCCCC3D000016430AD7233CB6
:104190000AD723BCCDCC4C3F6F12033B49F63015F8
:1041A00049F61C7BC2F20045C2F2004B49F64C7640
:1041B00049F6DC7A49F67C7995ED150AD7ED000AC7
:1041C0005846C2F20046C2F2004AC2F200490DF05F
:1041D00057FB58460DF05CFB95ED160ADBED090A1E
:1041E00030460DF04DFB30460DF052FB49F6DC1B1E
:1041F000D8ED000AC2F2004B50469BED150A0DF0B7
:104200003FFB50460DF044FB4AF20C079BED160AAB
:10421000C2F20047DAED090A38460DF031FB3846A4
:104220000DF036FB4AF6E44095ED1A0AC2F2004062
:10423000D0ED000A48460DF0BBFA48460DF028FBC9
:1042400095ED1B0A49F6AC75C2F20045D9ED090A95
:1042500028460DF015FB2846A8460DF019FB4AF636
:10426000F4494AF23C05C2F20049C2F200459BED16
:104270001A0A2846D9ED000A0DF09AFA28460DF0E0
:1042800007FB9BED1B0A95ED091AB1EE400A4AF2B5
:104290006C05F1EE410AC2F2004528460DF0F0FA35
:1042A00028460DF0F5FA4AF6E04C706AC2F2004C6E
:1042B000D8F824102060786AC4E901109CF8000046
:1042C00095ED090A4AF62446B1EE400A0428C2F2E6
:1042D000004684ED030A4FF000012161616140F066
:1042E0001B824AF61854C2F200442078002800F0DD
:1042F00051814AF61450C2F200400168002900F0D2
:10430000B7810139FDE14AF60E53C2F2004319802C
:104310009BF80030AAF80010FBB940F6B7339A4278
:1043200007D84AF60E53C2F200431B88B3F5FA7F52
:1043300013D349F6A46349F69C67C2F20043C2F264
:104340000047002808BF1F4601238BF8003049F6BC
:104350003013C2F200435B6D3B6089B240F6B73761
:10436000BA4299F800704FF000034FF000024FEA94
:10437000910188BF01227C2988BF0123B7B952EA85
:10438000030113D049F6A86149F6A062C2F20041C8
:10439000C2F20042002808BF0A46012189F8001035
:1043A00049F6DC11C2F20041496D11609BF8001022
:1043B000002900F07B8399F80010002900F0768333
:1043C000002800F0098149F6A4601FED901AC2F29E
:1043D00000401FED913A49F6F46449F6CC6590ED42
:1043E000000A49F69C60C2F2004030EE010AC2F2B7
:1043F0000044C2F2004590ED002A49F6A860C2F2DE
:10440000004032EE032A2A1F002190ED004A49F6AF
:10441000A060C2F2004034EE011A32EE402A90ED64
:10442000004A201F34EE033AB2EE024A33EE413A1C
:104430008BB2B0EE406A05EE103A0131031D0A2935
:10444000B8EE455A85EE045AA2EE056A82ED016A7D
:10445000B0EE416A02F10402A3EE056A80ED016A42
:104460001846E5D149F61C70C2F200400DF084F9FF
:1044700049F64C70C2F200400DF07EF949F6DC704E
:10448000C2F200400DF078F94AF20C00C2F200408E
:104490000DF072F949F67C70C2F200400DF06CF933
:1044A00049F6AC70C2F200400DF066F94AF23C00E9
:1044B000C2F200400DF060F94AF26C00C2F2004016
:1044C0000DF05AF94AF624400026C2F2004094ED5D
:1044D000008A49F630141FEDD1AA06804AF626401C
:1044E000C2F200401FEDD4BAC2F20044B0EE4A1A44
:1044F00006804AF29C00C2F20040F0EE4B1AD5ED65
:10450000000A94ED150A90ED009A49F6AC60C2F2EB
:10451000004016F01DF949F6DC15F0EE480AC2F22B
:104520000045B0EE4A1AF0EE4B1A49F6BC6095ED24
:10453000150AC2F2004016F00BF9F0EE490AB0EE8F
:104540004A1AF0EE4B1A4AF6E44094ED1A0AC2F207
:10455000004016F0FDF8F0EE490AB0EE4A1AF0EE0F
:104560004B1A4AF6F44095ED1A0AC2F2004016F0D2
:10457000EFF84AF62A404AF6E041C2F20040C2F2A1
:10458000004106804AF62840C2F200400680022020
:1045900008708BE24FF45C70FDF7A2F84AF61455F0
:1045A0004AF6E04CC2F20045C2F2004C28680138DD
:1045B000286040F0B1800FF01BF9012020704AF60E
:1045C0001C504AF6E04CC2F20040C2F2004C0021FE
:1045D0000160642028609FE049F61C70C2F2004030
:1045E0000DF0CAF849F64C70C2F200400DF0C4F864
:1045F00049F6DC70C2F200400DF0BEF84AF20C0041
:10460000C2F200400DF0B8F849F67C70C2F20040EA
:104610000DF0B2F849F6AC70C2F200400DF0ACF803
:104620004AF23C00C2F200400DF0A6F84AF26C00DB
:10463000C2F200400DF0A0F84AF608510120C2F283
:10464000004130700020C4F2F01008604AF60E51AC
:104650000020C2F200418BF8000089F800000880B9
:104660004AF60451C2F20041AAF8000008801DE297
:104670004AF61C51C2F200410A68B42A05D24AF235
:10468000E4071346C2F200471DE0D3082C2B06D8DE
:104690004AF28467A2F1B403C2F2004713E0930820
:1046A000862B06D84AF2B437A2F5B473C2F200479B
:1046B00009E013092C2B00F204824AF65417A2F5E4
:1046C0000773C2F200474CF6CD46CCF6CC46A3FBAE
:1046D0000665EE0806EB8606A3EB460307EBC60766
:1046E0004AF6244607EB8303C2F2004693ED000A24
:1046F0004AF620530132C2F200430A60642183ED7E
:10470000000A4AF61C520160C2F200421268B2F579
:10471000347F01D3022020704AF628484AF6264109
:10472000C2F20048C2F20041328849F6CC63B8F8C0
:104730000000098849F6F46AC2F200430130A8F883
:1047400000004AF29C00C2F2004AC2F2004003EBB1
:1047500081030AEB81019CF8007000EB820093ED6D
:10476000001A022F91ED000A90ED008A3CD149F623
:10477000AC60C2F2004090ED002A32EE412AB0EE69
:10478000C23A9FEDD22AB4EE423AF1EE10FA2BDA99
:1047900049F6BC60C2F2004090ED003A33EE403A78
:1047A000B0EEC33AB4EE423AF1EE10FA1CDA4AF631
:1047B000E440C2F2004090ED003A33EE483AB0EEE9
:1047C000C33AB4EE423AF1EE10FA0DDA99ED003A3E
:1047D00033EE483AB0EEC33AB4EE423AF1EE10FA94
:1047E00002DA03208CF800009CF80000032840F057
:1047F0005D8149F630104AF62A44C2F20040C2F206
:10480000004490ED152A32EE411AB0EEC12A9FED18
:10481000B01AB4EE412AF1EE10FA5BDA9BED152ADC
:1048200032EE400AB0EEC00AB4EE410AF1EE10FAE0
:1048300050DAB0EE480AD0ED1A0A0EF059FCB0EE8C
:10484000C00A9FEDA49AB4EE490AF1EE10FA80F284
:104850003281B0EE480ADBED1A0A0EF049FCB0EEE8
:10486000C00AB4EE490AF1EE10FA80F2248149F64A
:1048700030104AF6E04CC2F20040C2F2004C90ED1B
:10488000160AB0EEC01A9FED940AB4EE401AF1EE8B
:1048900010FA1FDA9BED161AB0EEC11AB4EE401AE8
:1048A000F1EE10FA16DA90ED1B0AB0EEC01A9FED89
:1048B0008B0AB4EE401AF1EE10FA0BDA9BED1B1ADC
:1048C000B0EEC11AB4EE401AF1EE10FA02DA208806
:1048D000013000E0002081B2208089087C2905D8C1
:1048E000B8F80000B0F57A6FC0F0E0804AF62449CD
:1048F0004AF6264EC2F20049C2F2004E7C294FF021
:104900000001B9F800004AF2E40788BF0121BEF8AF
:104910000030C2F2004700EB800249F63014C2F2C8
:1049200000444AF2846507EBC207C2F20045D4F89E
:104930008C6005EBC20547F823604AF2B437C2F237
:1049400000474AF6541607EBC207D4F8944045F8DE
:104950002340C2F20046DBF88C5047F823504AF659
:104960002C4706EBC206C2F20047DBF8944007EB87
:1049700042025F1C46F82340BEB2D1540A2E4FF0CB
:104980000001AEF8007007D34AF626420130C2F2A9
:104990000042A9F800001180B9F8000049F6CC6285
:1049A000C2F20042122823D34AF624500121C2F257
:1049B000004040F6C412017004208CF800004AF652
:1049C0001850C2F20040002101704AF61C50C2F299
:1049D000004001604AF61451C2F200414FF45C708D
:1049E0000A60BDEC108B01B0BDE8F04FFCF778BE5B
:1049F0004AF626414AF29C03C2F20041C2F2004349
:104A000003EB800049F6301509889FED35AA9FED2C
:104A100035BAC2F20045B0EE4A1AF0EE4B1A02EB7C
:104A2000810290ED009A0AEB810149F6AC60D2ED6B
:104A3000000A95ED150AC2F2004091ED008A644625
:104A400015F086FEF0EE480AB0EE4A1AF0EE4B1A68
:104A500049F6BC609BED150AC2F2004015F078FEE5
:104A6000F0EE490AB0EE4A1AF0EE4B1A4AF6E4406C
:104A700095ED1A0AC2F2004015F06AFEF0EE490AFE
:104A8000B0EE4A1AF0EE4B1A4AF6F4409BED1A0AC1
:104A9000C2F2004015F05CFE4AF62A410020C2F244
:104AA0000041A8F80000088002202070BDEC108BA7
:104AB00001B0BDE8F08F4AF6E04C0020C2F2004C95
:104AC00009E79FED010A13E60000000017B7D1388F
:104AD000A69B443B0AD7A33C0AD7233CCDCC4C3DF4
:104AE000CDCC4C3F6F12033B90F85C20012A01D1E2
:104AF0000220704770B582B042F20835012280F87A
:104B00005C2000230193C4F202050093A5F54274D2
:104B10000368A34228D14FF6006CCFF6FF7C55F80E
:104B20000C409A68224352071ED4D1F800E02A684C
:104B3000BEF1000F22F4404423D043F4807242F2CD
:104B40000013C4F202034E689A4244EA06022A6045
:104B50002BD14FF60052CFF6FF72AA5855F80C3001
:104B60001343DA073FD127E0016E41F020010166CF
:104B70000121002280F85C2002B0BDE870400846A8
:104B8000704742F2001243F48071C4F202022C60BA
:104B900091421AD14FF60051CFF6FF71695855F87E
:104BA0000C201143C9071ED116E046F20802C5F6D3
:104BB00002021368DA0716D12A6840F61F739A4377
:104BC0008968114341EA0E010AE046F20801C5F680
:104BD00002010968C90706D1296840F61F7291438E
:104BE00029600021C5E70021C3E7000000000000A4
:104BF0002DE9F04181B00022009290F85C20012A5A
:104C000001D10221C5E20268012380F85C3093687B
:104C10005B0700F1B68246F2083C4FF6FF78C5F616
:104C2000020CC0F20F08ACF5427E0B68724512D040
:104C3000002B10D493FAA3F413EA080FB4FA84F407
:104C40004FF0010508BF9C0E04F01F0405FA04F4A0
:104C5000D5692C43D4614C681F26C3F38463C4F325
:104C6000012504F01F04A64002EB8505A3402F6B2D
:104C700027EA060633432B639368946803F0040322
:104C800004F008041B1940F006810B6807268D68A4
:104C90007245C3F34064C3F3045302EB840406FA81
:104CA00003F6676905FA03F327EA060643EA0603F3
:104CB00063610FD041F20003C5F600431B6803F0A7
:104CC0007043B3F1805F10D14B69D4680E2505EABB
:104CD000540416E04FF604544B69CFF6FF740625D2
:104CE0005CF8044005EA94040BE0D4684B69D5688D
:104CF000E4064FEA550502D405F00E0401E005F084
:104D000008040E6903FA04F5042E24D1724530D04C
:104D1000136E0C6803F0F845A3069D4203D1146E90
:104D200024F000441466546E04F0F8449C4203D10D
:104D3000546E24F000445466946E04F0F8449C428F
:104D400003D1946E24F000449466D46E04F0F844C9
:104D50009C425FD09FE002F160030F68724507F04C
:104D6000F84753F826405AD004F000443C44254309
:104D700059E04FF65853CFF6FF735CF80330136ECB
:104D80000C68C3F3846314EA080F94FAA4F5B5FA27
:104D900085F508BFC4F38465AB4203D1136E23F0DD
:104DA00000431366536E536E0C6814EA080F94FAAE
:104DB000A4F5B5FA85F508BFC4F38465C3F384632D
:104DC000AB4203D1536E23F000435366936E936E50
:104DD0000C6814EA080F94FAA4F5B5FA85F508BF33
:104DE000C4F38465C3F38463AB4203D1936E23F0B1
:104DF00000439366D36ED36E0C6814EA080F94FADE
:104E0000A4F5B5FA85F508BFC4F38465C3F38463DC
:104E1000AB4240D1D36E23F00043D3663BE045EA7A
:104E2000070444F0004543F8265072450D691BD035
:104E300091F821400E7E53F8257027F00047012C91
:104E400008BF07F10047741EB4FA84F443F82570D4
:104E500063090C69DB02156904F01F0425F4F045B1
:104E6000A3402B43136116E0ACF52A72CB6952F8CC
:104E7000254024F08074234342F825300B6991F8D3
:104E8000204052F82350012C25F0007508BF05F191
:104E9000007542F8235002689368DB0740F02C81CC
:104EA0000B68CD68724503EA080105F018060BD0BF
:104EB000D2F8C04028FA06F624EA010106EA030403
:104EC0002143C2F8C0100DE04FF6A85428FA06F6A8
:104ED000CFF6FF741E405CF8047027EA01013143ED
:104EE0004CF804100021C4F2527101F52D04A542C2
:104EF00040F0FF8046F20004C5F60204A2423FD013
:104F000042F20014C4F20204A24224D042F200048D
:104F1000C4F20204A2424CD11F24C1F2F044A342C5
:104F20001EDD40F2FF74C2F63064A34249DD40F654
:104F30000004C2F63064A34200F0AC8041F20004E9
:104F4000C3F26024A3427CD00024C4F22134A342E3
:104F500000F0BA80A3E01F21C1F2F0418B422ADCAD
:104F60000721C0F690418B424DDC0221C0F2304156
:104F70008B4253D00421C0F660018B4215D08EE0E5
:104F80001F21C1F2F0418B4227DC0721C0F690417E
:104F90008B425BDC0221C0F230418B423ED00421C7
:104FA000C0F660018B4240F084804021C1F62011A0
:104FB0008AE0002188E040F2FF71C2F630618B4246
:104FC00033DC2021C1F2F0418B4229D040F2004174
:104FD000C2F600218B4211D061E040F2FF71C2F6AF
:104FE00030618B4245DC2021C1F2F0418B4217D069
:104FF00040F20041C2F600218B425AD140F6000136
:10500000C2F6306160E00821C0F690418B422CD09E
:105010001021C1F2C0018B4222D040E0012153E0B7
:1050200040F20021C2F2B0514EE040F60001C2F65B
:1050300030618B422ED041F20001C3F260218B42DD
:105040002DD142F20001C3F290613DE00821C0F68B
:1050500090418B4209D01021C1F2C0018B4228D16E
:1050600040F20011C2F280112EE08021C1F65051B1
:105070002AE040F60001C2F630618B420AD042F2CB
:105080000001C3F290618B4213D144F20001C3F6D8
:10509000C02119E041F20001C3F2602114E00024B4
:1050A0000021C4F68434A34204BF0021C4F6B871C1
:1050B0000AE044F200040021C3F6C024A34204BF66
:1050C00048F20001C3F6F061724512D091FAA1F4E2
:1050D0004FF6C135B4FA84F4C0F20A05294208BF7C
:1050E0008C0E04F01F01012404FA01F1D46921435C
:1050F000D161B3F1FF3F01DD002147E042F2000141
:1051000042F20016C4F20201C4F2020601F58074F4
:1051100001F54275A242644608BF2C468A4208BF88
:105120002C4642F48075B542246822D18D68D1F8AE
:1051300008112943C90724D1002104F0E075CCF2FD
:1051400052718B4208BF14F4000126D00021CCF22A
:1051500021318B4249D10021B1EB156F45D1724508
:1051600014D1DCF8001021F0E071294341F0807186
:105170004EE04FF60051CFF6FF715CF80110C90701
:10518000DAD0016E41F0200101660121002280F891
:105190005C20084601B0BDE8F0817245ACD1DCF876
:1051A000001042F6635221F0E071C0F23E522943F2
:1051B00041F40001CCF8001040F20861C2F2004155
:1051C00009688909A1FB02129109022202EB41013F
:1051D0000091009900298FD0009901390091009920
:1051E00000294FF00001F7D1D0E772454FF00001E0
:1051F000CCD10022CCF68432934208BF14F4800252
:10520000C4D1DCF8001021F0E071294341F48001A1
:10521000CCF8001070E70000B0B582B000284FF065
:105220000001019141D0016E39B9044600F034F912
:1052300020460021616684F85C1001688A6892004B
:105240004FF6C072C5F6FF7202D58B6813408B60B3
:105250008B68DB001CD48B6802F180521A4042F646
:10526000635342F080528A6040F20862C0F23E53BB
:10527000C2F2004212689209A2FB0323012202EB50
:10528000931200BF0192019A12B1019A013AF9E713
:105290008A68D2000BD4026E012442F0100202662A
:1052A000426E42F00102426602E00124EFE0002477
:1052B0008A68036E03F0100302F00402D218026E33
:1052C00036D122F4817246F2000C023202668A68FC
:1052D000C5F6020CD20722D142F2001341F48072CB
:1052E000C4F202039A4242F20002C4F202022DD139
:1052F0009368D2F808512B43DB0710D102F5807375
:105300009942634608BF1346914208BF0B46426864
:10531000D3F8085325F47C152A43C3F80823427EAA
:10532000C36B614543EA423306D082681A431BE0EF
:1053300042F010010124A9E0D0E90225082A0CD08E
:105340000C2A08D01C2A0AD110220BE0DCF8083005
:10535000DB07D3D0E3E7082204E0002202E0182AAA
:1053600018BF00222A431A4390F82030012B42EA4A
:10537000034306D1426A0025CFF6FE7505EB424293
:105380001343826A22B102F47872C56A2A43134336
:10539000614508D04CF20305CA68CFF6F0752A4083
:1053A0001A43CA600EE044F20705DCF80C20CFF681
:1053B000F0752A401A43CA600A69436B22F04062C2
:1053C0001A430A618A688B6802F0040203F008033A
:1053D000D2184CD1027E61454FEA823202D0036B73
:1053E0001A4303E090F8383042EA4302CB6844F2B3
:1053F0000305AB431A43CA6090F84420012A17D131
:105400004FF61E026145CFF6004215D00B6903EA44
:10541000020E0122D0E91235CFF6FF7202EB0342F1
:1054200045EA0E03056D1A43436D2A431A4310E003
:105430000A6922F001020CE0DCF810301A40D0E9D1
:1054400012351A43036D2A43456D1A432A4342F02D
:1054500001020A6161450A69036C22F0704242EA66
:1054600003020A6103D00546FBF73EFA28460168AD
:1054700002690B6B012A23F00F0202D1C369013BC1
:105480001A430A630122016E62F30101016620469C
:1054900002B0B0BD00000000B0B5B6B0044602A82E
:1054A000B8210025CDE93455CDE932553195FBF7CA
:1054B000FEF842F200012068C4F20201884201D0E5
:1054C00036B0B0BD4FF400200290022004901024AA
:1054D0000395CDE90540CDE90700C0200B95CDE946
:1054E000090502A82A9504F023FA08B1FEF788F905
:1054F00044F2D840C5F60200016841F02001016085
:10550000016801F0200101910199816841F00401D5
:105510008160806831A900F00400019001980320A7
:1055200032900020339040F60000C5F6020031941E
:1055300002F0EEFD36B0B0BD2DE9F041044602F0B8
:10554000C3FE14B3054694F83500022820D140F27A
:105550000F472668C4F2020740F26F48BE426FF060
:105560000E00C4F2020817DC6F21C4F202018E4261
:1055700023DC3F21C4F202018E4239DC1021C4F247
:1055800002018E4258D0282151E00120BDE8F0816F
:1055900080206065012037E246451ADC40F23F4139
:1055A000C4F202018E422ADC40F21041C4F2020130
:1055B0008E4241D040F2284139E09F21C4F20201DD
:1055C0008E4225DC7021C4F202018E4234D0882143
:1055D0002DE040F29F41C4F202018E421FDC40F2F6
:1055E0007041C4F202018E4226D040F288411EE092
:1055F0004021C4F202018E421ED0582117E040F231
:105600004041C4F202018E4216D040F258410EE0F1
:10561000A021C4F202018E420ED0B82107E040F270
:10562000B841C4F202018E4206D040F2A041C4F259
:1056300002018E42314607D13146306820F01E000B
:1056400041F8140B6FF080000A68464500EA02003A
:10565000086019DC9F20C4F20200864231DC57202A
:10566000C4F20200864256DC1020C4F202008642D8
:1056700000F091802820C4F20200864200F08B8066
:105680004020C4F2020084E045F22F40C5F602003B
:1056900086422BDC40F2B740C4F20200864248DC6E
:1056A00040F27040C4F20200864274D040F288405A
:1056B000C4F2020086426ED040F2A040C4F2020062
:1056C00067E040F22740C4F20200864240DCA0209E
:1056D000C4F2020086425ED0B820C4F202008642C4
:1056E00059D040F21040C4F2020052E045F26B4043
:1056F000C5F6020086423CDC45F23040C5F60200A9
:10570000864248D045F24440C5F60200864242D067
:1057100045F258403BE05820C4F2020086423AD09D
:105720007020C4F20200864235D08820C4F2020004
:105730002FE040F2B840C4F2020086422BD045F27E
:105740000840C5F60200864225D045F21C401EE006
:1057500040F22840C4F2020086421CD040F2404091
:10576000C4F20200864216D040F25840C4F2020051
:105770000FE045F26C40C5F6020086420BD045F2C0
:105780009440C5F60200864205D045F28040C5F639
:105790000200864204D1206E016821F4807101600C
:1057A000306820F0010030603068C0070BD002F094
:1057B0008BFD401B0628F7D320206065032084F86A
:1057C0003500012020E120680821B8424FF03F0257
:1057D00010DC6F23C4F2020398421CDC3F23C4F2A6
:1057E0000203984232DC1023C4F20203984251D0E3
:1057F00028234AE040451ADC40F23F43C4F202034A
:1058000098422ADC40F21043C4F20203984241D08D
:1058100040F2284339E09F23C4F20203984225DC7A
:105820007023C4F20203984234D088232DE040F262
:105830009F43C4F2020398421FDC40F27043C4F25B
:105840000203984226D040F288431EE04023C4F26F
:10585000020398421ED0582317E040F24043C4F29E
:105860000203984216D040F258430EE0A023C4F23F
:10587000020398420ED0B82307E040F2A043C4F2DE
:105880000203984206D040F2B843C4F202039842A1
:1058900040F0BF80D4E9163707F01F07404502FAF1
:1058A00007F25A5019DC9F21C4F20201884231DC10
:1058B0005721C4F20201884256DC1021C4F20201D1
:1058C000884200F091802821C4F20201884200F051
:1058D0008B804021C4F2020184E045F22F41C5F6DD
:1058E000020188422BDC40F2B741C4F20201884237
:1058F00048DC40F27041C4F20201884274D040F2A8
:105900008841C4F2020188426ED040F2A041C4F244
:10591000020167E040F22741C4F20201884240DC04
:10592000A021C4F2020188425ED0B821C4F2020173
:10593000884259D040F21041C4F2020152E045F2CF
:105940006B41C5F6020188423CDC45F23041C5F6A8
:105950000201884248D045F24441C5F6020188421E
:1059600042D045F258413BE05821C4F2020188423E
:105970003AD07021C4F20201884235D08821C4F2A5
:1059800002012FE040F2B841C4F2020188422BD05C
:1059900045F20841C5F60201884225D045F21C4176
:1059A0001EE040F22841C4F2020188421CD040F2BD
:1059B0004041C4F20201884216D040F25841C4F27C
:1059C00002010FE045F26C41C5F6020188420BD09E
:1059D00045F29441C5F60201884205D045F2804166
:1059E000C5F6020188420BD1616EA26EE06E4A607C
:1059F00030B1016821F480710160D4E91C0141607B
:105A0000012084F835000020002184F83410BDE81E
:105A1000F081042101223DE7F0B190F83510022910
:105A200018D180B540F20F420168C4F202029142DF
:105A300014DC6F23C4F20203994224DC3F23C4F236
:105A4000020399423ADC1023C4F20203994258D06F
:105A5000282352E0802141650120704740F26F43C6
:105A6000C4F2020399421ADC40F23F43C4F202033B
:105A700099422ADC40F21043C4F20203994240D01A
:105A800040F2284339E09F23C4F20203994225DC07
:105A90007023C4F20203994233D088232DE040F2F0
:105AA0009F43C4F2020399421FDC40F27043C4F2E8
:105AB0000203994225D040F288431EE04023C4F2FD
:105AC000020399421DD0582317E040F24043C4F22C
:105AD0000203994215D040F258430EE0A023C4F2CD
