:020000040800F2
:10000000C0530124E903000851FE0008E1C20008C2
:10001000C1FC000871130008F94B01080000000042
:100020000000000000000000000000005114010862
:10003000313000080000000071080108A9300108F3
:100040000704000807040008070400080704000864
:100050000704000807040008070400080704000854
:10006000070400080704000807040008312A0008F4
:10007000412A0008512A0008612A0008712A000854
:10008000812A0008912A0008070400088934000822
:10009000A934000899340008B9340008070400089E
:1000A0000704000807040008070400080704000804
:1000B000413301080704000807040008070400088A
:1000C00007040008070400080704000807040008E4
:1000D0000704000869470108794801080704000877
:1000E00007040008070400080000000007040008D7
:1000F000070400080704000807040008A12A0008F4
:1001000007040008070400080704000807040008A3
:1001100007040008C13501080704000807040008A7
:10012000B12A0008C12A00080704000807040008D3
:100130000704000807040008070400080704000873
:1001400000000000000000000000000000000000AF
:100150000704000807040008D12A00080704000863
:100160000704000807040008070400080704000843
:100170000704000807040008070400080000000046
:100180000704000807040008D13501080704000827
:100190000704000807040008070400080704000813
:1001A0000704000807040008070400080000000016
:1001B00007040008070400080704000807040008F3
:1001C0000704000807040008000000000000000009
:1001D000000000000000000007040008000000000C
:1001E000000000000000000000000000000000000F
:1001F00000000000000000000704000807040008D9
:1002000007040008070400080000000007040008B5
:100210000704000807040008070400080704000892
:1002200007040008000000000704000800000000A8
:100230000704000807040008000000000704000885
:100240000704000807040008070400080704000862
:100250000704000807040008070400080704000852
:100260000704000807040008070400080704000842
:100270000704000807040008070400080000000045
:100280000704000807040008070400080704000822
:100290000000000007040008070400080000000038
:1002A0000000000007040008070400080704000815
:1002B000594701080704000807040008C93400086A
:1002C000D9340008070400080704000800F002F809
:1002D00000F07BF814A696E8000CB244B344DA456B
:1002E00001D100F072F8BAE80F000FA696E83000CE
:1002F000A5EB040504EB0607AAEB0704A7F1010729
:100300004FEA15154FEA3414A4F10104AC4201D3AD
:1003100000F05BF813F0010F18BFFB1A43F0010364
:1003200000F001F8DBE7184710B6010030B6010015
:100330000A4410F8013B13F0030408BF10F8014B06
:100340001D1108BF10F8015B641E05D010F8016B89
:10035000641E01F8016BF9D1002D15D010F8014B86
:1003600003F00C030C2BA1EB04040ABF10F8013BB3
:10037000A4EB8314A4EB032405F1010314F8016B2F
:100380005B1E01F8016BF9D5914238BF10F8013BB3
:10039000D1D37047704700000023002400250026B9
:1003A000103A28BF78C1FBD8520728BF30C148BFD8
:1003B0000B607047782900F0DB80002070471FB584
:1003C0001AF09CF91FBD10B510BD00F00EFA1146D1
:1003D000FFF7F5FF17F004F800F02CFA03B4FFF76D
:1003E000F2FF03BC00F0F2F90A4880470A48804750
:1003F0000A480047FEE7FEE7FEE7FEE7FEE7FEE706
:10040000FEE7FEE7FEE7FEE705480649064A074B1A
:10041000704700006934000891310108CD020008DE
:10042000C0F30024C0530124C0230124C0230124AD
:1004300053EA020C00F069802DE9F04B4FF0000602
:10044000002B1FBFB3FA83F503FA05F424FA05F66F
:100450005E4012BF1643B2FA82F502FA05F4C5F106
:1004600020051EBF22FA05FC44EA0C04203556EA9A
:10047000044C4FEA144418BF641C4FF000084FF0BE
:100480000009904271EB030C39D3002919BFB1FA6E
:1004900081F701FA07F6B0FA80F700FA07F6C7F11C
:1004A00020071EBF20FA07FC46EA0C062037B6FBE1
:1004B000F4FCA7EB0507103F07F01F0BCBF120065C
:1004C0002CFA06F60CFA0BFB44BFB3460026202F8D
:1004D000A4BF5E464FF0000B5BEA060C08BF4FF06E
:1004E000010B19EB0B0948EB0608ABFB027C06FB82
:1004F00002CC0BFB03CCC01B71EB0C01C1E70B461C
:10050000024641464846BDE8F08B13B5084318BF84
:100510004FF0FF300146AFF30080BDE81C4070474C
:1005200070B5044685690068C10601D5302600E033
:100530002026C00707D070BDD4E90121304690477E
:10054000206A401C20626D1EF6D570BD70B5044651
:1005500085690078C00707D170BDD4E9012120204A
:100560009047206A401C20626D1EF6D570BD0000C9
:1005700070B504460D4621461068AFF3008021880F
:10058000090502D50F4A7A4402E00E4A7A440E3237
:10059000002104F1240305E000F00F060009965D38
:1005A0005E54491C0028F7D120780023000704D5A9
:1005B000702D02D009B1022311322046BDE87040EF
:1005C00000F0AAB8E2A2010010B5431C02E010F846
:1005D000011B71B18107FAD14FF0013202C88C1AA8
:1005E0008C4314EAC211F9D0C01A0A0603D0C01E07
:1005F00010BDC01A10BD0A0401D0801E10BD090232
:10060000FCD0401E10BD10B5203AC0F00B80B1E800
:100610001850A0E81850B1E81850A0E81850203A37
:10062000BFF4F5AF5FEA027C24BFB1E81850A0E840
:10063000185044BF18C918C0BDE810405FEA827C5A
:1006400024BF51F8043B40F8043B08BF7047D20771
:1006500028BF31F8023B48BF11F8012B28BF20F812
:10066000023B48BF00F8012B70474FF000020429FD
:10067000C0F0128010F0030C00F01B80CCF1040CD1
:10068000BCF1020F18BF00F8012BA8BF20F8022B05
:10069000A1EB0C0100F00DB85FEAC17C24BF00F8AB
:1006A000012B00F8012B48BF00F8012B70474FF0D9
:1006B000000200B5134694469646203922BFA0E8B2
:1006C0000C50A0E80C50B1F12001BFF4F7AF0907BE
:1006D00028BFA0E80C5048BF0CC05DF804EB8900AF
:1006E00028BF40F8042B08BF704748BF20F8022BF2
:1006F00011F0804F18BF00F8012B7047704770470A
:10070000704710B500F06CF8006810BD10B50446D5
:1007100000F066F8046010BD2DE9F0470D469946DB
:100720009246044600F124080168880604D5E06971
:1007300021F01001216000E00120A84201DD471BEB
:1007400000E00027A1697A1902EB0900081AA061EC
:100750002078C00602D42046FFF7E2FE002608E01B
:10076000D4E901211AF806009047206A401C761C43
:1007700020624E45F4DB2078C0060AD52046FFF7FC
:10078000CFFE06E0D4E9012130209047206A401CCA
:100790002062381EA7F10107F4DC07E0D4E901214B
:1007A00018F805009047206A401C2062281EA5F119
:1007B0000105F3DC2046FFF7C9FE2078000602D5CC
:1007C0000220BDE8F0870120FBE700000149182066
:1007D000ABBEFEE726000200004870474009002437
:1007E000004870474009002470477546FFF7F4FF42
:1007F000AE4605006946534620F00700854618B00E
:1008000020B5FFF701FEBDE820404FF000064FF095
:1008100000074FF000084FF0000BAC46ACE8C009F1
:10082000ACE8C009ACE8C009ACE8C00921F0070198
:100830008D46704710B50446AFF300802046BDE8F2
:100840001040FFF7CBBD000010B50446006842F22F
:10085000001140F48070C4F20201884204D142F2D7
:100860000830C4F2020003E046F20830C5F6020088
:10087000006810F4403F0FD008F0C6FC6168B1F585
:10088000803F05D0B1F5403F21D0B1F5003F1FD1E9
:10089000090CB0FBF1F01BE04FF40020002107F041
:1008A00003FD6168A1F580224FEAB2420A2A0FD8FF
:1008B000DFE802F00606060606063C3A40383E002F
:1008C0006FF0010202EA5141B0FBF1F000E0800854
:1008D0004BF62141C0F2BE01884205D820688168EC
:1008E00021F44071816010BD47F64101C0F27D11D5
:1008F000884206D820680122816862F3092181605C
:1009000010BD21684FF28102C0F2FA22904288683D
:1009100004D8022262F30920886010BD40F44070C0
:10092000886010BDC009D3E74009D1E70009CFE7CF
:10093000000ACDE78009CBE7021F0C39012000BF78
:1009400091ED031A91ED042A91ED053AA2EE001AF9
:1009500020EE032A131D0C310138A2EE001A82ED9D
:10096000011A1A46ECD0704770B54AF27C104EF668
:100970002851C2F20040C2F200414FF480720AF0E6
:1009800027FC49F6184040F20F46C2F20040C4F27C
:10099000020640F26F446F2500686FF00801B04214
:1009A000C4F20204C4F202050DDCA8421CDC3F22A2
:1009B000C4F20202904232DC1022C4F202029042DF
:1009C00052D028224AE0A0421ADC40F23F42C4F250
:1009D000020290422ADC40F21042C4F2020290422B
:1009E00042D040F2284239E09F22C4F202029042F3
:1009F00025DC7022C4F20202904235D088222DE01C
:100A000040F29F42C4F2020290421FDC40F2704268
:100A1000C4F20202904227D040F288421EE04022F7
:100A2000C4F2020290421FD0582217E040F2404226
:100A3000C4F20202904217D040F258420EE0A022C7
:100A4000C4F2020290420FD0B82207E040F2A04266
:100A5000C4F20202904207D040F2B842C4F202024D
:100A6000904218BF6FF004010268114001604AF221
:100A7000A4204EF62861C2F20040C2F2004180225A
:100A80000AF0A6FB49F648106FF00801C2F20040D8
:100A90000068B0420DDCA8421CDC3F22C4F2020216
:100AA000904232DC1022C4F20202904252D028223C
:100AB0004AE0A0421ADC40F23F42C4F202029042F5
:100AC0002ADC40F21042C4F20202904242D040F2CC
:100AD000284239E09F22C4F20202904225DC7022B3
:100AE000C4F20202904235D088222DE040F29F42AB
:100AF000C4F2020290421FDC40F27042C4F20202D1
:100B0000904227D040F288421EE04022C4F2020206
:100B100090421FD0582217E040F24042C4F2020235
:100B2000904217D040F258420EE0A022C4F20202D6
:100B300090420FD0B82207E040F2A042C4F2020275
:100B4000904207D040F2B842C4F20202904218BF6D
:100B50006FF004010268114001604AF2E8004EF2B1
:100B6000A661C2F20040C2F2004180220AF030FBCE
:100B700049F638206FF00801C2F200400068B04228
:100B80000DDCA8421CDC3F22C4F20202904232DC9F
:100B90001022C4F20202904252D028224AE0A0421F
:100BA0001ADC40F23F42C4F2020290422ADC40F2D8
:100BB0001042C4F20202904242D040F2284239E090
:100BC0009F22C4F20202904225DC7022C4F202028B
:100BD000904235D088222DE040F29F42C4F20202BA
:100BE00090421FDC40F27042C4F20202904227D0D1
:100BF00040F288421EE04022C4F2020290421FD01E
:100C0000582217E040F24042C4F20202904217D04C
:100C100040F258420EE0A022C4F2020290420FD0ED
:100C2000B82207E040F2A042C4F20202904207D08C
:100C300040F2B842C4F20202904218BF6FF00401C1
:100C400002681140016070BD4EF62850C2F20040AB
:100C50000178AA2940F0788190F83F10FE2918BF4A
:100C60007047F0B581B0B0F9011048F23E77B0F9A5
:100C70000330C2F2004700EE101A40F6E01E02EE0A
:100C8000103A437FB0F91B10C2F2004EB8EEC01A02
:100C90009FEDAE0ADC09B8EEC22AC3F34112B0F9E7
:100CA00019C0C3F3001581EE001AC3F381068EED5F
:100CB000001AC3F340033B7047F2283301EE101AC9
:100CC000C2F200434FF22401C2F2004182EE002A38
:100CD0001C7048F24273C2F200438EED012A02EE0C
:100CE00010CA0D704FF226011A70C2F2004148F688
:100CF0002803B8EEC11AC2F20043B8EEC22A0E7041
:100D0000C18B48F26464198048F2407381EE001A86
:100D1000C2F20044C2F2004382EE002A47F23832A7
:100D2000018C84ED062A9FED8A2AC2F200421980C6
:100D300090F8221021EE021A82ED061A90F8233064
:100D400001EE101A4EF6D861C2F2004190F825600B
:100D500090F82650B8EE411A90F8247081ED001AF0
:100D600003F00F014AF2E4533602C2F20043198045
:100D70004AF22C53C2F2004346EA0541394490F846
:100D8000297019604AF2AD63C2F2004390F827104F
:100D90004FF22706197040F25463C2F20043F9097A
:100DA000C2F2004619704FF22501C7F38403C2F264
:100DB00000410B7090F82A30C7F34001317007F002
:100DC00001014AF2AC67C2F2004739704AF2B4310D
:100DD000C2F200410BB900270F7009784FF0000CE8
:100DE00094ED011A94ED022A002992ED013A92ED58
:100DF000024A4EF2A46718BF634690F82B10C2F265
:100E000000478EF811104AF2525190F82C20C2F28D
:100E100000413A704AF253528EF8103090F82D305B
:100E20000978C2F2004221EE001A4AF2BC6419436A
:100E3000117048F62A02B0F82F10C2F2004222EEDA
:100E4000002A90F83330BDEEC11A118048F62C010B
:100E5000C2F20041B0F8310023EE000AC2F20044B1
:100E600008804AF25830C2F200409FED3A3ABDEE97
:100E7000C22A40F6282124EE033A0370AB202070EA
:100E8000FD2084F83F0011EE100ABDEEC00ABDEE51
:100E9000C33AC2F20041A4F8190012EE100A40F65B
:100EA000DC130A7BA4F81B0010EE100AC2F2004308
:100EB00042F00702A4F81D0013EE100A0A73A4F80A
:100EC0001F0018784B7848F25471C2F2004143EA8F
:100ED000C01081F880C040F0380084F821000CF088
:100EE0007FF984F823000CF07BF9000A84F82400D1
:100EF0000CF066F984F827000CF062F9000A84F817
:100F000028000CF009FA84F82D004EF6B860C2F201
:100F1000004040F2E071C2F200410268013202601A
:100F20004AF2B4400978C2F20040012284F82E103F
:100F3000214602704AF27C10C2F20040402201B009
:100F4000BDE8F0400BF070B9704700BF00007A4474
:100F5000EC51383E0000C84240F600000121C5F6C1
:100F60000200012206F09CBE40F600000121C5F6F9
:100F70000200002206F094BE70470000000000004E
:100F800040F600000821C5F60200012206F088BEE6
:100F900040F600000821C5F60200002206F080BEDF
:100FA0007047000000000000002808BF704710B51F
:100FB0004EF2180145F2003CCEF20001C0F2070CDF
:100FC00051F804EC0B6800220C689C42FCD01A44D7
:100FD0009C42A2EB0402234628BF72446245F3D32D
:100FE00001380204ECD1BDE8104070470000000059
:100FF00080B54EF21801C0EB0010CEF200014FEAAE
:10100000401E002351F804CC0A6800BF08689042D3
:10101000FCD013449042A3EB0003024628BF634474
:101020007345F3D380BD000010B5FFF7A5FFFFF7B0
:10103000B7FF15F029FF044615F0B2FF204310BD9D
:101040002DE9F04383B00023019390460E4681467C
:101050000093FFF789FF922000F0AAF8922000F099
:10106000A7F868460624451E2F4600BF552000F00D
:101070009FF8013C07F8010F2006F7D1FFF76CFF3E
:10108000BDF90000BDF90420BDF9021000EE100A00
:1010900040F21800C2F20040B8EEC00A90ED001A0B
:1010A00021EE000A01EE101A86ED000A00EE102A69
:1010B00090ED002AB8EEC11AB8EEC00A22EE011A6D
:1010C00022EE000A86ED011A86ED020AFFF760FFA4
:1010D000802000F06DF808242E4600BF552000F057
:1010E00067F8013C06F8010F2006F7D1FFF748FF2B
:1010F0009DF800000F2825D1BDF90200BDF90410AC
:10110000BDF9062000EE100A40F21C00C2F20040B9
:10111000B8EEC00A90ED001A21EE000A01EE101A96
:1011200089ED000A00EE102A90ED002AB8EEC11AEF
:10113000B8EEC00A22EE011A22EE000A89ED011A69
:1011400089ED020AFFF710FFA22000F031F8A2207B
:1011500000F02EF8022400BF552000F029F8013CD1
:1011600005F8010F2006F7D1FFF7F6FE9DF9000004
:10117000B4EE001A9DF80110B3EE072AC2B200289F
:101180004FEAC20242EA51114FF60002CFF6FF7257
:1011900048BF114300EE101AB8EEC00AA0EE012AB3
:1011A00088ED002A03B0BDE8F083000000000000D5
:1011B00080B582B08DF8070049F6E860C2F20040C1
:1011C0000DF107010DF1060201234FF47A7CCDF8F1
:1011D00000C008F099FD9DF8060002B080BD000037
:1011E00040F6E010C2F2004090ED010A40F2566075
:1011F000B0EEC01A9FED100AC2F20040B4EE401AE1
:10120000F1EE10FA01DD002112E04AF25C31C2F287
:10121000004191ED001AB0EEC11AB4EE401AF1EEA1
:1012200010FA01DA022103E00178022901D001213C
:1012300001700078704700BFCDCCCC3D00000000AD
:1012400070B52DED0A8B40F2186644F6E430B7EE27
:10125000008AC2F20046C2F2004048F25C6196ED9C
:10126000000AC2F2004190ED011A48F26040C2F259
:10127000004038EE402A91ED004A40F21C6490EDA7
:101280001F3AC2F2004433EE411A22EE049A90ED66
:10129000152A23EE02AA94ED00BAA0EE019A90ED71
:1012A0001E0A81ED009A15F0F3FA2AEE000A94ED79
:1012B00000AA48F2347538EE4A1AC2F2004547F2E5
:1012C0007800C2F2004048F20C5195ED002A9FEDE3
:1012D00027CA21EE021A96ED002A90ED014A48F243
:1012E000606038EE423AC2F20040C2F20041A9EE1C
:1012F0000C0A90ED005A23EE059A91ED1F3A34EE58
:10130000034AABEE001A91ED150AA2EE049A23EE01
:1013100000BA91ED1E0A85ED001A80ED009A15F0D5
:10132000B7FA2BEE000A94ED001A48F2387038EE46
:10133000411AC2F20040A9EE0C0A90ED002A21EEFB
:10134000021AB6EE002AAAEE001A95ED000A80ED08
:10135000001A48F23070C2F2004030EE010A20EE6E
:10136000020A80ED000ABDEC0A8B70BD23DB793DDB
:10137000FEE700000000000010B549F6707400217F
:10138000C2F20044206881634FF4657181620421D8
:10139000204609F06DFC47F2FC209FED0B1AC2F2CB
:1013A0000040408AC03800EE100A2068B8EEC00A3B
:1013B00080EE010A9FED051A20EE010ABCEEC00A7C
:1013C00010EE101A816310BD0000C8440000FA42FC
:1013D00010B549F670740021C2F2004420688163A0
:1013E0004FF4F27181620421204609F041FC47F27A
:1013F000FC209FED0B1AC2F20040408AC03800EE7C
:10140000100A2068B8EEC00A80EE010A9FED051AA6
:1014100020EE010ABCEEC00A10EE101A816310BD66
:101420000000C8440000FA4210B549F670744AF250
:101430000061C2F20044C0F20E0191FBF0F021689D
:10144000013880B288620421204609F011FC20682E
:101450007D21816310BD000010B549F67074002134
:10146000C2F200442068816340F22A718162042143
:10147000204609F0FDFB47F2FC209FED0B1AC2F25B
:101480000040408AC03800EE100A2068B8EEC00A5A
:1014900080EE010A9FED051A20EE010ABCEEC00A9B
:1014A00010EE101A816310BD0000C8440000FA421B
:1014B00010B549F670740021C2F2004420688163BF
:1014C00040F25E5181620421204609F0D1FB47F2CF
:1014D000FC209FED0B1AC2F20040408AC03800EE9B
:1014E000100A2068B8EEC00A80EE010A9FED051AC6
:1014F00020EE010ABCEEC00A10EE101A816310BD86
:101500000000C8440000FA4210B549F67074042186
:10151000C2F20044204609F0ABFB20680021816341
:1015200010BD00000000000010B549F670740021E5
:10153000C2F200442068816340F24141816204218B
:10154000204609F095FB47F2FC209FED0B1AC2F2F2
:101550000040408AC03800EE100A2068B8EEC00A89
:1015600080EE010A9FED051A20EE010ABCEEC00ACA
:1015700010EE101A816310BD0000C8440000FA424A
:1015800070B58AB049F6085502ACC2F20045002693
:101590000220049001202146CDE905062846079641
:1015A000CDE9026605F044FB022102220023284611
:1015B000009605F081FB01210022284605F090FAF3
:1015C00001210122284605F003FB284606F050FAC7
:1015D00049F6A8552146C2F20045284605F028FBE9
:1015E0000221022200232846009605F065FB012116
:1015F0000122284605F0ECFA01210022284605F0D8
:101600006FFA284606F034FA49F648652146C2F2D8
:101610000045284605F00CFB022102220023284643
:10162000009605F049FB01210122284605F0D0FA79
:1016300001210022284605F053FA284606F018FA40
:101640000AB070BD0000000080B58AB00191082189
:1016500004910021CDE90211CDE90511CDE9071171
:10166000099101A905F078FA30B148F23C70C2F254
:1016700000400188013101800AB080BD00000000F7
:1016800094B040F6C41016F007F8B0EE009A49F690
:10169000A85B44F60C4847F2A00548F2646647F29E
:1016A0003834C2F2004B9FED2A8AC2F20048C2F2DF
:1016B0000045C2F20046C2F2004446E04AF2B530AC
:1016C000C2F200400078002801F0988047F23831DB
:1016D0002068C2F20041139004F10409B0EE480AF8
:1016E000D4E90476D4E906BAD4E908CED4E90A806C
:1016F000D1E90C45CDE9080404A847F2383499E84B
:101700000C0280E8005449F64860896BC2F200443C
:10171000C2F20040CDE90A511399CDF81C80CDE901
:101720000097CDE9026B01F057FC49F6A85B44F63F
:101730000C4847F2A00548F26466C2F2004BC2F2C0
:101740000048C2F20045C2F200464FF0000A0AE02B
:1017500000000000A18E49F64860C2F2004001F08E
:101760007FF884F837A040F60200C2F2004000780B
:10177000002800F0178118F083F84AF27831C2F29D
:1017800000410968411A0A29C0F0E2804AF2783122
:101790004AF28834C2F20041C2F2004408604AF2C0
:1017A000C440C2F200404AF2B841C2F20041D0F84F
:1017B00000C04AF2C840C2F20040D0F800804AF2AD
:1017C000D040C2F2004003684AF2D440C2F2004066
:1017D00002684AF2C040C2F2004005684AF2CC40BA
:1017E000C2F20040D0F800904AF2BC40C2F2004081
:1017F0000068096826681395CDE91132B4454FF0A9
:1018000001061FBF4AF28C34C2F200442768B84573
:101810001ED04AF29434C2F200442768BB421FBF74
:101820004AF29834C2F200442768BA4210D04AF211
:101830008434C2F200442768BD4209D04AF290378E
:10184000C2F200473E68A9EB0606B6FA86F67609AC
:101850004AF28C324AF28034C2F20042119BC2F248
:1018600000444AF27C3EC2F800804AF29432C2F24E
:10187000004227684AF2B63AC2F2004E13604AF2BA
:101880009832C2F20042129BC2F2004AC41BB4FA60
:1018900084F413604AF28432DEF80050C2F200424F
:1018A0009AF800B064098AF800404C1B4AF2B5353A
:1018B000139B13604AF290324AF2B733C2F20045EA
:1018C000C2F20042B4FA84F4C2F2004364092C70FC
:1018D0004AF28834C2F800901A78CEF800104AF222
:1018E0008031C2F20044C2F200414FF0000AC4F855
:1018F00000C01E70086062B15EB94AF2586140F2E1
:101900005562C2F20041C2F2004281F800A00121FA
:101910001170BBF1000F44F60C4847F2A00548F2E5
:10192000646647F2383449F6A85BC2F20048C2F256
:101930000045C2F20046C2F20044C2F2004B18BF9A
:10194000B84205D040F2E0710120C2F200410870B7
:101950004AF2B630C2F200400078002800F07A81E6
:10196000B0EE480A4FF40071584600F0B5FFB0EEF3
:10197000480A49F6085040F2FF11C2F2004000F058
:10198000ABFF012015F088FE98F87300002800F0E6
:101990008781B8F87010584600F062FF88F873A08D
:1019A00010E200BFB0EE480A4FF40071584600F054
:1019B00093FFB0EE480A49F6085040F2FF11C2F218
:1019C000004000F089FF012015F066FED8F83C00C9
:1019D000139044F60C4008F1580EC2F20040D8F8BB
:1019E00064B0D8E91023D8E91217D8E91465D0E912
:1019F0001A8AD0E91C900B9004A89EE81050B0EE13
:101A0000480A80E8105049F6A850CDE90017C2F204
:101A100000401399CDE909A9CDE90265CDE907B8E0
:101A200001F0DAFA47F2A00047F2A001C2F200404A
:101A3000C2F20041B0EE480AC06B139047F2A0001A
:101A4000C2F2004000F14009D1E91B45496F0B91FA
:101A500004A9D0E91376D0E915BAD0E917CED0E9B8
:101A60001980CDE9078049F6085099E80C0281E811
:101A70000054C2F200401399CDE90945CDE9009721
:101A8000CDE9026B01F0A8FA44F60C4044F60C4193
:101A9000C2F20040C2F20041B0EE480A0068139062
:101AA00044F60C40C2F2004000F10409D1E90C45B3
:101AB000896B0B9104A9D0E90476D0E906BAD0E984
:101AC00008CED0E90A80CDE9078049F6A85099E808
:101AD0000C0281E80054C2F200401399CDE9094597
:101AE000CDE90097CDE9026B01F076FA47F2A0004C
:101AF00047F2A001C2F20040C2F20041B0EE480A33
:101B00000068139047F2A000C2F2004000F10409FF
:101B1000D1E90C45896B0B9104A9D0E90476D0E991
:101B200006BAD0E908CED0E90A80CDE9078049F6A7
:101B3000085099E80C0281E80054C2F20040139961
:101B4000CDE90945CDE90097CDE9026B01F044FAF2
:101B5000012015F0A1FD48F2646048F26461C2F210
:101B60000040C2F20041B0EE480A0068139048F20B
:101B70006460C2F2004000F10409D1E90C45896BB0
:101B80000B9104A9D0E90476D0E906BAD0E908CED1
:101B9000D0E90A80CDE9078049F6486099E80C024F
:101BA00081E80054C2F200401399CDE90945CDE91E
:101BB0000097CDE9026B01F00FFA47F23830C2F21C
:101BC00000400068139047F23830C2F2004000F144
:101BD0000409D0E9047699E80C02D0E906BAD0E904
:101BE00008CED0E90A8047F23831B0EE480AC2F296
:101BF0000041CDF80CB0CDE90176D1E90C45CDE935
:101C0000080449F64860896B47F2383448F2646644
:101C1000CDE90A5147F2A00549F6A85BCDF81C8032
:101C200044F60C48C2F200401399C2F20044CDF8C9
:101C30000090C2F20045C2F20046CDF810A0C2F2F8
:101C4000004B4FF0000AC2F20048CDE905CE01F08A
:101C5000C3F988E54AF2B730C2F20040007858B3C1
:101C6000B0EE480A4FF40071584600F035FEB0EE71
:101C7000480A49F6085040F2FF11C2F2004000F055
:101C80002BFE012015F008FD98F87300002845D0C0
:101C9000B8F87010584600F0E3FD88F873A080E2B1
:101CA00098F87400002846D0B8F87010584601F033
:101CB00027FA88F874A085E040F63410C2F200409C
:101CC00000780028CCD044F6E4304FF40071C2F222
:101CD000004090ED050A5846B1EE400A00F0FCFDC8
:101CE00047F2780040F2FF11C2F2004090ED050A81
:101CF00049F60850C2F2004000F0EEFD012015F058
:101D0000CBFC98F87300002800F05C83B8F87010E2
:101D1000584600F0A5FD88F873A0A8E398F8740071
:101D2000002800F0F881B8F87010584601F0E8F982
:101D300088F874A035E2D8F83C00139044F60C40C3
:101D400044F60C4108F14009C2F20040D8E915BA46
:101D5000C2F20041CDF80CB049F6A85BB0EE480ADB
:101D6000C2F2004BCDF810A099E80C02D8E9137626
:101D7000D8E917CED0E91980D1E91B45496FCDF8D4
:101D80001C80CDE9080447F2383444F60C48CDE90C
:101D90000A5147F2A0055846CDE9017648F264663B
:101DA0001399C2F20044CDF80090C2F20045C2F28D
:101DB00000464FF0000AC2F20048CDE905CE01F01E
:101DC0000BF900BF95F8730050B1B5F8701049F6E3
:101DD0000850C2F2004000F043FD85F873A055E0C2
:101DE00095F8740050B1B5F8701049F60850C2F279
:101DF000004001F085F985F874A047E0E86B139086
:101E000047F2A00047F2A001C2F20040C2F2004136
:101E1000B0EE480A00F1580ED5E91023D0E9129728
:101E2000D0E9146BD0E91980D1E91B45CDE908044C
:101E300049F60850496F47F23834CDF80CB0CDE977
:101E40000A5147F2A00549F6A85BCDE9017648F2B0
:101E50006466CDF81C8044F60C48C2F20040139929
:101E6000C2F200449EE80054CDF80090C2F2004552
:101E7000C2F20046CDF810A0C2F2004B4FF0000AAB
:101E8000CDE905CEC2F2004801F0A6F898F8370077
:101E900038B1B8F83410584600F0E2FC88F837A0A2
:101EA00050E098F8380038B1B8F83410584601F0CE
:101EB00027F988F838A045E0D8F80000139044F6D8
:101EC0000C4044F60C4108F10409C2F20040D8E984
:101ED00006BAC2F20041CDF80CB049F6A85BB0EEEC
:101EE000480AC2F2004BCDF810A099E80C02D8E9DC
:101EF0000476D8E908CED0E90A80D1E90C45896B8F
:101F0000CDF81C80CDE9080447F2383444F60C487B
:101F1000CDE90A5147F2A0055846CDE9017648F2CD
:101F200064661399C2F20044CDF80090C2F20045F5
:101F3000C2F200464FF0000AC2F20048CDE905CED9
:101F400001F04AF895F8370048B1A98E49F60850D3
:101F5000C2F2004000F084FC85F837A054E095F808
:101F6000380048B1A98E49F60850C2F2004001F08D
:101F7000C7F885F838A047E02868139047F2A0001A
:101F800047F2A001C2F20040C2F20041B0EE480A9E
:101F900000F11C0ED5E90123D0E90397D0E9056BC8
:101FA000D0E90A80D1E90C45CDE9080449F608508A
:101FB000896B47F23834CDF80CB0CDE90A5147F2BD
:101FC000A00549F6A85BCDE9017648F26466CDF834
:101FD0001C8044F60C48C2F200401399C2F200443F
:101FE0009EE80054CDF80090C2F20045C2F20046CF
:101FF000CDF810A0C2F2004B4FF0000ACDE905CE9B
:10200000C2F2004800F0E8FF012015F045FB96F809
:10201000370048B1B18E49F64860C2F2004000F086
:102020001FFC86F837A05DE096F8380048B1B18E05
:1020300049F64860C2F2004001F062F886F838A024
:1020400050E03068139048F2646048F26461C2F274
:102050000040C2F2004106F10409B0EE480AF0EE79
:10206000480AB0EE481AF0EE481AB0EE482AD0E915
:1020700006BAD0E908CED0E90A80D1E90C45CDE90D
:10208000080449F64860896B99E80C02D6E90476A1
:1020900047F23834CDF80CB0CDE90A5147F2A0052B
:1020A00049F6A85BCDE9017648F26466CDF81C805C
:1020B00044F60C48C2F200401399C2F20044CDF835
:1020C0000090C2F20045C2F20046CDF810A0C2F264
:1020D000004B4FF0000ACDE905CEC2F2004800F0F7
:1020E0000FFF00BF94F8370000287FF433AB94F85B
:1020F0003800002840F0768304F10409206813902A
:1021000099E80C02D4E90476D4E906BAD4E908CEF9
:10211000D4E90A8067E5D8F83C00139044F60C40F7
:1021200044F60C4108F14009C2F20040D8E915BA62
:10213000C2F20041CDF80CB049F6A85BB0EE480AF7
:10214000C2F2004BCDF810A099E80C02D8E9137642
:10215000D8E917CED0E91980D1E91B45496FCDF8F0
:102160001C80CDE9080447F2383444F60C48CDE928
:102170000A5147F2A0055846CDE9017648F2646657
:102180001399C2F20044CDF80090C2F20045C2F2A9
:1021900000464FF0000AC2F20048CDE905CE00F03B
:1021A0001BFF95F8730050B1B5F8701049F6085050
:1021B000C2F2004000F054FB85F873A055E095F89A
:1021C000740050B1B5F8701049F60850C2F20040E2
:1021D00000F096FF85F874A047E0E86B139047F293
:1021E000A00047F2A001C2F20040C2F20041B0EEEE
:1021F000480A00F1580ED5E91023D0E91297D0E92A
:10220000146BD0E91980D1E91B45CDE9080449F6E2
:102210000850496F47F23834CDF80CB0CDE90A5177
:1022200047F2A00549F6A85BCDE9017648F264665D
:10223000CDF81C8044F60C48C2F200401399C2F25B
:1022400000449EE80054CDF80090C2F20045C2F26E
:102250000046CDF810A0C2F2004B4FF0000ACDE9C5
:1022600005CEC2F2004800F0B7FE98F8370038B14A
:10227000B8F83410584600F0F3FA88F837A050E068
:1022800098F8380038B1B8F83410584600F038FFE4
:1022900088F838A045E0D8F80000139044F60C40C8
:1022A00044F60C4108F10409C2F20040D8E906BA2C
:1022B000C2F20041CDF80CB049F6A85BB0EE480A76
:1022C000C2F2004BCDF810A099E80C02D8E90476D0
:1022D000D8E908CED0E90A80D1E90C45896BCDF860
:1022E0001C80CDE9080447F2383444F60C48CDE9A7
:1022F0000A5147F2A0055846CDE9017648F26466D6
:102300001399C2F20044CDF80090C2F20045C2F227
:1023100000464FF0000AC2F20048CDE905CE00F0B9
:102320005BFE95F83700002840F06C8195F8380086
:10233000002840F074812868139047F2A00047F20B
:10234000A001C2F20040C2F2004100F11C0EB0EE4A
:10235000480AD5E90123D0E90397D0E9056BD0E914
:102360000A80D1E90C45896BCDF80CB0CDE90804A1
:1023700047F2383449F6A85BCDE90A5147F2A00587
:10238000CDF81C80CDE9017648F2646644F60C482D
:1023900049F60850C2F200449EE80054CDF800907F
:1023A000C2F20045C2F20046CDF810A0C2F2004BC6
:1023B0004FF0000ACDE905CEC2F20048C2F200405B
:1023C000139980E198F8740038B1B8F87010584645
:1023D00000F096FE88F874A049E048F2604044F6A8
:1023E0000C41C2F2004008F14009D8E915BA90ED5D
:1023F000090AD8F83C00139044F60C40C2F20040A1
:10240000C2F20041CDF80CB049F6A85BC2F2004B15
:10241000CDF810A099E80C02D8E91376D8E917CEC8
:10242000D0E91980D1E91B45496FCDF81C80CDE971
:10243000080447F2383444F60C48CDE90A5147F213
:10244000A0055846CDE9017648F264661399C2F2B8
:102450000044CDF80090C2F20045C2F200464FF0B1
:10246000000AC2F20048CDE905CE00F0B5FD95F8AE
:10247000730050B1B5F8701049F60850C2F2004030
:1024800000F0EEF985F873A059E095F8740050B1AA
:10249000B5F8701049F60850C2F2004000F030FE66
:1024A00085F874A04BE048F20C5047F2A001C2F24C
:1024B0000040C2F20041D5E9102390ED0A0AE86B12
:1024C000139047F2A000C2F2004000F1580ED0E98C
:1024D0001297D0E9146BD0E91980D1E91B45CDE9F9
:1024E000080449F60850496F47F23834CDF80CB06B
:1024F000CDE90A5147F2A00549F6A85BCDE901767E
:1025000048F26466CDF81C8044F60C48C2F20040E4
:102510001399C2F200449EE80054CDF80090C2F234
:102520000045C2F20046CDF810A0C2F2004B4FF0B9
:10253000000ACDE905CEC2F2004800F04DFD98F842
:10254000370038B1B8F83410584600F089F988F8E7
:1025500037A054E098F8380038B1B8F8341058462D
:1025600000F0CEFD88F838A049E048F2604044F61B
:102570000C41C2F2004008F10409D8E906BA90ED16
:102580000A0AD8F80000139044F60C40C2F200404A
:10259000C2F20041CDF80CB049F6A85BC2F2004B84
:1025A000CDF810A099E80C02D8E90476D8E908CE55
:1025B000D0E90A80D1E90C45896BCDF81C80CDE9C2
:1025C000080447F2383444F60C48CDE90A5147F282
:1025D000A0055846CDE9017648F264661399C2F227
:1025E0000044CDF80090C2F20045C2F200464FF020
:1025F000000AC2F20048CDE905CE00F0EDFC95F8E6
:10260000370048B1A98E49F60850C2F2004000F0E8
:1026100027F985F837A059E095F8380048B1A98E18
:1026200049F60850C2F2004000F06AFD85F838A073
:102630004CE048F20C5047F2A001C2F20040C2F256
:102640000041D5E9012390ED090A2868139047F26B
:10265000A000C2F2004000F11C0ED0E90397D0E9BF
:10266000056BD0E90A80D1E90C45896BCDF80CB037
:10267000CDE9080447F2383449F6A85BCDE90A51A0
:1026800047F2A005CDF81C80CDE9017648F26466DA
:1026900044F60C4849F60850C2F200449EE8005443
:1026A000C2F20045C2F20046CDF810A0C2F2004BC3
:1026B0004FF0000AC2F20048C2F200401399CDF870
:1026C0000090CDE905CE00F087FC00BF012014F09A
:1026D000E3FF96F8370048B1B18E49F64860C2F280
:1026E000004000F0BDF886F837A071E096F8380099
:1026F00048B1B18E49F64860C2F2004000F000FDDA
:1027000086F838A064E040F2E07006F10C0CC2F2EA
:102710000040D6F830909CE80E100478CDF8409038
:10272000D6E9077E012C3068D6E90D491190706812
:102730001290B0681390706A0D90B06A0E90F06AB3
:102740000F9028D10C945C4648F61C0BB0EE480A5A
:10275000C2F2004BB0EE481A8DE80E1011ABF0EE4D
:10276000481AB0EE492A0D9806900E9807900F98D7
:102770000890109809900C98CDE90A0949F648602C
:10278000DBED000AC2F20040A3460ECBCDE9047E89
:1027900000F0B6FB17E08DE80E1009A90D98069021
:1027A0000E9807900F980890109811AB96ED060AB6
:1027B00081E8110249F64860C2F200400ECBCDE933
:1027C000047E00F009FC47F23834C2F2004400BF36
:1027D00094F8370000287EF4BDAF94F83800002844
:1027E0003EF46CAFA18E49F64860C2F2004000F0A2
:1027F00087FC84F838A0FEF7B6BF00BF47F2383137
:102800002068C2F20041139094ED060A04F1040915
:10281000D4E90476D4E906BAD4E908CED4E90A802A
:10282000D1E90C45CDE9080404A847F2383499E809
:102830000C0280E8005449F64860896BC2F20044FB
:10284000CDF81C80CDE90A51CDE90097CDE9026BA6
:10285000C2F200401399FEF766BF000000000000BE
:1028600080B582B009B24FF0FF32CDF8032000925C
:10287000FB228DF807206A46FEF7E6FE02B080BD17
:1028800002889FED121A12BA120C0A804288D2BA3C
:1028900000EE102AB8EEC00A80EE010A9FED0C1A75
:1028A00030EE000A20EE010A9FED0A1A80EE010ABE
:1028B00081ED010A428812BA120C0A81828812BA8A
:1028C000120C4A8180790873704700BF0000704283
:1028D000DA0F49407B146E4180B582B09FED221A19
:1028E000002280EE010A9FED211A49F6A8530192B9
:1028F0000092C2F2004380EE010AB3EE041A98423D
:1029000080EE010A9FED1A1A20EE010ABDEEC00A00
:1029100010EE102A04D144F6E433C2F200431A82C6
:1029200049F60853C2F20043984204D147F27803B3
:10293000C2F200431A8293B28DF801208DF8032071
:102940001B0A09B28DF805208DF807206A468DF81C
:1029500000308DF802308DF804308DF80630FEF727
:1029600073FE02B080BD00BF7B146E410AD7A33C4A
:102970000000804600000000027891ED090A30EE68
:10298000001A02F00F020A70027812094A70B0F8B9
:10299000012052BA02EE102AB8EE422A21EE021AA3
:1029A0009FED212A81EE021A31EE400A81ED010AE3
:1029B00091ED0A0AC278037930EE001A120142EA58
:1029C000131202EE102AB8EE422A21EE021A9FEDEF
:1029D000172A81EE021A31EE400A81ED020A91EDCA
:1029E000080A027930EE001A437902F00F0243EA36
:1029F000022203EE102AB8EE433A21EE031A81EECA
:102A0000021A31EE400A81ED030A827900EE102AA3
:102A1000B8EE400A81ED040AC07900EE100AB8EE63
:102A2000400A81ED050A704700FF7F4700F07F45AF
:102A300049F64810C2F2004002F01ABE0000000041
:102A400049F6C010C2F2004002F012BE00000000C1
:102A500049F65800C2F2004002F00ABE0000000031
:102A600049F2E070C2F2004002F002BE0000000035
:102A700049F61840C2F2004002F0FABD0000000022
:102A800049F69040C2F2004002F0F2BD00000000A2
:102A900049F63820C2F2004002F0EABD0000000012
:102AA00049F6B020C2F2004002F0E2BD0000000092
:102AB00049F62830C2F2004002F0DABD0000000002
:102AC00049F6A030C2F2004002F0D2BD0000000082
:102AD00049F6D000C2F2004002F0CABD000000007A
:102AE00040F20F42D0F800C0C4F20202944510DC5C
:102AF0006F22C4F20202944520DC3F22C4F202029B
:102B0000944536DC1022C4F20202944554D02822A7
:102B10004EE040F26F42C4F2020294451ADC40F2E9
:102B20003F42C4F2020294452ADC40F21042C4F251
:102B30000202944540D040F2284239E09F22C4F27C
:102B40000202944525DC7022C4F20202944533D07F
:102B500088222DE040F29F42C4F2020294451FDC1D
:102B600040F27042C4F20202944525D040F28842FD
:102B70001EE04022C4F2020294451DD0582217E004
:102B800040F24042C4F20202944515D040F258424D
:102B90000EE0A022C4F2020294450DD0B82207E054
:102BA00040F2B842C4F20202944505D040F2A0427D
:102BB000C4F20202944517D10CF0F8024AF6AB2396
:102BC000103ACAF6AA23A2FB033109A35F2AC1F374
:102BD00002115B5C40F2FF312CEA0101C36588BF42
:102BE00004318165084670472CF0FF01F9E700BF0A
:102BF000000610160006101670B540F26F44D0F8AB
:102C000000C0C4F20204D0F858E0A44519DC9F25A6
:102C1000C4F20205AC4531DC5725C4F20205AC45CF
:102C200056DC1025C4F20205AC4500F09280282540
:102C3000C4F20205AC4500F08C804025C4F20205C8
:102C400084E045F22F45C5F60205AC452BDC40F289
:102C5000B745C4F20205AC4548DC40F27045C4F209
:102C60000205AC4575D040F28845C4F20205AC457A
:102C70006FD040F2A045C4F2020567E040F227455C
:102C8000C4F20205AC4540DCA025C4F20205AC4507
:102C90005FD0B825C4F20205AC455AD040F21045C9
:102CA000C4F2020552E045F26B45C5F60205AC459B
:102CB0003CDC45F23045C5F60205AC4549D045F24D
:102CC0004445C5F60205AC4543D045F258453BE0C6
:102CD0005825C4F20205AC453BD07025C4F202056C
:102CE000AC4536D08825C4F202052FE040F2B84545
:102CF000C4F20205AC452CD045F20845C5F60205E4
:102D0000AC4526D045F21C451EE040F22845C4F2F1
:102D10000205AC451DD040F24045C4F20205AC4569
:102D200017D040F25845C4F202050FE045F26C4559
:102D3000C5F60205AC450CD045F29445C5F6020532
:102D4000AC4506D045F28045C5F60205AC4540F0DD
:102D5000CC80456EC66E002E866E6E601CBFD0E9BC
:102D60001C566E60A44515DC9F24C4F20204A445E1
:102D70002BDC5724C4F20204A4454EDC1024C4F218
:102D80000204A44576D02824C4F20204A44571D0DC
:102D900040246BE045F22F44C5F60204A44527DC2D
:102DA00040F2B744C4F20204A44542DC40F270444D
:102DB000C4F20204A4455DD040F28844C4F2020487
:102DC000A44557D040F2A04450E040F22744C4F25A
:102DD0000204A4453CDCA024C4F20204A44549D06A
:102DE000B824C4F20204A44544D040F210443DE0AB
:102DF00045F26B44C5F60204A44553DC45F2304469
:102E0000C5F60204A4455FD045F24444C5F6020469
:102E1000A44559D045F2584452E05824C4F2020463
:102E2000A44527D07024C4F20204A44522D08824EB
:102E30001CE040F2B844C4F20204A4451AD045F2A2
:102E40000844C5F60204A4453ED045F21C4437E0D0
:102E500040F22844C4F20204A4450BD040F240449E
:102E6000C4F20204A44505D040F25844C4F202045E
:102E7000A4453AD18468C06D00F01F003F2505FAD3
:102E800000F0CEF80800DCF80000402C20F4802090
:102E9000CCF80000CCF8043023D1CCF80820CCF8D2
:102EA0000C1070BD45F26C44C5F60204A4450BD06D
:102EB00045F28044C5F60204A44505D045F2944489
:102EC000C5F60204A44510D1C46D012504F01F0409
:102ED000806805FA04F4CEF804404028CCF80430A9
:102EE000DBD0CCF80810CCF80C2070BD000000003E
:102EF00000F12002818682EC030A70470000000086
:102F000010B582B09DED0A3A9DED0B4A30EE030AF2
:102F10009FED2E5A30EE846ABDF9381033EE033A35
:102F200020EE050A9FED2A5A34EE044A26EE056A81
:102F300080EE030A22EE052A86EE043A9DED094A48
:102F400031EE041A34EE044A21EE856A21EE051AA8
:102F5000B1EE045ABDEEC00ABDEEC33A81EE041ACA
:102F60009FED1C4A86EE044A10EE102A82EE052AD6
:102F700013EE103ABDEEC11A8DF80120BDEEC44A21
:102F8000140ABDEEC22A8DF8004011EE10CA1A09CB
:102F900014EE10EA8DF8022012EE104A8DF807C0E8
:102FA0008DF804E04FEA1E2242EA03128DF8032056
:102FB00022098DF80520220142EA1C228DF8062004
:102FC0006A46FEF741FB02B010BD00BF00FF7F471D
:102FD00000F07F450000FA4380B582B09DED091AEC
:102FE000002280FE410AADF80420B1EE412ABDF96D
:102FF0003810009280FE020A9FED0B2A30EE010A83
:1030000031EE011A20EE020A80EE010ABDEEC00A7E
:1030100010EE103A1ABA120CADF806206A46FEF706
:1030200013FB02B080BD00BF00F07F450000000030
:10303000704700000000000010B5044604F038FEA0
:1030400004EB840148F25472C2F2004202EB8101A7
:10305000486010BD0000000080B582B009B24FF09A
:10306000FF32CDF803200092FD228DF807206A463A
:10307000FEF7EAFA02B080BD80B5FEF7B1F801288C
:103080000DD148F228700021C2F200409FED1A0ACB
:1030900001604AF26C60C2F20040016023E04AF233
:1030A0005C3048F22871C2F20040C2F200419FED4C
:1030B000112A90ED000A4AF27060C2F2004091EDD0
:1030C000001AA0EE021A90ED003A4AF26C60C2F2C9
:1030D000004081ED001A90ED004AA3EE024A80ED17
:1030E000004A34EE410A48F22C70C2F2004080EDF2
:1030F000000A80BD6F12033B0000000000000000CA
:1031000080B582B009B24FF0FF32CDF803200092B3
:10311000FC228DF807206A46FEF796FA02B080BDC1
:1031200048F6340048F66801C2F20040C2F200419D
:1031300000780978C0B2084318BF704744F60C40C5
:1031400047F2A002C2F20040C2F2004290F83610EC
:1031500090F8720092F83630084392F8721048F2F4
:1031600064621843C2F2004247F23833C2F20043AD
:10317000084392F8362093F836101043084302D0E3
:10318000C820FEF751B97047EFF3108072B600BF48
:10319000FEE70000000000000DF02EFF002016F0FA
:1031A000E3F849F6A8540121C2F200442046FFF793
:1031B00053FF49F608550121C2F200452846FFF7A2
:1031C0004BFF49F648661121C2F200463046FFF730
:1031D00043FF012003F070FC02212046FFF73CFF73
:1031E00002212846FFF738FF10213046FFF734FF51
:1031F000012003F061FC9FED9A8A4FF40071B0EE5C
:10320000480A2046FFF768FBB0EE480A40F2FF117B
:103210002846FFF761FBFEF7DBF8642003F04CFC67
:103220000FF03AFF322003F047FCFEF7D1F864209C
:1032300003F042FC0FF030FF322003F03DFC47F278
:1032400028374AF27C184EF6285A49F6184B40F2B5
:103250000F49C2F20047C2F20048C2F2004AC2F26D
:10326000004BC4F202090BE0C4F20202904218BF04
:103270006FF00401026811400160012014F00CFAA3
:10328000002064210022002312F0FEF8642003F0E5
:1032900013FC01212046FFF7DFFE01212846FFF73E
:1032A000DBFE11213046FFF7D7FE012003F004FCBE
:1032B00002212046FFF7D0FE02212846FFF7CCFE70
:1032C00010213046FFF7C8FE012003F0F5FBB0EEF9
:1032D000480A4FF400712046FFF7FEFAB0EE480AA4
:1032E00040F2FF112846FFF7F7FA3878012804D09A
:1032F000012080F3138804F0E7FD00200021002264
:10330000002312F0C1F8642003F0D6FB012120460F
:10331000FFF7A2FE01212846FFF79EFE112130464D
:10332000FFF79AFE012003F0C7FB02212046FFF7BA
:1033300093FE02212846FFF78FFE10213046FFF74B
:103340008BFE012003F0B8FBB0EE480A4FF4007189
:103350002046FFF7C1FAB0EE480A40F2FF112846B6
:10336000FFF7BAFA3878012804D0012080F31388D7
:1033700004F0AAFD4FF480724046514607F028FF42
:10338000DBF800006FF00801484511DC6F22C4F241
:103390000202904222DC3F22C4F2020290423BDC55
:1033A0001022C4F2020290423FF464AF28225BE78D
:1033B00040F26F42C4F2020290421DDC40F23F42F2
:1033C000C4F2020290422FDC40F21042C4F2020228
:1033D00090423FF44FAF40F2284245E79F22C4F2AB
:1033E000020290422ADC7022C4F2020290423FF4B0
:1033F00041AF882238E700BF40F29F42C4F2020288
:10340000904223DC40F27042C4F2020290423FF448
:1034100031AF40F2884227E74022C4F202029042D4
:103420003FF428AF58221FE740F24042C4F20202A4
:1034300090423FF41FAF40F2584215E7A022C4F279
:10344000020290423FF416AFB8220DE740F2A042CC
:10345000C4F2020290423FF40DAF40F2B84203E7DB
:10346000000000000000000044F60C00C5F6020059
:10347000016841F00201016050F8081C8904FBD585
:10348000704700000000000049F60850C2F20040FA
:1034900003F0FEBC0000000049F60850C2F20040F4
:1034A00003F0F6BC0000000049F6A850C2F200404C
:1034B00003F0EEBC0000000049F6A850C2F2004044
:1034C00003F0E6BC0000000049F64860C2F200408C
:1034D00003F0DEBC0000000049F64860C2F2004084
:1034E00003F0D6BC00000000F0B5D1E900C4D1F86B
:1034F00008E00D692CB14EEA0C04254345F0804CE0
:1035000003E045EA8C4444EA0E0C856ED0F88470E2
:10351000D1E907466B438D6944EA0660D1F814E0AF
:10352000CC68054307EB830045EA0E0647F823C045
:1035300046EA04434360CB68002B08BFF0BD4AF65F
:10354000944C083001320023C0F6010CD71857F80C
:10355000017CC750CF6804331CF80770BB42F5D319
:10356000F0BD00000000000048F66900C2F2004013
:103570000078D0B19FED0F1A20EE010A9FED0E1AD0
:103580009FED0E2A20EE011A20EE022A20EE011AEB
:1035900022EE002AA1EE002A9FED091AA0EE012AD0
:1035A0009FED080A32EE000A70479FED010A70474E
:1035B0000000000000007A44E1BE2336348037BBAF
:1035C0000681853FD7A30AC246F67860C2F2004062
:1035D00090ED690A7047000046F67860C2F200403C
:1035E00090ED680A7047000046F67860C2F200402D
:1035F00090ED6A0A7047000082B09FED488AB3EEF2
:10360000040AB7EE001AF2EE041AB6EE002AF0EE43
:10361000482AF0EE483A48F69C00C2F20040DFED3E
:103620003D0A9FED3D3A0CF0DBFF16F029F940F220
:10363000E47648F2646B4FF2B03840F2E07948F635
:103640001C054EF6B467C2F20046C2F2004BC2F24D
:103650000048C2F20049C2F200459FED319AC2F221
:1036600000470DF1040A01900EE000BF4EF6B6616E
:10367000DBF81C00C2F2004128600020088038807E
:103680000221504614F010F896ED000ADBED010A15
:1036900013F036FD99F8000088ED000A0128E5D105
:1036A000544648F69C0AF0EE480AC2F2004A5046D8
:1036B0000DF016F850460DF01BF898ED001A85ED48
:1036C000000AB0EEC11AB4EE491AF1EE10FA0DDCA0
:1036D00048F66A034EF6B662C2F20043C2F20042F6
:1036E0001888118801301880481C108048F66A003C
:1036F000A246C2F2004000886428C1D348F66A029C
:103700003888C2F20042002189F80010013011808F
:10371000B5E700BF0AD7233C9A99993E0000000004
:103720008FC2F53C000000002DE9F04F81B02DED77
:10373000108B11F065FA40F6482449F25577C2F231
:10374000004449F2107949F2347B49F23876207806
:1037500049F23C78C2F20047C2F200490128C2F2A5
:10376000004BC2F20046C2F2004803D1387800286C
:1037700000F05481BAEE010A48F6CC20C2F20040B3
:10378000CA46043800219FEDE01A9FEDE02A00BFF1
:103790008AB2B0EE424A03EE102A0131021D12290C
:1037A000B8EE433A33EE003AA3EE014A80ED014A07
:1037B0001046EDD148F614304FF43471C2F2004097
:1037C000FCF775FF49F2B4004FF43471C2F20040C7
:1037D000FCF76DFF48F6E4504FF43471C2F200403C
:1037E000FCF765FF49F284304FF43471C2F20040B7
:1037F000FCF75DFF49F25C60B421C2F20040FCF7C7
:1038000056FF48F6D4000025C2F20040B2EE04BADA
:10381000B7EE008AB0EE08AA056048F6CC00C2F206
:103820000040B0EE00CA9FEDBADAB0EE4B0A056078
:1038300048F6D800C2F200409FEDB69AF0EE490A71
:10384000B0EE481A056048F6D000C2F20040F0EE33
:103850004A1AB0EE4C2AF0EE492AB0EE4D3AF0EE9C
:10386000493A056048F64C10C2F200400CF0B8FE30
:10387000B0EE4B0AF0EE490AB0EE481AF0EE4A1AE2
:10388000B0EE4C2AF0EE492AB0EE4D3AF0EE493A4D
:1038900048F60C20C2F200400CF0A2FEB1EE04CAC1
:1038A0009FED9DDA9FED9DEAF0EE480A9FED9CFAB0
:1038B000B0EE4D1A9FED9BBAB0EE4C0AF0EE4E1AE8
:1038C000B0EE4F2AF0EE492AB0EE4B3AF0EE493A0C
:1038D00048F67C10C2F200400CF082FEB0EE4D1AA9
:1038E000F0EE4E1AB0EE4F2AB0EE4C0AF0EE480A57
:1038F000F0EE492AB0EE4B3AF0EE493A48F63C2059
:10390000C2F200400CF06CFEB1EE00DA9FED86EAE8
:10391000B0EE4C0AF0EE490AB0EE4E1AF0EE4C1A38
:10392000B0EE4D2AF0EE492AB0EE493AF0EE493AAF
:1039300048F6AC10C2F200400CF052FEB0EE4C0A59
:10394000F0EE490AB0EE4E1AF0EE4C1AB0EE4D2AE7
:10395000F0EE492AB0EE493AF0EE493A48F66C20CA
:10396000C2F200400CF03CFE9FED70CAB0EE4A0A75
:10397000F0EE4E0AB0EE481AF0EE4C1AB0EE4C2AB9
:10398000F0EE492AB0EE4B3AF0EE493A48F6DC1038
:10399000C2F200400CF024FEB0EE4A0AF0EE4E0AED
:1039A000B0EE481AF0EE4C1AB0EE4C2AF0EE492A6E
:1039B000B0EE4B3AF0EE493A48F69C20C2F2004095
:1039C0000CF00EFE49F25460D146C2F200408AF873
:1039D000005088F80050058049F25660C2F200405D
:1039E000ABF800503D70058049F25470C2F20040BF
:1039F00005700020CCF2F010306049F23D70C2F248
:103A00000040057049F23E70C2F20040058049F264
:103A10004070C2F2004005800120207048F6DC05AD
:103A2000B246C2F20045284614F0BEF848F6EC064D
:103A3000C2F20046304614F0B7F849F21470C2F2F0
:103A4000004014F0B1F849F22470C2F2004014F0C2
:103A5000ABF899F80000012872D89FED2E8ABBF8C8
:103A6000000056469AED000A48F2604AF0EE480A15
:103A7000C2F2004A0130ABF80000504611F0E8FBFA
:103A800048F20C54F0EE480AC2F2004496ED000AE7
:103A9000204611F0DDFB44F6E432BBF80010C2F220
:103AA000004200206429506147F27802C2F20042CD
:103AB0005061C0F0FF809AED160A49F23E72B0EEF6
:103AC000C00A9FED1B1AC2F20042002749F23D7561
:103AD000B4EE410A94ED160AB0EEC00A1388F1EE76
:103AE00010FAB8BF5F1CB4EE410AC2F20045F1EE15
:103AF00010FA178080F2E78049F24070C2F200406D
:103B000000880130DFE000BFC2B8B23EDA0FC9BFA3
:103B10000000484300000000000020420000C842AE
:103B20000000A0420000FA44CDCCCC3D000016437A
:103B30000AD7233C0AD723BCCDCC4C3F6F12033BA2
:103B400048F2604748F64C14C2F20047C2F2004403
:103B500048F67C1AC84648F60C2948F6AC1B97ED87
:103B6000150AD5ED000A2046C2F2004AC2F2004909
:103B7000C2F2004B0CF0B4FD20460CF0B9FD97EDFD
:103B8000160AD4ED090A50460CF0AAFD50460CF076
:103B9000AFFD48F20C54D6ED000AC2F2004448468C
:103BA00094ED150A0CF09CFD48460CF0A1FD48F67A
:103BB0003C2594ED160AC2F20045D9ED090A2846C3
:103BC0000CF08EFD28460CF093FD49F2147097ED31
:103BD0001A0AC2F20040D0ED000A58460CF018FD57
:103BE00058460CF085FD48F6DC1697ED1B0AC2F22C
:103BF0000046DBED090A30460CF072FD3046B14656
:103C00000CF076FD49F2247048F66C26C2F20040B2
:103C1000C2F2004694ED1A0AD0ED000A30460CF0CC
:103C2000F7FC30460CF064FD94ED1B0A96ED091A82
:103C3000B1EE400A48F69C26F1EE410AC2F2004677
:103C400030460CF04DFD30460CF052FD9AED090A5D
:103C5000D9ED090A384611F0FBFA96ED090A20461B
:103C6000F1EE400A95ED090A11F0F2FA98F8000019
:103C700044F6E432C2F20042C146042847F278001A
:103C8000C2F200404FF000015161416140F00582F5
:103C900049F24874C2F200442078002800F04B81B9
:103CA00049F24470C2F200400168002900F0A58189
:103CB0000139E7E149F23E7249F23D75C2F2004234
:103CC000C2F20045108098F80020002A49F24072A4
:103CD000C2F2004210801ED140F6B732914207D89E
:103CE00049F23E72C2F200421288B2F5FA7F12D354
:103CF00099F8002048F6D40348F6CC07C2F20043F6
:103D0000C2F20047002A08BF1F46012288F800209F
:103D1000DAF854203A6080B240F6B73399422B78F3
:103D20004FF000024FF000014FEA900088BF0121E0
:103D30007C2888BF01229BB951EA020010D099F873
:103D4000000048F6D80148F6D002C2F20041C2F2A3
:103D50000042002808BF0A4601202870606D1060EC
:103D600098F80000002800F07F832878002800F0F1
:103D70007B8399F80000002800F0F78048F6D40013
:103D80001FED951AC2F200401FED963A48F6241531
:103D900048F6FC0690ED000A48F6CC00C2F200405E
:103DA00030EE010AC2F20045C2F2004690ED002A50
:103DB00048F6D800C2F2004032EE032AC846321F4D
:103DC00090ED004A48F6D000C2F2004034EE011AED
:103DD00032EE402A002190ED004A281F34EE033ACB
:103DE000B2EE024A33EE413A8BB2B0EE406A05EED3
:103DF000103A0131031D0A29B8EE455A85EE045ADE
:103E0000A2EE056A82ED016AB0EE416A02F1040297
:103E1000A3EE056A80ED016A1846E5D148F64C101C
:103E2000C2F200400CF0D8FB48F67C10C2F2004011
:103E30000CF0D2FB48F60C20C2F200400CF0CCFB98
:103E400048F63C20C2F200400CF0C6FB48F6AC102D
:103E5000C2F200400CF0C0FB48F6DC10C2F2004099
:103E60000CF0BAFB48F66C20C2F200400CF0B4FB38
:103E700048F69C20C2F200400CF0AEFB49F25460C0
:103E80000027C2F200401FEDD4AA1FEDD4BAB0EE55
:103E90004A1A078049F25660C2F20040F0EE4B1A0F
:103EA000D6ED000A9AED150A078048F6CC20C2F23A
:103EB000004095ED008A90ED009A48F6DC00C2F2D1
:103EC000004013F04DFEF0EE480AB0EE4A1AF0EE54
:103ED0004B1A48F6EC0094ED150AC2F2004013F0BC
:103EE0003FFEF0EE490AB0EE4A1AF0EE4B1A49F2E4
:103EF00014709AED1A0AC2F2004013F031FEF0EE8F
:103F0000490AB0EE4A1AF0EE4B1A49F2247094EDC9
:103F10001A0AC2F2004013F023FE49F25A60C2F2BC
:103F20000040078049F25860C2F20040078002203A
:103F300088F8000098E24FF45C70FDF775FA49F2DA
:103F40004475C2F2004528680138286040F0A58019
:103F50000FF0A2F80120207049F24C700021C2F24B
:103F6000004001606420286097E048F64C10C2F2DF
:103F700000400CF031FB48F67C10C2F200400CF01F
:103F80002BFB48F60C20C2F200400CF025FB48F653
:103F90003C20C2F200400CF01FFB48F6AC10C2F20D
:103FA00000400CF019FB48F6DC10C2F200400CF0A7
:103FB00013FB48F66C20C2F200400CF00DFB48F6F3
:103FC0009C20C2F200400CF007FB49F23E71012038
:103FD000C2F2004189F800000020C4F2F010306005
:103FE0000020088049F2407188F80000C2F20041C8
:103FF0002870ABF80000088036E249F24C71C2F23A
:1040000000410A68B42A05D248F614371346C2F2B2
:1040100000471DE0D3082C2B06D849F2B407A2F1C3
:10402000B403C2F2004713E09308862B06D848F683
:10403000E457A2F5B473C2F2004709E013092C2B30
:1040400000F2178249F28437A2F50773C2F20047E3
:104050004CF6CD46CCF6CC46A3FB0665EE0806EB47
:104060008606A3EB460307EBC60707EB830393ED36
:10407000000A49F250730132C2F200430A6064211F
:1040800083ED000A49F24C720160C2F200421268EC
:10409000B2F5347F01D30220207049F2586B49F207
:1040A0005661C2F2004B49F25462C2F20041C2F2C0
:1040B0000042BBF8000048F6FC080988128801306D
:1040C00048F6241AABF8000048F6CC20C2F20048AB
:1040D000C2F2004AC2F2004008EB81030AEB810100
:1040E00099F8007000EB82004E4693ED001A022F03
:1040F00091ED000A90ED008A3FD148F6DC00C2F253
:10410000004090ED002A32EE412AB0EEC23A9FED17
:10411000DB2AB4EE423AF1EE10FA2EDA48F6EC0061
:10412000C2F2004090ED003A33EE403AB0EEC33AAE
:10413000B4EE423AF1EE10FA1FDA49F21470C2F20C
:10414000004090ED003A33EE483AB0EEC33AB4EE98
:10415000423AF1EE10FA10DA49F22470C2F200404D
:1041600090ED003A33EE483AB0EEC33AB4EE423A3C
:10417000F1EE10FA01DA032030703078032840F0B5
:10418000738148F2604049F25A64C2F20040C2F2C0
:10419000004490ED152A32EE411AB0EEC12A9FED8F
:1041A000B81AB4EE412AF1EE10FA6DDA48F20C506A
:1041B000C2F2004090ED152A32EE400AB0EEC00A7D
:1041C000B4EE410AF1EE10FA5EDA48F26040B0EE69
:1041D000480AC2F20040D0ED1A0A0DF071FEB0EEAE
:1041E000C00A9FEDA89AB4EE490AF1EE10FA4BDA34
:1041F00048F20C50B0EE480AC2F20040D0ED1A0A64
:104200000DF05EFEB0EEC00AB4EE490AF1EE10FA0F
:104210003ADA48F26040C2F2004090ED160AB0EE81
:10422000C01A9FED990AB4EE401AF1EE10FA2BDA9B
:1042300048F20C50C2F2004090ED161AB0EEC11ACE
:10424000B4EE401AF1EE10FA1EDA48F26040C2F203
:10425000004090ED1B0AB0EEC01A9FED8C0AB4EE40
:10426000401AF1EE10FA0FDA48F20C50C2F2004098
:1042700090ED1B1AB0EEC11AB4EE401AF1EE10FA2E
:1042800002DA2088013000E0002081B22080890815
:104290007C2905D8BBF80000B0F57A6FC0F0E48047
:1042A00049F2546E49F2566CC2F2004EC2F2004C12
:1042B0007C294FF00001BEF8000048F6143788BF93
:1042C0000121BCF80030C2F2004700EB800249F245
:1042D000B40548F26044C2F2004507EBC207C2F2DF
:1042E000004405EBC205D4F88C6047F8236048F61B
:1042F000E457D4F8944045F82340C2F2004748F20E
:104300000C5407EBC207C2F2004449F28436C2F2F1
:104310000046D4F88C5047F8235049F25C6706EB0E
:10432000C206C2F20047D4F8944007EB42025F1C79
:1043300046F82340BEB2D1540A2E4FF00001ACF82B
:10434000007007D349F256620130C2F20042AEF863
:1043500000001180BEF80000122823D349F25470E7
:104360000121C2F2004040F6C4120170042089F815
:10437000000049F24870C2F200400021017049F289
:104380004C70C2F20040016049F24471C2F2004137
:104390004FF45C700A60BDEC108B01B0BDE8F04FCB
:1043A000FDF742B849F2566148F6CC23C2F200410B
:1043B000C2F2004303EB800048F2604409889FED9D
:1043C00034AA9FED34BAC2F20044B0EE4A1AF0EEBD
:1043D0004B1A08EB810290ED009A0AEB810148F636
:1043E000DC00D2ED000A94ED150AC2F2004091ED16
:1043F000008A13F0B5FB48F20C55F0EE480AC2F201
:104400000045B0EE4A1AF0EE4B1A48F6EC0095ED76
:10441000150AC2F2004013F0A3FBF0EE490AB0EE19
:104420004A1AF0EE4B1A49F2147094ED1A0AC2F2CD
:10443000004013F095FBF0EE490AB0EE4A1AF0EE98
:104440004B1A49F2247095ED1A0AC2F2004013F09B
:1044500087FB49F25A610020C2F20041ABF800002C
:104460000880022089F80000BDEC108B01B0BDE887
:10447000F08F9FED010AFCE50000000017B7D1386E
:10448000A69B443B0AD7A33C0AD7233CCDCC4C3D4A
:10449000CDCC4C3F6F12033B90F85C20012A01D138
:1044A0000220704770B582B042F20835012280F8D0
:1044B0005C2000230193C4F202050093A5F5427429
:1044C0000368A34228D14FF6006CCFF6FF7C55F865
:1044D0000C409A68224352071ED4D1F800E02A68A3
:1044E000BEF1000F22F4404423D043F4807242F224
:1044F0000013C4F202034E689A4244EA06022A609C
:104500002BD14FF60052CFF6FF72AA5855F80C3057
:104510001343DA073FD127E0016E41F02001016625
:104520000121002280F85C2002B0BDE870400846FE
:10453000704742F2001243F48071C4F202022C6010
:1045400091421AD14FF60051CFF6FF71695855F8D4
:104550000C201143C9071ED116E046F20802C5F629
:1045600002021368DA0716D12A6840F61F739A43CD
:104570008968114341EA0E010AE046F20801C5F6D6
:1045800002010968C90706D1296840F61F729143E4
:1045900029600021C5E70021C3E7000000000000FA
:1045A0002DE9F04181B00022009290F85C20012AB0
:1045B00001D10221C5E20268012380F85C309368D2
:1045C0005B0700F1B68246F2083C4FF6FF78C5F66D
:1045D000020CC0F20F08ACF5427E0B68724512D097
:1045E000002B10D493FAA3F413EA080FB4FA84F45E
:1045F0004FF0010508BF9C0E04F01F0405FA04F4F7
:10460000D5692C43D4614C681F26C3F38463C4F37B
:10461000012504F01F04A64002EB8505A3402F6B83
:1046200027EA060633432B639368946803F0040378
:1046300004F008041B1940F006810B6807268D68FA
:104640007245C3F34064C3F3045302EB840406FAD7
:1046500003F6676905FA03F327EA060643EA060349
:1046600063610FD041F20003C5F600431B6803F0FD
:104670007043B3F1805F10D14B69D4680E2505EA11
:10468000540416E04FF604544B69CFF6FF74062528
:104690005CF8044005EA94040BE0D4684B69D568E3
:1046A000E4064FEA550502D405F00E0401E005F0DA
:1046B00008040E6903FA04F5042E24D1724530D0A3
:1046C000136E0C6803F0F845A3069D4203D1146EE7
:1046D00024F000441466546E04F0F8449C4203D164
:1046E000546E24F000445466946E04F0F8449C42E6
:1046F00003D1946E24F000449466D46E04F0F84420
:104700009C425FD09FE002F160030F68724507F0A2
:10471000F84753F826405AD004F000443C4425435F
:1047200059E04FF65853CFF6FF735CF80330136E21
:104730000C68C3F3846314EA080F94FAA4F5B5FA7D
:1047400085F508BFC4F38465AB4203D1136E23F033
:1047500000431366536E536E0C6814EA080F94FA04
:10476000A4F5B5FA85F508BFC4F38465C3F3846383
:10477000AB4203D1536E23F000435366936E936EA6
:104780000C6814EA080F94FAA4F5B5FA85F508BF89
:10479000C4F38465C3F38463AB4203D1936E23F007
:1047A00000439366D36ED36E0C6814EA080F94FA34
:1047B000A4F5B5FA85F508BFC4F38465C3F3846333
:1047C000AB4240D1D36E23F00043D3663BE045EAD1
:1047D000070444F0004543F8265072450D691BD08C
:1047E00091F821400E7E53F8257027F00047012CE8
:1047F00008BF07F10047741EB4FA84F443F825702B
:1048000063090C69DB02156904F01F0425F4F04507
:10481000A3402B43136116E0ACF52A72CB6952F822
:10482000254024F08074234342F825300B6991F829
:10483000204052F82350012C25F0007508BF05F1E7
:10484000007542F8235002689368DB0740F02C8122
:104850000B68CD68724503EA080105F018060BD015
:10486000D2F8C04028FA06F624EA010106EA030459
:104870002143C2F8C0100DE04FF6A85428FA06F6FE
:10488000CFF6FF741E405CF8047027EA0101314343
:104890004CF804100021C4F2527101F52D04A54218
:1048A00040F0FF8046F20004C5F60204A2423FD069
:1048B00042F20014C4F20204A24224D042F20004E4
:1048C000C4F20204A2424CD11F24C1F2F044A3421C
:1048D0001EDD40F2FF74C2F63064A34249DD40F6AB
:1048E0000004C2F63064A34200F0AC8041F2000440
:1048F000C3F26024A3427CD00024C4F22134A3423A
:1049000000F0BA80A3E01F21C1F2F0418B422ADC03
:104910000721C0F690418B424DDC0221C0F23041AC
:104920008B4253D00421C0F660018B4215D08EE03B
:104930001F21C1F2F0418B4227DC0721C0F69041D4
:104940008B425BDC0221C0F230418B423ED004211D
:10495000C0F660018B4240F084804021C1F62011F6
:104960008AE0002188E040F2FF71C2F630618B429C
:1049700033DC2021C1F2F0418B4229D040F20041CA
:10498000C2F600218B4211D061E040F2FF71C2F605
:1049900030618B4245DC2021C1F2F0418B4217D0BF
:1049A00040F20041C2F600218B425AD140F600018C
:1049B000C2F6306160E00821C0F690418B422CD0F5
:1049C0001021C1F2C0018B4222D040E0012153E00E
:1049D00040F20021C2F2B0514EE040F60001C2F6B2
:1049E00030618B422ED041F20001C3F260218B4234
:1049F0002DD142F20001C3F290613DE00821C0F6E2
:104A000090418B4209D01021C1F2C0018B4228D1C4
:104A100040F20011C2F280112EE08021C1F6505107
:104A20002AE040F60001C2F630618B420AD042F221
:104A30000001C3F290618B4213D144F20001C3F62E
:104A4000C02119E041F20001C3F2602114E000240A
:104A50000021C4F68434A34204BF0021C4F6B87117
:104A60000AE044F200040021C3F6C024A34204BFBC
:104A700048F20001C3F6F061724512D091FAA1F438
:104A80004FF6C135B4FA84F4C0F20A05294208BFD2
:104A90008C0E04F01F01012404FA01F1D4692143B2
:104AA000D161B3F1FF3F01DD002147E042F2000197
:104AB00042F20016C4F20201C4F2020601F580744B
:104AC00001F54275A242644608BF2C468A4208BFDF
:104AD0002C4642F48075B542246822D18D68D1F805
:104AE00008112943C90724D1002104F0E075CCF254
:104AF00052718B4208BF14F4000126D00021CCF281
:104B000021318B4249D10021B1EB156F45D172455E
:104B100014D1DCF8001021F0E071294341F08071DC
:104B20004EE04FF60051CFF6FF715CF80110C90757
:104B3000DAD0016E41F0200101660121002280F8E7
:104B40005C20084601B0BDE8F0817245ACD1DCF8CC
:104B5000001042F6635221F0E071C0F23E52294348
:104B600041F40001CCF8001040F2FC51C2F20041C7
:104B700009688909A1FB02129109022202EB410195
:104B80000091009900298FD0009901390091009976
:104B900000294FF00001F7D1D0E772454FF0000136
:104BA000CCD10022CCF68432934208BF14F48002A8
:104BB000C4D1DCF8001021F0E071294341F48001F8
:104BC000CCF8001070E70000B0B582B000284FF0BC
:104BD0000001019141D0016E39B9044600F034F969
:104BE00020460021616684F85C1001688A689200A2
:104BF0004FF6C072C5F6FF7202D58B6813408B600A
:104C00008B68DB001CD48B6802F180521A4042F69C
:104C1000635342F080528A6040F2FC52C0F23E532D
:104C2000C2F2004212689209A2FB0323012202EBA6
:104C3000931200BF0192019A12B1019A013AF9E769
:104C40008A68D2000BD4026E012442F01002026680
:104C5000426E42F00102426602E00124EFE00024CD
:104C60008A68036E03F0100302F00402D218026E89
:104C700036D122F4817246F2000C023202668A6852
:104C8000C5F6020CD20722D142F2001341F4807221
:104C9000C4F202039A4242F20002C4F202022DD18F
:104CA0009368D2F808512B43DB0710D102F58073CB
:104CB0009942634608BF1346914208BF0B464268BB
:104CC000D3F8085325F47C152A43C3F80823427E01
:104CD000C36B614543EA423306D082681A431BE046
:104CE00042F010010124A9E0D0E90225082A0CD0E5
:104CF0000C2A08D01C2A0AD110220BE0DCF808305C
:104D0000DB07D3D0E3E7082204E0002202E0182A00
:104D100018BF00222A431A4390F82030012B42EAA0
:104D2000034306D1426A0025CFF6FE7505EB4242E9
:104D30001343826A22B102F47872C56A2A4313438C
:104D4000614508D04CF20305CA68CFF6F0752A40D9
:104D50001A43CA600EE044F20705DCF80C20CFF6D7
:104D6000F0752A401A43CA600A69436B22F0406218
:104D70001A430A618A688B6802F0040203F0080390
:104D8000D2184CD1027E61454FEA823202D0036BC9
:104D90001A4303E090F8383042EA4302CB6844F209
:104DA0000305AB431A43CA6090F84420012A17D187
:104DB0004FF61E026145CFF6004215D00B6903EA9B
:104DC000020E0122D0E91235CFF6FF7202EB034248
:104DD00045EA0E03056D1A43436D2A431A4310E05A
:104DE0000A6922F001020CE0DCF810301A40D0E928
:104DF00012351A43036D2A43456D1A432A4342F084
:104E000001020A6161450A69036C22F0704242EABC
:104E100003020A6103D00546FBF716FD2846016828
:104E200002690B6B012A23F00F0202D1C369013B17
:104E30001A430A630122016E62F3010101662046F2
:104E400002B0B0BD00000000B0B5B6B0044602A884
:104E5000B8210025CDE93455CDE932553195FBF720
:104E600026FC42F200012068C4F20201884201D00F
:104E700036B0B0BD4FF40020029002200490102400
:104E80000395CDE90540CDE90700C0200B95CDE99C
:104E9000090502A82A9503F0AFFB08B1FEF774F9E3
:104EA00044F2D840C5F60200016841F020010160DB
:104EB000016801F0200101910199816841F004012C
:104EC0008160806831A900F00400019001980320FE
:104ED00032900020339040F60000C5F60200319475
:104EE00002F00AFE36B0B0BD2DE9F041044602F0F2
:104EF000DFFE14B3054694F83500022820D140F2B5
:104F00000F472668C4F2020740F26F48BE426FF0B6
:104F10000E00C4F2020817DC6F21C4F202018E42B7
:104F200023DC3F21C4F202018E4239DC1021C4F29D
:104F300002018E4258D0282151E00120BDE8F081C5
:104F400080206065012037E246451ADC40F23F418F
:104F5000C4F202018E422ADC40F21041C4F2020186
:104F60008E4241D040F2284139E09F21C4F2020133
:104F70008E4225DC7021C4F202018E4234D0882199
:104F80002DE040F29F41C4F202018E421FDC40F24C
:104F90007041C4F202018E4226D040F288411EE0E8
:104FA0004021C4F202018E421ED0582117E040F287
:104FB0004041C4F202018E4216D040F258410EE048
:104FC000A021C4F202018E420ED0B82107E040F2C7
:104FD000B841C4F202018E4206D040F2A041C4F2B0
:104FE00002018E42314607D13146306820F01E0062
:104FF00041F8140B6FF080000A68464500EA020091
:10500000086019DC9F20C4F20200864231DC572080
:10501000C4F20200864256DC1020C4F2020086422E
:1050200000F091802820C4F20200864200F08B80BC
:105030004020C4F2020084E045F22F40C5F6020091
:1050400086422BDC40F2B740C4F20200864248DCC4
:1050500040F27040C4F20200864274D040F28840B0
:10506000C4F2020086426ED040F2A040C4F20200B8
:1050700067E040F22740C4F20200864240DCA020F4
:10508000C4F2020086425ED0B820C4F2020086421A
:1050900059D040F21040C4F2020052E045F26B4099
:1050A000C5F6020086423CDC45F23040C5F60200FF
:1050B000864248D045F24440C5F60200864242D0BE
:1050C00045F258403BE05820C4F2020086423AD0F4
:1050D0007020C4F20200864235D08820C4F202005B
:1050E0002FE040F2B840C4F2020086422BD045F2D5
:1050F0000840C5F60200864225D045F21C401EE05D
:1051000040F22840C4F2020086421CD040F24040E7
:10511000C4F20200864216D040F25840C4F20200A7
:105120000FE045F26C40C5F6020086420BD045F216
:105130009440C5F60200864205D045F28040C5F68F
:105140000200864204D1206E016821F48071016062
:10515000306820F0010030603068C0070BD002F0EA
:10516000A7FD401B0628F7D320206065032084F8A4
:105170003500012020E120680821B8424FF03F02AD
:1051800010DC6F23C4F2020398421CDC3F23C4F2FC
:105190000203984232DC1023C4F20203984251D039
:1051A00028234AE040451ADC40F23F43C4F20203A0
:1051B00098422ADC40F21043C4F20203984241D0E4
:1051C00040F2284339E09F23C4F20203984225DCD1
:1051D0007023C4F20203984234D088232DE040F2B9
:1051E0009F43C4F2020398421FDC40F27043C4F2B2
:1051F0000203984226D040F288431EE04023C4F2C6
:10520000020398421ED0582317E040F24043C4F2F4
:105210000203984216D040F258430EE0A023C4F295
:10522000020398420ED0B82307E040F2A043C4F234
:105230000203984206D040F2B843C4F202039842F7
:1052400040F0BF80D4E9163707F01F07404502FA47
:1052500007F25A5019DC9F21C4F20201884231DC66
:105260005721C4F20201884256DC1021C4F2020127
:10527000884200F091802821C4F20201884200F0A7
:105280008B804021C4F2020184E045F22F41C5F633
:10529000020188422BDC40F2B741C4F2020188428D
:1052A00048DC40F27041C4F20201884274D040F2FE
:1052B0008841C4F2020188426ED040F2A041C4F29B
:1052C000020167E040F22741C4F20201884240DC5B
:1052D000A021C4F2020188425ED0B821C4F20201CA
:1052E000884259D040F21041C4F2020152E045F226
:1052F0006B41C5F6020188423CDC45F23041C5F6FF
:105300000201884248D045F24441C5F60201884274
:1053100042D045F258413BE05821C4F20201884294
:105320003AD07021C4F20201884235D08821C4F2FB
:1053300002012FE040F2B841C4F2020188422BD0B2
:1053400045F20841C5F60201884225D045F21C41CC
:105350001EE040F22841C4F2020188421CD040F213
:105360004041C4F20201884216D040F25841C4F2D2
:1053700002010FE045F26C41C5F6020188420BD0F4
:1053800045F29441C5F60201884205D045F28041BC
:10539000C5F6020188420BD1616EA26EE06E4A60D2
:1053A00030B1016821F480710160D4E91C014160D1
:1053B000012084F835000020002184F83410BDE875
:1053C000F081042101223DE7F0B190F83510022967
:1053D00018D180B540F20F420168C4F20202914236
:1053E00014DC6F23C4F20203994224DC3F23C4F28D
:1053F000020399423ADC1023C4F20203994258D0C6
:10540000282352E0802141650120704740F26F431C
:10541000C4F2020399421ADC40F23F43C4F2020391
:1054200099422ADC40F21043C4F20203994240D070
:1054300040F2284339E09F23C4F20203994225DC5D
:105440007023C4F20203994233D088232DE040F246
:105450009F43C4F2020399421FDC40F27043C4F23E
:105460000203994225D040F288431EE04023C4F253
:10547000020399421DD0582317E040F24043C4F282
:105480000203994215D040F258430EE0A023C4F223
:10549000020399420DD0B82307E040F2B843C4F2AA
:1054A0000203994205D040F2A043C4F2020399429C
:1054B0006ED191424FF0040280F8352010DC6F204D
:1054C000C4F20200814220DC3F20C4F2020081428B
:1054D00036DC1020C4F20200814253D028204EE076
:1054E00040F26F40C4F2020081421ADC40F23F40B9
:1054F000C4F2020081422ADC40F21040C4F20200F1
:1055000081423FD040F2284039E09F20C4F202009F
:10551000814225DC7020C4F20200814232D0882012
:105520002DE040F29F40C4F2020081421FDC40F2B5
:105530007040C4F20200814224D040F288401EE054
:105540004020C4F2020081421CD0582017E040F2F3
:105550004040C4F20200814214D040F258400EE0B4
:10556000A020C4F2020081420CD0B82007E040F233
:10557000B840C4F20200814204D040F2A040C4F21C
:1055800002008142086820F001000860002080BD10
:105590000A6822F00E020A6045F25742C5F602027E
:1055A00091420A6822F001020A600EDC45F22F42A5
:1055B000C5F60202914217DC45F20842C5F6020226
:1055C000914226D045F21C421FE045F27F42C5F6CB
:1055D0000202914211DC45F25842C5F602029142A4
:1055E00017D045F26C4210E045F23042C5F6020297
:1055F00091420ED045F2444207E045F29442C5F68E
:105600000202914205D045F28042C5F60202914263
:105610001AD1D0E9181CD0E916E30A6822F4807286
:105620000A6003F01F01012202FA01F1CEF8041012
:10563000816ECCF80410C16E31B10A6822F4807218
:105640000A60D0E91C124A60012180F83510016D12
:105650000022002980F8342098D08847002080BD9F
:10566000406D70470000000090F835007047000062
:105670002DE9F04381B00021009140F2FC5148F245
:10568000B513C2F20041C1F64E33856D40F26F4949
:105690000A680168C4F202092E68A2FB0328494582
:1056A0002B6815DC9F22C4F2020291422BDC5722A8
:1056B000C4F2020291424FDC1022C4F20202914273
:1056C00078D02822C4F20202914273D040226CE0CA
:1056D00045F22F42C5F60202914227DC40F2B74262
:1056E000C4F20202914243DC40F27042C4F2020270
:1056F00091425FD040F28842C4F20202914259D0F6
:1057000040F2A04251E040F22742C4F2020291422C
:105710003DDCA022C4F2020291424BD0B822C4F276
:105720000202914246D040F210423EE045F26B4206
:10573000C5F60202914275DC45F23042C5F602021E
:10574000914200F0828045F24442C5F60202914245
:105750007BD045F2584273E05822C4F202029142D3
:1057600028D07022C4F20202914223D088221CE089
:1057700040F2B842C4F2020291421BD045F2084204
:10578000C5F60202914260D045F21C4258E040F258
:105790002842C4F2020291420CD040F24042C4F2CC
:1057A0000202914206D040F25842C4F202029142F3
:1057B00040F02D84C26D082302F01F029340334253
:1057C00000F0168140F20F44C4F20204A1424FF0EF
:1057D000040413DC6F27C4F20207B94200F391807E
:1057E0003F27C4F20207B94200F3D2801027C4F267
:1057F0000207B94200F0F0802827E8E0494500F3AD
:105800008C8040F23F47C4F20207B94200F3C780E0
:1058100040F21047C4F20207B94200F0DD8040F2C6
:105820002847D4E045F26C42C5F6020291420CD002
:1058300045F28042C5F60202914206D045F29442FA
:10584000C5F60202914240F0E2830E68C26D02F09A
:105850001F02042707FA02F41C4218BF16F00407BF
:105860002CD1022707FA02F41C4218BF16F00207D7
:1058700062D1D3401B0740F1CA8316F0080300F041
:10588000C68340F20F43C4F2020399426FF01C0337
:1058900000F318836F27C4F20207B94200F3548360
:1058A0003F27C4F20207B94200F3B4831027C4F2C1
:1058B0000207B94200F0D3832827CAE332046C60A0
:1058C0005ED4B20600F1A18340F20F42C4F202029C
:1058D00091426FF0080200F3E3826F23C4F20203E7
:1058E000994200F302833F23C4F20203994200F37A
:1058F00047831023C4F20203994200F083832823D4
:105900007AE39F27C4F20207B94251DC7027C4F240
:105910000207B94260D0882759E040F29F47C4F29D
:105920000207B9424BDC40F27047C4F20207B942A9
:1059300052D040F288474AE032046C6000F19C8209
:10594000B20600F1CF8340F20F42C4F2020291424C
:105950006FF0140200F3D6826F23C4F2020399425F
:1059600000F315833F23C4F20203994200F38C83B2
:105970001023C4F20203994200F0AB832823A2E370
:10598000F10300F14283816C002940F079833EE30A
:105990004027C4F20207B9421ED0582717E040F250
:1059A0004047C4F20207B94216D040F258470EE011
:1059B000A027C4F20207B9420ED0B82707E040F290
:1059C000A047C4F20207B94206D040F2B847C4F279
:1059D0000207B94218BF08240F68274208D00F6891
:1059E00027F004070F60AB60436D43F0010343658C
:1059F0000123934033426FD040F20F47C4F20207B5
:105A0000B94210DC6F27C4F20207B9421CDC3F2701
:105A1000C4F20207B94232DC1027C4F20207B942CD
:105A200051D028274AE049451ADC40F23F47C4F2EA
:105A30000207B9422ADC40F21047C4F20207B94219
:105A400041D040F2284739E09F27C4F20207B9420B
:105A500025DC7027C4F20207B94234D088272DE034
:105A600040F29F47C4F20207B9421FDC40F2704780
:105A7000C4F20207B94226D040F288471EE0402710
:105A8000C4F20207B9421ED0582717E040F240473F
:105A9000C4F20207B94216D040F258470EE0A027E0
:105AA000C4F20207B9420ED0B82707E040F2B84767
:105AB000C4F20207B94206D040F2A047C4F202077E
:105AC000B94240F0E1814F6907F0800424B1AB6036
:105AD000436D43F0020343650423934033426FD088
